:100000000C94EE000C94A20D0C94C90D0C941601E6
:100010000C9416010C9416010C9416010C94160104
:100020000C9416010C9416010C9416010C941601F4
:100030000C9416010C9416010C9416010C941601E4
:100040000C94450C0C9416010C9475140C94A71484
:100050000C9416010C9416010C9416010C941601C4
:100060000C9416010C9416014610C60FCA0FCE0F41
:10007000D20FD60FD90FDC0FE00FE30FE70FEA0F17
:10008000EE0FF10F4A100010041064100810291030
:100090000C10311034100F103B10131016101910E3
:1000A0004E1029102D103110341037103B103F1016
:1000B00043100000000800020100000304070000D4
:1000C000000000000000010204081020408001022E
:1000D000040810200102040810200404040404048D
:1000E00004040202020202020303030303030000EA
:1000F0000000230026002900000000002500280041
:100100002B0000000000240027002A0052657475AF
:10011000726E696E6720746F2050726576696F75B4
:1001200073204D6F6465204661696C7572652E2E73
:100130002E006053657474696E67204944204D6FCA
:100140006465204661696C7572652E2E2E005365BC
:100150007474696E672042617564726174652053BE
:1001600075636365737366756C2100536574746998
:100170006E67204261756472617465204661696CC6
:100180007572652E2E2E00456E746572696E67203D
:10019000436F6E66696775726174696F6E204D6F2B
:1001A0006465205375636365737366756C210045E0
:1001B0006E746572696E6720436F6E6669677572EB
:1001C0006174696F6E204D6F6465204661696C755E
:1001D00072652E2E2E007E0B9C0DCD1411241FBE99
:1001E000CFEFD8E0DEBFCDBF12E0A0E0B1E0ECE899
:1001F000FFE202C005900D92A43EB107D9F725E0B9
:10020000A4EEB2E001C01D92A53BB207E1F710E0F9
:10021000CEEED0E004C02197FE010E94BE17CB3E77
:10022000D107C9F70E948D0D0C9463160C94000041
:10023000E2E10E94BD010895E9E00E94BD01089538
:10024000EAE00E94BD010895E1E00E94BD01089529
:10025000E3E00E94BD010895E7E00E94BD0108951A
:10026000E5E00E94BD010895E0E00E94BD0108950F
:10027000E2E00E94BD010895E4E00E94BD010895FE
:10028000ECE00E94BD010895E8E00E94BD010895E0
:10029000EEE00E94BD010895E4E10E94BD010895D1
:1002A000E0E10E94BD010895E7E10E94BD010895CB
:1002B000E6E00E94BD010895EBE00E94BD010895B3
:1002C000EDE00E94BD010895EFE00E94BD01089598
:1002D000E1E10E94BD010895E3E10E94BD0108959E
:1002E000E5E10E94BD010895E6E10E94BD01089587
:1002F00021968A929A92AA92BA92CA92DA92EA9233
:10030000FA920A931A932197E0917D01F0917E0170
:100310000080F181E02DC083D1830895C0917F01D9
:10032000D0918001E881F981C081D1812196199114
:100330000991F990E990D990C990B990A9909990B4
:100340008990219708952F903F90E7E6F1E0CDB78F
:10035000DEB7EDBFFEBF3F922F9208952F903F90E2
:10036000CDBFDEBF3F922F920895E0E80E94BD010D
:100370000895E0E40E94BD0108952F923F924F92AC
:100380005F926F927F922FB62F92CF93DF937E2E44
:10039000F894E0910001EF5FE0930001E13011F487
:1003A0000E94A301E0E0E0938D01E72DE07849F0A1
:1003B0000E941106F0918E01F17071F00E94C40448
:1003C0000BC0E72DEC3140F4EE0FF0E0EE56FD4FA0
:1003D0000190F081E02D0995F0918D01EF2FE170F2
:1003E00059F0F27011F00E9478018F938F2F0E94C4
:1003F0000C048F910E948E012091000121502093C6
:100400000001222311F40E94AE01DF91CF912F90C1
:100410002FBE7F906F905F904F903F902F900895E8
:10042000CF92DF92EF92FF920F931F93DC01EC913A
:10043000DB012C918E2F8170C82ED12CE12CF12C58
:100440008E2F8F7090E0A0E0B0E0B695A7959795BD
:100450008795DC01A35EBC4F8C91C81AD108E108D6
:10046000F108EE70422F417050E060E070E0822FA2
:100470008F7090E0A0E0B0E0B695A795979587952E
:10048000DC01A35EBC4F8C91481B510961097109C5
:10049000822F8E7097018601017011272227332742
:1004A0000E2B4170552766277727482B81E090E077
:1004B000041715072607370710F080E090E01F911A
:1004C0000F91FF90EF90DF90CF9008958F929F92C1
:1004D000AF92BF92EF92FF920F931F93CF93DF9350
:1004E0007C014A015B01B694A794979487944230AB
:1004F000510561057105E0F0440F551F8701040F98
:10050000151FE401CC0FDD1FCE0DDF1DB801CE019C
:100510000E941002892B61F0F8019081818128816D
:1005200039813183208398838983B501A401DBCF8E
:10053000DF91CF911F910F91FF90EF90BF90AF90FF
:100540009F908F9008954F925F926F927F928F92BB
:100550009F92AF92BF92CF92DF92EF92FF920F9352
:100560001F93CF93DF9300D000D000D0CDB7DEB77C
:100570008C016A017B01DC018C91282F30E040E086
:1005800050E029833A834B835C8346015701880CF2
:10059000991CAA1CBB1C29813A814B815C812815BE
:1005A00039054A055B0508F442C0240135013FEFD7
:1005B000431A530A630A730A89819A81AB81BC8109
:1005C00084159505A605B70580F0B201660F771F63
:1005D000600F711FC401880F991F800F911F0E9427
:1005E0001002892B11F0530142013401660C771C73
:1005F000600E711ECC0CDD1CD801AC0DBD1DBE8380
:10060000AD83B301CD010E941002892B81F0ED81F1
:10061000FE8190818181D3012D913C91119731838D
:1006200020839C9311968C9375016401AECF26961E
:100630000FB6F894DEBF0FBECDBFDF91CF911F91F3
:100640000F91FF90EF90DF90CF90BF90AF909F9071
:100650008F907F906F905F904F900895E9E5F4E060
:1006600040814F5F408350E060E070E0E82FEE0F84
:10067000FF0BE75BFD4F0190F081E02D238530E01B
:10068000F901E35EFC4F908191509083FA01EE0FE7
:10069000FF1FE75AFB4F220F331F9170292B208336
:1006A000818389E594E00C946602E9E5F4E04081F9
:1006B0004F5F408350E060E070E0E82FEE0FFF0BEB
:1006C000EF5BFD4F0190F081E02D9381FA01EE0F79
:1006D000FF1FE75AFB4F9083818389E594E00C94D8
:1006E0006602CF93DF93E9E5F4E080819FEF980FF6
:1006F0009083D281C38190E0880F991FDC01A75AB3
:10070000BB4F8D919C919383828341E050E060E0E8
:1007100070E0CF010E94A3028D2F9C2FDF91CF911B
:1007200008958091850190918601A0918701B091F3
:1007300088018F3F2FEF9207A207B20731F003978E
:10074000A105B10524F481E0089580E0089582E0D8
:100750000895880F990BFC01E75BFD4F0190F08134
:10076000E02D0084F185E02D3097E9F02281211100
:100770001AC021E02283DC01AF5BBD4F0D90BC911C
:10078000A02D13968C9113978183808190E0FC01BA
:10079000E35EFC4F208121502083880F991F217038
:1007A000822B13968C930895880F990BFC01E75BBD
:1007B000FD4F0190F081E02D0084F185E02D309710
:1007C00061F02281213049F412822181FC01EF5B2A
:1007D000FD4F0190F081E02D2383089580918901E0
:1007E00090918A01A0918B01B0918C01409185017B
:1007F00050918601609187017091880148175907CF
:100800006A077B0741F0E0918301F091840121E0C8
:1008100024830C9455030895CF93DF93882391F09C
:10082000C0917D01D0917E01E0918101F091820122
:100830008481833049F081E08483809185010E9426
:10084000550302C0C0E0D0E0E0918301F091840143
:10085000F0938201E093810180917F01909180016A
:1008600090937E0180937D018091890130918A016E
:1008700020918B0190918C018093850130938601AA
:10088000209387019093880192E094830E94A903AA
:10089000CE01DF91CF910895809185010E94D4030C
:1008A000E0918101F09182018281882319F085E035
:1008B0008483089514820895CF93DF93282F220F05
:1008C000330BF901EF5BFD4FC081D1819A81F901B2
:1008D000E75BFD4F0190F081E02D2485921770F4C5
:1008E000911105C095E09C8391E090938E010E9448
:1008F0002E038A818F5F8A8380E001C084E0DF91CC
:10090000CF910895E82FEE0FFF0BEF5BFD4F0190A5
:10091000F081E02D118210820C94470D1F93CF932C
:10092000DF930E947103182F892F492F092E000C85
:10093000550B660B770B4093890150938A016093A6
:100940008B0170938C01292F220F330BF901EF5B80
:10095000FD4FC081D181D0938401C0938301F901FF
:10096000E75BFD4F208131813093800120937F012F
:100970009C81953019F40E9482041B8310928E0191
:10098000DF91CF911F910895E0918901F0918A0143
:10099000EE0FFF1FEF5BFD4F0190F081E02D909176
:1009A0005B048381891730F40E94EE030E948E0459
:1009B00083E001C080E080938D01089581E0809301
:1009C0008D010C948E04EF92FF920F931F93CF939F
:1009D000DF93C1E001C0CC0F8A95EAF783E00E9463
:1009E0005C040EE812E0D0E0F80181918F018C23C5
:1009F00019F08D2F0E945C04DF5FD330A9F70BE85C
:100A000012E080E2E82E82E0F82ED1E0F801819138
:100A10008F018C2339F0F70180819181FC01D68709
:100A20000E944A05F2E0EF0EF11C82E00E38180732
:100A300069F7DF91CF911F910F91FF90EF9008958B
:100A40000E94F80681110E941907E0918101F0913E
:100A5000820180819181892B21F0809185010E9402
:100A6000E0080C9441080E94F80681110E941907C1
:100A7000E0918101F091820180819181892B21F0A7
:100A8000809185010E94E0080C94290881E0809300
:100A9000E4020895AF92BF92CF92DF92EF92FF925D
:100AA0000F931F93CF93DF93FC01A081B181AD9091
:100AB000BC90E501AC89BD89109739F0428553851A
:100AC0006485758530E020E017C0D50155969C936C
:100AD0008E93549757969C938E93569715821482B3
:100AE000138212825BC012968D919C9113973A2FBC
:100AF0002B2F009779F0DC011A96CD90DD90ED90C8
:100B0000FC901D974C155D056E057F0560F7CD01C6
:100B1000A32FB22F93838283B583A483009719F008
:100B2000EC01FD83EC83109729F01396FC93EE9370
:100B3000129705C0D5015596FC93EE935497E501A5
:100B4000AE89BF891A968D919D910D90BC91A02D73
:100B5000088919892A893B8980179107A207B30759
:100B600080F4041715072607370728F04817590798
:100B70006A077B0798F4D5015796FC93EE93569736
:100B80000DC0041715072607370740F44817590703
:100B90006A077B0718F4E501FF8BEE8BDF91CF919D
:100BA0001F910F91FF90EF90DF90CF90BF90AF908B
:100BB0000895CF93DF93DC01ED91FC9111970190A3
:100BC000F081E02D848995891296CD91DC9113975F
:100BD000A817B90711F4D58BC48B86899789A817F4
:100BE000B90711F4D78BC68B209731F014968D91ED
:100BF0009C9115979D838C8314960D90BC91A02D8C
:100C0000109721F01396DC93CE93129786899789DB
:100C1000892B21F484899589978B868BDF91CF91DD
:100C20000895EF92FF920F931F93CF93DF93FC01F0
:100C30008091E402882309F4B5C084859585A68552
:100C4000B7850196A11DB11D84879587A687B787B3
:100C5000408151816281738184179507A607B70788
:100C600009F0A0C040895189628973894F5F5F4F45
:100C70006F4F7F4F84819581A681B7818417950737
:100C8000A607B70718F440E050E0BA01408B518B3B
:100C9000628B738B1486158616861786C689D7894C
:100CA000209709F47FC08A859B85AC85BD85481750
:100CB00059076A077B0709F075C0CE01DC0112965F
:100CC000ED90FC901397E114F10471F0D7011A969E
:100CD0000D911D912D913C911D9740175107620771
:100CE000730711F4C701EACF2C813D81211531052D
:100CF00029F0D9011396FC92EE921297E114F104B7
:100D000029F0D70115963C932E93149724893589A1
:100D1000C217D30711F4F58AE48AE114F10419F03B
:100D2000F78AE68A04C024893589378B268B8F01A0
:100D3000FC0113821282EA80FB80E881F981028043
:100D4000F381E02DCE0109954E815F81688579851B
:100D5000411551056105710509F18A859B85AC85B1
:100D6000BD85840F951FA61FB71FF80144815581CB
:100D700066817781481759076A077B0738F4841B17
:100D8000950BA60BB70B0197A109B1098A879B8721
:100D9000AC87BD87CE010E944A0501C01E86E701CF
:100DA000209749F6DF91CF911F910F91FF90EF901F
:100DB0000895FC0182810C945C040E94F8068091E5
:100DC00068010895809368010E94E3040E9446052B
:100DD0000C94DE040C94460DCF93C82F0E9491030F
:100DE000811102C00E94830D8C2FCF910C941C01A5
:100DF0008091F1028130D9F08091E9029091EA026C
:100E0000A091EB02B091EC02892B8A2B8B2B79F409
:100E100081E04091ED025091EE026091EF027091FD
:100E2000F002452B462B472B19F480E0089581E012
:100E300008951092F1021092ED021092EE021092BB
:100E4000EF021092F0021092E9021092EA02109260
:100E5000EB021092EC028091E5029091E602A091E3
:100E6000E702B091E8028093F2029093F302A0931C
:100E7000F402B093F50208950E94860D8091F2026B
:100E80009091F302A091F402B091F5020196A11D98
:100E9000B11D8093F2029093F302A093F402B093F9
:100EA000F5028091ED029091EE02A091EF02B091D7
:100EB000F0020196A11DB11D8093ED029093EE0208
:100EC000A093EF02B093F00208958091ED0290910B
:100ED000EE02A091EF02B091F0020097A105B105DA
:100EE00069F14091F2025091F3026091F402709125
:100EF000F50241505109610971094093F202509382
:100F0000F3026093F4027093F5020197A109B1090D
:100F10008093ED029093EE02A093EF02B093F00263
:100F20008091F2029091F302A091F402B091F50247
:100F3000892B8A2B8B2B11F40C94840D08958091AE
:100F4000ED029091EE02A091EF02B091F002892B98
:100F50008A2B8B2B89F48091E9029091EA02A0916F
:100F6000EB02B091EC02892B8A2B8B2B29F40E9487
:100F7000860D81E08093F10208958091F10288232B
:100F800021F01092F1020C94840D08950E948A0DB4
:100F90008091F2029091F302A091F402B091F502D7
:100FA0000196A11DB11D8093F2029093F302A093CC
:100FB000F402B093F5028091E9029091EA02A091C7
:100FC000EB02B091EC020196A11DB11D8093E902E4
:100FD0009093EA02A093EB02B093EC020895809103
:100FE000E9029091EA02A091EB02B091EC02009725
:100FF000A105B10569F14091F2025091F3026091AF
:10100000F4027091F5024150510961097109409350
:10101000F2025093F3026093F4027093F502019789
:10102000A109B1098093E9029093EA02A093EB022F
:10103000B093EC028091F2029091F302A091F4023D
:10104000B091F502892B8A2B8B2B11F40C94880D0F
:1010500008950E94F806882311F083E1089580E046
:101060000895CF93C82F0E94F8068C2F0E945C042D
:10107000C82F80918E0181110E94C4048C2FCF91C2
:101080000895CF930E94F806882311F0C3E101C0B0
:10109000C0E0E0918101F0918201828181508283E0
:1010A0000E944C0481E080938D010E948E048C2F5D
:1010B000CF910895CF93C82F0E94F806E091810147
:1010C000F09182018281815082838C2F0E945C0486
:1010D000C82F811108C00E944C0481E080938D01CB
:1010E0000E948E0407C0E0918101F091820182810B
:1010F0008F5F82838C2FCF910895CF930E94F80643
:10110000882311F0C3E101C0C0E0809185010E94F5
:10111000D4030E94C4048091850190918601A0911E
:101120008701B09188014091890150918A016091B5
:101130008B0170918C0184179507A607B70711F4EE
:101140000E94A9038C2FCF910895CF93DF93EC01D8
:101150000E94F806882311F083E101C080E04091ED
:10116000850150918601609187017091880143301B
:1011700051056105710514F4488303C09091EF0196
:101180009883DF91CF9108950F931F93CF93C82F2A
:101190008B010E94F806882311F083E101C080E0F2
:1011A000EC2FEE0FFF0BEF5BFD4F0190F081E02D78
:1011B00094819370F8019083CF911F910F910895BE
:1011C000880F990BFC01EF5BFD4FA081B181ED9180
:1011D000FC911197309769F01D921C922091EF01BC
:1011E00093818481228314821382E92FF82F309710
:1011F000B9F70895CF93C82F0E94F806882311F0FD
:1012000083E101C080E0EC2FF0E0EE0FFF1FE75715
:10121000FD4FA081B1819091850112969C93129708
:10122000E0918101F09182012081318114963C93FB
:101230002E931397B183A083938111969C9311975A
:101240002C9193819695921760F430E0D901A35EBA
:10125000BC4F9C9191509C93220F331F9170292B6E
:101260002383CF910895CF93DF93C82F0E94F80670
:10127000882311F0D3E101C0D0E0EC2FF0E0EE0FB5
:10128000FF1FE757FD4F0190F081E02DA0918101F4
:10129000B0918201818113968C93139783819481FD
:1012A0008D939C93148213828091EF0182830E941C
:1012B000C4048D2FDF91CF910895DC01ED91FC9155
:1012C00084819581DC01ED91FC9109941F93CF936A
:1012D000DF93182FEB010E94F806882311F083E1B9
:1012E00001C080E0E12FF0E0EE0FFF1FE05EFD4F58
:1012F0000190F081E02D0190F081E02D0190F081CE
:10130000E02D40815181628173814C835D836E83C6
:101310007F834481558166817781488359836A83BD
:101320007B834085518562857385488759876A87A5
:101330007B87DF91CF911F9108958F929F92AF92FB
:10134000BF92CF92DF92EF92FF920F931F93CF93B2
:10135000C82F8B010E94F806882311F083E101C099
:1013600080E0EC2FF0E0EE0FFF1FE05EFD4F0190FC
:10137000F081E02D9685913029F54285538564856D
:1013800075850190F081E02D0190F081E02DC088FD
:10139000D188E288F3884C155D056E057F0540F421
:1013A00084809580A680B780480D591D6A1D7B1DDD
:1013B0004C195D096E097F09F801408351836283EE
:1013C000738301C085E0CF911F910F91FF90EF9043
:1013D000DF90CF90BF90AF909F908F9008958F92A5
:1013E0009F92AF92BF92CF92DF92EF92FF920F93B4
:1013F0001F93CF93DF93D82F4A015B0168017901D6
:101400000E94F806882311F0C3E101C0C0E0ED2F6F
:10141000F0E0EE0FFF1FE05EFD4F0190F081E02D48
:101420008685811130C0A081B1810D90BC91A02D25
:1014300050964D915D916D917C915397480D591D3A
:101440006A1D7B1D14968D919D910D90BC91A02DD0
:1014500084179507A607B70740F4481B590B6A0B7A
:101460007B0B415051096109710942875387648799
:101470007587C682D782E086F18681E08687CF01B4
:101480000E944A0501C0C7E08C2FDF91CF911F91C8
:101490000F91FF90EF90DF90CF90BF90AF909F9013
:1014A0008F9008958F929F92AF92BF92CF92DF92CA
:1014B000EF92FF920F931F93CF93DF93C82F4A01B0
:1014C0005B01680179010E94F806882311F0D3E1DD
:1014D00001C0D0E0EC2FF0E0EE0FFF1FE05EFD4F0B
:1014E0000190F081E02D868581110EC08286938661
:1014F000A486B586C682D782E086F18681E086879B
:10150000CF010E944A0501C0D7E08D2FDF91CF9116
:101510001F910F91FF90EF90DF90CF90BF90AF9011
:101520009F908F9008950F931F93CF93DF93C82FB1
:101530000E94F806882311F0D3E101C0D0E0EC2F1F
:10154000F0E0EE0FFF1FE05EFD4F00811181F8011A
:101550008685813031F4C8010E94D905F8011686CC
:1015600001C0D5E08D2FDF91CF911F910F9108958C
:1015700026E040E052EC61E070E081E393E00E94FD
:10158000C81522E04DE063E086EF92E00E94DF1292
:10159000882339F068EC70E080E090E00E94CE0C87
:1015A000F0CF60E086EF92E00E94A40F60E082E05E
:1015B0000C94B10BEF92FF920F9326E636E646E6C7
:1015C00050E46091790170917A0180917B01909152
:1015D0007C010E9466160E94D81660936A0189E613
:1015E000E82E81E0F82E08E021E042E050E060E3E0
:1015F0007CEE86EF92E00E946313811106C060EFDB
:1016000071E081E393E00E9463140F91FF90EF90EB
:101610000C944401EF92FF920F9380910F038093FB
:10162000720181E7E82E81E0F82E08E021E041E038
:1016300050E060E37CEE86EF92E00E94631381113C
:1016400006C06AE072E081E393E00E9463140F91A8
:10165000FF90EF900C944401CF92DF92EF92FF92B3
:1016600082E00E941C0C892B09F042C021E133E08A
:1016700040E153E069E173E086EF92E00E949E133F
:10168000C0901903D0901A03E0901B03F0901C0344
:10169000D701C60187709927A071BC7E0797A0412A
:1016A000BC4E79F46091120370E080E090E00E94FB
:1016B0000E1760930A0370930B0380930C039093AF
:1016C0000D0382E0C822DD2480ECE8228CEAF822B7
:1016D00022E0C216D10420ECE2062CEAF20641F424
:1016E00081E090911203911101C080E080930E037C
:1016F000FF90EF90DF90CF900C9444016AE086EF6A
:1017000092E00C94CC128BEC91E00C94B50108950E
:10171000833081F028F4813099F08230A1F008956F
:101720008730A9F08830B9F08430D1F480918000FE
:101730008F7D03C0809180008F7780938000089513
:1017400084B58F7702C084B58F7D84BD0895809164
:10175000B0008F7703C08091B0008F7D8093B00080
:101760000895CF93DF9390E0FC01EA53FF4F24915B
:10177000FC01E652FF4F8491882361F190E0880FCD
:10178000991FFC01EE5FFE4FC591D491FC01E8501A
:10179000FF4FA591B491611109C09FB7F89488815A
:1017A000209582238883EC912E230BC0623061F454
:1017B0009FB7F8948881322F309583238883EC91EA
:1017C0002E2B2C939FBF06C08FB7F894E8812E2B49
:1017D00028838FBFDF91CF9108951F93CF93DF931D
:1017E000282F30E0F901EE54FF4F8491F901EA53BC
:1017F000FF4FD491F901E652FF4FC491CC23C1F0C1
:10180000162F81110E94880BEC2FF0E0EE0FFF1FC6
:10181000E850FF4FA591B4919FB7F894111104C0FF
:101820008C91D095D82302C0EC91DE2BDC939FBF26
:10183000DF91CF911F910895CF93DF93282F30E050
:10184000F901EE54FF4F8491F901EA53FF4FD4910F
:10185000F901E652FF4FC491CC2391F081110E940F
:10186000880BEC2FF0E0EE0FFF1FE251FF4FA59128
:10187000B491EC91ED2381E090E021F480E002C08E
:1018800080E090E0DF91CF9108951F920F920FB604
:101890000F9211242F933F934F935F936F937F93F6
:1018A0008F939F93AF93BF93EF93FF938091280300
:1018B00090912903A0912A03B0912B033091270323
:1018C00023E0230F2D3720F40196A11DB11D05C083
:1018D00026E8230F0296A11DB11D209327038093B4
:1018E000280390932903A0932A03B0932B0380919C
:1018F0002C0390912D03A0912E03B0912F030196FC
:10190000A11DB11D80932C0390932D03A0932E0352
:10191000B0932F030E94830BFF91EF91BF91AF9182
:101920009F918F917F916F915F914F913F912F91F7
:101930000F900FBE0F901F9018952FB7F8946091DD
:1019400028037091290380912A0390912B032FBFC4
:1019500008953FB7F89480912C0390912D03A091A6
:101960002E03B0912F0326B5A89B05C02F3F19F079
:101970000196A11DB11D3FBFBA2FA92F982F88270F
:10198000820F911DA11DB11DBC01CD0142E0660F6A
:10199000771F881F991F4A95D1F708958F929F92BC
:1019A000AF92BF92CF92DF92EF92FF926B017C01D8
:1019B0000E94A90C4B015C01C114D104E104F104A3
:1019C00001F10E94440D0E94A90CDC01CB01881991
:1019D0009909AA09BB09883E9340A105B10560F3A6
:1019E00021E0C21AD108E108F10888EE880E83E0F0
:1019F000981EA11CB11CC114D104E104F10419F713
:101A0000DBCFFF90EF90DF90CF90BF90AF909F9093
:101A10008F90089584B5826084BD84B5816084BD53
:101A200085B5826085BD85B5816085BDEEE6F0E057
:101A3000808181608083E1E8F0E0108280818260B3
:101A40008083808181608083E0E8F0E08081816034
:101A50008083E1EBF0E0808184608083E0EBF0E064
:101A6000808181608083EAE7F0E080818460808308
:101A700080818260808380818160808380818068B2
:101A800080831092C10008950895FFCFFFCFCF93B8
:101A9000DF93880F990BFC01E75BFD4FC081D1817B
:101AA000AC81BD8111978A819B81A80FB91F2D85BB
:101AB000CD010197FD013297223019F42CE331E07A
:101AC00002C028E531E02C93DC013C939E818F819C
:101AD0009083DF018E93CF0107971E928A179B0791
:101AE000E1F780E8DF0118978C93CF0144971E92AD
:101AF0008A179B07E1F7A881B9817597ED93FC934D
:101B0000DF91CF910895089578940895F8940895F9
:101B100078940895F894089508950E940A0D0E94FB
:101B20008C0D0E94870B0E94B80A809130030E949E
:101B3000EC0680E090E0089580919102809330035C
:101B4000089508951F920F920FB60F9211242F93AC
:101B50003F934F935F936F937F938F939F93AF9335
:101B6000BF93EF93FF93E091E801F091E9010995AC
:101B7000FF91EF91BF91AF919F918F917F916F9165
:101B80005F914F913F912F910F900FBE0F901F903B
:101B900018951F920F920FB60F9211242F933F9317
:101BA0004F935F936F937F938F939F93AF93BF9365
:101BB000EF93FF93E091EA01F091EB010995FF911A
:101BC000EF91BF91AF919F918F917F916F915F91B5
:101BD0004F913F912F910F900FBE0F901F9018952E
:101BE0002091D003222399F04FB7F8942091D0038D
:101BF000213059F42DB32093CE033DB32091CF0370
:101C0000209523232DBB4FBF02C04093CE038CBD34
:101C10009DBD08958EBD00000DB407FEFDCF8EB5AD
:101C200008958091D003882361F09FB7F8942091A4
:101C3000D0038091CE03213019F48DBB9FBF08954E
:101C40008FBF0895CF93DF93EC0180E591E00E9470
:101C5000F00D60E08A890E94ED0B80EC0E940A0E74
:101C600061E08A890E94ED0B0E94110E65E070E030
:101C700080E090E0DF91CF910C94CE0C1F93CF9336
:101C8000DF93EC01162F80E591E00E94F00D60E0FB
:101C90008A890E94ED0B83E00E940A0E812F0E9428
:101CA0000A0E80E00E940A0E182F61E08A890E94C5
:101CB000ED0B0E94110E812FDF91CF911F9108959E
:101CC000DF92EF92FF920F931F93CF93DF938C01DC
:101CD000C62FD42EE52EF22E80E591E00E94F00D65
:101CE00060E0F80182890E94ED0B83E00E940A0EF9
:101CF0008C2F0E940A0ECD2DDE2DCE018F0D911D51
:101D00007C01EC16FD0629F080E00E940A0E899302
:101D1000F8CF61E0F80182890E94ED0BDF91CF914D
:101D20001F910F91FF90EF90DF900C94110E0F9385
:101D30001F93CF93DF93EC01062F142F80E591E0E2
:101D40000E94F00D60E08A890E94ED0B82E00E9403
:101D50000A0E802F0E940A0E812F0E940A0E61E057
:101D60008A890E94ED0BDF91CF911F910F910C9406
:101D7000110EDF92EF92FF920F931F93CF93DF9399
:101D80008C01C62FD42EE52EF22E80E591E00E9424
:101D9000F00D60E0F80182890E94ED0B82E00E9464
:101DA0000A0E8C2F0E940A0ECD2DDE2DCE018F0D36
:101DB000911D7C01EC16FD0621F089910E940A0E0E
:101DC000F9CF61E0F80182890E94ED0BDF91CF919C
:101DD0001F910F91FF90EF90DF900C94110EFF92E6
:101DE0000F931F93CF93DF93EC01F62E042F122F46
:101DF00080E591E00E94F00D60E08A890E94ED0B81
:101E000085E00E940A0E8F2D0E940A0E802F0E94EC
:101E10000A0E812F0E940A0E61E08A890E94ED0B52
:101E2000DF91CF911F910F91FF900C94110E1F9392
:101E3000CF93DF93EC0180E591E00E94F00D60E02C
:101E40008A890E94ED0B80EA0E940A0E80E00E94BF
:101E50000A0E182F61E08A890E94ED0B0E94110E74
:101E6000812FDF91CF911F910895EF92FF920F93F1
:101E70001F93CF93DF93EC01162F0E949D0C062F2A
:101E8000E12EF12C212F40EE6FE0CE010E94EF0EEB
:101E90006EE0CE010E943E0E807E90E08E159F0582
:101EA00039F00E949D0C601B693C60F381E001C029
:101EB00080E0DF91CF911F910F91FF90EF900895F7
:101EC0000F931F93CF93DF93EC01162F6EE00E94C8
:101ED0003E0E807E803221F5103211F16BE2CE0190
:101EE0000E943E0E082F007486FD06C020E440E4E8
:101EF0006BE2CE010E94EF0E20E440E46CE2CE01E2
:101F00000E94EF0E60E6CE010E94350F811116C0CF
:101F1000011106C020E040E46BE2CE010E94EF0E0A
:101F200020E040E46CE2CE010E94EF0E612FCE0172
:101F3000DF91CF911F910F910C94350F81E0DF91CC
:101F4000CF911F910F910895FC01638B0C94600F4A
:101F5000CF92DF92EF92FF920F931F93CF93DF9375
:101F6000342F3370313009F43FC008F466C032308A
:101F700009F0AAC0062F10E0F8013197EE30F10504
:101F800008F0A2C0EC5CFF4F0C94BE17C4E8D6EF7B
:101F900023E987C0C4E8D6EF29E883C0C3E8D5EEBB
:101FA00027E87FC0C4E8D6EF25E87BC0C4E8D6EFB9
:101FB00005C0C3E8D5EE02C0C1E8D3ED24E871C086
:101FC000C4E8D6EF02C0C3E8D5EE21E86AC0C4E891
:101FD000D6EF02C0C3E8D5EE20E863C0C1E8D1ED7A
:101FE0002AC0C0E8D0EC27C0C62ED12CF60131970C
:101FF000EE30F10508F068C0EE5BFF4F0C94BE17A1
:10200000C4E8D6EF27E64DC0C4E8D6EF23E549C0C3
:10201000C3E8D5EE2EE445C0C4E8D6EF42C0C3E81D
:10202000D5EE23E43EC0C3E8D5EE27C0C3E8D5EE25
:1020300028C0C1E8DAEC20E034C0062F10E0F80137
:102040003697E930F10508F03FC0E05BFF4F0C9494
:10205000BE17C4E8D6EF29E424C0C7E8DFEF24ECBC
:1020600020C0C4E8D6EF05C0C3E8D5EE02C0C1E881
:10207000D3ED24E416C0C4E8D6EF21E412C0C4E8CE
:10208000D6EF20E40EC0C2E8D9EDD5CFC4E8D6EF34
:1020900027EA07C0C7E8DFEF2FE303C0C1E8D3EDAD
:1020A00028E142FDCF778C01422F6AE20E94970E11
:1020B0004D2F69E2C8010E94970E4C2F68E2C801BB
:1020C0000E94970E80E001C081E0DF91CF911F91C7
:1020D0000F91FF90EF90DF90CF9008950F931F9393
:1020E000CF93DF9300D000D0CDB7DEB74130B1F44D
:1020F0000C831B83890122273327502F5C71402FCB
:10210000437078E0579F400D112448604A8355E0A2
:10211000169507955A95E1F709830DC0A80123E0AC
:10212000569547952A95E1F749830295000F007E61
:102130000A831C821B8224E0AE014F5F5F4F0E9426
:10214000B90E0F900F900F900F90DF91CF911F91CC
:102150000F9108950F931F93CF93DF9300D000D07A
:10216000CDB7DEB7E62FF42FA901662777270C83BA
:102170001B83F13081F4342F3C71242F2370F8E05D
:102180003F9F200D112428602A8335E056954795FE
:102190003A95E1F70AC0242F2295220F207E2A8348
:1021A00023E0569547952A95E1F7498324E0AE014F
:1021B0004F5F5F4F6E2F0E94B90E0F900F900F90E0
:1021C0000F90DF91CF911F910F9108950F931F935F
:1021D000CF93DF93EC0100E010E0980141E060E272
:1021E0000E94AA1000E010E0980141E064E2CE01F4
:1021F0000E94AA1000E010E0980141E060E0CE01EA
:102200000E94AA1000E010E0980140E064E0CE01D6
:102210000E94AA1000E010E0980141E068E0CE01C1
:102220000E94AA1000E010E0980140E060E1CE01B9
:102230000E94AA1000E010E0980141E064E1CE01A4
:102240000E94AA1000E010E0980140E068E1CE0191
:102250000E94AA1010E340E0612FCE010E94970E69
:1022600060E1610F40E0CE010E94970E60E2610FD5
:1022700040E0CE010E94970E1F5F1E3361F740E0E1
:1022800060E6CE010E94970E40E060E7CE01DF914C
:10229000CF911F910F910C94970EEF92FF920F9395
:1022A0001F93CF93DF93EC01062FF42EE22E0E94B2
:1022B000220E80E48B8B60E8CE010E94600F182F05
:1022C000882341F06FEA71E081E393E00E945114AA
:1022D000812F5CC067E871E081E393E00E945114B4
:1022E0004E2D6F2DCE010E94A80F882339F06BE68A
:1022F00071E081E393E00E94511447C06EE471E005
:1023000081E393E00E945114CE010E94E61043E065
:102310006BE2CE010E94970E4CE36CE0CE010E946E
:10232000970E40E06DE0CE010E94970E002351F021
:10233000033019F524E644E660E6CE010E94EF0E74
:1023400020E607C024E044E660E6CE010E94EF0EDE
:1023500020E040E660E7CE010E94EF0E6B89CE01DF
:102360000E94600FC82F882381F06CE071E081E348
:1023700093E00E9451148C2F09C062E371E081E365
:1023800093E00E94511481E001C080E0DF91CF9181
:102390001F910F91FF90EF900895EF92FF920F938E
:1023A0001F93CF93DF9300D000D0CDB7DEB77A0173
:1023B0008901FA011082F9011082118212821382BE
:1023C00024E0AE014F5F5F4F0E94600E2A81398189
:1023D000822F90E065E0959587956A95E1F7F8E0A2
:1023E0003F9F800D911D1124092E000CAA0BBB0BE1
:1023F000F80180839183A283B38323FF25C032E059
:10240000880F991FAA1FBB1F3A95D1F72370820F1F
:10241000911DA11DB11DBA2FA92F982F88272B819F
:10242000820F911DA11DB11DBA2FA92F982F8827AA
:102430002C81820F911DA11DB11D80839183A283E8
:10244000B38381E0F70180830F900F900F900F907E
:10245000DF91CF911F910F91FF90EF900895FF9220
:102460000F931F93CF93DF93EC01F62EAC014A5FDD
:102470005F4F65E06F0D2D810E94B90E8E85813012
:1024800019F48D8180648D8364E06F0D4D81CE01E0
:102490000E94970E09811A812B813C8148816F2D02
:1024A000CE010E946E10DF91CF911F910F91FF908E
:1024B00008950F931F93CF93DF93EC01162F9C0188
:1024C0002F5F3F4FAC010E94CD116FEF610FCE0126
:1024D0000E943E0E082F64E0610FCE010E943E0E66
:1024E0008D8303FF03C091E09E8701C01E86282FC5
:1024F0002F702D83AE014A5F5F4F65E0610FCE0103
:10250000DF91CF911F910F910C94600E8F929F924B
:10251000AF92BF92CF92DF92EF92FF921F93CF9331
:10252000DF9300D01F92CDB7DEB74C016B018091D5
:10253000EC019091ED01A091EE0189839A83AB8328
:10254000FB011082CE0101967C015E0194E0A90E90
:10255000B11CF70111917F01612FC4010E943E0E51
:10256000982F987083FD04C01F5FF601108304C08C
:10257000EA14FB0471F792E0892F0F900F900F90EF
:10258000DF91CF911F91FF90EF90DF90CF90BF90A0
:10259000AF909F908F900895CF93DF93EC01862F9B
:1025A0006A8B61E00E94ED0B61E08A890E94B10BA9
:1025B00082ED93E0998B888BDF91CF910895FF9204
:1025C0000F931F93CF93DF93EC01162F042FF22E5E
:1025D0000E942D162F2D402F612FCE010E944D11EC
:1025E00091E0811101C090E0892FDF91CF911F917F
:1025F0000F91FF900895BF92CF92DF92EF92FF92DA
:102600000F931F93CF93DF931F92CDB7DEB78C014B
:102610000E94A90C6B017C01BE016F5F7F4FC80156
:102620000E948612B82E0E94A90CDC01CB018C19E5
:102630009D09AE09BF0922E0B21206C0843C994050
:10264000A105B10548F331C0843C9940A105B1050D
:1026500060F56981C8010E942F126981615028E0EC
:1026600048E0C8010E94EF0E0E94A90C6B017C019A
:1026700069816150C8010E943E0EB82E0E94A90CCB
:10268000DC01CB018C199D09AE09BF09B3FE06C060
:10269000843C9940A105B10558F309C0843C994098
:1026A000A105B10520F480E003C086E001C087E009
:1026B0000F90DF91CF911F910F91FF90EF90DF90DE
:1026C000CF90BF900895EF92FF920F93FC0141834A
:1026D000528363837483168620830583F701DC01AC
:1026E00016969C01225F3F4F41914D93A217B3076D
:1026F000D9F70F91FF90EF900C94FB12CF93DF93DB
:10270000EC010E94170F80FF07C061E6CE010E9416
:10271000591220E041E008C081FF0CC061E7CE0102
:102720000E94591220E042E06CE2CE010E94EF0EBE
:1027300080E001C084E0DF91CF910895CF92DF92D5
:10274000EF92FF920F931F93CF93DF93EC016B01F6
:102750007A0189010E947E13843099F1888188234F
:1027600049F089819A81AB81BC81B06889839A8361
:10277000AB83BC838E85882349F089819A81AB81A4
:10278000BC81B06489839A83AB83BC8389819A813D
:10279000AB81BC81F60180839183A283B3838D8159
:1027A000F7018083DE011696F8018D8190E09F018C
:1027B000201B310B281739071CF48D918193F5CF1D
:1027C00080E0DF91CF911F910F91FF90EF90DF900C
:1027D000CF900895CF92DF92EF92FF920F931F93C5
:1027E000CF93DF936C017A018B01C0E0D0E0CE156E
:1027F000DF0581F0D8016D918D01D601ED91FC913D
:102800000190F081E02DC6010995892B11F02196E8
:10281000EECF7E01C701DF91CF911F910F91FF9005
:10282000EF90DF90CF9008956115710579F0FB016D
:1028300001900020E9F73197AF01461B570BDC01EF
:10284000ED91FC910280F381E02D099480E090E00D
:102850000895EF92FF920F931F93CF93DF938C0114
:102860007B01C0E0D0E0F701EC0FFD1F649166230F
:1028700061F0D801ED91FC910190F081E02DC8014B
:102880000995892B11F02196EECFCE01DF91CF91E2
:102890001F910F91FF90EF90089562EC72E00C94FD
:1028A00014140F931F93CF93DF93EC010E9429140C
:1028B0008C01CE010E944D14800F911FDF91CF91AA
:1028C0001F910F9108950F931F93CF93DF93EC0106
:1028D0000E9414148C01CE010E944D14800F911F90
:1028E000DF91CF911F910F9108951F920F920FB614
:1028F0000F9211242F938F939F93EF93FF93E09167
:102900004103F09142038081E0914703F091480335
:1029100082FD12C0908180914A038F5F8F73209156
:102920004B03821751F0E0914A03F0E0EF5CFC4F5B
:10293000958F80934A0301C08081FF91EF919F9111
:102940008F912F910F900FBE0F901F9018951F928F
:102950000F920FB60F9211242F933F934F935F93D3
:102960006F937F938F939F93AF93BF93EF93FF9357
:1029700081E393E00E943715FF91EF91BF91AF91F2
:102980009F918F917F916F915F914F913F912F9187
:102990000F900FBE0F901F901895E1E3F3E01382A4
:1029A000128288EE93E0A0E0B0E084839583A68352
:1029B000B78385ED92E09183808385EC90E09587E5
:1029C000848784EC90E09787868780EC90E0918BF9
:1029D000808B81EC90E0938B828B82EC90E0958BE6
:1029E000848B86EC90E0978B868B118E128E138EE3
:1029F000148E0895FC01918D228D892F90E0805CCA
:102A00009F4F821B91098F7399270895FC01918D27
:102A1000828D981731F0828DE80FF11D858D90E041
:102A200008958FEF9FEF0895FC01918D828D981787
:102A300061F0828DDF01A80FB11D5D968C91928DA2
:102A40009F5F9F73928F90E008958FEF9FEF08959F
:102A5000FC01538D448D252F30E0842F90E0821BA4
:102A6000930B541710F0CF96089501970895FC0129
:102A7000848DDF01A80FB11DA35ABF4F2C91848D07
:102A800090E001968F739927848FA689B7892C933C
:102A9000A089B1898C91837080648C93938D848D8F
:102AA000981306C00288F389E02D80818F7D808392
:102AB0000895EF92FF920F931F93CF93DF93EC0152
:102AC00081E0888F9B8D8C8D981305C0E889F989EA
:102AD000808185FD26C0F62E0B8D10E00F5F1F4F05
:102AE0000F731127E02E8C8DE8120CC00FB607FC77
:102AF000FACFE889F989808185FFF5CFCE010E9460
:102B00003715F1CF8B8DFE01E80FF11DE35AFF4F12
:102B1000F0829FB7F8940B8FEA89FB8980818062ED
:102B20000AC09FB7F894EE89FF896083E889F98924
:102B300080818370806480839FBF81E090E0DF911B
:102B4000CF911F910F91FF90EF900895CF93DF9356
:102B5000EC01888D8823C9F0EA89FB89808185FD95
:102B600005C0A889B9898C9186FD0FC00FB607FCF6
:102B7000F5CF808185FFF2CFA889B9898C9185FF37
:102B8000EDCFCE010E943715E7CFDF91CF910895A9
:102B9000CF92DF92EF92FF921F93CF93DF93EC01DE
:102BA0006A017B01122FE889F98982E0808341154F
:102BB000514E61057105B1F060E079E08DE390E080
:102BC000A70196010E949C17DA01C9010197A1098A
:102BD000B109B695A795979587959C01211580E138
:102BE0003807A8F0E889F989108260E874E88EE176
:102BF00090E0A70196010E949C17DA01C901019794
:102C0000A109B109B695A795979587959C01EC8583
:102C1000FD853083EE85FF852083188EEC89FD8944
:102C20001083EA89FB89808180618083EA89FB893E
:102C3000808188608083EA89FB89808180688083C5
:102C4000EA89FB8980818F7D8083DF91CF911F91FD
:102C5000FF90EF90DF90CF900895CF93CFB7F89487
:102C60008091D103811127C0E4EEF0E08491E0ED82
:102C7000F0E09491E82FF0E0EE0FFF1FEE5FFE4FC3
:102C8000A591B491EC91E92321F461E08AE00E94DE
:102C9000ED0B61E08AE00E94B10B8CB580618CBDC8
:102CA0008CB580648CBD61E08DE00E94B10B61E069
:102CB0008BE00E94B10B8091D1038F5F8093D10391
:102CC000CFBFCF910895F8940C94C4170E947A1640
:102CD0000C9462170E945B1758F00E94541740F042
:102CE00029F45F3F29F00C944B1751110C9496175F
:102CF0000C9451170E94731768F39923B1F355236D
:102D000091F3951B550BBB27AA27621773078407FE
:102D100038F09F5F5F4F220F331F441FAA1FA9F394
:102D200035D00E2E3AF0E0E832D091505040E69582
:102D3000001CCAF72BD0FE2F29D0660F771F881FE3
:102D4000BB1F261737074807AB07B0E809F0BB0BD6
:102D5000802DBF01FF2793585F4F3AF09E3F5105EA
:102D600078F00C944B170C9496175F3FE4F3983E61
:102D7000D4F3869577956795B795F7959F5FC9F7D3
:102D8000880F911D9695879597F90895E1E0660F54
:102D9000771F881FBB1F621773078407BA0720F0CD
:102DA000621B730B840BBA0BEE1F88F7E095089536
:102DB0000E94DF166894B1110C94961708950E9432
:102DC0007B1788F09F5798F0B92F9927B751B0F02B
:102DD000E1F0660F771F881F991F1AF0BA95C9F79F
:102DE00014C0B13091F00E949517B1E008950C9491
:102DF0009517672F782F8827B85F39F0B93FCCF344
:102E0000869577956795B395D9F73EF4909580951B
:102E1000709561957F4F8F4F9F4F0895E89409C03B
:102E200097FB3EF490958095709561957F4F8F4FFD
:102E30009F4F9923A9F0F92F96E9BB279395F69513
:102E4000879577956795B795F111F8CFFAF4BB0F91
:102E500011F460FF1BC06F5F7F4F8F4F9F4F16C0F5
:102E6000882311F096E911C0772321F09EE8872F7F
:102E7000762F05C0662371F096E8862F70E060E03B
:102E80002AF09A95660F771F881FDAF7880F9695B4
:102E9000879597F9089597F99F6780E870E060E05B
:102EA00008959FEF80EC089500240A9416161706E3
:102EB00018060906089500240A941216130614062B
:102EC00005060895092E0394000C11F4882352F08E
:102ED000BB0F40F4BF2B11F460FF04C06F5F7F4F46
:102EE0008F4F9F4F089557FD9058440F551F59F02D
:102EF0005F3F71F04795880F97FB991F61F09F3FE7
:102F000079F087950895121613061406551FF2CF0F
:102F10004695F1DF08C0161617061806991FF1CF5F
:102F200086957105610508940895E894BB27662786
:102F30007727CB0197F90895A1E21A2EAA1BBB1B94
:102F4000FD010DC0AA1FBB1FEE1FFF1FA217B30775
:102F5000E407F50720F0A21BB30BE40BF50B661F8B
:102F6000771F881F991F1A9469F76095709580954F
:102F700090959B01AC01BD01CF010895EE0FFF1F9D
:0C2F80000590F491E02D0994F894FFCF27
:102F8C000000000000000000000000000000000035
:102F9C000000000000000000000000000000000025
:102FAC000000000000000000000000000000000015
:102FBC000000000000000000000000000000000005
:102FCC0000000000000000000000000000000000F5
:102FDC0000000000000000000000000000000000E5
:102FEC000000000000000000FFFFFFFFFFFFFFFFDD
:102FFC00FFFFFFFFFFFFFFFFFF0000A04200007B71
:10300C000200002203FFFFFFFFFFFFFFFF0000266F
:10301C00020000000046000000F4010000022F0234
:10302C0000000000640000002C01000002380200C7
:10303C0000000046000000640000000200000003D5
:10304C00000000000200000000010001000000FF71
:10305C00FF00000100000000000000000000000064
:10306C000000000400FF0000A10DA10D304050FF36
:10307C0063616E5F73656E64204143435F7370657B
:10308C0065645F736574204F4B0063616E5F73659D
:10309C006E64204143435F696E707574204F4B0022
:1030AC00AD019E018F01CB015D092C02D90600CB2D
:1030BC00015D093502D90602CB015D093E02D90634
:1030CC0001C601C101BC0122036D025F0251027BEA
:1030DC00025304350580000A0B0000020301005561
:1030EC000465048000DA0A0000010201005704D3D1
:1030FC000380002C0B0000000101006304E5045068
:10310C0000450D000003000100E301010101000076
:10311C000000EF07BD07C6079F0733053C072005D6
:10312C0065074108E206EA06FA08310833095A082D
:10313C006609A5089D09DD06EF097D08520A930A68
:10314C00C4080D0A006E616E00696E66006F7666CB
:10315C0000000000005915EA132815A615FA1414DE
:04316C00150615002F
:00000001FF
