:100000000C94EE000C941B0E0C94420E0C941601F2
:100010000C9416010C9416010C9416010C94160104
:100020000C9416010C9416010C9416010C941601F4
:100030000C9416010C9416010C9416010C941601E4
:100040000C94BE0C0C9416010C94B4150C94E6158B
:100050000C9416010C9416010C9416010C941601C4
:100060000C9416010C941601BF103F10431047105A
:100070004B104F105210551059105C106010631047
:1000800067106A10C31079107D10DD108110A21066
:100090008510AA10AD108810B4108C108F1092101B
:1000A000C710A210A610AA10AD10B010B410B8104E
:1000B000BC1000000008000201000003040700005B
:1000C000000000000000010204081020408001022E
:1000D000040810200102040810200404040404048D
:1000E00004040202020202020303030303030000EA
:1000F0000000230026002900000000002500280041
:100100002B0000000000240027002A0052657475AF
:10011000726E696E6720746F2050726576696F75B4
:1001200073204D6F6465204661696C7572652E2E73
:100130002E006053657474696E67204944204D6FCA
:100140006465204661696C7572652E2E2E005365BC
:100150007474696E672042617564726174652053BE
:1001600075636365737366756C2100536574746998
:100170006E67204261756472617465204661696CC6
:100180007572652E2E2E00456E746572696E67203D
:10019000436F6E66696775726174696F6E204D6F2B
:1001A0006465205375636365737366756C210045E0
:1001B0006E746572696E6720436F6E6669677572EB
:1001C0006174696F6E204D6F6465204661696C755E
:1001D00072652E2E2E00D20B150E0C1611241FBE8A
:1001E000CFEFD8E0DEBFCDBF13E0A0E0B1E0E2ED9D
:1001F000FFE202C005900D92AE37B107D9F728E0B3
:10020000AEE7B3E001C01D92A236B207E1F710E0FD
:10021000CEEED0E004C02197FE010E94C717CB3E6E
:10022000D107C9F70E94060E0C94A2170C94000087
:10023000E2E10E94BD010895E9E00E94BD01089538
:10024000EAE00E94BD010895E1E00E94BD01089529
:10025000E3E00E94BD010895E7E00E94BD0108951A
:10026000E5E00E94BD010895E0E00E94BD0108950F
:10027000E2E00E94BD010895E4E00E94BD010895FE
:10028000ECE00E94BD010895E8E00E94BD010895E0
:10029000EEE00E94BD010895E4E10E94BD010895D1
:1002A000E0E10E94BD010895E7E10E94BD010895CB
:1002B000E6E00E94BD010895EBE00E94BD010895B3
:1002C000EDE00E94BD010895EFE00E94BD01089598
:1002D000E1E10E94BD010895E3E10E94BD0108959E
:1002E000E5E10E94BD010895E6E10E94BD01089587
:1002F00021968A929A92AA92BA92CA92DA92EA9233
:10030000FA920A931A932197E0917301F091740184
:100310000080F181E02DC083D1830895C0917501E3
:10032000D0917601E881F981C081D181219619911E
:100330000991F990E990D990C990B990A9909990B4
:100340008990219708952F903F90E7E6F1E0CDB78F
:10035000DEB7EDBFFEBF3F922F9208952F903F90E2
:10036000CDBFDEBF3F922F920895E0E80E94BD010D
:100370000895E0E40E94BD0108952F923F924F92AC
:100380005F926F927F922FB62F92CF93DF937E2E44
:10039000F894E0910001EF5FE0930001E13011F487
:1003A0000E94A301E0E0E0938301E72DE07849F0AB
:1003B0000E941B06F0918401F17071F00E94CE043E
:1003C0000BC0E72DEC3140F4EE0FF0E0E45DFC4FA4
:1003D0000190F081E02D0995F0918301EF2FE170FC
:1003E00059F0F27011F00E9478018F938F2F0E94C4
:1003F00016048F910E948E012091000121502093BC
:100400000001222311F40E94AE01DF91CF912F90C1
:100410002FBE7F906F905F904F903F902F900895E8
:10042000CF92DF92EF92FF920F931F93DC01EC913A
:10043000DB012C918E2F8370C82ED12CE12CF12C56
:100440008E2F8F7190E0A0E0B0E032E0B695A795D6
:10045000979587953A95D1F7DC01AA54BC4F8C91BA
:10046000C81AD108E108F108EC71422F437050E03E
:1004700060E070E0822F8F7190E0A0E0B0E0F2E0E9
:10048000B695A79597958795FA95D1F7DC01AA546B
:10049000BC4F8C91481B510961097109822F8C71E5
:1004A0009701860103701127222733270E2B4370F3
:1004B000552766277727482B81E090E0041715071A
:1004C0002607370710F080E090E01F910F91FF9012
:1004D000EF90DF90CF9008958F929F92AF92BF924E
:1004E000EF92FF920F931F93CF93DF937C014A010A
:1004F0005B01B694A79497948794423051056105A7
:100500007105E0F0440F551F8701040F151FE4012A
:10051000CC0FDD1FCE0DDF1DB801CE010E941002F1
:10052000892B61F0F80190818181288139813183A3
:10053000208398838983B501A401DBCFDF91CF911C
:100540001F910F91FF90EF90BF90AF909F908F9071
:1005500008954F925F926F927F928F929F92AF9287
:10056000BF92CF92DF92EF92FF920F931F93CF93A0
:10057000DF9300D000D000D0CDB7DEB78C016A0188
:100580007B01DC018C91282F30E040E050E0298392
:100590003A834B835C8346015701880C991CAA1C43
:1005A000BB1C29813A814B815C81281539054A059C
:1005B0005B0508F442C0240135013FEF431A530A9A
:1005C000630A730A89819A81AB81BC818415950580
:1005D000A605B70580F0B201660F771F600F711F87
:1005E000C401880F991F800F911F0E941002892B50
:1005F00011F0530142013401660C771C600E711E2C
:10060000CC0CDD1CD801AC0DBD1DBE83AD83B30188
:10061000CD010E941002892B81F0ED81FE81908135
:100620008181D3012D913C911197318320839C933B
:1006300011968C9375016401AECF26960FB6F8948F
:10064000DEBF0FBECDBFDF91CF911F910F91FF9005
:10065000EF90DF90CF90BF90AF909F908F907F9062
:100660006F905F904F900895E6EFF6E040814F5F06
:10067000408350E060E070E0E82FEE0FFF0BE8569B
:10068000FD4F0190F081E02D238530E0F901EA541F
:10069000FC4F908191509083FA01EE0FFF1FEA50BA
:1006A000F94F220F331F220F331F9370292B208302
:1006B000818386EF96E00C946C02E6EFF6E04081D1
:1006C0004F5F408350E060E070E0E82FEE0FFF0BDB
:1006D000E857FD4F0190F081E02D9381FA01EE0F74
:1006E000FF1FEA50F94F9083818386EF96E00C94C8
:1006F0006C02CF93DF93E6EFF6E080819FEF980FD7
:100700009083D281C38190E0880F991FDC01AA50A9
:10071000B94F8D919C919383828341E050E060E0DA
:1007200070E0CF010E94A9028D2F9C2FDF91CF9105
:10073000089580917B0190917C01A0917D01B09101
:100740007E018F3F2FEF9207A207B20731F0079784
:10075000A105B10524F481E0089580E0089582E0C8
:100760000895880F990BFC01E856FD4F0190F08128
:10077000E02D0084F185E02D3097F9F022812111E0
:100780001CC021E02283DC01A857BD4F0D90BC9115
:10079000A02D13968C9113978183808190E0FC01AA
:1007A000EA54FC4F208121502083880F991F880F25
:1007B000991F2370822B13968C930895880F990BA1
:1007C000FC01E856FD4F0190F081E02D0084F18599
:1007D000E02D309761F02281213049F4128221818D
:1007E000FC01E857FD4F0190F081E02D238308952F
:1007F00080917F0190918001A0918101B09182014F
:1008000040917B0150917C0160917D0170917E014E
:10081000481759076A077B0741F0E0917901F09189
:100820007A0121E024830C945D030895CF93DF9334
:10083000882391F0C0917301D0917401E091770108
:10084000F09178018481833049F081E08483809144
:100850007B010E945D0302C0C0E0D0E0E09179011D
:10086000F0917A01F0937801E0937701809175011E
:1008700090917601909374018093730180917F0130
:1008800030918001209181019091820180937B01C0
:1008900030937C0120937D0190937E0192E09483BC
:1008A0000E94B103CE01DF91CF91089580917B0129
:1008B0000E94DE03E0917701F09178018281882324
:1008C00019F085E08483089514820895CF93DF930F
:1008D000282F220F330BF901E857FD4FC081D1813A
:1008E0009A81F901E856FD4F0190F081E02D2485B1
:1008F000921770F4911105C095E09C8391E090935C
:1009000084010E9434038A818F5F8A8380E001C062
:1009100084E0DF91CF910895E82FEE0FFF0BE857A9
:10092000FD4F0190F081E02D118210820C94C00DDA
:100930001F93CF93DF930E947903182F892F492F9C
:10094000092E000C550B660B770B40937F015093DB
:1009500080016093810170938201292F220F330B54
:10096000F901E857FD4FC081D181D0937A01C0933E
:100970007901F901E856FD4F2081318130937601EC
:10098000209375019C81953019F40E948C041B837F
:1009900010928401DF91CF911F910895E0917F0122
:1009A000F0918001EE0FFF1FE857FD4F0190F0819D
:1009B000E02D9091F8068381891730F40E94F803A6
:1009C0000E94980483E001C080E080938301089531
:1009D00081E0809383010C949804EF92FF920F932F
:1009E0001F93CF93DF93C1E001C0CC0F8A95EAF744
:1009F00087E00E94660404E213E0D0E0F8018191F0
:100A00008F018C2319F08D2F0E946604DF5FD73091
:100A1000A9F70DE113E08BE3E82E82E0F82ED1E098
:100A2000F80181918F018C2339F0F7018081918148
:100A3000FC01D6870E945405F2E0EF0EF11C83E022
:100A40000432180769F7DF91CF911F910F91FF9042
:100A5000EF9008950E94020781110E942307E09100
:100A60007701F091780180819181892B21F080912B
:100A70007B010E94EA080C944B080E940207811136
:100A80000E942307E0917701F091780180819181A4
:100A9000892B21F080917B010E94EA080C94330895
:100AA00081E080937E030895AF92BF92CF92DF9250
:100AB000EF92FF920F931F93CF93DF93FC01A081DE
:100AC000B181AD90BC90E501AC89BD89109739F03A
:100AD000428553856485758530E020E017C0D501D7
:100AE00055969C938E93549757969C938E935697B6
:100AF00015821482138212825BC012968D919C9192
:100B000013973A2F2B2F009779F0DC011A96CD908E
:100B1000DD90ED90FC901D974C155D056E057F05F1
:100B200060F7CD01A32FB22F93838283B583A48373
:100B3000009719F0EC01FD83EC83109729F01396D0
:100B4000FC93EE93129705C0D5015596FC93EE9356
:100B50005497E501AE89BF891A968D919D910D90AC
:100B6000BC91A02D088919892A893B898017910792
:100B7000A207B30780F4041715072607370728F0E4
:100B8000481759076A077B0798F4D5015796FC93D5
:100B9000EE9356970DC0041715072607370740F444
:100BA000481759076A077B0718F4E501FF8BEE8B9E
:100BB000DF91CF911F910F91FF90EF90DF90CF9039
:100BC000BF90AF900895CF93DF93DC01ED91FC913E
:100BD00011970190F081E02D848995891296CD912D
:100BE000DC911397A817B90711F4D58BC48B8689AC
:100BF0009789A817B90711F4D78BC68B209731F0C6
:100C000014968D919C9115979D838C8314960D90CD
:100C1000BC91A02D109721F01396DC93CE931297E0
:100C200086899789892B21F484899589978B868B6E
:100C3000DF91CF910895EF92FF920F931F93CF937F
:100C4000DF93FC0180917E03882309F4B5C084857D
:100C50009585A685B7850196A11DB11D84879587C9
:100C6000A687B78740815181628173818417950778
:100C7000A607B70709F0A0C0408951896289738926
:100C80004F5F5F4F6F4F7F4F84819581A681B78102
:100C900084179507A607B70718F440E050E0BA019B
:100CA000408B518B628B738B148615861686178644
:100CB000C689D789209709F47FC08A859B85AC8532
:100CC000BD85481759076A077B0709F075C0CE0133
:100CD000DC011296ED90FC901397E114F10471F091
:100CE000D7011A960D911D912D913C911D9740179A
:100CF00051076207730711F4C701EACF2C813D81C8
:100D00002115310529F0D9011396FC92EE92129724
:100D1000E114F10429F0D70115963C932E93149712
:100D200024893589C217D30711F4F58AE48AE114BE
:100D3000F10419F0F78AE68A04C024893589378BD3
:100D4000268B8F01FC0113821282EA80FB80E881EE
:100D5000F9810280F381E02DCE0109954E815F81FA
:100D600068857985411551056105710509F18A8507
:100D70009B85AC85BD85840F951FA61FB71FF80105
:100D80004481558166817781481759076A077B0737
:100D900038F4841B950BA60BB70B0197A109B10979
:100DA0008A879B87AC87BD87CE010E94540501C00E
:100DB0001E86E701209749F6DF91CF911F910F9191
:100DC000FF90EF900895FC0182810C9466040E94CC
:100DD0000207809168010895809368010E94ED04E4
:100DE0000E9450050C94E8040C94BF0DCF93C82FBB
:100DF0000E949903811102C00E94FC0D8C2FCF919B
:100E00000C941C0180918B038130D9F08091830375
:100E100090918403A0918503B0918603892B8A2B3E
:100E20008B2B79F481E04091870350918803609186
:100E3000890370918A03452B462B472B19F480E0D8
:100E4000089581E0089510928B0310928703109209
:100E500088031092890310928A03109283031092E0
:100E60008403109285031092860380917F039091F2
:100E70008003A0918103B091820380938C039093AF
:100E80008D03A0938E03B0938F0308950E94FF0DEE
:100E900080918C0390918D03A0918E03B0918F036C
:100EA0000196A11DB11D80938C0390938D03A09397
:100EB0008E03B0938F038091870390918803A09154
:100EC0008903B0918A030196A11DB11D8093870308
:100ED00090938803A0938903B0938A030895809127
:100EE000870390918803A0918903B0918A030097AA
:100EF000A105B10569F140918C0350918D0360917A
:100F00008E0370918F03415051096109710940931B
:100F10008C0350938D0360938E0370938F0301971E
:100F2000A109B1098093870390938803A093890353
:100F3000B0938A0380918C0390918D03A0918E03CE
:100F4000B0918F03892B8A2B8B2B11F40C94FD0D00
:100F500008958091870390918803A0918903B091AF
:100F60008A03892B8A2B8B2B89F4809183039091A0
:100F70008403A0918503B0918603892B8A2B8B2B48
:100F800029F40E94FF0D81E080938B0308958091E6
:100F90008B03882321F010928B030C94FD0D089590
:100FA0000E94030E80918C0390918D03A0918E037B
:100FB000B0918F030196A11DB11D80938C03909376
:100FC0008D03A0938E03B0938F0380918303909140
:100FD0008403A0918503B09186030196A11DB11DE4
:100FE0008093830390938403A0938503B093860337
:100FF00008958091830390918403A0918503B0911B
:1010000086030097A105B10569F140918C035091C9
:101010008D0360918E0370918F03415051096109D6
:10102000710940938C0350938D0360938E037093EA
:101030008F030197A109B1098093830390938403DF
:10104000A0938503B093860380918C0390918D03C8
:10105000A0918E03B0918F03892B8A2B8B2B11F4D7
:101060000C94010E08950E940207882311F083E179
:10107000089580E00895CF93C82F0E9402078C2F17
:101080000E946604C82F8091840181110E94CE04C1
:101090008C2FCF910895CF930E940207882311F0DF
:1010A000C3E101C0C0E0E0917701F0917801828155
:1010B000815082830E94560481E0809383010E94C4
:1010C00098048C2FCF910895CF93C82F0E940207C8
:1010D000E0917701F09178018281815082838C2F99
:1010E0000E946604C82F811108C00E94560481E046
:1010F000809383010E94980407C0E0917701F091EA
:10110000780182818F5F82838C2FCF910895CF9356
:101110000E940207882311F0C3E101C0C0E0809162
:101120007B010E94DE030E94CE0480917B0190919E
:101130007C01A0917D01B0917E0140917F01509191
:101140008001609181017091820184179507A60743
:10115000B70711F40E94B1038C2FCF910895CF935C
:10116000DF93EC010E940207882311F083E101C0A4
:1011700080E040917B0150917C0160917D017091F4
:101180007E01473051056105710514F4488303C0A1
:1011900090913A029883DF91CF9108950F931F9316
:1011A000CF93C82F8B010E940207882311F083E19F
:1011B00001C080E0EC2FEE0FFF0BE857FD4F0190D0
:1011C000F081E02D94819370F8019083CF911F916D
:1011D0000F910895880F990BFC01E857FD4FA081EE
:1011E000B181ED91FC911197309769F01D921C929D
:1011F00020913A0293818481228314821382E92F01
:10120000F82F3097B9F70895CF93C82F0E9402079F
:10121000882311F083E101C080E0EC2FF0E0EE0FB5
:10122000FF1FE85EFC4FA081B18190917B01129677
:101230009C931297E0917701F091780120813181A0
:1012400014963C932E931397B183A08393811196A8
:101250009C9311972C91938196959695921770F483
:1012600030E0D901AA54BC4F9C9191509C93220F1D
:10127000331F220F331F9370292B2383CF9108959F
:10128000CF93DF93C82F0E940207882311F0D3E188
:1012900001C0D0E0EC2FF0E0EE0FFF1FE85EFC4F46
:1012A0000190F081E02DA0917701B09178018181CA
:1012B00013968C931397838194818D939C931482BE
:1012C000138280913A0282830E94CE048D2FDF9197
:1012D000CF910895DC01ED91FC9184819581DC0131
:1012E000ED91FC9109941F93CF93DF93182FEB019D
:1012F0000E940207882311F083E101C080E0E12F02
:10130000F0E0EE0FFF1FE55CFD4F0190F081E02D56
:101310000190F081E02D0190F081E02D408151811C
:10132000628173814C835D836E837F8344815581A9
:1013300066817781488359836A837B8340855185A1
:1013400062857385488759876A877B87DF91CF914C
:101350001F9108958F929F92AF92BF92CF92DF928A
:10136000EF92FF920F931F93CF93C82F8B010E9490
:101370000207882311F083E101C080E0EC2FF0E048
:10138000EE0FFF1FE55CFD4F0190F081E02D96858B
:10139000913029F542855385648575850190F081EA
:1013A000E02D0190F081E02DC088D188E288F3889B
:1013B0004C155D056E057F0540F484809580A68000
:1013C000B780480D591D6A1D7B1D4C195D096E09BA
:1013D0007F09F801408351836283738301C085E0F4
:1013E000CF911F910F91FF90EF90DF90CF90BF9022
:1013F000AF909F908F9008958F929F92AF92BF92DF
:10140000CF92DF92EF92FF920F931F93CF93DF93D0
:10141000D82F4A015B01680179010E9402078823E5
:1014200011F0C3E101C0C0E0ED2FF0E0EE0FFF1FAF
:10143000E55CFD4F0190F081E02D8685811130C083
:10144000A081B1810D90BC91A02D50964D915D91E0
:101450006D917C915397480D591D6A1D7B1D149603
:101460008D919D910D90BC91A02D84179507A60795
:10147000B70740F4481B590B6A0B7B0B41505109CD
:10148000610971094287538764877587C682D7824D
:10149000E086F18681E08687CF010E94540501C075
:1014A000C7E08C2FDF91CF911F910F91FF90EF90AC
:1014B000DF90CF90BF90AF909F908F9008958F92C4
:1014C0009F92AF92BF92CF92DF92EF92FF920F93D3
:1014D0001F93CF93DF93C82F4A015B016801790105
:1014E0000E940207882311F0D3E101C0D0E0EC2F65
:1014F000F0E0EE0FFF1FE55CFD4F0190F081E02D65
:10150000868581110EC082869386A486B586C682A2
:10151000D782E086F18681E08687CF010E9454055C
:1015200001C0D7E08D2FDF91CF911F910F91FF90D8
:10153000EF90DF90CF90BF90AF909F908F900895E5
:101540000F931F93CF93DF93C82F0E940207882326
:1015500011F0D3E101C0D0E0EC2FF0E0EE0FFF1F5F
:10156000E55CFD4F00811181F8018685813031F401
:10157000C8010E94E305F801168601C0D5E08D2F51
:10158000DF91CF911F910F91089526E040E052EC3A
:1015900061E070E08CEC93E00E94071722E04DE0E0
:1015A00063E080E993E00E945813882339F068ECE7
:1015B00070E080E090E00E94470DF0CF60E080E9AD
:1015C00093E00C941D10EF92FF920F93CF93C09174
:1015D0001C038C2F0E945C018091710180936D012E
:1015E00089E6E82E81E0F82E08E021E042E050E0B4
:1015F00060E37CEE80E993E00E94DC138C2F0E9474
:101600006001CF910F91FF90EF900C944401EF9205
:10161000FF920F93CF93C0911C038C2F0E945C010B
:101620008091B10380936D0189E6E82E81E0F82E68
:1016300008E021E041E050E060E37CEE80E993E0E7
:101640000E94DC138C2F0E946001CF910F91FF90BC
:10165000EF900C944401CF93C0911C038C2F0E94F7
:101660005C0181E08093B1038C2F0E946001CF91D7
:101670000C944401CF9382E00E94950C892B49F58C
:1016800025EA33E044EA53E06DEA73E080E993E051
:101690000E941714C0911C038C2F0E945C01809142
:1016A000AD039091AE03A091AF03B091B0038770EA
:1016B0009927A071BC7E0797A041BC4E39F4809158
:1016C000A90390E09093B5038093B4038C2F0E94FC
:1016D0006001CF910C944401CF9382E00E94950C5D
:1016E000892B51F525EA33E044EA53E06DEA73E0D3
:1016F00080E993E00E941714C0911C038C2F0E9474
:101700005C018091AD039091AE03A091AF03B091C5
:10171000B00386709927A071BC7E0697A041BC4E8D
:1017200041F481E09091A903911101C080E0809380
:10173000B3038C2F0E946001CF910C944401CF938E
:1017400082E00E94950C892B51F525EA33E044EAAA
:1017500053E06DEA73E080E993E00E941714C091B2
:101760001C038C2F0E945C018091AD039091AE030D
:10177000A091AF03B091B00383709927A07CBC7A8D
:101780000397A04CBC4A41F481E09091A5039111CC
:1017900001C080E08093B2038C2F0E946001CF9142
:1017A0000C9444016AE080E993E00C944513CF93D4
:1017B000C0911C038C2F0E945C018CEC93E00E9472
:1017C00039161816190694F441E060E070E08CECCC
:1017D00093E00E944C1570937201609371018C2FFD
:1017E0000E9460018CEC93E00E9453168C2F0E94A3
:1017F0006001CF910C94440181E192E00C94B50119
:101800000895833081F028F4813099F08230A1F07E
:1018100008958730A9F08830B9F08430D1F48091F0
:1018200080008F7D03C0809180008F77809380003F
:10183000089584B58F7702C084B58F7D84BD0895E7
:101840008091B0008F7703C08091B0008F7D80932E
:10185000B0000895CF93DF9390E0FC01EA53FF4F6F
:101860002491FC01E652FF4F8491882361F190E0BE
:10187000880F991FFC01EE5FFE4FC591D491FC01CA
:10188000E850FF4FA591B491611109C09FB7F8943A
:101890008881209582238883EC912E230BC06230AF
:1018A00061F49FB7F8948881322F30958323888321
:1018B000EC912E2B2C939FBF06C08FB7F894E88134
:1018C0002E2B28838FBFDF91CF9108951F93CF9345
:1018D000DF93282F30E0F901EE54FF4F8491F90196
:1018E000EA53FF4FD491F901E652FF4FC491CC2344
:1018F000C1F0162F81110E94010CEC2FF0E0EE0FC9
:10190000FF1FE850FF4FA591B4919FB7F8941111B4
:1019100004C08C91D095D82302C0EC91DE2BDC93CF
:101920009FBFDF91CF911F910895CF93DF93282F11
:1019300030E0F901EE54FF4F8491F901EA53FF4F73
:10194000D491F901E652FF4FC491CC2391F081115B
:101950000E94010CEC2FF0E0EE0FFF1FE251FF4F51
:10196000A591B491EC91ED2381E090E021F480E029
:1019700002C080E090E0DF91CF9108951F920F9216
:101980000FB60F9211242F933F934F935F936F9352
:101990007F938F939F93AF93BF93EF93FF93809128
:1019A000C3039091C403A091C503B091C6033091C5
:1019B000C20323E0230F2D3720F40196A11DB11D92
:1019C00005C026E8230F0296A11DB11D2093C20376
:1019D0008093C3039093C403A093C503B093C6033D
:1019E0008091C7039091C803A091C903B091CA0325
:1019F0000196A11DB11D8093C7039093C803A093C6
:101A0000C903B093CA030E94FC0BFF91EF91BF91F1
:101A1000AF919F918F917F916F915F914F913F9186
:101A20002F910F900FBE0F901F9018952FB7F8941D
:101A30006091C3037091C4038091C5039091C60364
:101A40002FBF08953FB7F8948091C7039091C803C2
:101A5000A091C903B091CA0326B5A89B05C02F3F2A
:101A600019F00196A11DB11D3FBFBA2FA92F982FC4
:101A70008827820F911DA11DB11DBC01CD0142E03F
:101A8000660F771F881F991F4A95D1F708958F9287
:101A90009F92AF92BF92CF92DF92EF92FF926B0133
:101AA0007C010E94220D4B015C01C114D104E104B0
:101AB000F10401F10E94BD0D0E94220DDC01CB0159
:101AC00088199909AA09BB09883E9340A105B10567
:101AD00060F321E0C21AD108E108F10888EE880E0F
:101AE00083E0981EA11CB11CC114D104E104F104CF
:101AF00019F7DBCFFF90EF90DF90CF90BF90AF90C2
:101B00009F908F90089584B5826084BD84B5816074
:101B100084BD85B5826085BD85B5816085BDEEE6F5
:101B2000F0E0808181608083E1E8F0E010828081D4
:101B300082608083808181608083E0E8F0E0808142
:101B400081608083E1EBF0E0808184608083E0EB62
:101B5000F0E0808181608083EAE7F0E0808184604A
:101B600080838081826080838081816080838081A6
:101B7000806880831092C10008950895FFCFFFCF41
:101B8000CF93DF93880F990BFC01E856FD4FC0817E
:101B9000D181AC81BD8111978A819B81A80FB91F2A
:101BA0002D85CD010197FD013297223019F42CE3E8
:101BB00031E002C028E531E02C93DC013C939E81AA
:101BC0008F819083DF018E93CF0107971E928A1732
:101BD0009B07E1F780E8DF0118978C93CF014497CA
:101BE0001E928A179B07E1F7A881B9817597ED933B
:101BF000FC93DF91CF910895089578940895F89417
:101C0000089578940895F894089508950E94830D96
:101C10000E94050E0E94000C0E94C50A8091CB0311
:101C20000E94F60680E090E0089580912B03809357
:101C3000CB03089508951F920F920FB60F921124AF
:101C40002F933F934F935F936F937F938F939F93C4
:101C5000AF93BF93EF93FF93E0913302F09134027F
:101C60000995FF91EF91BF91AF919F918F917F91D6
:101C70006F915F914F913F912F910F900FBE0F90F9
:101C80001F9018951F920F920FB60F9211242F9349
:101C90003F934F935F936F937F938F939F93AF93F4
:101CA000BF93EF93FF93E0913502F09136020995CF
:101CB000FF91EF91BF91AF919F918F917F916F9124
:101CC0005F914F913F912F910F900FBE0F901F90FA
:101CD000189520916B04222399F04FB7F894209126
:101CE0006B04213059F42DB3209369043DB3209146
:101CF0006A04209523232DBB4FBF02C04093690483
:101D00008CBD9DBD08958EBD00000DB407FEFDCFB6
:101D10008EB5089580916B04882361F09FB7F89485
:101D200020916B0480916904213019F48DBB9FBF11
:101D300008958FBF0895CF93DF93EC0180E591E084
:101D40000E94690E60E08A890E94660C80EC0E9405
:101D5000830E61E08A890E94660C0E948A0E65E00B
:101D600070E080E090E0DF91CF910C94470D1F93DD
:101D7000CF93DF93EC01162F80E591E00E94690E6E
:101D800060E08A890E94660C83E00E94830E812FA6
:101D90000E94830E80E00E94830E182F61E08A89E2
:101DA0000E94660C0E948A0E812FDF91CF911F91B5
:101DB0000895DF92EF92FF920F931F93CF93DF93DB
:101DC0008C01C62FD42EE52EF22E80E591E00E94E4
:101DD000690E60E0F80182890E94660C83E00E942F
:101DE000830E8C2F0E94830ECD2DDE2DCE018F0D04
:101DF000911D7C01EC16FD0629F080E00E94830E07
:101E00008993F8CF61E0F80182890E94660CDF9126
:101E1000CF911F910F91FF90EF90DF900C948A0E5D
:101E20000F931F93CF93DF93EC01062F142F80E5C0
:101E300091E00E94690E60E08A890E94660C82E04F
:101E40000E94830E802F0E94830E812F0E94830E9A
:101E500061E08A890E94660CDF91CF911F910F91FA
:101E60000C948A0EDF92EF92FF920F931F93CF9301
:101E7000DF938C01C62FD42EE52EF22E80E591E063
:101E80000E94690E60E0F80182890E94660C82E07F
:101E90000E94830E8C2F0E94830ECD2DDE2DCE014D
:101EA0008F0D911D7C01EC16FD0621F089910E9499
:101EB000830EF9CF61E0F80182890E94660CDF9100
:101EC000CF911F910F91FF90EF90DF900C948A0EAD
:101ED000FF920F931F93CF93DF93EC01F62E042F05
:101EE000122F80E591E00E94690E60E08A890E94CD
:101EF000660C85E00E94830E8F2D0E94830E802F3A
:101F00000E94830E812F0E94830E61E08A890E94C5
:101F1000660CDF91CF911F910F91FF900C948A0E68
:101F20001F93CF93DF93EC0180E591E00E94690E4F
:101F300060E08A890E94660C80EA0E94830E80E03D
:101F40000E94830E182F61E08A890E94660C0E940D
:101F50008A0E812FDF91CF911F910895EF92FF920A
:101F60000F931F93CF93DF93EC01162F0E94160D52
:101F7000062FE12EF12C212F40EE6FE0CE010E94C2
:101F8000680F6EE0CE010E94B70E807E90E08E1545
:101F90009F0539F00E94160D601B693C60F381E0DB
:101FA00001C080E0DF91CF911F910F91FF90EF90E2
:101FB00008950F931F93CF93DF93EC01162F6EE0DC
:101FC0000E94B70E807E803221F5103211F16BE253
:101FD000CE010E94B70E082F007486FD06C020E4D3
:101FE00040E46BE2CE010E94680F20E440E46CE222
:101FF000CE010E94680F60E6CE010E94AE0F8111F3
:1020000016C0011106C020E040E46BE2CE010E9440
:10201000680F20E040E46CE2CE010E94680F612F5F
:10202000CE01DF91CF911F910F910C94AE0F81E003
:10203000DF91CF911F910F910895FC01638B0C9458
:10204000D90FCF92DF92EF92FF920F931F93CF930E
:10205000DF93342F3370313009F43FC008F466C089
:10206000323009F0AAC0062F10E0F8013197EE30A7
:10207000F10508F0A2C0EC5CFF4F0C94C717C4E850
:10208000D6EF23E987C0C4E8D6EF29E883C0C3E8C8
:10209000D5EE27E87FC0C4E8D6EF25E87BC0C4E8CA
:1020A000D6EF05C0C3E8D5EE02C0C1E8D3ED24E801
:1020B00071C0C4E8D6EF02C0C3E8D5EE21E86AC01B
:1020C000C4E8D6EF02C0C3E8D5EE20E863C0C1E89B
:1020D000D1ED2AC0C0E8D0EC27C0C62ED12CF60125
:1020E0003197EE30F10508F068C0EE5BFF4F0C94BD
:1020F000C717C4E8D6EF27E64DC0C4E8D6EF23E5FE
:1021000049C0C3E8D5EE2EE445C0C4E8D6EF42C0CE
:10211000C3E8D5EE23E43EC0C3E8D5EE27C0C3E84C
:10212000D5EE28C0C1E8DAEC20E034C0062F10E07C
:10213000F8013697E930F10508F03FC0E05BFF4F4A
:102140000C94C717C4E8D6EF29E424C0C7E8DFEF32
:1021500024EC20C0C4E8D6EF05C0C3E8D5EE02C029
:10216000C1E8D3ED24E416C0C4E8D6EF21E412C0E0
:10217000C4E8D6EF20E40EC0C2E8D9EDD5CFC4E85C
:10218000D6EF27EA07C0C7E8DFEF2FE303C0C1E8B7
:10219000D3ED28E142FDCF778C01422F6AE20E9405
:1021A000100F4D2F69E2C8010E94100F4C2F68E2FA
:1021B000C8010E94100F80E001C081E0DF91CF9143
:1021C0001F910F91FF90EF90DF90CF9008950F93A4
:1021D0001F93CF93DF9300D000D0CDB7DEB741304F
:1021E000B1F40C831B83890122273327502F5C71A4
:1021F000402F437078E0579F400D112448604A8378
:1022000055E0169507955A95E1F709830DC0A80189
:1022100023E0569547952A95E1F749830295000FEB
:10222000007E0A831C821B8224E0AE014F5F5F4F59
:102230000E94320F0F900F900F900F90DF91CF916F
:102240001F910F9108950F931F93CF93DF9300D0A9
:1022500000D0CDB7DEB7E62FF42FA9016627772788
:102260000C831B83F13081F4342F3C71242F2370B5
:10227000F8E03F9F200D112428602A8335E0569511
:1022800047953A95E1F70AC0242F2295220F207E28
:102290002A8323E0569547952A95E1F7498324E060
:1022A000AE014F5F5F4F6E2F0E94320F0F900F9065
:1022B0000F900F90DF91CF911F910F9108950F9381
:1022C0001F93CF93DF93EC0100E010E0980141E011
:1022D00060E20E94231100E010E0980141E064E216
:1022E000CE010E94231100E010E0980141E060E07F
:1022F000CE010E94231100E010E0980140E064E06C
:10230000CE010E94231100E010E0980141E068E056
:10231000CE010E94231100E010E0980140E060E14E
:10232000CE010E94231100E010E0980141E064E139
:10233000CE010E94231100E010E0980140E068E126
:10234000CE010E94231110E340E0612FCE010E94D4
:10235000100F60E1610F40E0CE010E94100F60E2BB
:10236000610F40E0CE010E94100F1F5F1E3361F726
:1023700040E060E6CE010E94100F40E060E7CE0131
:10238000DF91CF911F910F910C94100FEF92FF925C
:102390000F931F93CF93DF93EC01062FF42EE22EC1
:1023A0000E949B0E80E48B8B60E8CE010E94D90FC7
:1023B000182F882341F06FEA71E08CEC93E00E94C3
:1023C000CA14812F5CC067E871E08CEC93E00E9436
:1023D000CA144E2D6F2DCE010E942110882339F092
:1023E0006BE671E08CEC93E00E94CA1447C06EE487
:1023F00071E08CEC93E00E94CA14CE010E945F1140
:1024000043E06BE2CE010E94100F4CE36CE0CE0182
:102410000E94100F40E06DE0CE010E94100F0023DB
:1024200051F0033019F524E644E660E6CE010E943F
:10243000680F20E607C024E044E660E6CE010E9473
:10244000680F20E040E660E7CE010E94680F6B89CC
:10245000CE010E94D90FC82F882381F06CE071E073
:102460008CEC93E00E94CA148C2F09C062E371E0E7
:102470008CEC93E00E94CA1481E001C080E0DF91FF
:10248000CF911F910F91FF90EF900895EF92FF92DF
:102490000F931F93CF93DF9300D000D0CDB7DEB75B
:1024A0007A018901FA011082F901108211821282E7
:1024B000138224E0AE014F5F5F4F0E94D90E2A8144
:1024C0003981822F90E065E0959587956A95E1F7CF
:1024D000F8E03F9F800D911D1124092E000CAA0BDE
:1024E000BB0BF80180839183A283B38323FF25C0B4
:1024F00032E0880F991FAA1FBB1F3A95D1F72370AE
:10250000820F911DA11DB11DBA2FA92F982F8827C9
:102510002B81820F911DA11DB11DBA2FA92F982FBC
:1025200088272C81820F911DA11DB11D808391836D
:10253000A283B38381E0F70180830F900F900F9007
:102540000F90DF91CF911F910F91FF90EF90089521
:10255000FF920F931F93CF93DF93EC01F62EAC0104
:102560004A5F5F4F65E06F0D2D810E94320F8E85AF
:10257000813019F48D8180648D8364E06F0D4D810D
:10258000CE010E94100F09811A812B813C81488164
:102590006F2DCE010E94E710DF91CF911F910F9117
:1025A000FF9008950F931F93CF93DF93EC01162FA5
:1025B0009C012F5F3F4FAC010E9446126FEF610FED
:1025C000CE010E94B70E082F64E0610FCE010E9479
:1025D000B70E8D8303FF03C091E09E8701C01E8666
:1025E000282F2F702D83AE014A5F5F4F65E0610F8A
:1025F000CE01DF91CF911F910F910C94D90E8F9244
:102600009F92AF92BF92CF92DF92EF92FF921F9371
:10261000CF93DF9300D01F92CDB7DEB74C016B0193
:102620008091370290913802A091390289839A8370
:10263000AB83FB011082CE0101967C015E0194E028
:10264000A90EB11CF70111917F01612FC4010E94F5
:10265000B70E982F987083FD04C01F5FF60110839A
:1026600004C0EA14FB0471F792E0892F0F900F90D9
:102670000F90DF91CF911F91FF90EF90DF90CF905F
:10268000BF90AF909F908F900895CF93DF93EC0110
:10269000862F6A8B61E00E94660C61E08A890E9445
:1026A0002A0C8DE694E0998B888BDF91CF91089569
:1026B000FF920F931F93CF93DF93EC01162F042FFC
:1026C000F22E0E946C172F2D402F612FCE010E94F9
:1026D000C61191E0811101C090E0892FDF91CF9167
:1026E0001F910F91FF900895BF92CF92DF92EF92CA
:1026F000FF920F931F93CF93DF931F92CDB7DEB757
:102700008C010E94220D6B017C01BE016F5F7F4F27
:10271000C8010E94FF12B82E0E94220DDC01CB01DD
:102720008C199D09AE09BF0922E0B21206C0843C93
:102730009940A105B10548F331C0843C9940A105F9
:10274000B10560F56981C8010E94A81269816150D4
:1027500028E048E0C8010E94680F0E94220D6B012A
:102760007C0169816150C8010E94B70EB82E0E9499
:10277000220DDC01CB018C199D09AE09BF09B3FE06
:1027800006C0843C9940A105B10558F309C0843CBA
:102790009940A105B10520F480E003C086E001C0A6
:1027A00087E00F90DF91CF911F910F91FF90EF90F5
:1027B000DF90CF90BF900895EF92FF920F93FC01AE
:1027C0004183528363837483168620830583F701D4
:1027D000DC0116969C01225F3F4F41914D93A21759
:1027E000B307D9F70F91FF90EF900C947413CF9328
:1027F000DF93EC010E94900F80FF07C061E6CE01DD
:102800000E94D21220E041E008C081FF0CC061E7C5
:10281000CE010E94D21220E042E06CE2CE010E9482
:10282000680F80E001C084E0DF91CF910895CF92DE
:10283000DF92EF92FF920F931F93CF93DF93EC0100
:102840006B017A0189010E94F713843099F1888124
:10285000882349F089819A81AB81BC81B0688983E2
:102860009A83AB83BC838E85882349F089819A81C2
:10287000AB81BC81B06489839A83AB83BC8389813B
:102880009A81AB81BC81F60180839183A283B3835B
:102890008D81F7018083DE011696F8018D8190E02D
:1028A0009F01201B310B281739071CF48D91819350
:1028B000F5CF80E0DF91CF911F910F91FF90EF90C6
:1028C000DF90CF900895CF92DF92EF92FF920F9317
:1028D0001F93CF93DF936C017A018B01C0E0D0E0AE
:1028E000CE15DF0581F0D8016D918D01D601ED91F6
:1028F000FC910190F081E02DC6010995892B11F022
:102900002196EECF7E01C701DF91CF911F910F91EC
:10291000FF90EF90DF90CF9008956115710579F0E9
:10292000FB0101900020E9F73197AF01461B570BDF
:10293000DC01ED91FC910280F381E02D099480E0AF
:1029400090E00895EF92FF920F931F93CF93DF9340
:102950008C017B01C0E0D0E0F701EC0FFD1F64911A
:10296000662361F0D801ED91FC910190F081E02D9A
:10297000C8010995892B11F02196EECFCE01DF9188
:10298000CF911F910F91FF90EF9008956CE573E048
:102990000C948D140F931F93CF93DF93EC010E943F
:1029A000A2148C01CE010E94C614800F911FDF91EA
:1029B000CF911F910F9108950F931F93CF93DF93A2
:1029C000EC010E94160D688779878A879B87E881CA
:1029D000F9810484F585E02DCE01099597FF17C094
:1029E0000E94160D088519852A853B85DC01CB01DF
:1029F000801B910BA20BB30B0C811D812E813F819B
:102A000080179107A207B30710F38FEF9FEFDF91B5
:102A1000CF911F910F910895FF920F931F93CF9322
:102A2000DF93EC018B01F42ECE010E94DC1497FDA4
:102A30002DC08D32910519F19C01205331092A30A6
:102A4000310520F1FF2019F08E329105D1F00130CF
:102A50001105D1F00230110551F48D30910539F096
:102A600024F40997029718F00FC0809769F4E88161
:102A7000F9810284F385E02DCE010995D5CF8DE251
:102A800001C08EE290E002C08FEF9FEFDF91CF9107
:102A90001F910F91FF900895BF92CF92DF92EF9216
:102AA000FF920F931F93CF93DF938C01C42F40E0CD
:102AB0000E940C15FC0197FD47C0C12CD12C76015A
:102AC000B12C0C2E000CDD0BEC17FD0709F1ED32DB
:102AD000F105E1F0CF01C0970A97D0F4AAE0B0E089
:102AE000A70196010E94CD176F01FF0FEE08FF08A6
:102AF000DC01CB018C0D9D1DAE1DBF1D6C017D0148
:102B000020E3C21AD108E108F10802C0BB24B39443
:102B1000D801ED91FC910284F385E02DC80109955F
:102B2000C8010E94DC14FC01C0970A9768F2CE1716
:102B3000DF0751F2BB2061F066277727CB016C19C4
:102B40007D098E099F0906C060E070E0CB0102C0DC
:102B5000C701B601DF91CF911F910F91FF90EF90C8
:102B6000DF90CF90BF9008951F920F920FB60F92F3
:102B700011242F938F939F93EF93FF93E091DC03A6
:102B8000F091DD038081E091E203F091E30382FDA7
:102B900012C090818091E5038F5F8F732091E603CF
:102BA000821751F0E091E503F0E0E453FC4F958F7C
:102BB0008093E50301C08081FF91EF919F918F91F8
:102BC0002F910F900FBE0F901F9018951F920F928C
:102BD0000FB60F9211242F933F934F935F936F93F0
:102BE0007F938F939F93AF93BF93EF93FF938CEC5F
:102BF00093E00E947616FF91EF91BF91AF919F9164
:102C00008F917F916F915F914F913F912F910F9095
:102C10000FBE0F901F901895ECECF3E01382128218
:102C200088EE93E0A0E0B0E084839583A683B78329
:102C30008FE693E09183808385EC90E0958784878D
:102C400084EC90E09787868780EC90E0918B808B76
:102C500081EC90E0938B828B82EC90E0958B848B5F
:102C600086EC90E0978B868B118E128E138E148ECD
:102C70000895FC01918D228D892F90E0805C9F4FFB
:102C8000821B91098F7399270895FC01918D828D84
:102C9000981731F0828DE80FF11D858D90E0089531
:102CA0008FEF9FEF0895FC01918D828D981761F051
:102CB000828DDF01A80FB11D5D968C91928D9F5F73
:102CC0009F73928F90E008958FEF9FEF0895FC011E
:102CD000538D448D252F30E0842F90E0821B930B81
:102CE000541710F0CF96089501970895FC01848D34
:102CF000DF01A80FB11DA35ABF4F2C91848D90E026
:102D000001968F739927848FA689B7892C93A08900
:102D1000B1898C91837080648C93938D848D98138A
:102D200006C00288F389E02D80818F7D808308951D
:102D3000EF92FF920F931F93CF93DF93EC0181E00B
:102D4000888F9B8D8C8D981305C0E889F9898081C7
:102D500085FD26C0F62E0B8D10E00F5F1F4F0F7301
:102D60001127E02E8C8DE8120CC00FB607FCFACFAD
:102D7000E889F989808185FFF5CFCE010E9476161A
:102D8000F1CF8B8DFE01E80FF11DE35AFF4FF0826A
:102D90009FB7F8940B8FEA89FB89808180620AC013
:102DA0009FB7F894EE89FF896083E889F98980816B
:102DB0008370806480839FBF81E090E0DF91CF913A
:102DC0001F910F91FF90EF900895CF93DF93EC0147
:102DD000888D8823C9F0EA89FB89808185FD05C03B
:102DE000A889B9898C9186FD0FC00FB607FCF5CF75
:102DF000808185FFF2CFA889B9898C9185FFEDCFBD
:102E0000CE010E947616E7CFDF91CF910895CF9241
:102E1000DF92EF92FF921F93CF93DF93EC016A0151
:102E20007B01122FE889F98982E080834115514E98
:102E300061057105B1F060E079E08DE390E0A701F4
:102E400096010E94A517DA01C9010197A109B109EC
:102E5000B695A795979587959C01211580E1380730
:102E6000A8F0E889F989108260E874E88EE190E0C2
:102E7000A70196010E94A517DA01C9010197A109CE
:102E8000B109B695A795979587959C01EC85FD8529
:102E90003083EE85FF852083188EEC89FD891083B1
:102EA000EA89FB89808180618083EA89FB8980814E
:102EB00088608083EA89FB89808180688083EA89D1
:102EC000FB8980818F7D8083DF91CF911F91FF905F
:102ED000EF90DF90CF900895CF93CFB7F894809183
:102EE0006C04811127C0E4EEF0E08491E0EDF0E0A5
:102EF0009491E82FF0E0EE0FFF1FEE5FFE4FA591DB
:102F0000B491EC91E92321F461E08AE00E94660C1F
:102F100061E08AE00E942A0C8CB580618CBD8CB582
:102F200080648CBD61E08DE00E942A0C61E08BE042
:102F30000E942A0C80916C048F5F80936C04CFBF39
:102F4000CF910895F8940C94E717A1E21A2EAA1BCA
:102F5000BB1BFD010DC0AA1FBB1FEE1FFF1FA21749
:102F6000B307E407F50720F0A21BB30BE40BF50B46
:102F7000661F771F881F991F1A9469F760957095CF
:102F8000809590959B01AC01BD01CF010895EE0F96
:102F9000FF1F0590F491E02D09940E94D817A59F7A
:102FA000900DB49F900DA49F800D911D1124089544
:102FB000A29FB001B39FC001A39F700D811D11247A
:102FC000911DB29F700D811D1124911D0895F894DB
:022FD000FFCF31
:102FD20000000000000000000000000000000000EF
:102FE20000000000000000000000000000000000DF
:102FF20000000000000000000000000000000000CF
:1030020000000000000000000000000000000000BE
:1030120000000000000000000000000000000000AE
:10302200000000000000000000000000000000009E
:103032000000000000000000FFFFFFFFFFFFFFFF96
:10304200FF500000000A030000BD03FFFFFFFFFF67
:10305200FFFFFF000049020000000064000000F4CE
:1030620001000002520200000000140000003200C1
:103072000000025B02000000003200000064000059
:10308200000264020000000046000000F40100009B
:10309200026D020000000064000000F40100000262
:1030A200760200000000640000002C010000027F94
:1030B2000200000000460000006400000002000060
:1030C20000050000000004000000000300000000F2
:1030D20003000000000300000000020000000002E4
:1030E2000001000000FFFF000001000000000000DE
:1030F2000000000000000000000600FF00000100C8
:10310200FF00001A0E1A0E304050FFDF01D001C13D
:1031120001B201A3019401850111026A094F02E380
:10312200060211026A095802E3060111026A0961E4
:1031320002E3060611026A096A02E3060011026A44
:10314200097302E3060311026A097C02E306051110
:10315200026A098502E306040C0207020202FD016B
:10316200F801F301EE01BD03FC02EE02E002D2021D
:10317200C402B602A8020A037206760680003A0B5F
:103182000000060501007406F0048000E30A000056
:1031920005040100EE046E048000D70B0000040356
:1031A20001008A070A0780002B0B000003030100BD
:1031B2006008720580009F0B000002030100700589
:1031C200F20580006C0B0000010201005E088E0710
:1031D2008000070B0000000201008C070E0850005F
:1031E200BE0D0000070001002E02290200010101AC
:1031F200010101010000000000000000F907C707FB
:10320200D007A9073D0546072A056F074B08EC06BC
:10321200F40604093B08400964087309AF08AA09C7
:10322200E706FC0987085F0AA00ACE080D0A006EAD
:10323200616E00696E66006F76660000000000989D
:0E3242001663146716E5163916531645160066
:00000001FF
