:100000000C94EE000C94A50E0C94CC0E0C941601DE
:100010000C9416010C9416010C9416010C94160104
:100020000C9416010C9416010C9416010C941601F4
:100030000C9416010C9416010C9416010C941601E4
:100040000C94480D0C9416010C9478150C94AA1578
:100050000C9416010C9416010C9416010C941601C4
:100060000C9416010C9416014911C910CD10D11031
:10007000D510D910DC10DF10E310E610EA10ED10F7
:10008000F110F4104D110311071167110B112C1110
:100090000F113411371112113E11161119111C11C3
:1000A00051112C113011341137113A113E114211F6
:1000B00046110000000800020100000304070000D0
:1000C000000000000000010204081020408001022E
:1000D000040810200102040810200404040404048D
:1000E00004040202020202020303030303030000EA
:1000F0000000230026002900000000002500280041
:100100002B0000000000240027002A0052657475AF
:10011000726E696E6720746F2050726576696F75B4
:1001200073204D6F6465204661696C7572652E2E73
:100130002E006053657474696E67204944204D6FCA
:100140006465204661696C7572652E2E2E005365BC
:100150007474696E672042617564726174652053BE
:1001600075636365737366756C2100536574746998
:100170006E67204261756472617465204661696CC6
:100180007572652E2E2E00456E746572696E67203D
:10019000436F6E66696775726174696F6E204D6F2B
:1001A0006465205375636365737366756C210045E0
:1001B0006E746572696E6720436F6E6669677572EB
:1001C0006174696F6E204D6F6465204661696C755E
:1001D00072652E2E2E005F0C9F0ED01511241FBEAF
:1001E000CFEFD8E0DEBFCDBF12E0A0E0B1E0E4EB9E
:1001F000F2E302C005900D92AA3BB107D9F725E0C2
:10020000AAEBB2E001C01D92A931B207E1F710E0FC
:10021000CEEED0E004C02197FE010E945219CB3EE1
:10022000D107C9F70E94900E0C9466170C94000039
:10023000E2E10E94BD010895E9E00E94BD01089538
:10024000EAE00E94BD010895E1E00E94BD01089529
:10025000E3E00E94BD010895E7E00E94BD0108951A
:10026000E5E00E94BD010895E0E00E94BD0108950F
:10027000E2E00E94BD010895E4E00E94BD010895FE
:10028000ECE00E94BD010895E8E00E94BD010895E0
:10029000EEE00E94BD010895E4E10E94BD010895D1
:1002A000E0E10E94BD010895E7E10E94BD010895CB
:1002B000E6E00E94BD010895EBE00E94BD010895B3
:1002C000EDE00E94BD010895EFE00E94BD01089598
:1002D000E1E10E94BD010895E3E10E94BD0108959E
:1002E000E5E10E94BD010895E6E10E94BD01089587
:1002F00021968A929A92AA92BA92CA92DA92EA9233
:10030000FA920A931A932197E0919501F091960140
:100310000080F181E02DC083D1830895C0919701C1
:10032000D0919801E881F981C081D18121961991FC
:100330000991F990E990D990C990B990A9909990B4
:100340008990219708952F903F90E7E6F1E0CDB78F
:10035000DEB7EDBFFEBF3F922F9208952F903F90E2
:10036000CDBFDEBF3F922F920895E0E80E94BD010D
:100370000895E0E40E94BD0108952F923F924F92AC
:100380005F926F927F922FB62F92CF93DF937E2E44
:10039000F894E0910001EF5FE0930001E13011F487
:1003A0000E94A301E0E0E093A501E72DE07849F089
:1003B0000E940C06F091A601F17071F00E94C40435
:1003C0000BC0E72DEC3140F4EE0FF0E0E759FD4FA4
:1003D0000190F081E02D0995F091A501EF2FE170DA
:1003E00059F0F27011F00E9478018F938F2F0E94C4
:1003F0000C048F910E948E012091000121502093C6
:100400000001222311F40E94AE01DF91CF912F90C1
:100410002FBE7F906F905F904F903F902F900895E8
:10042000CF92DF92EF92FF920F931F93DC01EC913A
:10043000DB012C918E2F8170C82ED12CE12CF12C58
:100440008E2F8F7090E0A0E0B0E0B695A7959795BD
:100450008795DC01AD5FBC4F8C91C81AD108E108CB
:10046000F108EE70422F417050E060E070E0822FA2
:100470008F7090E0A0E0B0E0B695A795979587952E
:10048000DC01AD5FBC4F8C91481B510961097109BA
:10049000822F8E7097018601017011272227332742
:1004A0000E2B4170552766277727482B81E090E077
:1004B000041715072607370710F080E090E01F911A
:1004C0000F91FF90EF90DF90CF9008958F929F92C1
:1004D000AF92BF92EF92FF920F931F93CF93DF9350
:1004E0007C014A015B01B694A794979487944230AB
:1004F000510561057105E0F0440F551F8701040F98
:10050000151FE401CC0FDD1FCE0DDF1DB801CE019C
:100510000E941002892B61F0F8019081818128816D
:1005200039813183208398838983B501A401DBCF8E
:10053000DF91CF911F910F91FF90EF90BF90AF90FF
:100540009F908F9008954F925F926F927F928F92BB
:100550009F92AF92BF92CF92DF92EF92FF920F9352
:100560001F93CF93DF9300D000D000D0CDB7DEB77C
:100570008C016A017B01DC018C91282F30E040E086
:1005800050E029833A834B835C8346015701880CF2
:10059000991CAA1CBB1C29813A814B815C812815BE
:1005A00039054A055B0508F442C0240135013FEFD7
:1005B000431A530A630A730A89819A81AB81BC8109
:1005C00084159505A605B70580F0B201660F771F63
:1005D000600F711FC401880F991F800F911F0E9427
:1005E0001002892B11F0530142013401660C771C73
:1005F000600E711ECC0CDD1CD801AC0DBD1DBE8380
:10060000AD83B301CD010E941002892B81F0ED81F1
:10061000FE8190818181D3012D913C91119731838D
:1006200020839C9311968C9375016401AECF26961E
:100630000FB6F894DEBF0FBECDBFDF91CF911F91F3
:100640000F91FF90EF90DF90CF90BF90AF909F9071
:100650008F907F906F905F904F900895EBEBF4E058
:1006600040814F5F408350E060E070E0E82FEE0F84
:10067000FF0BE15DFD4F0190F081E02D238530E01F
:10068000F901ED5FFC4F908191509083FA01EE0FDC
:10069000FF1FE554FB4F220F331F9170292B20833E
:1006A00081838BEB94E00C946602EBEBF4E04081E9
:1006B0004F5F408350E060E070E0E82FEE0FFF0BEB
:1006C000E75DFD4F0190F081E02D9381FA01EE0F7F
:1006D000FF1FE554FB4F908381838BEB94E00C94D8
:1006E0006602CF93DF93EBEBF4E080819FEF980FEE
:1006F0009083D281C38190E0880F991FDC01A554BB
:10070000BB4F8D919C919383828341E050E060E0E8
:1007100070E0CF010E94A3028D2F9C2FDF91CF911B
:10072000089580919D0190919E01A0919F01B091AB
:10073000A0018F3F2FEF9207A207B20731F0029777
:10074000A105B10524F481E0089580E0089582E0D8
:100750000895880F990BFC01E15DFD4F0190F08138
:10076000E02D0084F185E02D3097E9F02281211100
:100770001AC021E02283DC01A75DBD4F0D90BC9122
:10078000A02D13968C9113978183808190E0FC01BA
:10079000ED5FFC4F208121502083880F991F21702D
:1007A000822B13968C930895880F990BFC01E15DC1
:1007B000FD4F0190F081E02D0084F185E02D309710
:1007C00061F02281213049F412822181FC01E75D30
:1007D000FD4F0190F081E02D238308958091A101C8
:1007E0009091A201A091A301B091A40140919D011B
:1007F00050919E0160919F017091A0014817590787
:100800006A077B0741F0E0919B01F0919C0121E098
:1008100024830C9455030895CF93DF93882391F09C
:10082000C0919501D0919601E0919901F0919A01C2
:100830008481833049F081E0848380919D010E940E
:10084000550302C0C0E0D0E0E0919B01F0919C0113
:10085000F0939A01E093990180919701909198010A
:1008600090939601809395018091A1013091A2010E
:100870002091A3019091A40180939D0130939E014A
:1008800020939F019093A00192E094830E94A9037A
:10089000CE01DF91CF91089580919D010E94D403F4
:1008A000E0919901F0919A018281882319F085E005
:1008B0008483089514820895CF93DF93282F220F05
:1008C000330BF901E75DFD4FC081D1819A81F901B8
:1008D000E15DFD4F0190F081E02D2485921770F4C9
:1008E000911105C095E09C8391E09093A6010E9430
:1008F0002E038A818F5F8A8380E001C084E0DF91CC
:10090000CF910895E82FEE0FFF0BE75DFD4F0190AB
:10091000F081E02D118210820C944A0E1F93CF9328
:10092000DF930E947103182F892F492F092E000C85
:10093000550B660B770B4093A1015093A201609376
:10094000A3017093A401292F220F330BF901E75D56
:10095000FD4FC081D181D0939C01C0939B01F901CF
:10096000E15DFD4F20813181309398012093970103
:100970009C81953019F40E9482041B831092A60179
:10098000DF91CF911F910895E091A101F091A20113
:10099000EE0FFF1FE75DFD4F0190F081E02D90917C
:1009A000BD048381891730F40E94EE030E948E04F7
:1009B00083E001C080E08093A501089581E08093E9
:1009C000A5010C948E04CF93DF93C1E0D0E001C069
:1009D000CC0F8A95EAF782E00E945C04809166025F
:1009E0008C2319F080E00E945C04809167028C23C4
:1009F00019F081E00E945C04809164028C2349F02C
:100A0000809113029091140221E0FC0126870E943C
:100A1000450580916502C82359F080911502909197
:100A2000160221E0FC012687DF91CF910C94450549
:100A3000DF91CF9108950E94F30681110E9414075F
:100A4000E0919901F0919A0180819181892B21F0A7
:100A500080919D010E94DB080C943C080E94F306E3
:100A600081110E941407E0919901F0919A0180810F
:100A70009181892B21F080919D010E94DB080C94CB
:100A8000240881E08093BA020895AF92BF92CF927A
:100A9000DF92EF92FF920F931F93CF93DF93FC01AE
:100AA000A081B181AD90BC90E501AC89BD89109762
:100AB00039F0428553856485758530E020E017C0A4
:100AC000D50155969C938E93549757969C938E93ED
:100AD000569715821482138212825BC012968D91F2
:100AE0009C9113973A2F2B2F009779F0DC011A96DF
:100AF000CD90DD90ED90FC901D974C155D056E0539
:100B00007F0560F7CD01A32FB22F93838283B58336
:100B1000A483009719F0EC01FD83EC83109729F072
:100B20001396FC93EE93129705C0D5015596FC934E
:100B3000EE935497E501AE89BF891A968D919D91E8
:100B40000D90BC91A02D088919892A893B898017AD
:100B50009107A207B30780F4041715072607370784
:100B600028F0481759076A077B0798F4D50157966C
:100B7000FC93EE9356970DC0041715072607370709
:100B800040F4481759076A077B0718F4E501FF8B03
:100B9000EE8BDF91CF911F910F91FF90EF90DF903F
:100BA000CF90BF90AF900895CF93DF93DC01ED918C
:100BB000FC9111970190F081E02D8489958912961E
:100BC000CD91DC911397A817B90711F4D58BC48B7D
:100BD00086899789A817B90711F4D78BC68B2097F8
:100BE00031F014968D919C9115979D838C8314966A
:100BF0000D90BC91A02D109721F01396DC93CE930D
:100C0000129786899789892B21F484899589978BF6
:100C1000868BDF91CF910895EF92FF920F931F93F0
:100C2000CF93DF93FC018091BA02882309F4B5C009
:100C300084859585A685B7850196A11DB11D8487FC
:100C40009587A687B7874081518162817381841718
:100C50009507A607B70709F0A0C0408951896289A6
:100C600073894F5F5F4F6F4F7F4F84819581A6815E
:100C7000B78184179507A607B70718F440E050E03E
:100C8000BA01408B518B628B738B14861586168646
:100C90001786C689D789209709F47FC08A859B85E6
:100CA000AC85BD85481759076A077B0709F075C0F1
:100CB000CE01DC011296ED90FC901397E114F10443
:100CC00071F0D7011A960D911D912D913C911D97B0
:100CD000401751076207730711F4C701EACF2C814F
:100CE0003D812115310529F0D9011396FC92EE9230
:100CF0001297E114F10429F0D70115963C932E9335
:100D0000149724893589C217D30711F4F58AE48A28
:100D1000E114F10419F0F78AE68A04C024893589C0
:100D2000378B268B8F01FC0113821282EA80FB80B5
:100D3000E881F9810280F381E02DCE0109954E8191
:100D40005F8168857985411551056105710509F156
:100D50008A859B85AC85BD85840F951FA61FB71F0F
:100D6000F8014481558166817781481759076A07E0
:100D70007B0738F4841B950BA60BB70B0197A109D1
:100D8000B1098A879B87AC87BD87CE010E94450544
:100D900001C01E86E701209749F6DF91CF911F9190
:100DA0000F91FF90EF900895FC0182810C945C04F8
:100DB0000E94F306809168010895809368010E9463
:100DC000E3040E9441050C94DE040C94490ECF9379
:100DD000C82F0E949103811102C00E94860E8C2FA1
:100DE000CF910C941C018091C7028130D9F0809181
:100DF000BF029091C002A091C102B091C202892BA2
:100E00008A2B8B2B79F481E04091C3025091C4026C
:100E10006091C5027091C602452B462B472B19F4F1
:100E200080E0089581E008951092C7021092C302F5
:100E30001092C4021092C5021092C6021092BF0214
:100E40001092C0021092C1021092C2028091BB02A5
:100E50009091BC02A091BD02B091BE028093C802E5
:100E60009093C902A093CA02B093CB0208950E9446
:100E7000890E8091C8029091C902A091CA02B091D6
:100E8000CB020196A11DB11D8093C8029093C902A7
:100E9000A093CA02B093CB028091C3029091C40286
:100EA000A091C502B091C6020196A11DB11D80930B
:100EB000C3029093C402A093C502B093C6020895E2
:100EC0008091C3029091C402A091C502B091C60264
:100ED0000097A105B10569F14091C8025091C9027E
:100EE0006091CA027091CB024150510961097109A8
:100EF0004093C8025093C9026093CA027093CB0218
:100F00000197A109B1098093C3029093C402A093F1
:100F1000C502B093C6028091C8029091C902A09107
:100F2000CA02B091CB02892B8A2B8B2B11F40C9423
:100F3000870E08958091C3029091C402A091C502CA
:100F4000B091C602892B8A2B8B2B89F48091BF022A
:100F50009091C002A091C102B091C202892B8A2B4C
:100F60008B2B29F40E94890E81E08093C70208959B
:100F70008091C702882321F01092C7020C94870E3B
:100F800008950E948D0E8091C8029091C902A0918F
:100F9000CA02B091CB020196A11DB11D8093C80277
:100FA0009093C902A093CA02B093CB028091BF0272
:100FB0009091C002A091C102B091C2020196A11D00
:100FC000B11D8093BF029093C002A093C102B09361
:100FD000C20208958091BF029091C002A091C10207
:100FE000B091C2020097A105B10569F14091C80214
:100FF0005091C9026091CA027091CB0241505109CF
:10100000610971094093C8025093C9026093CA02F2
:101010007093CB020197A109B1098093BF0290930D
:10102000C002A093C102B093C2028091C802909105
:10103000C902A091CA02B091CB02892B8A2B8B2BBB
:1010400011F40C948B0E08950E94F306882311F07E
:1010500083E1089580E00895CF93C82F0E94F3069E
:101060008C2F0E945C04C82F8091A60181110E94E0
:10107000C4048C2FCF910895CF930E94F306882348
:1010800011F0C3E101C0C0E0E0919901F0919A0133
:101090008281815082830E944C0481E08093A5016B
:1010A0000E948E048C2FCF910895CF93C82F0E9459
:1010B000F306E0919901F0919A0182818150828337
:1010C0008C2F0E945C04C82F811108C00E944C0420
:1010D00081E08093A5010E948E0407C0E0919901F0
:1010E000F0919A0182818F5F82838C2FCF91089536
:1010F000CF930E94F306882311F0C3E101C0C0E042
:1011000080919D010E94D4030E94C40480919D019E
:1011100090919E01A0919F01B091A0014091A101E9
:101120005091A2016091A3017091A40184179507C9
:10113000A607B70711F40E94A9038C2FCF91089539
:10114000CF93DF93EC010E94F306882311F083E133
:1011500001C080E040919D0150919E0160919F01EE
:101160007091A001423051056105710514F4488366
:1011700003C09091F8019883DF91CF9108950F9368
:101180001F93CF93C82F8B010E94F306882311F081
:1011900083E101C080E0EC2FEE0FFF0BE75DFD4F18
:1011A0000190F081E02D94819370F8019083CF91AC
:1011B0001F910F910895880F990BFC01E75DFD4F7A
:1011C000A081B181ED91FC911197309769F01D924A
:1011D0001C922091F80193818481228314821382CE
:1011E000E92FF82F3097B9F70895CF93C82F0E94B1
:1011F000F306882311F083E101C080E0EC2FF0E0DA
:10120000EE0FFF1FE15AFD4FA081B18190919D012A
:1012100012969C931297E0919901F0919A01208186
:10122000318114963C932E931397B183A0839381BD
:1012300011969C9311972C9193819695921760F437
:1012400030E0D901AD5FBC4F9C9191509C93220F2F
:10125000331F9170292B2383CF910895CF93DF9370
:10126000C82F0E94F306882311F0D3E101C0D0E01B
:10127000EC2FF0E0EE0FFF1FE15AFD4F0190F081DF
:10128000E02DA0919901B0919A01818113968C93E0
:101290001397838194818D939C9314821382809100
:1012A000F80182830E94C4048D2FDF91CF910895AD
:1012B000DC01ED91FC9184819581DC01ED91FC9143
:1012C00009941F93CF93DF93182FEB010E94F3062D
:1012D000882311F083E101C080E0E12FF0E0EE0F00
:1012E000FF1FED5EFD4F0190F081E02D0190F08138
:1012F000E02D0190F081E02D408151816281738168
:101300004C835D836E837F834481558166817781C1
:10131000488359836A837B834085518562857385C1
:10132000488759876A877B87DF91CF911F910895FE
:101330008F929F92AF92BF92CF92DF92EF92FF92E5
:101340000F931F93CF93C82F8B010E94F30688231E
:1013500011F083E101C080E0EC2FF0E0EE0FFF1F01
:10136000ED5EFD4F0190F081E02D9685913029F5DD
:1013700042855385648575850190F081E02D01904B
:10138000F081E02DC088D188E288F3884C155D0596
:101390006E057F0540F484809580A680B780480D57
:1013A000591D6A1D7B1D4C195D096E097F09F801E5
:1013B000408351836283738301C085E0CF911F9185
:1013C0000F91FF90EF90DF90CF90BF90AF909F90E4
:1013D0008F9008958F929F92AF92BF92CF92DF929B
:1013E000EF92FF920F931F93CF93DF93D82F4A0171
:1013F0005B01680179010E94F306882311F0C3E1C3
:1014000001C0C0E0ED2FF0E0EE0FFF1FED5EFD4FDD
:101410000190F081E02D8685811130C0A081B181DD
:101420000D90BC91A02D50964D915D916D917C9148
:101430005397480D591D6A1D7B1D14968D919D91E2
:101440000D90BC91A02D84179507A607B70740F40F
:10145000481B590B6A0B7B0B4150510961097109FB
:101460004287538764877587C682D782E086F18674
:1014700081E08687CF010E94450501C0C7E08C2F1F
:10148000DF91CF911F910F91FF90EF90DF90CF9060
:10149000BF90AF909F908F9008958F929F92AF9240
:1014A000BF92CF92DF92EF92FF920F931F93CF9351
:1014B000DF93C82F4A015B01680179010E94F3069E
:1014C000882311F0D3E101C0D0E0EC2FF0E0EE0F63
:1014D000FF1FED5EFD4F0190F081E02D86858111AB
:1014E0000EC082869386A486B586C682D782E086A1
:1014F000F18681E08687CF010E94450501C0D7E0D3
:101500008D2FDF91CF911F910F91FF90EF90DF9082
:10151000CF90BF90AF909F908F9008950F931F939F
:10152000CF93DF93C82F0E94F306882311F0D3E1F5
:1015300001C0D0E0EC2FF0E0EE0FFF1FED5EFD4F9D
:1015400000811181F8018685813031F4C8010E9443
:10155000D405F801168601C0D5E08D2FDF91CF911B
:101560001F910F91089526E040E052EC61E070E099
:1015700087E193E00E94CB1622E04DE063E08CEC23
:1015800092E00E94E213882339F068EC70E080E07A
:1015900090E00E94D10DF0CF69EF71E087E193E018
:1015A0000E94661560E08CEC92E00E94A71060E05B
:1015B00082E00C94B40CCF93C09163028C2F0E94F4
:1015C0005C0182E00E941F0D892B51F525EE32E06F
:1015D00044EE52E060EE72E08CEC92E00E94A114C6
:1015E0008091E0029091E102A091E202B091E302C9
:1015F0008071927EAF7EB8718031924EAF4EB8410D
:1016000079F46091E60270E080E090E00E940C18AE
:101610006093FF0270930003809301039093020391
:101620008C2F0E946001CF910C9444014F925F92E5
:101630006F927F928F929F92AF92BF92CF92DF92E2
:10164000EF92FF920F93CF93DF9300D000D0CDB7EE
:10165000DEB78091F3029091F402A091F502B0916F
:10166000F6028093EF029093F002A093F102B09300
:10167000F202C0908101D0908201E0908301F0904D
:1016800084012091FF0230910003409101035091A9
:101690000203C701B6010E94C31820918501309151
:1016A000860140918701509188010E946A172B01A1
:1016B0003C0160938501709386018093870190932C
:1016C00088012091FB023091FC024091FD02509173
:1016D000FE02C701B6010E94C31820918901309112
:1016E0008A0140918B0150918C010E946A174B0135
:1016F0005C016093890170938A0180938B019093C0
:101700008C01A3019201C701B6010E94C318209168
:101710008D0130918E0140918F01509190010E9476
:101720006A1769837A838B839C8360938D0170939E
:101730008E0180938F0190939001A5019401C701C0
:10174000B6010E94C31820919101309192014091FD
:101750009301509194010E946A17609391017093D4
:10176000920180939301909394012091ED02309126
:10177000EE022F5F3F4F3093EE022093ED0229815E
:101780003A814B815C810E9469176B017C016093F7
:10179000F3027093F4028093F5029093F602A30192
:1017A0009201C501B4010E9469176093F70270931A
:1017B000F8028093F9029093FA0220E030E048E4C6
:1017C00053E4C701B6010E94BE18181664F480E005
:1017D00090E0A8E4B3E48093F3029093F402A09322
:1017E000F502B093F6026091F3027091F4028091D9
:1017F000F5029091F6020E94D61760937A0189E76C
:10180000E82E81E0F82E08E021E047E050E06BE1AF
:101810007FE08CEC92E00E94661461E070E080E072
:1018200090E00E94D10D60918501709186018091B8
:101830008701909188010E94D6176093720191E709
:10184000E92E91E0F92E21E048E050E86BE17AE0E2
:101850008CEC92E00E94661461E070E080E090E021
:101860000E94D10D6091F7027091F8028091F90207
:101870009091FA020E94D61760936D0129E6E22E3C
:1018800021E0F22E21E049E050EA6BE17CE08CECB3
:1018900092E00E9466140F900F900F900F90DF91CE
:1018A000CF910F91FF90EF90DF90CF90BF90AF90CE
:1018B0009F908F907F906F905F904F9008952091B0
:1018C0008D0130918E0140918F0150919001609176
:1018D00091017091920180919301909194010E94E5
:1018E00069176093F3027093F4028093F50290936A
:1018F000F6026093EF027093F0028093F1029093EE
:10190000F2026AE08CEC92E00C94CF138FEC91E041
:101910000C94B5010895833081F028F4813099F05A
:101920008230A1F008958730A9F08830B9F0843072
:10193000D1F4809180008F7D03C0809180008F77EB
:1019400080938000089584B58F7702C084B58F7D21
:1019500084BD08958091B0008F7703C08091B0005E
:101960008F7D8093B0000895CF93DF9390E0FC01CA
:10197000EA53FF4F2491FC01E652FF4F84918823E4
:1019800061F190E0880F991FFC01EE5FFE4FC59159
:10199000D491FC01E850FF4FA591B491611109C0A9
:1019A0009FB7F8948881209582238883EC912E2319
:1019B0000BC0623061F49FB7F8948881322F309564
:1019C00083238883EC912E2B2C939FBF06C08FB767
:1019D000F894E8812E2B28838FBFDF91CF91089553
:1019E0001F93CF93DF93282F30E0F901EE54FF4F80
:1019F0008491F901EA53FF4FD491F901E652FF4F68
:101A0000C491CC23C1F0162F81110E948B0CEC2FB6
:101A1000F0E0EE0FFF1FE850FF4FA591B4919FB784
:101A2000F894111104C08C91D095D82302C0EC9188
:101A3000DE2BDC939FBFDF91CF911F910895CF9351
:101A4000DF93282F30E0F901EE54FF4F8491F90124
:101A5000EA53FF4FD491F901E652FF4FC491CC23D2
:101A600091F081110E948B0CEC2FF0E0EE0FFF1F24
:101A7000E251FF4FA591B491EC91ED2381E090E00C
:101A800021F480E002C080E090E0DF91CF910895E2
:101A90001F920F920FB60F9211242F933F934F93E3
:101AA0005F936F937F938F939F93AF93BF93EF93C6
:101AB000FF9380910E0390910F03A0911003B091BA
:101AC000110330910D0323E0230F2D3720F40196ED
:101AD000A11DB11D05C026E8230F0296A11DB11D51
:101AE00020930D0380930E0390930F03A093100394
:101AF000B09311038091120390911303A0911403EA
:101B0000B09115030196A11DB11D8093120390930E
:101B10001303A0931403B09315030E94860CFF9146
:101B2000EF91BF91AF919F918F917F916F915F9155
:101B30004F913F912F910F900FBE0F901F901895CE
:101B40002FB7F89460910E0370910F0380911003EA
:101B5000909111032FBF08953FB7F894809112031D
:101B600090911303A0911403B091150326B5A89B7F
:101B700005C02F3F19F00196A11DB11D3FBFBA2F1F
:101B8000A92F982F8827820F911DA11DB11DBC017F
:101B9000CD0142E0660F771F881F991F4A95D1F744
:101BA00008958F929F92AF92BF92CF92DF92EF9261
:101BB000FF926B017C010E94AC0D4B015C01C114D2
:101BC000D104E104F10401F10E94470E0E94AC0D22
:101BD000DC01CB0188199909AA09BB09883E934009
:101BE000A105B10560F321E0C21AD108E108F108AE
:101BF00088EE880E83E0981EA11CB11CC114D1048C
:101C0000E104F10419F7DBCFFF90EF90DF90CF9064
:101C1000BF90AF909F908F90089584B5826084BDEF
:101C200084B5816084BD85B5826085BD85B58160E0
:101C300085BDEEE6F0E0808181608083E1E8F0E040
:101C40001082808182608083808181608083E0E86F
:101C5000F0E0808181608083E1EBF0E0808184604E
:101C60008083E0EBF0E0808181608083EAE7F0E050
:101C700080818460808380818260808380818160B4
:101C800080838081806880831092C10008950895C8
:101C9000FFCFFFCFCF93DF93880F990BFC01E15D5E
:101CA000FD4FC081D181AC81BD8111978A819B811B
:101CB000A80FB91F2D85CD010197FD013297223064
:101CC00019F42CE331E002C028E531E02C93DC016B
:101CD0003C939E818F819083DF018E93CF01079784
:101CE0001E928A179B07E1F780E8DF0118978C9313
:101CF000CF0144971E928A179B07E1F7A881B9810B
:101D00007597ED93FC93DF91CF91089508957894A2
:101D10000895F894089578940895F894089508958E
:101D20000E940D0E0E948F0E0E948A0C0E94B30A20
:101D3000809116030E94E70680E090E0089580916C
:101D4000680280931603089508951F920F920FB6AC
:101D50000F9211242F933F934F935F936F937F9331
:101D60008F939F93AF93BF93EF93FF93E091F10114
:101D7000F091F2010995FF91EF91BF91AF919F9181
:101D80008F917F916F915F914F913F912F910F9024
:101D90000FBE0F901F9018951F920F920FB60F92C3
:101DA00011242F933F934F935F936F937F938F9360
:101DB0009F93AF93BF93EF93FF93E091F301F09163
:101DC000F4010995FF91EF91BF91AF919F918F9190
:101DD0007F916F915F914F913F912F910F900FBE27
:101DE0000F901F9018952091B603222399F04FB7BA
:101DF000F8942091B603213059F42DB32093B40305
:101E00003DB32091B503209523232DBB4FBF02C0C6
:101E10004093B4038CBD9DBD08958EBD00000DB4EC
:101E200007FEFDCF8EB508958091B603882361F03B
:101E30009FB7F8942091B6038091B403213019F430
:101E40008DBB9FBF08958FBF0895CF93DF93EC01A3
:101E500080E591E00E94F30E60E08A890E94F00C18
:101E600080EC0E940D0F61E08A890E94F00C0E94B4
:101E7000140F65E070E080E090E0DF91CF910C946A
:101E8000D10D1F93CF93DF93EC01162F80E591E0E6
:101E90000E94F30E60E08A890E94F00C83E00E94A9
:101EA0000D0F812F0E940D0F80E00E940D0F182F43
:101EB00061E08A890E94F00C0E94140F812FDF914B
:101EC000CF911F910895DF92EF92FF920F931F938E
:101ED000CF93DF938C01C62FD42EE52EF22E80E512
:101EE00091E00E94F30E60E0F80182890E94F00CFC
:101EF00083E00E940D0F8C2F0E940D0FCD2DDE2D43
:101F0000CE018F0D911D7C01EC16FD0629F080E0BD
:101F10000E940D0F8993F8CF61E0F80182890E9439
:101F2000F00CDF91CF911F910F91FF90EF90DF9018
:101F30000C94140F0F931F93CF93DF93EC01062F94
:101F4000142F80E591E00E94F30E60E08A890E94E0
:101F5000F00C82E00E940D0F802F0E940D0F812F48
:101F60000E940D0F61E08A890E94F00CDF91CF91F1
:101F70001F910F910C94140FDF92EF92FF920F9329
:101F80001F93CF93DF938C01C62FD42EE52EF22E14
:101F900080E591E00E94F30E60E0F80182890E94E2
:101FA000F00C82E00E940D0F8C2F0E940D0FCD2DA2
:101FB000DE2DCE018F0D911D7C01EC16FD0621F06A
:101FC00089910E940D0FF9CF61E0F80182890E948A
:101FD000F00CDF91CF911F910F91FF90EF90DF9068
:101FE0000C94140FFF920F931F93CF93DF93EC0188
:101FF000F62E042F122F80E591E00E94F30E60E090
:102000008A890E94F00C85E00E940D0F8F2D0E949E
:102010000D0F802F0E940D0F812F0E940D0F61E088
:102020008A890E94F00CDF91CF911F910F91FF9050
:102030000C94140F1F93CF93DF93EC0180E591E094
:102040000E94F30E60E08A890E94F00C80EA0E94F0
:102050000D0F80E00E940D0F182F61E08A890E9409
:10206000F00C0E94140F812FDF91CF911F910895E2
:10207000EF92FF920F931F93CF93DF93EC01162FF4
:102080000E94A00D062FE12EF12C212F40EE6FE0D3
:10209000CE010E94F20F6EE0CE010E94410F807EC1
:1020A00090E08E159F0539F00E94A00D601B693CE1
:1020B00060F381E001C080E0DF91CF911F910F912B
:1020C000FF90EF9008950F931F93CF93DF93EC0150
:1020D000162F6EE00E94410F807E803221F5103273
:1020E00011F16BE2CE010E94410F082F007486FDB2
:1020F00006C020E440E46BE2CE010E94F20F20E42F
:1021000040E46CE2CE010E94F20F60E6CE010E9434
:102110003810811116C0011106C020E040E46BE2C6
:10212000CE010E94F20F20E040E46CE2CE010E945A
:10213000F20F612FCE01DF91CF911F910F910C947F
:10214000381081E0DF91CF911F910F910895FC012C
:10215000638B0C946310CF92DF92EF92FF920F93F8
:102160001F93CF93DF93342F3370313009F43FC086
:1021700008F466C0323009F0AAC0062F10E0F8015A
:102180003197EE30F10508F0A2C0EC5CFF4F0C94E3
:102190005219C4E8D6EF23E987C0C4E8D6EF29E88E
:1021A00083C0C3E8D5EE27E87FC0C4E8D6EF25E8B2
:1021B0007BC0C4E8D6EF05C0C3E8D5EE02C0C1E8D5
:1021C000D3ED24E871C0C4E8D6EF02C0C3E8D5EE71
:1021D00021E86AC0C4E8D6EF02C0C3E8D5EE20E823
:1021E00063C0C1E8D1ED2AC0C0E8D0EC27C0C62E3C
:1021F000D12CF6013197EE30F10508F068C0EE5BA6
:10220000FF4F0C945219C4E8D6EF27E64DC0C4E83E
:10221000D6EF23E549C0C3E8D5EE2EE445C0C4E8B7
:10222000D6EF42C0C3E8D5EE23E43EC0C3E8D5EE06
:1022300027C0C3E8D5EE28C0C1E8DAEC20E034C0FE
:10224000062F10E0F8013697E930F10508F03FC09D
:10225000E05BFF4F0C945219C4E8D6EF29E424C088
:10226000C7E8DFEF24EC20C0C4E8D6EF05C0C3E820
:10227000D5EE02C0C1E8D3ED24E416C0C4E8D6EF21
:1022800021E412C0C4E8D6EF20E40EC0C2E8D9EDC4
:10229000D5CFC4E8D6EF27EA07C0C7E8DFEF2FE3C2
:1022A00003C0C1E8D3ED28E142FDCF778C01422F76
:1022B0006AE20E949A0F4D2F69E2C8010E949A0FAC
:1022C0004C2F68E2C8010E949A0F80E001C081E0B3
:1022D000DF91CF911F910F91FF90EF90DF90CF9002
:1022E00008950F931F93CF93DF9300D000D0CDB705
:1022F000DEB74130B1F40C831B83890122273327D9
:10230000502F5C71402F437078E0579F400D11248F
:1023100048604A8355E0169507955A95E1F7098379
:102320000DC0A80123E0569547952A95E1F749830A
:102330000295000F007E0A831C821B8224E0AE01FE
:102340004F5F5F4F0E94BC0F0F900F900F900F9048
:10235000DF91CF911F910F9108950F931F93CF930A
:10236000DF9300D000D0CDB7DEB7E62FF42FA90160
:10237000662777270C831B83F13081F4342F3C715F
:10238000242F2370F8E03F9F200D112428602A831A
:1023900035E0569547953A95E1F70AC0242F2295E6
:1023A000220F207E2A8323E0569547952A95E1F750
:1023B000498324E0AE014F5F5F4F6E2F0E94BC0F38
:1023C0000F900F900F900F90DF91CF911F910F9171
:1023D00008950F931F93CF93DF93EC0100E010E07B
:1023E000980141E060E20E94AD1100E010E0980128
:1023F00041E064E2CE010E94AD1100E010E09801DE
:1024000041E060E0CE010E94AD1100E010E09801D3
:1024100040E064E0CE010E94AD1100E010E09801C0
:1024200041E068E0CE010E94AD1100E010E09801AB
:1024300040E060E1CE010E94AD1100E010E09801A3
:1024400041E064E1CE010E94AD1100E010E098018E
:1024500040E068E1CE010E94AD1110E340E0612F41
:10246000CE010E949A0F60E1610F40E0CE010E9410
:102470009A0F60E2610F40E0CE010E949A0F1F5F49
:102480001E3361F740E060E6CE010E949A0F40E003
:1024900060E7CE01DF91CF911F910F910C949A0FBD
:1024A000EF92FF920F931F93CF93DF93EC01062FD0
:1024B000F42EE22E0E94250F80E48B8B60E8CE0183
:1024C0000E946310182F882341F06FEA71E087E1C2
:1024D00093E00E945415812F5CC067E871E087E1AA
:1024E00093E00E9454154E2D6F2DCE010E94AB102B
:1024F000882339F06BE671E087E193E00E94541580
:1025000047C06EE471E087E193E00E945415CE016C
:102510000E94E91143E06BE2CE010E949A0F4CE366
:102520006CE0CE010E949A0F40E06DE0CE010E9467
:102530009A0F002351F0033019F524E644E660E6D3
:10254000CE010E94F20F20E607C024E044E660E6D8
:10255000CE010E94F20F20E040E660E7CE010E942B
:10256000F20F6B89CE010E946310C82F882381F07F
:102570006CE071E087E193E00E9454158C2F09C054
:1025800062E371E087E193E00E94541581E001C0AD
:1025900080E0DF91CF911F910F91FF90EF90089510
:1025A000EF92FF920F931F93CF93DF9300D000D051
:1025B000CDB7DEB77A018901FA011082F9011082E4
:1025C00011821282138224E0AE014F5F5F4F0E949E
:1025D000630F2A813981822F90E065E09595879578
:1025E0006A95E1F7F8E03F9F800D911D1124092EB7
:1025F000000CAA0BBB0BF80180839183A283B383E9
:1026000023FF25C032E0880F991FAA1FBB1F3A95F0
:10261000D1F72370820F911DA11DB11DBA2FA92FD3
:10262000982F88272B81820F911DA11DB11DBA2FD4
:10263000A92F982F88272C81820F911DA11DB11DD4
:1026400080839183A283B38381E0F70180830F901D
:102650000F900F900F90DF91CF911F910F91FF90EE
:10266000EF900895FF920F931F93CF93DF93EC01A8
:10267000F62EAC014A5F5F4F65E06F0D2D810E9421
:10268000BC0F8E85813019F48D8180648D8364E068
:102690006F0D4D81CE010E949A0F09811A812B8105
:1026A0003C8148816F2DCE010E947111DF91CF9145
:1026B0001F910F91FF9008950F931F93CF93DF9376
:1026C000EC01162F9C012F5F3F4FAC010E94D012EE
:1026D0006FEF610FCE010E94410F082F64E0610F80
:1026E000CE010E94410F8D8303FF03C091E09E87BE
:1026F00001C01E86282F2F702D83AE014A5F5F4FC9
:1027000065E0610FCE01DF91CF911F910F910C9485
:10271000630F8F929F92AF92BF92CF92DF92EF9210
:10272000FF921F93CF93DF9300D01F92CDB7DEB7F8
:102730004C016B018091F5019091F601A091F70198
:1027400089839A83AB83FB011082CE0101967C01C1
:102750005E0194E0A90EB11CF70111917F01612F78
:10276000C4010E94410F982F987083FD04C01F5F21
:10277000F601108304C0EA14FB0471F792E0892F7C
:102780000F900F900F90DF91CF911F91FF90EF90DE
:10279000DF90CF90BF90AF909F908F900895CF9390
:1027A000DF93EC01862F6A8B61E00E94F00C61E000
:1027B0008A890E94B40C88EB93E0998B888BDF9117
:1027C000CF910895FF920F931F93CF93DF93EC0166
:1027D000162F042FF22E0E9430172F2D402F612F1D
:1027E000CE010E94501291E0811101C090E0892F2A
:1027F000DF91CF911F910F91FF900895BF92CF92DB
:10280000DF92EF92FF920F931F93CF93DF931F926C
:10281000CDB7DEB78C010E94AC0D6B017C01BE010F
:102820006F5F7F4FC8010E948913B82E0E94AC0DC4
:10283000DC01CB018C199D09AE09BF0922E0B2125F
:1028400006C0843C9940A105B10548F331C0843CE1
:102850009940A105B10560F56981C8010E94321354
:102860006981615028E048E0C8010E94F20F0E948F
:10287000AC0D6B017C0169816150C8010E94410F60
:10288000B82E0E94AC0DDC01CB018C199D09AE095C
:10289000BF09B3FE06C0843C9940A105B10558F3B9
:1028A00009C0843C9940A105B10520F480E003C033
:1028B00086E001C087E00F90DF91CF911F910F91CB
:1028C000FF90EF90DF90CF90BF900895EF92FF922E
:1028D0000F93FC01418352836383748316862083A4
:1028E0000583F701DC0116969C01225F3F4F419161
:1028F0004D93A217B307D9F70F91FF90EF900C9467
:10290000FE13CF93DF93EC010E941A1080FF07C0E3
:1029100061E6CE010E945C1320E041E008C081FF27
:102920000CC061E7CE010E945C1320E042E06CE243
:10293000CE010E94F20F80E001C084E0DF91CF91D0
:102940000895CF92DF92EF92FF920F931F93CF9350
:10295000DF93EC016B017A0189010E9481148430BC
:1029600099F18881882349F089819A81AB81BC8162
:10297000B06889839A83AB83BC838E85882349F0B2
:1029800089819A81AB81BC81B06489839A83AB834E
:10299000BC8389819A81AB81BC81F601808391835C
:1029A000A283B3838D81F7018083DE011696F8013F
:1029B0008D8190E09F01201B310B281739071CF4F3
:1029C0008D918193F5CF80E0DF91CF911F910F9191
:1029D000FF90EF90DF90CF900895CF92DF92EF922B
:1029E000FF920F931F93CF93DF936C017A018B01BA
:1029F000C0E0D0E0CE15DF0581F0D8016D918D01EA
:102A0000D601ED91FC910190F081E02DC601099570
:102A1000892B11F02196EECF7E01C701DF91CF9176
:102A20001F910F91FF90EF90DF90CF900895611567
:102A3000710579F0FB0101900020E9F73197AF01B2
:102A4000461B570BDC01ED91FC910280F381E02DD8
:102A5000099480E090E00895EF92FF920F931F9306
:102A6000CF93DF938C017B01C0E0D0E0F701EC0F46
:102A7000FD1F6491662361F0D801ED91FC910190F6
:102A8000F081E02DC8010995892B11F02196EECF38
:102A9000CE01DF91CF911F910F91FF90EF9008959C
:102AA00069E972E00C9417150F931F93CF93DF938E
:102AB000EC010E942C158C01CE010E945015800F54
:102AC000911FDF91CF911F910F9108950F931F9345
:102AD000CF93DF93EC010E9417158C01CE010E9469
:102AE0005015800F911FDF91CF911F910F91089585
:102AF0001F920F920FB60F9211242F938F939F93D3
:102B0000EF93FF93E0912703F09128038081E091F8
:102B10002D03F0912E0382FD12C09081809130032D
:102B20008F5F8F7320913103821751F0E091300352
:102B3000F0E0E95EFC4F958F8093300301C0808107
:102B4000FF91EF919F918F912F910F900FBE0F905A
:102B50001F9018951F920F920FB60F9211242F936A
:102B60003F934F935F936F937F938F939F93AF9315
:102B7000BF93EF93FF9387E193E00E943A16FF9192
:102B8000EF91BF91AF919F918F917F916F915F91E5
:102B90004F913F912F910F900FBE0F901F9018955E
:102BA000E7E1F3E01382128288EE93E0A0E0B0E068
:102BB00084839583A683B7838CEA92E09183808394
:102BC00085EC90E09587848784EC90E097878687F2
:102BD00080EC90E0918B808B81EC90E0938B828BEA
:102BE00082EC90E0958B848B86EC90E0978B868BC3
:102BF000118E128E138E148E0895FC01918D228DEC
:102C0000892F90E0805C9F4F821B91098F739927D9
:102C10000895FC01918D828D981731F0828DE80F17
:102C2000F11D858D90E008958FEF9FEF0895FC01D1
:102C3000918D828D981761F0828DDF01A80FB11DF3
:102C40005D968C91928D9F5F9F73928F90E0089517
:102C50008FEF9FEF0895FC01538D448D252F30E0B9
:102C6000842F90E0821B930B541710F0CF96089599
:102C700001970895FC01848DDF01A80FB11DA35AAF
:102C8000BF4F2C91848D90E001968F739927848F8C
:102C9000A689B7892C93A089B1898C9183708064AF
:102CA0008C93938D848D981306C00288F389E02D50
:102CB00080818F7D80830895EF92FF920F931F9301
:102CC000CF93DF93EC0181E0888F9B8D8C8D9813DF
:102CD00005C0E889F989808185FD26C0F62E0B8D17
:102CE00010E00F5F1F4F0F731127E02E8C8DE8123D
:102CF0000CC00FB607FCFACFE889F989808185FFFF
:102D0000F5CFCE010E943A16F1CF8B8DFE01E80F70
:102D1000F11DE35AFF4FF0829FB7F8940B8FEA89B9
:102D2000FB89808180620AC09FB7F894EE89FF8991
:102D30006083E889F98980818370806480839FBF84
:102D400081E090E0DF91CF911F910F91FF90EF9084
:102D50000895CF93DF93EC01888D8823C9F0EA8929
:102D6000FB89808185FD05C0A889B9898C9186FD84
:102D70000FC00FB607FCF5CF808185FFF2CFA88981
:102D8000B9898C9185FFEDCFCE010E943A16E7CF2D
:102D9000DF91CF910895CF92DF92EF92FF921F9330
:102DA000CF93DF93EC016A017B01122FE889F98947
:102DB00082E080834115514E61057105B1F060E0FC
:102DC00079E08DE390E0A70196010E943019DA01C5
:102DD000C9010197A109B109B695A795979587955E
:102DE0009C01211580E13807A8F0E889F989108253
:102DF00060E874E88EE190E0A70196010E94301926
:102E0000DA01C9010197A109B109B695A79597956E
:102E100087959C01EC85FD853083EE85FF852083B9
:102E2000188EEC89FD891083EA89FB898081806195
:102E30008083EA89FB89808188608083EA89FB89B5
:102E4000808180688083EA89FB8980818F7D80838F
:102E5000DF91CF911F91FF90EF90DF90CF90089579
:102E6000CF93CFB7F8948091B703811127C0E4EED8
:102E7000F0E08491E0EDF0E09491E82FF0E0EE0FC7
:102E8000FF1FEE5FFE4FA591B491EC91E92321F471
:102E900061E08AE00E94F00C61E08AE00E94B40CDC
:102EA0008CB580618CBD8CB580648CBD61E08DE09B
:102EB0000E94B40C61E08BE00E94B40C8091B703D7
:102EC0008F5F8093B703CFBFCF910895F8940C9490
:102ED00058195058BB27AA270E9481170C948418B0
:102EE0000E94761838F00E947D1820F039F49F3F38
:102EF00019F426F40C9473180EF4E095E7FB0C9487
:102F00006D18E92F0E94951858F3BA1762077307D6
:102F10008407950720F079F4A6F50C94B7180EF401
:102F2000E0950B2EBA2FA02D0B01B90190010C01D9
:102F3000CA01A0011124FF27591B99F0593F50F4F1
:102F4000503E68F11A16F040A22F232F342F442749
:102F5000585FF3CF469537952795A795F040539541
:102F6000C9F77EF41F16BA0B620B730B840BBAF011
:102F70009150A1F0FF0FBB1F661F771F881FC2F77C
:102F80000EC0BA0F621F731F841F48F48795779590
:102F90006795B795F7959E3F08F0B0CF9395880F4A
:102FA00008F09927EE0F9795879508950E94DD17F1
:102FB0006894B1110C94B81808950E949D1888F077
:102FC0009F5798F0B92F9927B751B0F0E1F0660FED
:102FD000771F881F991F1AF0BA95C9F714C0B1302E
:102FE00091F00E94B718B1E008950C94B718672FBC
:102FF000782F8827B85F39F0B93FCCF3869577955D
:103000006795B395D9F73EF4909580957095619545
:103010007F4F8F4F9F4F0895E89409C097FB3EF470
:1030200090958095709561957F4F8F4F9F4F992315
:10303000A9F0F92F96E9BB279395F6958795779593
:103040006795B795F111F8CFFAF4BB0F11F460FF53
:103050001BC06F5F7F4F8F4F9F4F16C0882311F0AB
:1030600096E911C0772321F09EE8872F762F05C0BF
:10307000662371F096E8862F70E060E02AF09A955A
:10308000660F771F881FDAF7880F9695879597F94F
:103090000895990F0008550FAA0BE0E8FEEF1616E9
:1030A0001706E807F907C0F012161306E407F5073C
:1030B00098F0621B730B840B950B39F40A2661F0B0
:1030C000232B242B252B21F408950A2609F4A14053
:1030D000A6958FEF811D811D089597F99F6780E860
:1030E00070E060E008959FEF80EC089500240A945A
:1030F0001616170618060906089500240A941216D3
:103100001306140605060895092E0394000C11F405
:10311000882352F0BB0F40F4BF2B11F460FF04C0B2
:103120006F5F7F4F8F4F9F4F089557FD9058440F0B
:10313000551F59F05F3F71F04795880F97FB991F16
:1031400061F09F3F79F087950895121613061406D3
:10315000551FF2CF4695F1DF08C016161706180660
:10316000991FF1CF86957105610508940895E8943B
:10317000BB2766277727CB0197F908950E94491846
:1031800008F48FEF08950E94D6180C9484180E94BA
:10319000761838F00E947D1820F0952311F00C94D9
:1031A0006D180C94731811240C94B8180E9495187B
:1031B00070F3959FC1F3950F50E0551F629FF0018A
:1031C000729FBB27F00DB11D639FAA27F00DB11DA3
:1031D000AA1F649F6627B00DA11D661F829F22272C
:1031E000B00DA11D621F739FB00DA11D621F839FB3
:1031F000A00D611D221F749F3327A00D611D231F89
:10320000849F600D211D822F762F6A2F11249F57D6
:1032100050409AF0F1F088234AF0EE0FFF1FBB1FD9
:10322000661F771F881F91505040A9F79E3F510598
:1032300080F00C946D180C94B8185F3FE4F3983E3E
:10324000D4F3869577956795B795F795E7959F5F42
:10325000C1F7FE2B880F911D9695879597F90895D4
:10326000A1E21A2EAA1BBB1BFD010DC0AA1FBB1F8A
:10327000EE1FFF1FA217B307E407F50720F0A21BFC
:10328000B30BE40BF50B661F771F881F991F1A9469
:1032900069F760957095809590959B01AC01BD0193
:1032A000CF010895EE0FFF1F0590F491E02D0994D2
:0432B000F894FFCFC0
:1032B400000000000000000000000000000000000A
:1032C40000000000000000000000000000000000FA
:1032D40000000000000000000000000000000000EA
:1032E40000000000000000000000000000000000DA
:1032F40000000000000000000000000000000000CA
:1033040000000000000000000000000000000000B9
:103314000000000000000000FFFFFFFFFFFFFFFFB1
:10332400FFFFFFFFFFFFFFFFFFFFFFFFFFFFFFFFA9
:10333400FF6F12833A398E9B410000C84100002080
:1033440041000048420000510200000803FFFFFF53
:10335400FFFFFFFFFF00001702000000004600000F
:1033640000F40100000220020000000046000000FA
:1033740064000000020000000300000000020001DD
:10338400000000FFFF00000100000000000000003A
:10339400000000000000000400FF00000100FF0026
:1033A40000A40EA40E304050FF4D43503235313549
:1033B4002063616E5F73656E64205374617274651B
:1033C400642100B601A701CF0158091D02D40600EB
:1033D400CF0158092602D40601CA01C501080343D6
:1033E4000235025102170539048000160B00000152
:1033F400030100B904B9038000DB0A0000000201E4
:1034040000C504C7045000480E000002000100EC8F
:1034140001E701000101000000EA07B807C1079AAB
:10342400072E0537071B0560073C08DD06E506F592
:10343400082C082E0955086109A0089809D806EA3D
:103444000978084D0A8E0ABF080D0A006E616E00E5
:10345400696E66006F766600000000005C16ED146D
:0A3464002B16A916FD151716091600
:00000001FF
