:100000000C94E9000C94C00D0C94E70D0C941101B4
:100010000C9411010C9411010C9411010C94110118
:100020000C9411010C9411010C9411010C94110108
:100030000C9411010C9411010C9411010C941101F8
:100040000C94630C0C9411010C94E4130C9416148E
:100050000C9411010C9411010C9411010C941101D8
:100060000C9411010C9411010F108F0F930F970F27
:100070009B0F9F0FA20FA50FA90FAC0FB00FB30FCF
:10008000B70FBA0F1310C90FCD0F2D10D10FF20FEC
:10009000D50FFA0FFD0FD80F0410DC0FDF0FE20FA2
:1000A0001710F20FF60FFA0FFD0F001004100810D2
:1000B0000C1000000008000201000003040700000B
:1000C000000000000000010204081020408001022E
:1000D000040810200102040810200404040404048D
:1000E00004040202020202020303030303030000EA
:1000F0000000250028002B0000000000240027003D
:100100002A0052657475726E696E6720746F205094
:10011000726576696F7573204D6F646520466169FD
:100120006C7572652E2E2E006053657474696E674F
:10013000204944204D6F6465204661696C75726585
:100140002E2E2E0053657474696E672042617564AB
:1001500072617465205375636365737366756C2192
:100160000053657474696E672042617564726174CE
:1001700065204661696C7572652E2E2E00456E7481
:100180006572696E6720436F6E6669677572617428
:10019000696F6E204D6F646520537563636573737B
:1001A00066756C2100456E746572696E6720436FD9
:1001B0006E66696775726174696F6E204D6F6465F4
:1001C000204661696C7572652E2E2E00C50BBA0D26
:1001D0003C1411241FBECFEFD8E0DEBFCDBF13E02B
:1001E000A0E0B1E0EEEFFBE202C005900D92A63078
:1001F000B107D9F728E0A6E0B3E001C01D92AF3403
:10020000B207E1F710E0C9EED0E004C02197FE018B
:100210000E94F715C63ED107C9F70E94AB0D0C949A
:10022000D2150C940000E2E10E94B8010895E9E0C3
:100230000E94B8010895EAE00E94B8010895E1E043
:100240000E94B8010895E3E00E94B8010895E7E034
:100250000E94B8010895E5E00E94B8010895E0E029
:100260000E94B8010895E2E00E94B8010895E4E018
:100270000E94B8010895ECE00E94B8010895E8E0FA
:100280000E94B8010895EEE00E94B8010895E4E1EB
:100290000E94B8010895E0E10E94B8010895E7E1E5
:1002A0000E94B8010895E6E00E94B8010895EBE0CD
:1002B0000E94B8010895EDE00E94B8010895EFE0B2
:1002C0000E94B8010895E1E10E94B8010895E3E1B8
:1002D0000E94B8010895E5E10E94B8010895E6E1A1
:1002E0000E94B801089521968A929A92AA92BA928F
:1002F000CA92DA92EA92FA920A931A932197E091BB
:100300007501F09176010080F181E02DC083D183E9
:100310000895C0917701D0917801E881F981C08179
:10032000D181219619910991F990E990D990C990BC
:10033000B990A99099908990219708952F903F9016
:10034000E7E6F1E0CDB7DEB7EDBFFEBF3F922F92FB
:1003500008952F903F90CDBFDEBF3F922F9208951A
:10036000E0E80E94B8010895E0E40E94B801089511
:100370002F923F924F925F926F927F922FB62F9261
:10038000CF93DF937E2EF894E0910001EF5FE0932E
:100390000001E13011F40E949E01E0E0E09385014C
:1003A000E72DE07849F00E942006F0918601F17077
:1003B00071F00E94C9040BC0E72DEC3140F4EE0F40
:1003C000F0E0EC54FD4F0190F081E02D0995F091A3
:1003D0008501EF2FE17059F0F27011F00E94730166
:1003E0008F938F2F0E9411048F910E948901209179
:1003F0000001215020930001222311F40E94A90141
:10040000DF91CF912F902FBE7F906F905F904F9094
:100410003F902F900895CF92DF92EF92FF920F932B
:100420001F93DC01EC91DB012C918E2F8370C82E81
:10043000D12CE12CF12C8E2F8F7190E0A0E0B0E058
:1004400032E0B695A795979587953A95D1F7DC0157
:10045000A05DBC4F8C91C81AD108E108F108EC717D
:10046000422F437050E060E070E0822F8F7190E087
:10047000A0E0B0E0F2E0B695A79597958795FA953C
:10048000D1F7DC01A05DBC4F8C91481B510961097B
:100490007109822F8C719701860103701127222721
:1004A00033270E2B4370552766277727482B81E08B
:1004B00090E0041715072607370710F080E090E05A
:1004C0001F910F91FF90EF90DF90CF9008958F9242
:1004D0009F92AF92BF92EF92FF920F931F93CF9391
:1004E000DF937C014A015B01B694A79497948794AB
:1004F0004230510561057105E0F0440F551F870139
:10050000040F151FE401CC0FDD1FCE0DDF1DB80158
:10051000CE010E940B02892B61F0F801908181814C
:10052000288139813183208398838983B501A4018F
:10053000DBCFDF91CF911F910F91FF90EF90BF9094
:10054000AF909F908F9008954F925F926F927F929D
:100550008F929F92AF92BF92CF92DF92EF92FF92D3
:100560000F931F93CF93DF9300D000D000D0CDB76F
:10057000DEB78C016A017B01DC018C91282F30E011
:1005800040E050E029833A834B835C834601570166
:10059000880C991CAA1CBB1C29813A814B815C8167
:1005A000281539054A055B0508F442C024013501C8
:1005B0003FEF431A530A630A730A89819A81AB8118
:1005C000BC8184159505A605B70580F0B201660FBC
:1005D000771F600F711FC401880F991F800F911F33
:1005E0000E940B02892B11F0530142013401660C69
:1005F000771C600E711ECC0CDD1CD801AC0DBD1D2E
:10060000BE83AD83B301CD010E940B02892B81F023
:10061000ED81FE8190818181D3012D913C911197D3
:10062000318320839C9311968C9375016401AECF26
:1006300026960FB6F894DEBF0FBECDBFDF91CF91E7
:100640001F910F91FF90EF90DF90CF90BF90AF90F0
:100650009F908F907F906F905F904F900895EBEEFA
:10066000F5E040814F5F408350E060E070E0E82FAC
:10067000EE0FFF0BE85AFD4F0190F081E02D23852E
:1006800030E0F901E05DFC4F908191509083FA01D8
:10069000EE0FFF1FE551FA4F220F331F220F331FBA
:1006A0009370292B208381838BEE95E00C94670255
:1006B000EBEEF5E040814F5F408350E060E070E09A
:1006C000E82FEE0FFF0BE25BFD4F0190F081E02D74
:1006D0009381FA01EE0FFF1FE551FA4F908381835A
:1006E0008BEE95E00C946702CF93DF93EBEEF5E091
:1006F00080819FEF980F9083D281C38190E0880F13
:10070000991FDC01A551BA4F8D919C9193838283EF
:1007100041E050E060E070E0CF010E94A4028D2F24
:100720009C2FDF91CF91089580917D0190917E0162
:10073000A0917F01B09180018F3F2FEF9207A20718
:10074000B20731F00497A105B10524F481E00895C2
:1007500080E0089582E00895880F990BFC01E85A23
:10076000FD4F0190F081E02D0084F185E02D309760
:10077000F9F0228121111CC021E02283DC01A25B5F
:10078000BD4F0D90BC91A02D13968C911397818332
:10079000808190E0FC01E05DFC4F208121502083AE
:1007A000880F991F880F991F2370822B13968C93A3
:1007B0000895880F990BFC01E85AFD4F0190F081D4
:1007C000E02D0084F185E02D309761F02281213009
:1007D00049F412822181FC01E25BFD4F0190F0811E
:1007E000E02D238308958091810190918201A09151
:1007F0008301B091840140917D0150917E0160910F
:100800007F0170918001481759076A077B0741F003
:10081000E0917B01F0917C0121E024830C9458034A
:100820000895CF93DF93882391F0C0917501D09103
:100830007601E0917901F0917A018481833049F069
:1008400081E0848380917D010E94580302C0C0E052
:10085000D0E0E0917B01F0917C01F0937A01E0938C
:10086000790180917701909178019093760180933E
:1008700075018091810130918201209183019091D5
:10088000840180937D0130937E0120937F019093BA
:10089000800192E094830E94AC03CE01DF91CF915E
:1008A000089580917D010E94D903E0917901F09132
:1008B0007A018281882319F085E084830895148267
:1008C0000895CF93DF93282F220F330BF901E25BBA
:1008D000FD4FC081D1819A81F901E85AFD4F019005
:1008E000F081E02D2485921770F4911105C095E0F8
:1008F0009C8391E0909386010E942F038A818F5FF1
:100900008A8380E001C084E0DF91CF910895E82FD1
:10091000EE0FFF0BE25BFD4F0190F081E02D1182A5
:1009200010820C94650D1F93CF93DF930E94740384
:10093000182F892F492F092E000C550B660B770BAA
:1009400040938101509382016093830170938401ED
:10095000292F220F330BF901E25BFD4FC081D181BA
:10096000D0937C01C0937B01F901E85AFD4F2081AF
:10097000318130937801209377019C81953019F46F
:100980000E9487041B8310928601DF91CF911F91F3
:100990000895E0918101F0918201EE0FFF1FE25B6B
:1009A000FD4F0190F081E02D9091ED058381891735
:1009B00030F40E94F3030E94930483E001C080E0BE
:1009C00080938501089581E0809385010C949304C0
:1009D000EF92FF920F931F93CF93DF93C1E0D0E08C
:1009E00001C0CC0F8A95EAF70C2F84E00E946104C5
:1009F0008FEAE82E82E0F82E10E0F70181917F0166
:100A0000802319F0812F0E9461041F5F1430A9F721
:100A10008091AD028C2349F0809138029091390287
:100A200021E0FC0126870E9459058091AE02C8236F
:100A300079F080913A0290913B0221E0FC012687F7
:100A4000DF91CF911F910F91FF90EF900C9459057A
:100A5000DF91CF911F910F91FF90EF9008950E9429
:100A6000070781110E942807E0917901F0917A012E
:100A700080819181892B21F080917D010E94EF0876
:100A80000C9450080E94070781110E942807E091EA
:100A90007901F0917A0180819181892B21F08091F7
:100AA0007D010E94EF080C94380881E080930603D2
:100AB0000895AF92BF92CF92DF92EF92FF920F9381
:100AC0001F93CF93DF93FC01A081B181AD90BC90C7
:100AD000E501AC89BD89109739F04285538564855D
:100AE000758530E020E017C0D50155969C938E9314
:100AF000549757969C938E9356971582148213821F
:100B000012825BC012968D919C9113973A2F2B2FD6
:100B1000009779F0DC011A96CD90DD90ED90FC9075
:100B20001D974C155D056E057F0560F7CD01A32F60
:100B3000B22F93838283B583A483009719F0EC01CD
:100B4000FD83EC83109729F01396FC93EE93129794
:100B500005C0D5015596FC93EE935497E501AE89F7
:100B6000BF891A968D919D910D90BC91A02D0889F9
:100B700019892A893B8980179107A207B30780F456
:100B8000041715072607370728F0481759076A077B
:100B90007B0798F4D5015796FC93EE9356970DC0BA
:100BA000041715072607370740F4481759076A073F
:100BB0007B0718F4E501FF8BEE8BDF91CF911F913E
:100BC0000F91FF90EF90DF90CF90BF90AF9008957E
:100BD000CF93DF93DC01ED91FC9111970190F081AF
:100BE000E02D848995891296CD91DC911397A817F1
:100BF000B90711F4D58BC48B86899789A817B907D3
:100C000011F4D78BC68B209731F014968D919C915F
:100C100015979D838C8314960D90BC91A02D1097F1
:100C200021F01396DC93CE93129786899789892BAE
:100C300021F484899589978B868BDF91CF910895D4
:100C4000EF92FF920F931F93CF93DF93FC0180915C
:100C50000603882309F4B5C084859585A685B785E4
:100C60000196A11DB11D84879587A687B78740810E
:100C700051816281738184179507A607B70709F030
:100C8000A0C040895189628973894F5F5F4F6F4F60
:100C90007F4F84819581A681B78184179507A60728
:100CA000B70718F440E050E0BA01408B518B628BDB
:100CB000738B1486158616861786C689D789209762
:100CC00009F47FC08A859B85AC85BD854817590787
:100CD0006A077B0709F075C0CE01DC011296ED9022
:100CE000FC901397E114F10471F0D7011A960D915D
:100CF0001D912D913C911D97401751076207730775
:100D000011F4C701EACF2C813D812115310529F06D
:100D1000D9011396FC92EE921297E114F10429F096
:100D2000D70115963C932E93149724893589C217C1
:100D3000D30711F4F58AE48AE114F10419F0F78A73
:100D4000E68A04C024893589378B268B8F01FC0104
:100D500013821282EA80FB80E881F9810280F381AC
:100D6000E02DCE0109954E815F8168857985411519
:100D700051056105710509F18A859B85AC85BD85A5
:100D8000840F951FA61FB71FF80144815581668106
:100D90007781481759076A077B0738F4841B950B3E
:100DA000A60BB70B0197A109B1098A879B87AC876E
:100DB000BD87CE010E94590501C01E86E70120971C
:100DC00049F6DF91CF911F910F91FF90EF90089519
:100DD000FC0182810C9461040E94070780916801E4
:100DE0000895809368010E94E8040E9455050C94C0
:100DF000E3040C94640DCF93C82F0E9494038111D7
:100E000002C00E94A10D8C2FCF910C9417018091EC
:100E100013038130D9F080910B0390910C03A091C2
:100E20000D03B0910E03892B8A2B8B2B79F481E073
:100E300040910F03509110036091110370911203C0
:100E4000452B462B472B19F480E0089581E0089547
:100E50001092130310920F031092100310921103BB
:100E60001092120310920B0310920C0310920D03B8
:100E700010920E038091070390910803A09109033B
:100E8000B0910A038093140390931503A093160363
:100E9000B093170308950E94A40D809114039091BC
:100EA0001503A0911603B09117030196A11DB11D62
:100EB0008093140390931503A0931603B093170324
:100EC00080910F0390911003A0911103B091120330
:100ED0000196A11DB11D80930F0390931003A09361
:100EE0001103B0931203089580910F0390911003A2
:100EF000A0911103B09112030097A105B10569F10A
:100F000040911403509115036091160370911703DB
:100F1000415051096109710940931403509315031D
:100F200060931603709317030197A109B109809389
:100F30000F0390931003A0931103B09312038091B9
:100F4000140390911503A0911603B0911703892BF8
:100F50008A2B8B2B11F40C94A20D089580910F0312
:100F600090911003A0911103B0911203892B8A2B49
:100F70008B2B89F480910B0390910C03A0910D03AE
:100F8000B0910E03892B8A2B8B2B29F40E94A40D80
:100F900081E080931303089580911303882321F047
:100FA000109213030C94A20D08950E94A80D809135
:100FB000140390911503A0911603B09117030196A5
:100FC000A11DB11D8093140390931503A0931603E4
:100FD000B093170380910B0390910C03A0910D0324
:100FE000B0910E030196A11DB11D80930B03909348
:100FF0000C03A0930D03B0930E03089580910B038F
:1010000090910C03A0910D03B0910E030097A105E0
:10101000B10569F1409114035091150360911603D5
:1010200070911703415051096109710940931403EC
:101030005093150360931603709317030197A1094A
:10104000B10980930B0390930C03A0930D03B0930D
:101050000E038091140390911503A0911603B09193
:101060001703892B8A2B8B2B11F40C94A60D089552
:101070000E940707882311F083E1089580E0089516
:10108000CF93C82F0E9407078C2F0E946104C82F9E
:101090008091860181110E94C9048C2FCF910895FF
:1010A000CF930E940707882311F0C3E101C0C0E07D
:1010B000E0917901F0917A018281815082830E94CE
:1010C000510481E0809385010E9493048C2FCF917D
:1010D0000895CF93C82F0E940707E0917901F091FE
:1010E0007A018281815082838C2F0E946104C82FF3
:1010F000811108C00E94510481E0809385010E9403
:10110000930407C0E0917901F0917A0182818F5FA9
:1011100082838C2FCF910895CF930E940707882355
:1011200011F0C3E101C0C0E080917D010E94D903AC
:101130000E94C90480917D0190917E01A0917F0160
:10114000B0918001409181015091820160918301B1
:101150007091840184179507A607B70711F40E94C0
:10116000AC038C2FCF910895CF93DF93EC010E94B5
:101170000707882311F083E101C080E040917D01E1
:1011800050917E0160917F01709180014430510542
:101190006105710514F4488303C09091E2019883BE
:1011A000DF91CF9108950F931F93CF93C82F8B0199
:1011B0000E940707882311F083E101C080E0EC2F33
:1011C000EE0FFF0BE25BFD4F0190F081E02D94816B
:1011D0009370F8019083CF911F910F910895880F1C
:1011E000990BFC01E25BFD4FA081B181ED91FC9177
:1011F0001197309769F01D921C922091E201938122
:101200008481228314821382E92FF82F3097B9F753
:101210000895CF93C82F0E940707882311F083E118
:1012200001C080E0EC2FF0E0EE0FFF1FE855FD4F0E
:10123000A081B18190917D0112969C931297E091CB
:101240007901F0917A012081318114963C932E939B
:101250001397B183A083938111969C9311972C913E
:10126000938196959695921770F430E0D901A05D20
:10127000BC4F9C9191509C93220F331F220F331F20
:101280009370292B2383CF910895CF93DF93C82F99
:101290000E940707882311F0D3E101C0D0E0EC2FB2
:1012A000F0E0EE0FFF1FE855FD4F0190F081E02DBB
:1012B000A0917901B0917A01818113968C93139753
:1012C000838194818D939C93148213828091E20197
:1012D00082830E94C9048D2FDF91CF910895DC0194
:1012E000ED91FC9184819581DC01ED91FC91099453
:1012F0001F93CF93DF93182FEB010E9407078823DA
:1013000011F083E101C080E0E12FF0E0EE0FFF1F5C
:10131000E85CFD4F0190F081E02D0190F081E02D1F
:101320000190F081E02D40815181628173814C8375
:101330005D836E837F834481558166817781488395
:1013400059836A837B83408551856285738548878D
:1013500059876A877B87DF91CF911F9108958F927C
:101360009F92AF92BF92CF92DF92EF92FF920F9334
:101370001F93CF93C82F8B010E940707882311F07A
:1013800083E101C080E0EC2FF0E0EE0FFF1FE85C8E
:10139000FD4F0190F081E02D9685913029F5428531
:1013A0005385648575850190F081E02D0190F08171
:1013B000E02DC088D188E288F3884C155D056E0564
:1013C0007F0540F484809580A680B780480D591D24
:1013D0006A1D7B1D4C195D096E097F09F801408368
:1013E00051836283738301C085E0CF911F910F9178
:1013F000FF90EF90DF90CF90BF90AF909F908F9035
:1014000008958F929F92AF92BF92CF92DF92EF9208
:10141000FF920F931F93CF93DF93D82F4A015B0165
:10142000680179010E940707882311F0C3E101C018
:10143000C0E0ED2FF0E0EE0FFF1FE85CFD4F0190E4
:10144000F081E02D8685811130C0A081B1810D90A1
:10145000BC91A02D50964D915D916D917C915397CB
:10146000480D591D6A1D7B1D14968D919D910D90FF
:10147000BC91A02D84179507A607B70740F4481B19
:10148000590B6A0B7B0B4150510961097109428765
:10149000538764877587C682D782E086F18681E0AC
:1014A0008687CF010E94590501C0C7E08C2FDF91CC
:1014B000CF911F910F91FF90EF90DF90CF90BF9051
:1014C000AF909F908F9008958F929F92AF92BF920E
:1014D000CF92DF92EF92FF920F931F93CF93DF9300
:1014E000C82F4A015B01680179010E940707882320
:1014F00011F0D3E101C0D0E0EC2FF0E0EE0FFF1FC0
:10150000E85CFD4F0190F081E02D868581110EC0D1
:1015100082869386A486B586C682D782E086F186C7
:1015200081E08687CF010E94590501C0D7E08D2F49
:10153000DF91CF911F910F91FF90EF90DF90CF90AF
:10154000BF90AF909F908F9008950F931F93CF936C
:10155000DF93C82F0E940707882311F0D3E101C051
:10156000D0E0EC2FF0E0EE0FFF1FE85CFD4F0081B4
:101570001181F8018685813031F4C8010E94E805A7
:10158000F801168601C0D5E08D2FDF91CF911F9114
:101590000F91089560E082E00E94F80B26E040E0A1
:1015A00052EC61E070E085E493E00E94371522E0A0
:1015B0004DE063E088E193E00E941912882339F03E
:1015C00068EC70E080E090E00E94EC0CF0CF60E00E
:1015D00088E193E00C946D0FEF92FF920F93CF93FD
:1015E000C091AC028C2F0E94570120912C03809156
:1015F000730190917401222311F0880F991F909329
:101600007201809371018091710180936D0189E66F
:10161000E82E81E0F82E08E021E043E050E060E1B0
:101620007CEE88E193E00E949D12811106C063EE7A
:1016300071E085E493E00E941B138C2F0E945B01F4
:10164000CF910F91FF90EF900C943F01EF92FF929A
:101650000F93CF93C091AC028C2F0E9457018091C1
:101660002F0380936D0189E6E82E81E0F82E08E0D3
:1016700021E045E050E060E17CEE88E193E00E94EB
:101680009D1281110FC062EF71E085E493E00E942A
:101690001B1360912F0370E04AE050E085E493E073
:1016A0000E94D2138C2F0E945B01CF910F91FF906B
:1016B000EF900C943F01EF92FF920F93CF93C09164
:1016C000AC028C2F0E94570180912E0380936D01F4
:1016D00089E6E82E81E0F82E08E021E044E050E0C1
:1016E00060E17CEE88E193E00E949D1281110FC0C1
:1016F0006CE072E085E493E00E941B1360912E037E
:1017000070E04AE050E085E493E00E94D2138C2F11
:101710000E945B01CF910F91FF90EF900C943F01DD
:10172000EF92FF920F93CF93C091AC028C2F0E9447
:10173000570180912D0380936D0189E6E82E81E0A9
:10174000F82E08E021E046E050E060E17CEE88E120
:1017500093E00E949D1281110FC064E272E085E463
:1017600093E00E941B1360912D0370E04AE050E06B
:1017700085E493E00E94D2138C2F0E945B01CF91ED
:101780000F91FF90EF900C943F016AE088E193E0A5
:101790000C94061289EB91E00C94B001089583300B
:1017A00081F028F4813099F08230A1F008958730DB
:1017B000A9F08830B9F08430D1F4809180008F7D19
:1017C00003C0809180008F7780938000089584B556
:1017D0008F7702C084B58F7D84BD08958091B0005D
:1017E0008F7703C08091B0008F7D8093B000089503
:1017F000CF93DF9390E0FC01EA53FF4F2491FC016B
:10180000E652FF4F8491882361F190E0880F991F81
:10181000FC01E850FF4FC591D491FC01E251FF4F0C
:10182000A591B491611109C09FB7F8948881209562
:1018300082238883EC912E230BC0623061F49FB722
:10184000F8948881322F309583238883EC912E2B56
:101850002C939FBF06C08FB7F894E8812E2B288366
:101860008FBFDF91CF9108951F93CF93DF93282FE0
:1018700030E0F901EE54FF4F8491F901EA53FF4F34
:10188000D491F901E652FF4FC491CC23C1F0162F39
:1018900081110E94CF0BEC2FF0E0EE0FFF1FE25101
:1018A000FF4FA591B4919FB7F894111104C08C918A
:1018B000D095D82302C0EC91DE2BDC939FBFDF9143
:1018C000CF911F9108951F920F920FB60F9211247E
:1018D0002F933F934F935F936F937F938F939F9338
:1018E000AF93BF93EF93FF9380913C0390913D039F
:1018F000A0913E03B0913F0330913B0323E0230FBF
:101900002D3720F40196A11DB11D05C026E8230F37
:101910000296A11DB11D20933B0380933C0390933D
:101920003D03A0933E03B0933F0380914003909109
:101930004103A0914203B09143030196A11DB11D43
:101940008093400390934103A0934203B0934303D9
:101950000E94CA0BFF91EF91BF91AF919F918F9120
:101960007F916F915F914F913F912F910F900FBE9B
:101970000F901F9018952FB7F89460913C037091C9
:101980003D0380913E0390913F032FBF08953FB7E1
:10199000F8948091400390914103A0914203B0914B
:1019A000430326B5A89B05C02F3F19F00196A11D42
:1019B000B11D3FBFBA2FA92F982F8827820F911DE5
:1019C000A11DB11DBC01CD0142E0660F771F881F2C
:1019D000991F4A95D1F708958F929F92AF92BF9227
:1019E000CF92DF92EF92FF926B017C010E94C70CB5
:1019F0004B015C01C114D104E104F10401F10E9426
:101A0000620D0E94C70CDC01CB0188199909AA0953
:101A1000BB09883E9340A105B10560F321E0C21ADD
:101A2000D108E108F10888EE880E83E0981EA11C19
:101A3000B11CC114D104E104F10419F7DBCFFF900C
:101A4000EF90DF90CF90BF90AF909F908F900895D0
:101A500084B5826084BD84B5816084BD85B58260B3
:101A600085BD85B5816085BDEEE6F0E08081816051
:101A70008083E1E8F0E01082808182608083808151
:101A800081608083E0E8F0E0808181608083E1EB29
:101A9000F0E0808184608083E0EBF0E08081816011
:101AA0008083EAE7F0E080818460808380818260C7
:101AB00080838081816080838081806880831092B0
:101AC000C10008950895FFCFFFCFCF93DF93880F14
:101AD000990BFC01E85AFD4FC081D181AC81BD81D9
:101AE00011978A819B81A80FB91F2D85CD01019780
:101AF000FD013297223019F427E331E002C023E5DB
:101B000031E02C93DC013C939E818F819083DF0137
:101B10008E93CF0107971E928A179B07E1F780E803
:101B2000DF0118978C93CF0144971E928A179B0769
:101B3000E1F7A881B9817597ED93FC93DF91CF917F
:101B40000895089578940895F894089578940895E0
:101B5000F894089508950E94280D0E94AA0D0E94ED
:101B6000CE0B0E94CA0A809144030E94FB0680E0CB
:101B700090E008958091B3028093440308950895FE
:101B80001F920F920FB60F9211242F933F934F93F2
:101B90005F936F937F938F939F93AF93BF93EF93D5
:101BA000FF93E091DB01F091DC010995FF91EF914A
:101BB000BF91AF919F918F917F916F915F914F9165
:101BC0003F912F910F900FBE0F901F9018951F926D
:101BD0000F920FB60F9211242F933F934F935F9361
:101BE0006F937F938F939F93AF93BF93EF93FF93E5
:101BF000E091DD01F091DE010995FF91EF91BF9138
:101C0000AF919F918F917F916F915F914F913F9194
:101C10002F910F900FBE0F901F9018952091E40305
:101C2000222399F04FB7F8942091E403213059F41E
:101C30002DB32093E2033DB32091E30320952323AA
:101C40002DBB4FBF02C04093E2038CBD9DBD0895E4
:101C50008EBD00000DB407FEFDCF8EB508958091B6
:101C6000E403882361F09FB7F8942091E403809106
:101C7000E203213019F48DBB9FBF08958FBF0895F3
:101C8000CF93DF93EC0180E591E00E940E0E60E0BF
:101C90008A890E94340C80EC0E94280E61E08A89B7
:101CA0000E94340C0E942F0E65E070E080E090E00E
:101CB000DF91CF910C94EC0C1F93CF93DF93EC0149
:101CC000162F80E591E00E940E0E60E08A890E9446
:101CD000340C83E00E94280E812F0E94280E80E0A1
:101CE0000E94280E182F61E08A890E94340C0E94FD
:101CF0002F0E812FDF91CF911F9108950F931F9386
:101D0000CF93DF93EC01062F142F80E591E00E9422
:101D10000E0E60E08A890E94340C82E00E94280E38
:101D2000802F0E94280E812F0E94280E61E08A8950
:101D30000E94340CDF91CF911F910F910C942F0EC4
:101D4000DF92EF92FF920F931F93CF93DF938C015B
:101D5000C62FD42EE52EF22E80E591E00E940E0EC5
:101D600060E0F80182890E94340C82E00E94280E13
:101D70008C2F0E94280ECD2DDE2DCE018F0D911DB2
:101D80007C01EC16FD0621F089910E94280EF9CF06
:101D900061E0F80182890E94340CDF91CF911F919C
:101DA0000F91FF90EF90DF900C942F0EFF920F9306
:101DB0001F93CF93DF93EC01F62E042F122F80E5B3
:101DC00091E00E940E0E60E08A890E94340C85E04A
:101DD0000E94280E8F2D0E94280E802F0E94280E10
:101DE000812F0E94280E61E08A890E94340CDF91C5
:101DF000CF911F910F91FF900C942F0EEF92FF92B5
:101E00000F931F93CF93DF93EC01162F0E94BB0C0F
:101E1000062FE12EF12C212F40EE6FE0CE010E9423
:101E2000D60E6EE0CE010E945C0E807E90E08E1594
:101E30009F0539F00E94BB0C601B693C60F381E098
:101E400001C080E0DF91CF911F910F91FF90EF9043
:101E500008950F931F93CF93DF93EC01162F6EE03D
:101E60000E945C0E807E803221F5103211F16BE20F
:101E7000CE010E945C0E082F007486FD06C020E48F
:101E800040E46BE2CE010E94D60E20E440E46CE216
:101E9000CE010E94D60E60E6CE010E94FE0E811198
:101EA00016C0011106C020E040E46BE2CE010E94A2
:101EB000D60E20E040E46CE2CE010E94D60E612FE7
:101EC000CE01DF91CF911F910F910C94FE0E81E016
:101ED000DF91CF911F910F910895FC01638B0C94BA
:101EE000290FCF92DF92EF92FF920F931F93CF9320
:101EF000DF93342F3370313009F43FC008F466C0EB
:101F0000323009F0AAC0062F10E0F8013197EE3008
:101F1000F10508F0A2C0EC5CFF4F0C94F715C4E883
:101F2000D6EF23E987C0C4E8D6EF29E883C0C3E829
:101F3000D5EE27E87FC0C4E8D6EF25E87BC0C4E82B
:101F4000D6EF05C0C3E8D5EE02C0C1E8D3ED24E862
:101F500071C0C4E8D6EF02C0C3E8D5EE21E86AC07C
:101F6000C4E8D6EF02C0C3E8D5EE20E863C0C1E8FC
:101F7000D1ED2AC0C0E8D0EC27C0C62ED12CF60186
:101F80003197EE30F10508F068C0EE5BFF4F0C941E
:101F9000F715C4E8D6EF27E64DC0C4E8D6EF23E531
:101FA00049C0C3E8D5EE2EE445C0C4E8D6EF42C030
:101FB000C3E8D5EE23E43EC0C3E8D5EE27C0C3E8AE
:101FC000D5EE28C0C1E8DAEC20E034C0062F10E0DE
:101FD000F8013697E930F10508F03FC0E05BFF4FAC
:101FE0000C94F715C4E8D6EF29E424C0C7E8DFEF66
:101FF00024EC20C0C4E8D6EF05C0C3E8D5EE02C08B
:10200000C1E8D3ED24E416C0C4E8D6EF21E412C041
:10201000C4E8D6EF20E40EC0C2E8D9EDD5CFC4E8BD
:10202000D6EF27EA07C0C7E8DFEF2FE303C0C1E818
:10203000D3ED28E142FDCF778C01422F6AE20E9466
:102040007E0E4D2F69E2C8010E947E0E4C2F68E281
:10205000C8010E947E0E80E001C081E0DF91CF9137
:102060001F910F91FF90EF90DF90CF9008950F9305
:102070001F93CF93DF9300D000D0CDB7DEB74130B0
:10208000B1F40C831B83890122273327502F5C7105
:10209000402F437078E0579F400D112448604A83D9
:1020A00055E0169507955A95E1F709830DC0A801EB
:1020B00023E0569547952A95E1F749830295000F4D
:1020C000007E0A831C821B8224E0AE014F5F5F4FBB
:1020D0000E94A00E0F900F900F900F90DF91CF9164
:1020E0001F910F9108950F931F93CF93DF9300D00B
:1020F00000D0CDB7DEB7E62FF42FA90166277727EA
:102100000C831B83F13081F4342F3C71242F237016
:10211000F8E03F9F200D112428602A8335E0569572
:1021200047953A95E1F70AC0242F2295220F207E89
:102130002A8323E0569547952A95E1F7498324E0C1
:10214000AE014F5F5F4F6E2F0E94A00E0F900F9059
:102150000F900F90DF91CF911F910F9108950F93E2
:102160001F93CF93DF93EC0100E010E0980141E072
:1021700060E20E94731000E010E0980141E064E228
:10218000CE010E94731000E010E0980141E060E091
:10219000CE010E94731000E010E0980140E064E07E
:1021A000CE010E94731000E010E0980141E068E069
:1021B000CE010E94731000E010E0980140E060E161
:1021C000CE010E94731000E010E0980141E064E14C
:1021D000CE010E94731000E010E0980140E068E139
:1021E000CE010E94731010E340E0612FCE010E94E7
:1021F0007E0E60E1610F40E0CE010E947E0E60E243
:10220000610F40E0CE010E947E0E1F5F1E3361F71A
:1022100040E060E6CE010E947E0E40E060E7CE0125
:10222000DF91CF911F910F910C947E0EEF92FF9250
:102230000F931F93CF93DF93EC01062FF42EE22E22
:102240000E94400E80E48B8B60E8CE010E94290F33
:10225000182F882341F065EA71E085E493E00E943D
:102260002813812F5CC06DE771E085E493E00E9444
:1022700028134E2D6F2DCE010E94710F882339F047
:1022800061E671E085E493E00E94281347C064E4AE
:1022900071E085E493E00E942813CE010E94AF1004
:1022A00043E06BE2CE010E947E0E4CE36CE0CE0177
:1022B0000E947E0E40E06DE0CE010E947E0E002363
:1022C00051F0033019F524E644E660E6CE010E94A1
:1022D000D60E20E607C024E044E660E6CE010E9468
:1022E000D60E20E040E660E7CE010E94D60E6B8954
:1022F000CE010E94290FC82F882381F062E071E08F
:1023000085E493E00E9428138C2F09C068E271E0F5
:1023100085E493E00E94281381E001C080E0DF9112
:10232000CF911F910F91FF90EF900895FF920F931F
:102330001F93CF93DF93EC01F62EAC014A5F5F4F02
:1023400065E06F0D2D810E94A00E8E85813019F4FD
:102350008D8180648D8364E06F0D4D81CE010E947C
:102360007E0E09811A812B813C8148816F2DCE011F
:102370000E943710DF91CF911F910F91FF90089528
:102380008F929F92AF92BF92CF92DF92EF92FF9285
:102390001F93CF93DF9300D01F92CDB7DEB74C01D0
:1023A0006B018091DF019091E001A091E1018983AF
:1023B0009A83AB83FB011082CE0101967C015E0102
:1023C00094E0A90EB11CF70111917F01612FC401A6
:1023D0000E945C0E982F987083FD04C01F5FF60169
:1023E000108304C0EA14FB0471F792E0892F0F9068
:1023F0000F900F90DF91CF911F91FF90EF90DF90A2
:10240000CF90BF90AF909F908F900895CF93DF9320
:10241000EC01862F6A8B61E00E94340C61E08A89AE
:102420000E94F80B86EE93E0998B888BDF91CF9119
:102430000895FF920F931F93CF93DF93EC01162F14
:10244000042FF22E0E949C152F2D402F612FCE01BC
:102450000E94161191E0811101C090E0892FDF9157
:10246000CF911F910F91FF900895BF92CF92DF926D
:10247000EF92FF920F931F93CF93DF931F92CDB7ED
:10248000DEB78C010E94C70C6B017C01BE016F5F3F
:102490007F4FC8010E94C011B82E0E94C70CDC01FA
:1024A000CB018C199D09AE09BF0922E0B21206C00A
:1024B000843C9940A105B10548F331C0843C994062
:1024C000A105B10560F56981C8010E949611698175
:1024D000615028E048E0C8010E94D60E0E94C70C57
:1024E0006B017C0169816150C8010E945C0EB82EAD
:1024F0000E94C70CDC01CB018C199D09AE09BF09F4
:10250000B3FE06C0843C9940A105B10558F309C04B
:10251000843C9940A105B10520F480E003C086E029
:1025200001C087E00F90DF91CF911F910F91FF9035
:10253000EF90DF90CF90BF900895EF92FF920F93AE
:10254000FC01418352836383748316862083058351
:10255000F701DC0116969C01225F3F4F41914D939C
:10256000A217B307D9F70F91FF90EF900C94351293
:10257000CF92DF92EF92FF920F931F93CF93DF934F
:102580006C017A018B01C0E0D0E0CE15DF0581F04F
:10259000D8016D918D01D601ED91FC910190F081F2
:1025A000E02DC6010995892B11F02196EECF7E0111
:1025B000C701DF91CF911F910F91FF90EF90DF90B6
:1025C000CF9008956115710579F0FB01019000200D
:1025D000E9F73197AF01461B570BDC01ED91FC91F8
:1025E0000280F381E02D099480E090E00895EF925D
:1025F000FF920F931F93CF93DF938C017B01C0E079
:10260000D0E0F701EC0FFD1F6491662361F0D80163
:10261000ED91FC910190F081E02DC8010995892B85
:1026200011F02196EECFCE01DF91CF911F910F9146
:10263000FF90EF9008950C94E212DC01ED91FC9173
:102640000190F081E02D099464EE72E00C94E212A6
:102650000F931F93CF93DF93EC010E94F7128C012D
:10266000CE010E942413800F911FDF91CF911F9103
:102670000F9108958F929F92AF92BF92EF92FF9227
:102680000F931F93CF93DF93CDB7DEB7A1970FB60C
:10269000F894DEBF0FBECDBF7C01FA01CB0119A2B9
:1026A000223008F42AE08E010F5D1F4F822E912CFC
:1026B000A12CB12CBF01A50194010E94D515F901EF
:1026C000CA01015011096A3014F4605D01C0695CEF
:1026D000D8016C93232B242B252B61F7B801C7015C
:1026E0000E94E212A1960FB6F894DEBF0FBECDBFD6
:1026F000DF91CF911F910F91FF90EF90BF90AF901E
:102700009F908F900895CF92DF92EF92FF920F9358
:102710001F93CF93DF932115310581F4DC01ED91F7
:10272000FC910190F081E02D642FDF91CF911F91FA
:102730000F91FF90EF90DF90CF9009942A303105F0
:1027400001F577FF1DC06A017B01EC016DE20E947B
:102750001D138C0144275527BA014C195D096E09D8
:102760007F092AE0CE010E943A13800F911FDF916A
:10277000CF911F910F91FF90EF90DF90CF90089530
:102780002AE0DF91CF911F910F91FF90EF90DF90A2
:10279000CF900C943A139A01AB01770F660B770B2D
:1027A0000C9483130F931F93CF93DF93EC010E943C
:1027B000CB138C01CE010E942413800F911FDF9157
:1027C000CF911F910F9108951F920F920FB60F9204
:1027D00011242F938F939F93EF93FF93E0915503D1
:1027E000F09156038081E0915B03F0915C0382FDE0
:1027F00012C0908180915E038F5F8F7320915F0381
:10280000821751F0E0915E03F0E0EB5BFC4F958F97
:1028100080935E0301C08081FF91EF919F918F9122
:102820002F910F900FBE0F901F9018951F920F922F
:102830000FB60F9211242F933F934F935F936F9393
:102840007F938F939F93AF93BF93EF93FF9385E411
:1028500093E00E94A614FF91EF91BF91AF919F91D9
:102860008F917F916F915F914F913F912F910F9039
:102870000FBE0F901F901895E5E4F3E013821282CB
:1028800088EE93E0A0E0B0E084839583A683B783CD
:1028900087EF92E09183808385EC90E09587848731
:1028A00084EC90E09787868780EC90E0918B808B1A
:1028B00081EC90E0938B828B82EC90E0958B848B03
:1028C00086EC90E0978B868B118E128E138E148E71
:1028D0000895FC01918D228D892F90E0805C9F4F9F
:1028E000821B91098F7399270895FC01918D828D28
:1028F000981731F0828DE80FF11D858D90E00895D5
:102900008FEF9FEF0895FC01918D828D981761F0F4
:10291000828DDF01A80FB11D5D968C91928D9F5F16
:102920009F73928F90E008958FEF9FEF0895FC01C1
:10293000538D448D252F30E0842F90E0821B930B24
:10294000541710F0CF96089501970895FC01848DD7
:10295000DF01A80FB11DA35ABF4F2C91848D90E0C9
:1029600001968F739927848FA689B7892C93A089A4
:10297000B1898C91837080648C93938D848D98132E
:1029800006C00288F389E02D80818F7D80830895C1
:10299000EF92FF920F931F93CF93DF93EC0181E0AF
:1029A000888F9B8D8C8D981305C0E889F98980816B
:1029B00085FD26C0F62E0B8D10E00F5F1F4F0F73A5
:1029C0001127E02E8C8DE8120CC00FB607FCFACF51
:1029D000E889F989808185FFF5CFCE010E94A61490
:1029E000F1CF8B8DFE01E80FF11DE35AFF4FF0820E
:1029F0009FB7F8940B8FEA89FB89808180620AC0B7
:102A00009FB7F894EE89FF896083E889F98980810E
:102A10008370806480839FBF81E090E0DF91CF91DD
:102A20001F910F91FF90EF900895CF93DF93EC01EA
:102A3000888D8823C9F0EA89FB89808185FD05C0DE
:102A4000A889B9898C9186FD0FC00FB607FCF5CF18
:102A5000808185FFF2CFA889B9898C9185FFEDCF60
:102A6000CE010E94A614E7CFDF91CF910895CF92B7
:102A7000DF92EF92FF921F93CF93DF93EC016A01F5
:102A80007B01122FE889F98982E080834115514E3C
:102A900061057105B1F060E079E08DE390E0A70198
:102AA00096010E94D515DA01C9010197A109B10962
:102AB000B695A795979587959C01211580E13807D4
:102AC000A8F0E889F989108260E874E88EE190E066
:102AD000A70196010E94D515DA01C9010197A10944
:102AE000B109B695A795979587959C01EC85FD85CD
:102AF0003083EE85FF852083188EEC89FD89108355
:102B0000EA89FB89808180618083EA89FB898081F1
:102B100088608083EA89FB89808180688083EA8974
:102B2000FB8980818F7D8083DF91CF911F91FF9002
:102B3000EF90DF90CF900895CF93CFB7F894809126
:102B4000E503811127C0E4EEF0E08491E0EDF0E0D0
:102B50009491E82FF0E0EE0FFF1FE850FF4FA59192
:102B6000B491EC91E92321F461E08AE00E94340CF5
:102B700061E08AE00E94F80B8CB580618CBD8CB559
:102B800080648CBD61E08DE00E94F80B61E08BE019
:102B90000E94F80B8091E5038F5F8093E503CFBF20
:102BA000CF910895F8940C94FD15A1E21A2EAA1B5A
:102BB000BB1BFD010DC0AA1FBB1FEE1FFF1FA217ED
:102BC000B307E407F50720F0A21BB30BE40BF50BEA
:102BD000661F771F881F991F1A9469F76095709573
:102BE000809590959B01AC01BD01CF010895EE0F3A
:0E2BF000FF1F0590F491E02D0994F894FFCF9B
:102BFE0000000000000000000000000000000000C7
:102C0E0000000000000000000000000000000000B6
:102C1E0000000000000000000000000000000000A6
:102C2E000000000000000000000000000000000096
:102C3E000000000000000000000000000000000086
:102C4E000000000000000000000000000000000076
:102C5E000000000000000000FFFFFFFFFFFFFFFF6E
:102C6E00FF0300030000009A0200003603FFFFFF7F
:102C7E00FFFFFFFFFF00003C02000000000C000001
:102C8E00001E000000024502000000000F000000C0
:102C9E000F0000000200000004000000000400000D
:102CAE0000000300000000020001000000FFFF0012
:102CBE000001000000000000000000000000000005
:102CCE00000500FF00000100FF0000BF0DBF0D302A
:102CDE004050FF43414E205261696E2053454E5481
:102CEE002E0043414E204D534720427265616B20AA
:102CFE00706564616C2053454E543A0043414E203A
:102D0E004D53472047617320706564616C205345B5
:102D1E004E543A0043414E204D5347206661756C28
:102D2E00742053454E543A0096018701B9016F093C
:102D3E004202E80600B9016F094B02E80601B40130
:102D4E00AF01AA01A50136038C027E027002620257
:102D5E009A024D08FD060001260B00000304010037
:102D6E00E704EB0400015B0B000002040100E90420
:102D7E00F9050001EC0A000001030100FB06E70360
:102D8E000001900B000000020100F906FD07500043
:102D9E00630D000004000100D601D1010001010005
:102DAE0000000000FE07CC07D507AE0742054B0713
:102DBE002F0574075008F106F90609094008450960
:102DCE0069087809B408AF09EC06010A8C08640A90
:102DDE00A50AD3080D0A006E616E00696E66006F5B
:102DEE0076660000000000C814B812971415156915
:062DFE001483147514009B
:00000001FF
