:100000000C94E9000C947D0D0C94A40D0C9411013A
:100010000C9411010C9411010C9411010C94110118
:100020000C9411010C9411010C9411010C94110108
:100030000C9411010C9411010C9411010C941101F8
:100040000C94200C0C9411010C94F0120C942213BB
:100050000C9411010C9411010C9411010C941101D8
:100060000C9411010C941101CC0F4C0F500F540F34
:10007000580F5C0F5F0F620F660F690F6D0F700FE7
:10008000740F770FD00F860F8A0FEA0F8E0FAF0F06
:10009000920FB70FBA0F950FC10F990F9C0F9F0FBB
:1000A000D40FAF0FB30FB70FBA0FBD0FC10FC50FEE
:1000B000C90F00000008000201000003040700004F
:1000C000000000000000010204081020408001022E
:1000D000040810200102040810200404040404048D
:1000E00004040202020202020303030303030000EA
:1000F0000000250028002B0000000000240027003D
:100100002A0052657475726E696E6720746F205094
:10011000726576696F7573204D6F646520466169FD
:100120006C7572652E2E2E006053657474696E674F
:10013000204944204D6F6465204661696C75726585
:100140002E2E2E0053657474696E672042617564AB
:1001500072617465205375636365737366756C2192
:100160000053657474696E672042617564726174CE
:1001700065204661696C7572652E2E2E00456E7481
:100180006572696E6720436F6E6669677572617428
:10019000696F6E204D6F646520537563636573737B
:1001A00066756C2100456E746572696E6720436FD9
:1001B0006E66696775726174696F6E204D6F6465F4
:1001C000204661696C7572652E2E2E00820B770DAC
:1001D000481311241FBECFEFD8E0DEBFCDBF13E020
:1001E000A0E0B1E0E6E1FAE202C005900D92AA318A
:1001F000B107D9F728E0AAE1B3E001C01D92A53606
:10020000B207E1F710E0C9EED0E004C02197FE018B
:100210000E940315C63ED107C9F70E94680D0C94D1
:10022000DE140C940000E2E10E94B8010895E9E0B8
:100230000E94B8010895EAE00E94B8010895E1E043
:100240000E94B8010895E3E00E94B8010895E7E034
:100250000E94B8010895E5E00E94B8010895E0E029
:100260000E94B8010895E2E00E94B8010895E4E018
:100270000E94B8010895ECE00E94B8010895E8E0FA
:100280000E94B8010895EEE00E94B8010895E4E1EB
:100290000E94B8010895E0E10E94B8010895E7E1E5
:1002A0000E94B8010895E6E00E94B8010895EBE0CD
:1002B0000E94B8010895EDE00E94B8010895EFE0B2
:1002C0000E94B8010895E1E10E94B8010895E3E1B8
:1002D0000E94B8010895E5E10E94B8010895E6E1A1
:1002E0000E94B801089521968A929A92AA92BA928F
:1002F000CA92DA92EA92FA920A931A932197E091BB
:100300008B01F0918C010080F181E02DC083D183BD
:100310000895C0918D01D0918E01E881F981C0814D
:10032000D181219619910991F990E990D990C990BC
:10033000B990A99099908990219708952F903F9016
:10034000E7E6F1E0CDB7DEB7EDBFFEBF3F922F92FB
:1003500008952F903F90CDBFDEBF3F922F9208951A
:10036000E0E80E94B8010895E0E40E94B801089511
:100370002F923F924F925F926F927F922FB62F9261
:10038000CF93DF937E2EF894E0910001EF5FE0932E
:100390000001E13011F40E949E01E0E0E0939B0136
:1003A000E72DE07849F00E942006F0919C01F17061
:1003B00071F00E94C9040BC0E72DEC3140F4EE0F40
:1003C000F0E0E753FD4F0190F081E02D0995F091A9
:1003D0009B01EF2FE17059F0F27011F00E94730150
:1003E0008F938F2F0E9411048F910E948901209179
:1003F0000001215020930001222311F40E94A90141
:10040000DF91CF912F902FBE7F906F905F904F9094
:100410003F902F900895CF92DF92EF92FF920F932B
:100420001F93DC01EC91DB012C918E2F8370C82E81
:10043000D12CE12CF12C8E2F8F7190E0A0E0B0E058
:1004400032E0B695A795979587953A95D1F7DC0157
:10045000AA5BBC4F8C91C81AD108E108F108EC7175
:10046000422F437050E060E070E0822F8F7190E087
:10047000A0E0B0E0F2E0B695A79597958795FA953C
:10048000D1F7DC01AA5BBC4F8C91481B5109610973
:100490007109822F8C719701860103701127222721
:1004A00033270E2B4370552766277727482B81E08B
:1004B00090E0041715072607370710F080E090E05A
:1004C0001F910F91FF90EF90DF90CF9008958F9242
:1004D0009F92AF92BF92EF92FF920F931F93CF9391
:1004E000DF937C014A015B01B694A79497948794AB
:1004F0004230510561057105E0F0440F551F870139
:10050000040F151FE401CC0FDD1FCE0DDF1DB80158
:10051000CE010E940B02892B61F0F801908181814C
:10052000288139813183208398838983B501A4018F
:10053000DBCFDF91CF911F910F91FF90EF90BF9094
:10054000AF909F908F9008954F925F926F927F929D
:100550008F929F92AF92BF92CF92DF92EF92FF92D3
:100560000F931F93CF93DF9300D000D000D0CDB76F
:10057000DEB78C016A017B01DC018C91282F30E011
:1005800040E050E029833A834B835C834601570166
:10059000880C991CAA1CBB1C29813A814B815C8167
:1005A000281539054A055B0508F442C024013501C8
:1005B0003FEF431A530A630A730A89819A81AB8118
:1005C000BC8184159505A605B70580F0B201660FBC
:1005D000771F600F711FC401880F991F800F911F33
:1005E0000E940B02892B11F0530142013401660C69
:1005F000771C600E711ECC0CDD1CD801AC0DBD1D2E
:10060000BE83AD83B301CD010E940B02892B81F023
:10061000ED81FE8190818181D3012D913C911197D3
:10062000318320839C9311968C9375016401AECF26
:1006300026960FB6F894DEBF0FBECDBFDF91CF91E7
:100640001F910F91FF90EF90DF90CF90BF90AF90F0
:100650009F908F907F906F905F904F900895E1E012
:10066000F7E040814F5F408350E060E070E0E82FAA
:10067000EE0FFF0BE259FD4F0190F081E02D238535
:1006800030E0F901EA5BFC4F908191509083FA01D0
:10069000EE0FFF1FEF5FF84F220F331F220F331FA4
:1006A0009370292B2083818381E097E00C9467026B
:1006B000E1E0F7E040814F5F408350E060E070E0B0
:1006C000E82FEE0FFF0BEC59FD4F0190F081E02D6C
:1006D0009381FA01EE0FFF1FEF5FF84F9083818344
:1006E00081E097E00C946702CF93DF93E1E0F7E0BD
:1006F00080819FEF980F9083D281C38190E0880F13
:10070000991FDC01AF5FB84F8D919C9193838283D9
:1007100041E050E060E070E0CF010E94A4028D2F24
:100720009C2FDF91CF910895809193019091940136
:10073000A0919501B09196018F3F2FEF9207A207EC
:10074000B20731F00497A105B10524F481E00895C2
:1007500080E0089582E00895880F990BFC01E2592A
:10076000FD4F0190F081E02D0084F185E02D309760
:10077000F9F0228121111CC021E02283DC01AC5957
:10078000BD4F0D90BC91A02D13968C911397818332
:10079000808190E0FC01EA5BFC4F208121502083A6
:1007A000880F991F880F991F2370822B13968C93A3
:1007B0000895880F990BFC01E259FD4F0190F081DB
:1007C000E02D0084F185E02D309761F02281213009
:1007D00049F412822181FC01EC59FD4F0190F08116
:1007E000E02D238308958091970190919801A09125
:1007F0009901B0919A0140919301509194016091B7
:10080000950170919601481759076A077B0741F0D7
:10081000E0919101F091920121E024830C9458031E
:100820000895CF93DF93882391F0C0918B01D091ED
:100830008C01E0918F01F09190018481833049F027
:1008400081E08483809193010E94580302C0C0E03C
:10085000D0E0E0919101F0919201F0939001E0934A
:100860008F0180918D0190918E0190938C018093E6
:100870008B0180919701309198012091990190917D
:100880009A01809393013093940120939501909362
:10089000960192E094830E94AC03CE01DF91CF9148
:1008A0000895809193010E94D903E0918F01F09106
:1008B00090018281882319F085E084830895148251
:1008C0000895CF93DF93282F220F330BF901EC59B2
:1008D000FD4FC081D1819A81F901E259FD4F01900C
:1008E000F081E02D2485921770F4911105C095E0F8
:1008F0009C8391E090939C010E942F038A818F5FDB
:100900008A8380E001C084E0DF91CF910895E82FD1
:10091000EE0FFF0BEC59FD4F0190F081E02D11829D
:1009200010820C94220D1F93CF93DF930E947403C7
:10093000182F892F492F092E000C550B660B770BAA
:1009400040939701509398016093990170939A0195
:10095000292F220F330BF901EC59FD4FC081D181B2
:10096000D0939201C0939101F901E259FD4F20818A
:10097000318130938E0120938D019C81953019F443
:100980000E9487041B8310929C01DF91CF911F91DD
:100990000895E0919701F0919801EE0FFF1FEC5937
:1009A000FD4F0190F081E02D90910307838189171D
:1009B00030F40E94F3030E94930483E001C080E0BE
:1009C00080939B01089581E080939B010C94930494
:1009D000EF92FF920F931F93CF93DF93C1E0D0E08C
:1009E00001C0CC0F8A95EAF70C2F84E00E946104C5
:1009F00084ECE82E82E0F82E10E0F70181917F016F
:100A0000802319F0812F0E9461041F5F1430A9F721
:100A10008091C2028C2349F080914E0290914F0246
:100A200021E0FC0126870E9459058091C302C8235A
:100A300079F0809150029091510221E0FC012687CB
:100A4000DF91CF911F910F91FF90EF900C9459057A
:100A5000DF91CF911F910F91FF90EF9008950E9429
:100A6000070781110E942807E0918F01F091900102
:100A700080819181892B21F0809193010E94EF0860
:100A80000C9450080E94070781110E942807E091EA
:100A90008F01F091900180819181892B21F08091CB
:100AA00093010E94EF080C94380881E080931A03A8
:100AB0000895AF92BF92CF92DF92EF92FF920F9381
:100AC0001F93CF93DF93FC01A081B181AD90BC90C7
:100AD000E501AC89BD89109739F04285538564855D
:100AE000758530E020E017C0D50155969C938E9314
:100AF000549757969C938E9356971582148213821F
:100B000012825BC012968D919C9113973A2F2B2FD6
:100B1000009779F0DC011A96CD90DD90ED90FC9075
:100B20001D974C155D056E057F0560F7CD01A32F60
:100B3000B22F93838283B583A483009719F0EC01CD
:100B4000FD83EC83109729F01396FC93EE93129794
:100B500005C0D5015596FC93EE935497E501AE89F7
:100B6000BF891A968D919D910D90BC91A02D0889F9
:100B700019892A893B8980179107A207B30780F456
:100B8000041715072607370728F0481759076A077B
:100B90007B0798F4D5015796FC93EE9356970DC0BA
:100BA000041715072607370740F4481759076A073F
:100BB0007B0718F4E501FF8BEE8BDF91CF911F913E
:100BC0000F91FF90EF90DF90CF90BF90AF9008957E
:100BD000CF93DF93DC01ED91FC9111970190F081AF
:100BE000E02D848995891296CD91DC911397A817F1
:100BF000B90711F4D58BC48B86899789A817B907D3
:100C000011F4D78BC68B209731F014968D919C915F
:100C100015979D838C8314960D90BC91A02D1097F1
:100C200021F01396DC93CE93129786899789892BAE
:100C300021F484899589978B868BDF91CF910895D4
:100C4000EF92FF920F931F93CF93DF93FC0180915C
:100C50001A03882309F4B5C084859585A685B785D0
:100C60000196A11DB11D84879587A687B78740810E
:100C700051816281738184179507A607B70709F030
:100C8000A0C040895189628973894F5F5F4F6F4F60
:100C90007F4F84819581A681B78184179507A60728
:100CA000B70718F440E050E0BA01408B518B628BDB
:100CB000738B1486158616861786C689D789209762
:100CC00009F47FC08A859B85AC85BD854817590787
:100CD0006A077B0709F075C0CE01DC011296ED9022
:100CE000FC901397E114F10471F0D7011A960D915D
:100CF0001D912D913C911D97401751076207730775
:100D000011F4C701EACF2C813D812115310529F06D
:100D1000D9011396FC92EE921297E114F10429F096
:100D2000D70115963C932E93149724893589C217C1
:100D3000D30711F4F58AE48AE114F10419F0F78A73
:100D4000E68A04C024893589378B268B8F01FC0104
:100D500013821282EA80FB80E881F9810280F381AC
:100D6000E02DCE0109954E815F8168857985411519
:100D700051056105710509F18A859B85AC85BD85A5
:100D8000840F951FA61FB71FF80144815581668106
:100D90007781481759076A077B0738F4841B950B3E
:100DA000A60BB70B0197A109B1098A879B87AC876E
:100DB000BD87CE010E94590501C01E86E70120971C
:100DC00049F6DF91CF911F910F91FF90EF90089519
:100DD000FC0182810C9461040E94070780916801E4
:100DE0000895809368010E94E8040E9455050C94C0
:100DF000E3040C94210DCF93C82F0E94940381111A
:100E000002C00E945E0D8C2FCF910C94170180912F
:100E100027038130D9F080911F0390912003A09186
:100E20002103B0912203892B8A2B8B2B79F481E04B
:100E30004091230350912403609125037091260370
:100E4000452B462B472B19F480E0089581E0089547
:100E5000109227031092230310922403109225036B
:100E60001092260310921F03109220031092210368
:100E70001092220380911B0390911C03A0911D03EB
:100E8000B0911E038093280390932903A0932A0313
:100E9000B0932B0308950E94610D809128039091D7
:100EA0002903A0912A03B0912B030196A11DB11D26
:100EB0008093280390932903A0932A03B0932B03D4
:100EC0008091230390912403A0912503B0912603E0
:100ED0000196A11DB11D8093230390932403A09339
:100EE0002503B09326030895809123039091240352
:100EF000A0912503B09126030097A105B10569F1E2
:100F0000409128035091290360912A0370912B038B
:100F100041505109610971094093280350932903F5
:100F200060932A0370932B030197A109B109809361
:100F3000230390932403A0932503B0932603809169
:100F4000280390912903A0912A03B0912B03892BA8
:100F50008A2B8B2B11F40C945F0D08958091230341
:100F600090912403A0912503B0912603892B8A2B0D
:100F70008B2B89F480911F0390912003A091210372
:100F8000B0912203892B8A2B8B2B29F40E94610DAF
:100F900081E080932703089580912703882321F01F
:100FA000109227030C945F0D08950E94650D8091A7
:100FB000280390912903A0912A03B0912B03019655
:100FC000A11DB11D8093280390932903A0932A03A8
:100FD000B0932B0380911F0390912003A0912103D4
:100FE000B09122030196A11DB11D80931F03909320
:100FF0002003A0932103B0932203089580911F033F
:1010000090912003A0912103B09122030097A105A4
:10101000B10569F1409128035091290360912A0399
:1010200070912B03415051096109710940932803C4
:101030005093290360932A0370932B030197A1090E
:10104000B10980931F0390932003A0932103B093D1
:1010500022038091280390912903A0912A03B09143
:101060002B03892B8A2B8B2B11F40C94630D089581
:101070000E940707882311F083E1089580E0089516
:10108000CF93C82F0E9407078C2F0E946104C82F9E
:1010900080919C0181110E94C9048C2FCF910895E9
:1010A000CF930E940707882311F0C3E101C0C0E07D
:1010B000E0918F01F09190018281815082830E94A2
:1010C000510481E080939B010E9493048C2FCF9167
:1010D0000895CF93C82F0E940707E0918F01F091E8
:1010E00090018281815082838C2F0E946104C82FDD
:1010F000811108C00E94510481E080939B010E94ED
:10110000930407C0E0918F01F091900182818F5F7D
:1011100082838C2FCF910895CF930E940707882355
:1011200011F0C3E101C0C0E0809193010E94D90396
:101130000E94C9048091930190919401A09195011E
:10114000B091960140919701509198016091990159
:1011500070919A0184179507A607B70711F40E94AA
:10116000AC038C2FCF910895CF93DF93EC010E94B5
:101170000707882311F083E101C080E040919301CB
:101180005091940160919501709196014430510500
:101190006105710514F4488303C09091F8019883A8
:1011A000DF91CF9108950F931F93CF93C82F8B0199
:1011B0000E940707882311F083E101C080E0EC2F33
:1011C000EE0FFF0BEC59FD4F0190F081E02D948163
:1011D0009370F8019083CF911F910F910895880F1C
:1011E000990BFC01EC59FD4FA081B181ED91FC916F
:1011F0001197309769F01D921C922091F80193810C
:101200008481228314821382E92FF82F3097B9F753
:101210000895CF93C82F0E940707882311F083E118
:1012200001C080E0EC2FF0E0EE0FFF1FE254FD4F15
:10123000A081B1819091930112969C931297E091B5
:101240008F01F09190012081318114963C932E936F
:101250001397B183A083938111969C9311972C913E
:10126000938196959695921770F430E0D901AA5B18
:10127000BC4F9C9191509C93220F331F220F331F20
:101280009370292B2383CF910895CF93DF93C82F99
:101290000E940707882311F0D3E101C0D0E0EC2FB2
:1012A000F0E0EE0FFF1FE254FD4F0190F081E02DC2
:1012B000A0918F01B0919001818113968C93139727
:1012C000838194818D939C93148213828091F80181
:1012D00082830E94C9048D2FDF91CF910895DC0194
:1012E000ED91FC9184819581DC01ED91FC91099453
:1012F0001F93CF93DF93182FEB010E9407078823DA
:1013000011F083E101C080E0E12FF0E0EE0FFF1F5C
:10131000E25BFD4F0190F081E02D0190F081E02D26
:101320000190F081E02D40815181628173814C8375
:101330005D836E837F834481558166817781488395
:1013400059836A837B83408551856285738548878D
:1013500059876A877B87DF91CF911F9108958F927C
:101360009F92AF92BF92CF92DF92EF92FF920F9334
:101370001F93CF93C82F8B010E940707882311F07A
:1013800083E101C080E0EC2FF0E0EE0FFF1FE25B95
:10139000FD4F0190F081E02D9685913029F5428531
:1013A0005385648575850190F081E02D0190F08171
:1013B000E02DC088D188E288F3884C155D056E0564
:1013C0007F0540F484809580A680B780480D591D24
:1013D0006A1D7B1D4C195D096E097F09F801408368
:1013E00051836283738301C085E0CF911F910F9178
:1013F000FF90EF90DF90CF90BF90AF909F908F9035
:1014000008958F929F92AF92BF92CF92DF92EF9208
:10141000FF920F931F93CF93DF93D82F4A015B0165
:10142000680179010E940707882311F0C3E101C018
:10143000C0E0ED2FF0E0EE0FFF1FE25BFD4F0190EB
:10144000F081E02D8685811130C0A081B1810D90A1
:10145000BC91A02D50964D915D916D917C915397CB
:10146000480D591D6A1D7B1D14968D919D910D90FF
:10147000BC91A02D84179507A607B70740F4481B19
:10148000590B6A0B7B0B4150510961097109428765
:10149000538764877587C682D782E086F18681E0AC
:1014A0008687CF010E94590501C0C7E08C2FDF91CC
:1014B000CF911F910F91FF90EF90DF90CF90BF9051
:1014C000AF909F908F9008958F929F92AF92BF920E
:1014D000CF92DF92EF92FF920F931F93CF93DF9300
:1014E000C82F4A015B01680179010E940707882320
:1014F00011F0D3E101C0D0E0EC2FF0E0EE0FFF1FC0
:10150000E25BFD4F0190F081E02D868581110EC0D8
:1015100082869386A486B586C682D782E086F186C7
:1015200081E08687CF010E94590501C0D7E08D2F49
:10153000DF91CF911F910F91FF90EF90DF90CF90AF
:10154000BF90AF909F908F9008950F931F93CF936C
:10155000DF93C82F0E940707882311F0D3E101C051
:10156000D0E0EC2FF0E0EE0FFF1FE25BFD4F0081BB
:101570001181F8018685813031F4C8010E94E805A7
:10158000F801168601C0D5E08D2FDF91CF911F9114
:101590000F91089560E082E00E94B50B26E040E0E4
:1015A00052EC61E070E08BE593E00E94431422E08E
:1015B0004DE063E08CE293E00E94D611882339F07D
:1015C00068EC70E080E090E00E94A90CF0CF60E051
:1015D0008CE293E00C942A0FEF92FF920F932091EC
:1015E00040038091890190918A01222311F0880F94
:1015F000991F909345038093440380914403809303
:101600006A0189E6E82E81E0F82E08E021E043E057
:1016100050E060E17CEE8CE293E00E945A1281116E
:1016200006C069EF71E08BE593E00E94D8120F913C
:10163000FF90EF900C943F01EF92FF920F938091F7
:10164000430380937A0189E7E82E81E0F82E08E0D1
:1016500021E045E050E060E17CEE8CE293E00E9406
:101660005A12811106C068E072E08BE593E00E9497
:10167000D8120F91FF90EF900C943F01EF92FF92E0
:101680000F93809142038093820181E8E82E81E0EC
:10169000F82E08E021E044E050E060E17CEE8CE2CE
:1016A00093E00E945A12811106C062E272E08BE55B
:1016B00093E00E94D8120F91FF90EF900C943F019D
:1016C000EF92FF920F93809141038093720181E723
:1016D000E82E81E0F82E08E021E046E050E060E1ED
:1016E0007CEE8CE293E00E945A12811106C06AE3FC
:1016F00072E08BE593E00E94D8120F91FF90EF907B
:101700000C943F016AE08CE293E00C94C3118FECDF
:1017100091E00C94B0010895833081F028F4813079
:1017200099F08230A1F008958730A9F08830B9F09F
:101730008430D1F4809180008F7D03C0809180003F
:101740008F7780938000089584B58F7702C084B529
:101750008F7D84BD08958091B0008F7703C0809104
:10176000B0008F7D8093B0000895CF93DF9390E019
:10177000FC01EA53FF4F2491FC01E652FF4F849194
:10178000882361F190E0880F991FFC01E850FF4F1A
:10179000C591D491FC01E251FF4FA591B491611123
:1017A00009C09FB7F8948881209582238883EC91A3
:1017B0002E230BC0623061F49FB7F8948881322FDA
:1017C000309583238883EC912E2B2C939FBF06C0EA
:1017D0008FB7F894E8812E2B28838FBFDF91CF91AC
:1017E00008951F93CF93DF93282F30E0F901EE5433
:1017F000FF4F8491F901EA53FF4FD491F901E6526A
:10180000FF4FC491CC23C1F0162F81110E948C0B85
:10181000EC2FF0E0EE0FFF1FE251FF4FA591B491C6
:101820009FB7F894111104C08C91D095D82302C0B1
:10183000EC91DE2BDC939FBFDF91CF911F91089538
:101840001F920F920FB60F9211242F933F934F9335
:101850005F936F937F938F939F93AF93BF93EF9318
:10186000FF938091520390915303A0915403B09140
:1018700055033091510323E0230F2D3720F40196B7
:10188000A11DB11D05C026E8230F0296A11DB11DA3
:10189000209351038093520390935303A0935403D6
:1018A000B09355038091560390915703A09158032C
:1018B000B09159030196A11DB11D809356039093D9
:1018C0005703A0935803B09359030E94870BFF91CD
:1018D000EF91BF91AF919F918F917F916F915F91A8
:1018E0004F913F912F910F900FBE0F901F90189521
:1018F0002FB7F89460915203709153038091540371
:10190000909155032FBF08953FB7F89480915603E7
:1019100090915703A0915803B091590326B5A89B05
:1019200005C02F3F19F00196A11DB11D3FBFBA2F71
:10193000A92F982F8827820F911DA11DB11DBC01D1
:10194000CD0142E0660F771F881F991F4A95D1F796
:1019500008958F929F92AF92BF92CF92DF92EF92B3
:10196000FF926B017C010E94840C4B015C01C1144D
:10197000D104E104F10401F10E941F0D0E94840CC6
:10198000DC01CB0188199909AA09BB09883E93405B
:10199000A105B10560F321E0C21AD108E108F10800
:1019A00088EE880E83E0981EA11CB11CC114D104DE
:1019B000E104F10419F7DBCFFF90EF90DF90CF90B7
:1019C000BF90AF909F908F90089584B5826084BD42
:1019D00084B5816084BD85B5826085BD85B5816033
:1019E00085BDEEE6F0E0808181608083E1E8F0E093
:1019F0001082808182608083808181608083E0E8C2
:101A0000F0E0808181608083E1EBF0E080818460A0
:101A10008083E0EBF0E0808181608083EAE7F0E0A2
:101A20008081846080838081826080838081816006
:101A300080838081806880831092C100089508951A
:101A4000FFCFFFCFCF93DF93880F990BFC01E259B3
:101A5000FD4FC081D181AC81BD8111978A819B816D
:101A6000A80FB91F2D85CD010197FD0132972230B6
:101A700019F427E331E002C023E531E02C93DC01C7
:101A80003C939E818F819083DF018E93CF010797D6
:101A90001E928A179B07E1F780E8DF0118978C9365
:101AA000CF0144971E928A179B07E1F7A881B9815D
:101AB0007597ED93FC93DF91CF91089508957894F5
:101AC0000895F894089578940895F89408950895E1
:101AD0000E94E50C0E94670D0E948B0B0E94CA0AAF
:101AE00080915A030E94FB0680E090E00895809167
:101AF000C80280935A03089508951F920F920FB65B
:101B00000F9211242F933F934F935F936F937F9383
:101B10008F939F93AF93BF93EF93FF93E091F10166
:101B2000F091F2010995FF91EF91BF91AF919F91D3
:101B30008F917F916F915F914F913F912F910F9076
:101B40000FBE0F901F9018951F920F920FB60F9215
:101B500011242F933F934F935F936F937F938F93B2
:101B60009F93AF93BF93EF93FF93E091F301F091B5
:101B7000F4010995FF91EF91BF91AF919F918F91E2
:101B80007F916F915F914F913F912F910F900FBE79
:101B90000F901F9018952091FA03222399F04FB7C8
:101BA000F8942091FA03213059F42DB32093F803CF
:101BB0003DB32091F903209523232DBB4FBF02C0D5
:101BC0004093F8038CBD9DBD08958EBD00000DB4FB
:101BD00007FEFDCF8EB508958091FA03882361F04A
:101BE0009FB7F8942091FA038091F803213019F4FB
:101BF0008DBB9FBF08958FBF0895CF93DF93EC01F6
:101C000080E591E00E94CB0D60E08A890E94F10B93
:101C100080EC0E94E50D61E08A890E94F10B0E9430
:101C2000EC0D65E070E080E090E0DF91CF910C94E6
:101C3000A90C1F93CF93DF93EC01162F80E591E061
:101C40000E94CB0D60E08A890E94F10B83E00E9424
:101C5000E50D812F0E94E50D80E00E94E50D182F13
:101C600061E08A890E94F10B0E94EC0D812FDF91C7
:101C7000CF911F9108950F931F93CF93DF93EC01A2
:101C8000062F142F80E591E00E94CB0D60E08A8939
:101C90000E94F10B82E00E94E50D802F0E94E50D6D
:101CA000812F0E94E50D61E08A890E94F10BDF918E
:101CB000CF911F910F910C94EC0DDF92EF92FF9258
:101CC0000F931F93CF93DF938C01C62FD42EE52E55
:101CD000F22E80E591E00E94CB0D60E0F801828950
:101CE0000E94F10B82E00E94E50D8C2F0E94E50D11
:101CF000CD2DDE2DCE018F0D911D7C01EC16FD0644
:101D000021F089910E94E50DF9CF61E0F801828907
:101D10000E94F10BDF91CF911F910F91FF90EF90F7
:101D2000DF900C94EC0DFF920F931F93CF93DF93F2
:101D3000EC01F62E042F122F80E591E00E94CB0DCE
:101D400060E08A890E94F10B85E00E94E50D8F2DED
:101D50000E94E50D802F0E94E50D812F0E94E50D68
:101D600061E08A890E94F10BDF91CF911F910F9161
:101D7000FF900C94EC0DEF92FF920F931F93CF9373
:101D8000DF93EC01162F0E94780C062FE12EF12C28
:101D9000212F40EE6FE0CE010E94930E6EE0CE0147
:101DA0000E94190E807E90E08E159F0539F00E94EA
:101DB000780C601B693C60F381E001C080E0DF913A
:101DC000CF911F910F91FF90EF9008950F931F9364
:101DD000CF93DF93EC01162F6EE00E94190E807EE8
:101DE000803221F5103211F16BE2CE010E94190E02
:101DF000082F007486FD06C020E440E46BE2CE01AB
:101E00000E94930E20E440E46CE2CE010E94930E07
:101E100060E6CE010E94BB0E811116C0011106C002
:101E200020E040E46BE2CE010E94930E20E040E40B
:101E30006CE2CE010E94930E612FCE01DF91CF9113
:101E40001F910F910C94BB0E81E0DF91CF911F91F8
:101E50000F910895FC01638B0C94E60ECF92DF92F4
:101E6000EF92FF920F931F93CF93DF93342F337032
:101E7000313009F43FC008F466C0323009F0AAC01E
:101E8000062F10E0F8013197EE30F10508F0A2C0FE
:101E9000EC5CFF4F0C940315C4E8D6EF23E987C030
:101EA000C4E8D6EF29E883C0C3E8D5EE27E87FC0B1
:101EB000C4E8D6EF25E87BC0C4E8D6EF05C0C3E888
:101EC000D5EE02C0C1E8D3ED24E871C0C4E8D6EF76
:101ED00002C0C3E8D5EE21E86AC0C4E8D6EF02C06C
:101EE000C3E8D5EE20E863C0C1E8D1ED2AC0C0E860
:101EF000D0EC27C0C62ED12CF6013197EE30F1057B
:101F000008F068C0EE5BFF4F0C940315C4E8D6EFF1
:101F100027E64DC0C4E8D6EF23E549C0C3E8D5EEB7
:101F20002EE445C0C4E8D6EF42C0C3E8D5EE23E4B2
:101F30003EC0C3E8D5EE27C0C3E8D5EE28C0C1E84F
:101F4000DAEC20E034C0062F10E0F8013697E930D3
:101F5000F10508F03FC0E05BFF4F0C940315C4E8A7
:101F6000D6EF29E424C0C7E8DFEF24EC20C0C4E8A2
:101F7000D6EF05C0C3E8D5EE02C0C1E8D3ED24E436
:101F800016C0C4E8D6EF21E412C0C4E8D6EF20E4BE
:101F90000EC0C2E8D9EDD5CFC4E8D6EF27EA07C016
:101FA000C7E8DFEF2FE303C0C1E8D3ED28E142FD2E
:101FB000CF778C01422F6AE20E943B0E4D2F69E2DF
:101FC000C8010E943B0E4C2F68E2C8010E943B0EE4
:101FD00080E001C081E0DF91CF911F910F91FF90D0
:101FE000EF90DF90CF9008950F931F93CF93DF93DF
:101FF00000D000D0CDB7DEB74130B1F40C831B83E5
:10200000890122273327502F5C71402F437078E0DD
:10201000579F400D112448604A8355E01695079557
:102020005A95E1F709830DC0A80123E0569547951D
:102030002A95E1F749830295000F007E0A831C82EE
:102040001B8224E0AE014F5F5F4F0E945D0E0F9038
:102050000F900F900F90DF91CF911F910F910895E6
:102060000F931F93CF93DF9300D000D0CDB7DEB78F
:10207000E62FF42FA901662777270C831B83F13005
:1020800081F4342F3C71242F2370F8E03F9F200D02
:10209000112428602A8335E0569547953A95E1F753
:1020A0000AC0242F2295220F207E2A8323E05695F2
:1020B00047952A95E1F7498324E0AE014F5F5F4FD2
:1020C0006E2F0E945D0E0F900F900F900F90DF917A
:1020D000CF911F910F9108950F931F93CF93DF938B
:1020E000EC0100E010E0980141E060E20E94301055
:1020F00000E010E0980141E064E2CE010E9430105F
:1021000000E010E0980141E060E0CE010E94301054
:1021100000E010E0980140E064E0CE010E94301041
:1021200000E010E0980141E068E0CE010E9430102C
:1021300000E010E0980140E060E1CE010E94301024
:1021400000E010E0980141E064E1CE010E9430100F
:1021500000E010E0980140E068E1CE010E943010FC
:1021600010E340E0612FCE010E943B0E60E1610F61
:1021700040E0CE010E943B0E60E2610F40E0CE01E4
:102180000E943B0E1F5F1E3361F740E060E6CE0108
:102190000E943B0E40E060E7CE01DF91CF911F919E
:1021A0000F910C943B0EEF92FF920F931F93CF93DE
:1021B000DF93EC01062FF42EE22E0E94FD0D80E449
:1021C0008B8B60E8CE010E94E60E182F882341F029
:1021D00065EA71E08BE593E00E94DE12812F5CC01E
:1021E0006DE771E08BE593E00E94DE124E2D6F2DBE
:1021F000CE010E942E0F882339F061E671E08BE555
:1022000093E00E94DE1247C064E471E08BE593E046
:102210000E94DE12CE010E946C1043E06BE2CE0100
:102220000E943B0E4CE36CE0CE010E943B0E40E06E
:102230006DE0CE010E943B0E002351F0033019F5F2
:1022400024E644E660E6CE010E94930E20E607C035
:1022500024E044E660E6CE010E94930E20E040E6D2
:1022600060E7CE010E94930E6B89CE010E94E60EBC
:10227000C82F882381F062E071E08BE593E00E9433
:10228000DE128C2F09C068E271E08BE593E00E94BA
:10229000DE1281E001C080E0DF91CF911F910F91AC
:1022A000FF90EF900895FF920F931F93CF93DF93CA
:1022B000EC01F62EAC014A5F5F4F65E06F0D2D819A
:1022C0000E945D0E8E85813019F48D8180648D832E
:1022D00064E06F0D4D81CE010E943B0E09811A8191
:1022E0002B813C8148816F2DCE010E94F40FDF913C
:1022F000CF911F910F91FF9008958F929F92AF926F
:10230000BF92CF92DF92EF92FF921F93CF93DF9312
:1023100000D01F92CDB7DEB74C016B018091F50163
:102320009091F601A091F70189839A83AB83FB0119
:102330001082CE0101967C015E0194E0A90EB11CD1
:10234000F70111917F01612FC4010E94190E982F8E
:10235000987083FD04C01F5FF601108304C0EA1467
:10236000FB0471F792E0892F0F900F900F90DF918F
:10237000CF911F91FF90EF90DF90CF90BF90AF90E3
:102380009F908F900895CF93DF93EC01862F6A8BF7
:1023900061E00E94F10B61E08A890E94B50B8CEF2D
:1023A00093E0998B888BDF91CF910895FF920F93E3
:1023B0001F93CF93DF93EC01162F042FF22E0E9470
:1023C000A8142F2D402F612FCE010E94D31091E031
:1023D000811101C090E0892FDF91CF911F910F9162
:1023E000FF900895BF92CF92DF92EF92FF920F93EA
:1023F0001F93CF93DF931F92CDB7DEB78C010E945E
:10240000840C6B017C01BE016F5F7F4FC8010E948D
:102410007D11B82E0E94840CDC01CB018C199D0922
:10242000AE09BF0922E0B21206C0843C9940A10562
:10243000B10548F331C0843C9940A105B10560F570
:102440006981C8010E9453116981615028E048E008
:10245000C8010E94930E0E94840C6B017C0169816B
:102460006150C8010E94190EB82E0E94840CDC0134
:10247000CB018C199D09AE09BF09B3FE06C0843C8F
:102480009940A105B10558F309C0843C9940A105C4
:10249000B10520F480E003C086E001C087E00F9022
:1024A000DF91CF911F910F91FF90EF90DF90CF9030
:1024B000BF900895EF92FF920F93FC0141835283E6
:1024C00063837483168620830583F701DC011696E7
:1024D0009C01225F3F4F41914D93A217B307D9F75B
:1024E0000F91FF90EF900C94F211CF92DF92EF9248
:1024F000FF920F931F93CF93DF936C017A018B01AF
:10250000C0E0D0E0CE15DF0581F0D8016D918D01DE
:10251000D601ED91FC910190F081E02DC601099565
:10252000892B11F02196EECF7E01C701DF91CF916B
:102530001F910F91FF90EF90DF90CF90089561155C
:10254000710579F0FB0101900020E9F73197AF01A7
:10255000461B570BDC01ED91FC910280F381E02DCD
:10256000099480E090E00895EF92FF920F931F93FB
:10257000CF93DF938C017B01C0E0D0E0F701EC0F3B
:10258000FD1F6491662361F0D801ED91FC910190EB
:10259000F081E02DC8010995892B11F02196EECF2D
:1025A000CE01DF91CF911F910F91FF90EF90089591
:1025B0000C949F1269EF72E00C949F120F931F937B
:1025C000CF93DF93EC010E94B4128C01CE010E94E4
:1025D000DA12800F911FDF91CF911F910F91089513
:1025E0001F920F920FB60F9211242F938F939F93E8
:1025F000EF93FF93E0916B03F0916C038081E09186
:102600007103F091720382FD12C090818091740376
:102610008F5F8F7320917503821751F0E0917403DF
:10262000F0E0E55AFC4F958F8093740301C08081E0
:10263000FF91EF919F918F912F910F900FBE0F906F
:102640001F9018951F920F920FB60F9211242F937F
:102650003F934F935F936F937F938F939F93AF932A
:10266000BF93EF93FF938BE593E00E94B213FF912A
:10267000EF91BF91AF919F918F917F916F915F91FA
:102680004F913F912F910F900FBE0F901F90189573
:10269000EBE5F3E01382128288EE93E0A0E0B0E075
:1026A00084839583A683B7838CE093E091838083B2
:1026B00085EC90E09587848784EC90E09787868707
:1026C00080EC90E0918B808B81EC90E0938B828BFF
:1026D00082EC90E0958B848B86EC90E0978B868BD8
:1026E000118E128E138E148E0895FC01918D228D01
:1026F000892F90E0805C9F4F821B91098F739927EF
:102700000895FC01918D828D981731F0828DE80F2C
:10271000F11D858D90E008958FEF9FEF0895FC01E6
:10272000918D828D981761F0828DDF01A80FB11D08
:102730005D968C91928D9F5F9F73928F90E008952C
:102740008FEF9FEF0895FC01538D448D252F30E0CE
:10275000842F90E0821B930B541710F0CF960895AE
:1027600001970895FC01848DDF01A80FB11DA35AC4
:10277000BF4F2C91848D90E001968F739927848FA1
:10278000A689B7892C93A089B1898C9183708064C4
:102790008C93938D848D981306C00288F389E02D65
:1027A00080818F7D80830895EF92FF920F931F9316
:1027B000CF93DF93EC0181E0888F9B8D8C8D9813F4
:1027C00005C0E889F989808185FD26C0F62E0B8D2C
:1027D00010E00F5F1F4F0F731127E02E8C8DE81252
:1027E0000CC00FB607FCFACFE889F989808185FF14
:1027F000F5CFCE010E94B213F1CF8B8DFE01E80F11
:10280000F11DE35AFF4FF0829FB7F8940B8FEA89CE
:10281000FB89808180620AC09FB7F894EE89FF89A6
:102820006083E889F98980818370806480839FBF99
:1028300081E090E0DF91CF911F910F91FF90EF9099
:102840000895CF93DF93EC01888D8823C9F0EA893E
:10285000FB89808185FD05C0A889B9898C9186FD99
:102860000FC00FB607FCF5CF808185FFF2CFA88996
:10287000B9898C9185FFEDCFCE010E94B213E7CFCD
:10288000DF91CF910895CF92DF92EF92FF921F9345
:10289000CF93DF93EC016A017B01122FE889F9895C
:1028A00082E080834115514E61057105B1F060E011
:1028B00079E08DE390E0A70196010E94E114DA012E
:1028C000C9010197A109B109B695A7959795879573
:1028D0009C01211580E13807A8F0E889F989108268
:1028E00060E874E88EE190E0A70196010E94E1148F
:1028F000DA01C9010197A109B109B695A795979584
:1029000087959C01EC85FD853083EE85FF852083CE
:10291000188EEC89FD891083EA89FB8980818061AA
:102920008083EA89FB89808188608083EA89FB89CA
:10293000808180688083EA89FB8980818F7D8083A4
:10294000DF91CF911F91FF90EF90DF90CF9008958E
:10295000CF93CFB7F8948091FB03811127C0E4EEA9
:10296000F0E08491E0EDF0E09491E82FF0E0EE0FDC
:10297000FF1FE850FF4FA591B491EC91E92321F49A
:1029800061E08AE00E94F10B61E08AE00E94B50BF1
:102990008CB580618CBD8CB580648CBD61E08DE0B0
:1029A0000E94B50B61E08BE00E94B50B8091FB03A8
:1029B0008F5F8093FB03CFBFCF910895F8940C9461
:1029C0000915A1E21A2EAA1BBB1BFD010DC0AA1FEF
:1029D000BB1FEE1FFF1FA217B307E407F50720F088
:1029E000A21BB30BE40BF50B661F771F881F991F03
:1029F0001A9469F760957095809590959B01AC014C
:102A0000BD01CF010895EE0FFF1F0590F491E02D59
:062A10000994F894FFCFC9
:102A160000000000000000000000000000000000B0
:102A260000000000000000000000000000000000A0
:102A36000000000000000000000000000000000090
:102A46000000000000000000000000000000000080
:102A56000000000000000000000000000000000070
:102A66000000000000000000000000000000000060
:102A76000000000000000000FFFFFFFFFFFFFFFF58
:102A8600FFFFFFFFFFFFFFFFFFFFFFFFFFFFFFFF50
:102A9600FFFFFFFFFFFFFFFFFF03000000B0020084
:102AA600004C03FFFFFFFFFFFFFFFF000052020085
:102AB6000000000C0000001E000000025B02000087
:102AC60000000F0000000F000000020000000400DC
:102AD60000000004000000000300000000020001E6
:102AE600000000FFFF0000010000000000000000E1
:102AF600000000000000000500FF00000100FF00CC
:102B0600007C0D7C0D304050FF43414E20526169E0
:102B16006E2053454E542E0043414E204D534720C0
:102B2600427265616B20706564616C2053454E543A
:102B36003A0043414E204D5347204761732070654C
:102B460064616C2053454E543A0043414E204D5328
:102B560047206661756C742053454E543A00AC01AB
:102B66009D01CF016F095802E80600CF016F096188
:102B760002E80601CA01C501C001BB014C03A2025D
:102B8600940286027802B0026308130700011C0B48
:102B9600000003040100FF04010600013E0B0000D3
:102BA60002040100FD0301050001EC0A0000010317
:102BB60001001107FF030001600B00000002010085
:102BC6000F0713085000200D000004000100EC015F
:102BD600E70101010000000000FE07CC07D507AEA3
:102BE6000742054B072F0574075008F106F9060939
:102BF600094008450969087809B408AF09EC0601D7
:102C06000A8C08640AA50AD3080D0A006E616E00D4
:102C1600696E66006F76660000000000D4137512B8
:0A2C2600A313211475138F138113FB
:00000001FF
