:100000000C94EE000C94870F0C94AE0F0C94160118
:100010000C9416010C9416010C9416010C94160104
:100020000C9416010C9416010C9416010C941601F4
:100030000C9416010C9416010C9416010C941601E4
:100040000C942A0E0C9416010C945A160C948C16CF
:100050000C9416010C9416010C9416010C941601C4
:100060000C9416010C9416012B12AB11AF11B311A5
:10007000B711BB11BE11C111C511C811CC11CF11DF
:10008000D311D6112F12E511E9114912ED110E12FB
:10009000F11116121912F4112012F811FB11FE11B0
:1000A00033120E121212161219121C1220122412DE
:1000B00028120000000800020100000304070000ED
:1000C000000000000000010204081020408001022E
:1000D000040810200102040810200404040404048D
:1000E00004040202020202020303030303030000EA
:1000F0000000230026002900000000002500280041
:100100002B0000000000240027002A0052657475AF
:10011000726E696E6720746F2050726576696F75B4
:1001200073204D6F6465204661696C7572652E2E73
:100130002E006053657474696E67204944204D6FCA
:100140006465204661696C7572652E2E2E005365BC
:100150007474696E672042617564726174652053BE
:1001600075636365737366756C2100536574746998
:100170006E67204261756472617465204661696CC6
:100180007572652E2E2E00456E746572696E67203D
:10019000436F6E66696775726174696F6E204D6F2B
:1001A0006465205375636365737366756C210045E0
:1001B0006E746572696E6720436F6E6669677572EB
:1001C0006174696F6E204D6F6465204661696C755E
:1001D00072652E2E2E00630D810FB21611241FBEE4
:1001E000CFEFD8E0DEBFCDBF13E0A0E0B1E0E2E8A2
:1001F000F4E302C005900D92A634B107D9F727E0C9
:10020000A6E4B3E001C01D92AF33B207E1F710E0FE
:10021000CEEED0E004C02197FE010E94391ACB3EF9
:10022000D107C9F70E94720F0C9448180C94000073
:10023000E2E10E94BD010895E9E00E94BD01089538
:10024000EAE00E94BD010895E1E00E94BD01089529
:10025000E3E00E94BD010895E7E00E94BD0108951A
:10026000E5E00E94BD010895E0E00E94BD0108950F
:10027000E2E00E94BD010895E4E00E94BD010895FE
:10028000ECE00E94BD010895E8E00E94BD010895E0
:10029000EEE00E94BD010895E4E10E94BD010895D1
:1002A000E0E10E94BD010895E7E10E94BD010895CB
:1002B000E6E00E94BD010895EBE00E94BD010895B3
:1002C000EDE00E94BD010895EFE00E94BD01089598
:1002D000E1E10E94BD010895E3E10E94BD0108959E
:1002E000E5E10E94BD010895E6E10E94BD01089587
:1002F00021968A929A92AA92BA92CA92DA92EA9233
:10030000FA920A931A932197E0918101F091820168
:100310000080F181E02DC083D1830895C0918301D5
:10032000D0918401E881F981C081D1812196199110
:100330000991F990E990D990C990B990A9909990B4
:100340008990219708952F903F90E7E6F1E0CDB78F
:10035000DEB7EDBFFEBF3F922F9208952F903F90E2
:10036000CDBFDEBF3F922F920895E0E80E94BD010D
:100370000895E0E40E94BD0108952F923F924F92AC
:100380005F926F927F922FB62F92CF93DF937E2E44
:10039000F894E0910001EF5FE0930001E13011F487
:1003A0000E94A301E0E0E0939101E72DE07849F09D
:1003B0000E941106F0919201F17071F00E94C40444
:1003C0000BC0E72DEC3140F4EE0FF0E0EB50FD4FA9
:1003D0000190F081E02D0995F0919101EF2FE170EE
:1003E00059F0F27011F00E9478018F938F2F0E94C4
:1003F0000C048F910E948E012091000121502093C6
:100400000001222311F40E94AE01DF91CF912F90C1
:100410002FBE7F906F905F904F903F902F900895E8
:10042000CF92DF92EF92FF920F931F93DC01EC913A
:10043000DB012C918E2F8170C82ED12CE12CF12C58
:100440008E2F8F7090E0A0E0B0E0B695A7959795BD
:100450008795DC01AC55BC4F8C91C81AD108E108D6
:10046000F108EE70422F417050E060E070E0822FA2
:100470008F7090E0A0E0B0E0B695A795979587952E
:10048000DC01AC55BC4F8C91481B510961097109C5
:10049000822F8E7097018601017011272227332742
:1004A0000E2B4170552766277727482B81E090E077
:1004B000041715072607370710F080E090E01F911A
:1004C0000F91FF90EF90DF90CF9008958F929F92C1
:1004D000AF92BF92EF92FF920F931F93CF93DF9350
:1004E0007C014A015B01B694A794979487944230AB
:1004F000510561057105E0F0440F551F8701040F98
:10050000151FE401CC0FDD1FCE0DDF1DB801CE019C
:100510000E941002892B61F0F8019081818128816D
:1005200039813183208398838983B501A401DBCF8E
:10053000DF91CF911F910F91FF90EF90BF90AF90FF
:100540009F908F9008954F925F926F927F928F92BB
:100550009F92AF92BF92CF92DF92EF92FF920F9352
:100560001F93CF93DF9300D000D000D0CDB7DEB77C
:100570008C016A017B01DC018C91282F30E040E086
:1005800050E029833A834B835C8346015701880CF2
:10059000991CAA1CBB1C29813A814B815C812815BE
:1005A00039054A055B0508F442C0240135013FEFD7
:1005B000431A530A630A730A89819A81AB81BC8109
:1005C00084159505A605B70580F0B201660F771F63
:1005D000600F711FC401880F991F800F911F0E9427
:1005E0001002892B11F0530142013401660C771C73
:1005F000600E711ECC0CDD1CD801AC0DBD1DBE8380
:10060000AD83B301CD010E941002892B81F0ED81F1
:10061000FE8190818181D3012D913C91119731838D
:1006200020839C9311968C9375016401AECF26961E
:100630000FB6F894DEBF0FBECDBFDF91CF911F91F3
:100640000F91FF90EF90DF90CF90BF90AF909F9071
:100650008F907F906F905F904F900895EFEDF5E051
:1006600040814F5F408350E060E070E0E82FEE0F84
:10067000FF0BE755FD4F0190F081E02D238530E021
:10068000F901EC55FC4F908191509083FA01EE0FE7
:10069000FF1FE152FA4F220F331F9170292B208345
:1006A00081838FED95E00C946602EFEDF5E04081DB
:1006B0004F5F408350E060E070E0E82FEE0FFF0BEB
:1006C000EF55FD4F0190F081E02D9381FA01EE0F7F
:1006D000FF1FE152FA4F908381838FED95E00C94D8
:1006E0006602CF93DF93EFEDF5E080819FEF980FE7
:1006F0009083D281C38190E0880F991FDC01A152C1
:10070000BA4F8D919C919383828341E050E060E0E9
:1007100070E0CF010E94A3028D2F9C2FDF91CF911B
:1007200008958091890190918A01A0918B01B091E7
:100730008C018F3F2FEF9207A207B20731F003978A
:10074000A105B10524F481E0089580E0089582E0D8
:100750000895880F990BFC01E755FD4F0190F0813A
:10076000E02D0084F185E02D3097E9F02281211100
:100770001AC021E02283DC01AF55BD4F0D90BC9122
:10078000A02D13968C9113978183808190E0FC01BA
:10079000EC55FC4F208121502083880F991F217038
:1007A000822B13968C930895880F990BFC01E755C3
:1007B000FD4F0190F081E02D0084F185E02D309710
:1007C00061F02281213049F412822181FC01EF5530
:1007D000FD4F0190F081E02D2383089580918D01DC
:1007E00090918E01A0918F01B0919001409189016B
:1007F00050918A0160918B0170918C0148175907C3
:100800006A077B0741F0E0918701F091880121E0C0
:1008100024830C9455030895CF93DF93882391F09C
:10082000C0918101D0918201E0918501F091860112
:100830008481833049F081E08483809189010E9422
:10084000550302C0C0E0D0E0E0918701F09188013B
:10085000F0938601E093850180918301909184015A
:10086000909382018093810180918D0130918E015E
:1008700020918F01909190018093890130938A019A
:1008800020938B0190938C0192E094830E94A903A2
:10089000CE01DF91CF910895809189010E94D40308
:1008A000E0918501F09186018281882319F085E02D
:1008B0008483089514820895CF93DF93282F220F05
:1008C000330BF901EF55FD4FC081D1819A81F901B8
:1008D000E755FD4F0190F081E02D2485921770F4CB
:1008E000911105C095E09C8391E0909392010E9444
:1008F0002E038A818F5F8A8380E001C084E0DF91CC
:10090000CF910895E82FEE0FFF0BEF55FD4F0190AB
:10091000F081E02D118210820C942C0F1F93CF9345
:10092000DF930E947103182F892F492F092E000C85
:10093000550B660B770B40938D0150938E0160939E
:100940008F0170939001292F220F330BF901EF557E
:10095000FD4FC081D181D0938801C0938701F901F7
:10096000E755FD4F2081318130938401209383012D
:100970009C81953019F40E9482041B83109292018D
:10098000DF91CF911F910895E0918D01F0918E013B
:10099000EE0FFF1FEF55FD4F0190F081E02D90917C
:1009A000E1058381891730F40E94EE030E948E04D2
:1009B00083E001C080E080939101089581E08093FD
:1009C00091010C948E04EF92FF920F931F93CF939B
:1009D000DF93C1E001C0CC0F8A95EAF783E00E9463
:1009E0005C0401EF12E0D0E0F80181918F018C23CB
:1009F00019F08D2F0E945C04DF5FD330A9F70EEE53
:100A000012E080E8E82E82E0F82ED1E0F801819132
:100A10008F018C2339F0F70180819181FC01D68709
:100A20000E944A05F2E0EF0EF11C82E0013F180738
:100A300069F7DF91CF911F910F91FF90EF9008958B
:100A40000E94F80681110E941907E0918501F0913A
:100A5000860180819181892B21F0809189010E94FA
:100A6000E0080C9441080E94F80681110E941907C1
:100A7000E0918501F091860180819181892B21F09F
:100A8000809189010E94E0080C94290881E08093FC
:100A900046030895AF92BF92CF92DF92EF92FF92FA
:100AA0000F931F93CF93DF93FC01A081B181AD9091
:100AB000BC90E501AC89BD89109739F0428553851A
:100AC0006485758530E020E017C0D50155969C936C
:100AD0008E93549757969C938E93569715821482B3
:100AE000138212825BC012968D919C9113973A2FBC
:100AF0002B2F009779F0DC011A96CD90DD90ED90C8
:100B0000FC901D974C155D056E057F0560F7CD01C6
:100B1000A32FB22F93838283B583A483009719F008
:100B2000EC01FD83EC83109729F01396FC93EE9370
:100B3000129705C0D5015596FC93EE935497E501A5
:100B4000AE89BF891A968D919D910D90BC91A02D73
:100B5000088919892A893B8980179107A207B30759
:100B600080F4041715072607370728F04817590798
:100B70006A077B0798F4D5015796FC93EE93569736
:100B80000DC0041715072607370740F44817590703
:100B90006A077B0718F4E501FF8BEE8BDF91CF919D
:100BA0001F910F91FF90EF90DF90CF90BF90AF908B
:100BB0000895CF93DF93DC01ED91FC9111970190A3
:100BC000F081E02D848995891296CD91DC9113975F
:100BD000A817B90711F4D58BC48B86899789A817F4
:100BE000B90711F4D78BC68B209731F014968D91ED
:100BF0009C9115979D838C8314960D90BC91A02D8C
:100C0000109721F01396DC93CE93129786899789DB
:100C1000892B21F484899589978B868BDF91CF91DD
:100C20000895EF92FF920F931F93CF93DF93FC01F0
:100C300080914603882309F4B5C084859585A685EF
:100C4000B7850196A11DB11D84879587A687B787B3
:100C5000408151816281738184179507A607B70788
:100C600009F0A0C040895189628973894F5F5F4F45
:100C70006F4F7F4F84819581A681B7818417950737
:100C8000A607B70718F440E050E0BA01408B518B3B
:100C9000628B738B1486158616861786C689D7894C
:100CA000209709F47FC08A859B85AC85BD85481750
:100CB00059076A077B0709F075C0CE01DC0112965F
:100CC000ED90FC901397E114F10471F0D7011A969E
:100CD0000D911D912D913C911D9740175107620771
:100CE000730711F4C701EACF2C813D81211531052D
:100CF00029F0D9011396FC92EE921297E114F104B7
:100D000029F0D70115963C932E93149724893589A1
:100D1000C217D30711F4F58AE48AE114F10419F03B
:100D2000F78AE68A04C024893589378B268B8F01A0
:100D3000FC0113821282EA80FB80E881F981028043
:100D4000F381E02DCE0109954E815F81688579851B
:100D5000411551056105710509F18A859B85AC85B1
:100D6000BD85840F951FA61FB71FF80144815581CB
:100D700066817781481759076A077B0738F4841B17
:100D8000950BA60BB70B0197A109B1098A879B8721
:100D9000AC87BD87CE010E944A0501C01E86E701CF
:100DA000209749F6DF91CF911F910F91FF90EF901F
:100DB0000895FC0182810C945C040E94F8068091E5
:100DC00068010895809368010E94E3040E9446052B
:100DD0000C94DE040C942B0FCF93C82F0E94910328
:100DE000811102C00E94680F8C2FCF910C941C01BE
:100DF000809153038130D9F080914B0390914C0343
:100E0000A0914D03B0914E03892B8A2B8B2B79F443
:100E100081E040914F0350915003609151037091D4
:100E20005203452B462B472B19F480E0089581E0AF
:100E300008951092530310924F0310925003109292
:100E400051031092520310924B0310924C031092D4
:100E50004D0310924E038091470390914803A09157
:100E60004903B0914A038093540390935503A09390
:100E70005603B093570308950E946B0F809154035B
:100E800090915503A0915603B09157030196A11D6F
:100E9000B11D8093540390935503A0935603B093D0
:100EA000570380914F0390915003A0915103B0914B
:100EB00052030196A11DB11D80934F0390935003DF
:100EC000A0935103B0935203089580914F039091E2
:100ED0005003A0915103B09152030097A105B105B1
:100EE00069F14091540350915503609156037091FC
:100EF00057034150510961097109409354035093BC
:100F0000550360935603709357030197A109B109E4
:100F100080934F0390935003A0935103B0935203D7
:100F20008091540390915503A0915603B0915703BB
:100F3000892B8A2B8B2B11F40C94690F08958091C7
:100F40004F0390915003A0915103B0915203892B0C
:100F50008A2B8B2B89F480914B0390914C03A091A9
:100F60004D03B0914E03892B8A2B8B2B29F40E94C1
:100F70006B0F81E08093530308958091530388237E
:100F800021F0109253030C94690F08950E946F0F83
:100F90008091540390915503A0915603B09157034B
:100FA0000196A11DB11D8093540390935503A09306
:100FB0005603B093570380914B0390914C03A0913B
:100FC0004D03B0914E030196A11DB11D80934B03BB
:100FD00090934C03A0934D03B0934E0308958091DA
:100FE0004B0390914C03A0914D03B0914E03009799
:100FF000A105B10569F140915403509155036091E9
:10100000560370915703415051096109710940938A
:1010100054035093550360935603709357030197FD
:10102000A109B10980934B0390934C03A0934D0306
:10103000B0934E038091540390915503A0915603B1
:10104000B0915703892B8A2B8B2B11F40C946D0FC5
:1010500008950E94F806882311F083E1089580E046
:101060000895CF93C82F0E94F8068C2F0E945C042D
:10107000C82F8091920181110E94C4048C2FCF91BE
:101080000895CF930E94F806882311F0C3E101C0B0
:10109000C0E0E0918501F0918601828181508283D8
:1010A0000E944C0481E0809391010E948E048C2F59
:1010B000CF910895CF93C82F0E94F806E091850143
:1010C000F09186018281815082838C2F0E945C0482
:1010D000C82F811108C00E944C0481E080939101C7
:1010E0000E948E0407C0E0918501F0918601828103
:1010F0008F5F82838C2FCF910895CF930E94F80643
:10110000882311F0C3E101C0C0E0809189010E94F1
:10111000D4030E94C4048091890190918A01A09116
:101120008B01B0918C0140918D0150918E016091A5
:101130008F017091900184179507A607B70711F4E6
:101140000E94A9038C2FCF910895CF93DF93EC01D8
:101150000E94F806882311F083E101C080E04091ED
:10116000890150918A0160918B0170918C0143300B
:1011700051056105710514F4488303C09091F8018D
:101180009883DF91CF9108950F931F93CF93C82F2A
:101190008B010E94F806882311F083E101C080E0F2
:1011A000EC2FEE0FFF0BEF55FD4F0190F081E02D7E
:1011B00094819370F8019083CF911F910F910895BE
:1011C000880F990BFC01EF55FD4FA081B181ED9186
:1011D000FC911197309769F01D921C922091F801B3
:1011E00093818481228314821382E92FF82F309710
:1011F000B9F70895CF93C82F0E94F806882311F0FD
:1012000083E101C080E0EC2FF0E0EE0FFF1FE7511B
:10121000FD4FA081B1819091890112969C93129704
:10122000E0918501F09186012081318114963C93F3
:101230002E931397B183A083938111969C9311975A
:101240002C9193819695921760F430E0D901AC55BA
:10125000BC4F9C9191509C93220F331F9170292B6E
:101260002383CF910895CF93DF93C82F0E94F80670
:10127000882311F0D3E101C0D0E0EC2FF0E0EE0FB5
:10128000FF1FE751FD4F0190F081E02DA0918501F6
:10129000B0918601818113968C93139783819481F9
:1012A0008D939C93148213828091F80182830E9413
:1012B000C4048D2FDF91CF910895DC01ED91FC9155
:1012C00084819581DC01ED91FC9109941F93CF936A
:1012D000DF93182FEB010E94F806882311F083E1B9
:1012E00001C080E0E12FF0E0EE0FFF1FE058FD4F5E
:1012F0000190F081E02D0190F081E02D0190F081CE
:10130000E02D40815181628173814C835D836E83C6
:101310007F834481558166817781488359836A83BD
:101320007B834085518562857385488759876A87A5
:101330007B87DF91CF911F9108958F929F92AF92FB
:10134000BF92CF92DF92EF92FF920F931F93CF93B2
:10135000C82F8B010E94F806882311F083E101C099
:1013600080E0EC2FF0E0EE0FFF1FE058FD4F019002
:10137000F081E02D9685913029F54285538564856D
:1013800075850190F081E02D0190F081E02DC088FD
:10139000D188E288F3884C155D056E057F0540F421
:1013A00084809580A680B780480D591D6A1D7B1DDD
:1013B0004C195D096E097F09F801408351836283EE
:1013C000738301C085E0CF911F910F91FF90EF9043
:1013D000DF90CF90BF90AF909F908F9008958F92A5
:1013E0009F92AF92BF92CF92DF92EF92FF920F93B4
:1013F0001F93CF93DF93D82F4A015B0168017901D6
:101400000E94F806882311F0C3E101C0C0E0ED2F6F
:10141000F0E0EE0FFF1FE058FD4F0190F081E02D4E
:101420008685811130C0A081B1810D90BC91A02D25
:1014300050964D915D916D917C915397480D591D3A
:101440006A1D7B1D14968D919D910D90BC91A02DD0
:1014500084179507A607B70740F4481B590B6A0B7A
:101460007B0B415051096109710942875387648799
:101470007587C682D782E086F18681E08687CF01B4
:101480000E944A0501C0C7E08C2FDF91CF911F91C8
:101490000F91FF90EF90DF90CF90BF90AF909F9013
:1014A0008F9008958F929F92AF92BF92CF92DF92CA
:1014B000EF92FF920F931F93CF93DF93C82F4A01B0
:1014C0005B01680179010E94F806882311F0D3E1DD
:1014D00001C0D0E0EC2FF0E0EE0FFF1FE058FD4F11
:1014E0000190F081E02D868581110EC08286938661
:1014F000A486B586C682D782E086F18681E086879B
:10150000CF010E944A0501C0D7E08D2FDF91CF9116
:101510001F910F91FF90EF90DF90CF90BF90AF9011
:101520009F908F9008950F931F93CF93DF93C82FB1
:101530000E94F806882311F0D3E101C0D0E0EC2F1F
:10154000F0E0EE0FFF1FE058FD4F00811181F80120
:101550008685813031F4C8010E94D905F8011686CC
:1015600001C0D5E08D2FDF91CF911F910F9108958C
:1015700026E040E052EC61E070E089EB93E00E94ED
:10158000AD1722E04DE063E088E593E00E94C414CB
:10159000882339F068EC70E080E090E00E94B30EA0
:1015A000F0CF69EF71E089EB93E00E94481660E0AC
:1015B00088E593E00E94891160E082E00C94960D2A
:1015C000CF9382E00E94010E892B09F0BCC0C0912C
:1015D000ED028C2F0E945C0128E933E047E953E0DB
:1015E00060EA73E088E593E00E9483158091A00390
:1015F0009091A103A091A203B091A30381709927B8
:10160000A073BC7E0197A043BC4E69F481E0909129
:101610009903911101C080E0809396038C2F0E9462
:1016200060010E9444018091A0039091A103A091C8
:10163000A203B091A30382709927A073BC7E029786
:10164000A043BC4EA1F46091990370E080E090E06B
:101650000E94F31860938603709387038093880336
:10166000909389038C2F0E9460010E944401809115
:10167000A0039091A103A091A203B091A30387704E
:101680009927A071BC7E0797A041BC4EA1F4609140
:10169000990370E080E090E00E94F3186093920359
:1016A0007093930380939403909395038C2F0E94DF
:1016B00060010E9444018091A0039091A103A09138
:1016C000A203B091A30388709927A071BC7E0897EC
:1016D000A041BC4EA1F46091990370E080E090E0DD
:1016E0000E94F31860938E0370938F03809390038E
:1016F000909391038C2F0E9460010E94440180917D
:10170000A0039091A103A091A203B091A3038970BB
:101710009927A071BC7E0997A041BC4EA1F46091AD
:10172000990370E080E090E00E94F31860938A03D0
:1017300070938B0380938C0390938D038C2F0E9466
:1017400060010E9444018091ED020E946001CF91EE
:101750000C944401EF92FF920F93CF93DF9380910B
:10176000ED020E945C01C0918103D0919603C111EA
:1017700022C0DD23A1F18091820381111CC020E0F1
:1017800030E040E351E460919203709193038091C3
:101790009403909195030E94A51987FD0CC0809138
:1017A0008303811108C080918403811104C081E00A
:1017B0008093810311C0DD2391F0CC2381F08091CF
:1017C000820381110CC080918303811108C0809134
:1017D0008403811104C081E08093850304C01092CA
:1017E0008503109281038091850380936A0189E6C5
:1017F000E82E81E0F82E08E021E042E050E060ECC5
:101800007CEA88E593E00E944815811109C063E1F4
:1018100072E089EB93E00E94481667E273E007C02C
:10182000873019F463E272E002C06EE372E089EB84
:1018300093E00E9448168091ED020E946001DF91C2
:10184000CF910F91FF90EF900C9444013F924F92F3
:101850005F926F927F928F929F92AF92BF92CF9240
:10186000DF92EF92FF920F931F93CF93DF9320911C
:101870007C0360917D0170917E0180917F01909148
:101880008001222321F09B01AC010E944C1860933F
:101890007D0370937E0380937F0390938003309049
:1018A000ED02832D0E945C0180909203909093033F
:1018B000A0909403B090950320917D0330917E0316
:1018C00040917F0350918003C501B4010E94AA1981
:1018D00020E030E040E251E40E944C18609379012E
:1018E00070937A0180937B0190937C0120918E0309
:1018F00030918F0340919003509191030E944B18B7
:101900002B013C0160936C0370936D0380936E0315
:1019100090936F032AE037ED43E25DE360918A0321
:1019200070918B0380918C0390918D030E94AA1972
:101930006B017C012DEC3CEC4CE45EE3C301B20195
:101940000E94AA199B01AC01C701B6010E944B1865
:101950008B01D82FC92FCB01AD2FBC2F80937003E3
:1019600090937103A0937203B0937303A501940144
:101970006091860370918703809188039091890319
:101980000E944B1820E030E040E05FE30E94AA197B
:10199000B62EC72E7C01862F9C2DD7018093740311
:1019A00090937503A0937603B093770320E030E023
:1019B000A901C301B2010E94A519181674F02B2DBC
:1019C0003C2DA701B8018D2F9C2F0E94B81887FDD0
:1019D00004C00B2D1C2DDE2DCF2DC801AD2FBC2F2B
:1019E0008093780390937903A0937A03B0937B0359
:1019F0000091780310917903D0917A03C0917B0311
:101A000020E030E040EA50ECB8018D2F9C2F0E947E
:101A1000B81887FD0FC026EF38E24CEB5FE3B80142
:101A20008D2F9C2F0E94A51918164CF0302F212FB6
:101A3000FE0109C030E020E0F0EAE0EC04C036EF3F
:101A400028E2FCEBEFE3432F522F6F2F7E2F4093C2
:101A500078035093790360937A0370937B03632F29
:101A6000722F8F2F9E2F0E94BD186093720181E705
:101A7000E82E81E0F82E08E021E041E050E060EC43
:101A80007CEA88E593E00E944815811106C067E56D
:101A900072E089EB93E00E944816832D0E9460015A
:101AA000DF91CF911F910F91FF90EF90DF90CF903A
:101AB000BF90AF909F908F907F906F905F904F906E
:101AC0003F900C9444016AE088E593E00C94B114D3
:101AD0008FEC91E00C94B5010895833081F028F4E7
:101AE000813099F08230A1F008958730A9F08830D4
:101AF000B9F08430D1F4809180008F7D03C0809153
:101B000080008F7780938000089584B58F7702C01E
:101B100084B58F7D84BD08958091B0008F7703C018
:101B20008091B0008F7D8093B0000895CF93DF93B4
:101B300090E0FC01EA53FF4F2491FC01E652FF4F75
:101B40008491882361F190E0880F991FFC01EE5F7A
:101B5000FE4FC591D491FC01E850FF4FA591B4917F
:101B6000611109C09FB7F8948881209582238883EA
:101B7000EC912E230BC0623061F49FB7F8948881FA
:101B8000322F309583238883EC912E2B2C939FBF8B
:101B900006C08FB7F894E8812E2B28838FBFDF9182
:101BA000CF9108951F93CF93DF93282F30E0F90151
:101BB000EE54FF4F8491F901EA53FF4FD491F9019C
:101BC000E652FF4FC491CC23C1F0162F81110E9421
:101BD0006D0DEC2FF0E0EE0FFF1FE850FF4FA591C9
:101BE000B4919FB7F894111104C08C91D095D8236B
:101BF00002C0EC91DE2BDC939FBFDF91CF911F9150
:101C00000895CF93DF93282F30E0F901EE54FF4F72
:101C10008491F901EA53FF4FD491F901E652FF4F45
:101C2000C491CC2391F081110E946D0DEC2FF0E056
:101C3000EE0FFF1FE251FF4FA591B491EC91ED2300
:101C400081E090E021F480E002C080E090E0DF914C
:101C5000CF9108951F920F920FB60F9211242F93D8
:101C60003F934F935F936F937F938F939F93AF9324
:101C7000BF93EF93FF938091B0039091B103A09134
:101C8000B203B091B3033091AF0323E0230F2D379C
:101C900020F40196A11DB11D05C026E8230F029670
:101CA000A11DB11D2093AF038093B0039093B103A6
:101CB000A093B203B093B3038091B4039091B503A2
:101CC000A091B603B091B7030196A11DB11D8093F9
:101CD000B4039093B503A093B603B093B7030E94E7
:101CE000680DFF91EF91BF91AF919F918F917F917F
:101CF0006F915F914F913F912F910F900FBE0F9079
:101D00001F9018952FB7F8946091B0037091B103AC
:101D10008091B2039091B3032FBF08953FB7F89419
:101D20008091B4039091B503A091B603B091B7032D
:101D300026B5A89B05C02F3F19F00196A11DB11D26
:101D40003FBFBA2FA92F982F8827820F911DA11D61
:101D5000B11DBC01CD0142E0660F771F881F991F9E
:101D60004A95D1F708958F929F92AF92BF92CF92EA
:101D7000DF92EF92FF926B017C010E948E0E4B016D
:101D80005C01C114D104E104F10401F10E94290FA6
:101D90000E948E0EDC01CB0188199909AA09BB09A2
:101DA000883E9340A105B10560F321E0C21AD10835
:101DB000E108F10888EE880E83E0981EA11CB11C92
:101DC000C114D104E104F10419F7DBCFFF90EF90C7
:101DD000DF90CF90BF90AF909F908F90089584B583
:101DE000826084BD84B5816084BD85B5826085BD17
:101DF00085B5816085BDEEE6F0E0808181608083FD
:101E0000E1E8F0E0108280818260808380818160DF
:101E10008083E0E8F0E0808181608083E1EBF0E0A6
:101E2000808184608083E0EBF0E08081816080834A
:101E3000EAE7F0E080818460808380818260808333
:101E40008081816080838081806880831092C1005E
:101E500008950895FFCFFFCFCF93DF93880F990B9D
:101E6000FC01E755FD4FC081D181AC81BD81119747
:101E70008A819B81A80FB91F2D85CD010197FD0196
:101E80003297223019F42CE331E002C028E531E02A
:101E90002C93DC013C939E818F819083DF018E9394
:101EA000CF0107971E928A179B07E1F780E8DF01B1
:101EB00018978C93CF0144971E928A179B07E1F7DE
:101EC000A881B9817597ED93FC93DF91CF91089527
:101ED000089578940895F894089578940895F8945E
:101EE000089508950E94EF0E0E94710F0E946C0DDC
:101EF0000E94B80A8091B8030E94EC0680E090E04E
:101F000008958091F4028093B803089508951F9274
:101F10000F920FB60F9211242F933F934F935F931D
:101F20006F937F938F939F93AF93BF93EF93FF93A1
:101F3000E091F101F091F2010995FF91EF91BF91CC
:101F4000AF919F918F917F916F915F914F913F9151
:101F50002F910F900FBE0F901F9018951F920F9208
:101F60000FB60F9211242F933F934F935F936F936C
:101F70007F938F939F93AF93BF93EF93FF93E091E2
:101F8000F301F091F4010995FF91EF91BF91AF91A9
:101F90009F918F917F916F915F914F913F912F9181
:101FA0000F900FBE0F901F90189520915804222378
:101FB00099F04FB7F89420915804213059F42DB37B
:101FC000209356043DB320915704209523232DBB25
:101FD0004FBF02C0409356048CBD9DBD08958EBD79
:101FE00000000DB407FEFDCF8EB508958091580412
:101FF000882361F09FB7F89420915804809156048B
:10200000213019F48DBB9FBF08958FBF0895CF93E2
:10201000DF93EC0180E591E00E94D50F60E08A89B2
:102020000E94D20D80EC0E94EF0F61E08A890E942D
:10203000D20D0E94F60F65E070E080E090E0DF9145
:10204000CF910C94B30E1F93CF93DF93EC01162F17
:1020500080E591E00E94D50F60E08A890E94D20D50
:1020600083E00E94EF0F812F0E94EF0F80E00E941B
:10207000EF0F182F61E08A890E94D20D0E94F60F9F
:10208000812FDF91CF911F910895DF92EF92FF9200
:102090000F931F93CF93DF938C01C62FD42EE52E81
:1020A000F22E80E591E00E94D50F60E0F801828970
:1020B0000E94D20D83E00E94EF0F8C2F0E94EF0F41
:1020C000CD2DDE2DCE018F0D911D7C01EC16FD0670
:1020D00029F080E00E94EF0F8993F8CF61E0F801CA
:1020E00082890E94D20DDF91CF911F910F91FF90B5
:1020F000EF90DF900C94F60F0F931F93CF93DF9325
:10210000EC01062F142F80E591E00E94D50F60E0CE
:102110008A890E94D20D82E00E94EF0F802F0E94D8
:10212000EF0F812F0E94EF0F61E08A890E94D20D8C
:10213000DF91CF911F910F910C94F60FDF92EF92E8
:10214000FF920F931F93CF93DF938C01C62FD42E52
:10215000E52EF22E80E591E00E94D50F60E0F801B7
:1021600082890E94D20D82E00E94EF0F8C2F0E9484
:10217000EF0FCD2DDE2DCE018F0D911D7C01EC16C4
:10218000FD0621F089910E94EF0FF9CF61E0F8017F
:1021900082890E94D20DDF91CF911F910F91FF9004
:1021A000EF90DF900C94F60FFF920F931F93CF9355
:1021B000DF93EC01F62E042F122F80E591E00E94B0
:1021C000D50F60E08A890E94D20D85E00E94EF0F52
:1021D0008F2D0E94EF0F802F0E94EF0F812F0E9402
:1021E000EF0F61E08A890E94D20DDF91CF911F919C
:1021F0000F91FF900C94F60F1F93CF93DF93EC0198
:1022000080E591E00E94D50F60E08A890E94D20D9E
:1022100080EA0E94EF0F80E00E94EF0F182F61E02C
:102220008A890E94D20D0E94F60F812FDF91CF91F3
:102230001F910895EF92FF920F931F93CF93DF9317
:10224000EC01162F0E94820E062FE12EF12C212F79
:1022500040EE6FE0CE010E94D4106EE0CE010E94ED
:102260002310807E90E08E159F0539F00E94820E2B
:10227000601B693C60F381E001C080E0DF91CF9199
:102280001F910F91FF90EF9008950F931F93CF939D
:10229000DF93EC01162F6EE00E942310807E8032C7
:1022A00021F5103211F16BE2CE010E942310082FAC
:1022B000007486FD06C020E440E46BE2CE010E947B
:1022C000D41020E440E46CE2CE010E94D41060E619
:1022D000CE010E941A11811116C0011106C020E022
:1022E00040E46BE2CE010E94D41020E040E46CE2B6
:1022F000CE010E94D410612FCE01DF91CF911F91AA
:102300000F910C941A1181E0DF91CF911F910F91E1
:102310000895FC01638B0C944511CF92DF92EF92EC
:10232000FF920F931F93CF93DF93342F337031308D
:1023300009F43FC008F466C0323009F0AAC0062F85
:1023400010E0F8013197EE30F10508F0A2C0EC5C26
:10235000FF4F0C94391AC4E8D6EF23E987C0C4E8CC
:10236000D6EF29E883C0C3E8D5EE27E87FC0C4E8EC
:10237000D6EF25E87BC0C4E8D6EF05C0C3E8D5EEAC
:1023800002C0C1E8D3ED24E871C0C4E8D6EF02C0B2
:10239000C3E8D5EE21E86AC0C4E8D6EF02C0C3E8BE
:1023A000D5EE20E863C0C1E8D1ED2AC0C0E8D0EC8A
:1023B00027C0C62ED12CF6013197EE30F10508F07A
:1023C00068C0EE5BFF4F0C94391AC4E8D6EF27E6DD
:1023D0004DC0C4E8D6EF23E549C0C3E8D5EE2EE4EE
:1023E00045C0C4E8D6EF42C0C3E8D5EE23E43EC002
:1023F000C3E8D5EE27C0C3E8D5EE28C0C1E8DAECC3
:1024000020E034C0062F10E0F8013697E930F105DE
:1024100008F03FC0E05BFF4F0C94391AC4E8D6EFD8
:1024200029E424C0C7E8DFEF24EC20C0C4E8D6EFDD
:1024300005C0C3E8D5EE02C0C1E8D3ED24E416C060
:10244000C4E8D6EF21E412C0C4E8D6EF20E40EC001
:10245000C2E8D9EDD5CFC4E8D6EF27EA07C0C7E870
:10246000DFEF2FE303C0C1E8D3ED28E142FDCF77D2
:102470008C01422F6AE20E947C104D2F69E2C80154
:102480000E947C104C2F68E2C8010E947C1080E002
:1024900001C081E0DF91CF911F910F91FF90EF90EC
:1024A000DF90CF9008950F931F93CF93DF9300D0C9
:1024B00000D0CDB7DEB74130B1F40C831B83890166
:1024C00022273327502F5C71402F437078E0579FAD
:1024D000400D112448604A8355E0169507955A959A
:1024E000E1F709830DC0A80123E0569547952A9589
:1024F000E1F749830295000F007E0A831C821B824C
:1025000024E0AE014F5F5F4F0E949E100F900F902E
:102510000F900F90DF91CF911F910F9108950F931E
:102520001F93CF93DF9300D000D0CDB7DEB7E62F57
:10253000F42FA901662777270C831B83F13081F4E0
:10254000342F3C71242F2370F8E03F9F200D11247D
:1025500028602A8335E0569547953A95E1F70AC0F9
:10256000242F2295220F207E2A8323E0569547951B
:102570002A95E1F7498324E0AE014F5F5F4F6E2F4C
:102580000E949E100F900F900F900F90DF91CF91AF
:102590001F910F9108950F931F93CF93DF93EC0139
:1025A00000E010E0980141E060E20E948F1200E03C
:1025B00010E0980141E064E2CE010E948F1200E039
:1025C00010E0980141E060E0CE010E948F1200E02F
:1025D00010E0980140E064E0CE010E948F1200E01C
:1025E00010E0980141E068E0CE010E948F1200E007
:1025F00010E0980140E060E1CE010E948F1200E0FF
:1026000010E0980141E064E1CE010E948F1200E0E9
:1026100010E0980140E068E1CE010E948F1210E3C3
:1026200040E0612FCE010E947C1060E1610F40E02C
:10263000CE010E947C1060E2610F40E0CE010E945A
:102640007C101F5F1E3361F740E060E6CE010E9400
:102650007C1040E060E7CE01DF91CF911F910F9198
:102660000C947C10EF92FF920F931F93CF93DF9304
:10267000EC01062FF42EE22E0E94071080E48B8BD3
:1026800060E8CE010E944511182F882341F06FEABF
:1026900071E089EB93E00E943616812F5CC067E8F9
:1026A00071E089EB93E00E9436164E2D6F2DCE011E
:1026B0000E948D11882339F06BE671E089EB93E07D
:1026C0000E94361647C06EE471E089EB93E00E94E9
:1026D0003616CE010E94CB1243E06BE2CE010E947F
:1026E0007C104CE36CE0CE010E947C1040E06DE079
:1026F000CE010E947C10002351F0033019F524E62E
:1027000044E660E6CE010E94D41020E607C024E033
:1027100044E660E6CE010E94D41020E040E660E787
:10272000CE010E94D4106B89CE010E944511C82FA2
:10273000882381F06CE071E089EB93E00E9436160B
:102740008C2F09C062E371E089EB93E00E9436169A
:1027500081E001C080E0DF91CF911F910F91FF9048
:10276000EF900895EF92FF920F931F93CF93DF9313
:1027700000D000D0CDB7DEB77A018901FA0110820E
:10278000F901108211821282138224E0AE014F5FA0
:102790005F4F0E9445102A813981822F90E065E0C9
:1027A000959587956A95E1F7F8E03F9F800D911D1B
:1027B0001124092E000CAA0BBB0BF8018083918316
:1027C000A283B38323FF25C032E0880F991FAA1F7D
:1027D000BB1F3A95D1F72370820F911DA11DB11D2A
:1027E000BA2FA92F982F88272B81820F911DA11D09
:1027F000B11DBA2FA92F982F88272C81820F911DE8
:10280000A11DB11D80839183A283B38381E0F70171
:1028100080830F900F900F900F90DF91CF911F91B9
:102820000F91FF90EF900895FF920F931F93CF9316
:10283000DF93EC01F62EAC014A5F5F4F65E06F0D50
:102840002D810E949E108E85813019F48D818064C7
:102850008D8364E06F0D4D81CE010E947C10098153
:102860001A812B813C8148816F2DCE010E94531229
:10287000DF91CF911F910F91FF9008950F931F93B8
:10288000CF93DF93EC01162F9C012F5F3F4FAC01DC
:102890000E94B2136FEF610FCE010E942310082F28
:1028A00064E0610FCE010E9423108D8303FF03C0FB
:1028B00091E09E8701C01E86282F2F702D83AE01C8
:1028C0004A5F5F4F65E0610FCE01DF91CF911F91AD
:1028D0000F910C9445108F929F92AF92BF92CF921E
:1028E000DF92EF92FF921F93CF93DF9300D01F925E
:1028F000CDB7DEB74C016B018091F5019091F601E7
:10290000A091F70189839A83AB83FB011082CE01EA
:1029100001967C015E0194E0A90EB11CF7011191B2
:102920007F01612FC4010E942310982F987083FDAE
:1029300004C01F5FF601108304C0EA14FB0471F7A2
:1029400092E0892F0F900F900F90DF91CF911F9100
:10295000FF90EF90DF90CF90BF90AF909F908F90BF
:102960000895CF93DF93EC01862F6A8B61E00E947C
:10297000D20D61E08A890E94960D8AE594E0998BD8
:10298000888BDF91CF910895FF920F931F93CF9380
:10299000DF93EC01162F042FF22E0E9412182F2D18
:1029A000402F612FCE010E94321391E0811101C0AE
:1029B00090E0892FDF91CF911F910F91FF900895A3
:1029C000BF92CF92DF92EF92FF920F931F93CF931C
:1029D000DF931F92CDB7DEB78C010E948E0E6B0184
:1029E0007C01BE016F5F7F4FC8010E946B14B82E3F
:1029F0000E948E0EDC01CB018C199D09AE09BF0926
:102A000022E0B21206C0843C9940A105B10548F30A
:102A100031C0843C9940A105B10560F56981C801C8
:102A20000E9414146981615028E048E0C8010E94A6
:102A3000D4100E948E0E6B017C0169816150C80127
:102A40000E942310B82E0E948E0EDC01CB018C193F
:102A50009D09AE09BF09B3FE06C0843C9940A1059B
:102A6000B10558F309C0843C9940A105B10520F493
:102A700080E003C086E001C087E00F90DF91CF9136
:102A80001F910F91FF90EF90DF90CF90BF9008952E
:102A9000EF92FF920F93FC0141835283638374830F
:102AA000168620830583F701DC0116969C01225FC0
:102AB0003F4F41914D93A217B307D9F70F91FF9064
:102AC000EF900C94E014CF93DF93EC010E94FC1084
:102AD00080FF07C061E6CE010E943E1420E041E085
:102AE00008C081FF0CC061E7CE010E943E1420E0C7
:102AF00042E06CE2CE010E94D41080E001C084E08C
:102B0000DF91CF910895CF92DF92EF92FF920F93D2
:102B10001F93CF93DF93EC016B017A0189010E942F
:102B20006315843099F18881882349F089819A81DD
:102B3000AB81BC81B06889839A83AB83BC838E856B
:102B4000882349F089819A81AB81BC81B0648983F3
:102B50009A83AB83BC8389819A81AB81BC81F60166
:102B600080839183A283B3838D81F7018083DE010B
:102B70001696F8018D8190E09F01201B310B2817DC
:102B800039071CF48D918193F5CF80E0DF91CF91CF
:102B90001F910F91FF90EF90DF90CF900895CF920B
:102BA000DF92EF92FF920F931F93CF93DF936C010D
:102BB0007A018B01C0E0D0E0CE15DF0581F0D801AD
:102BC0006D918D01D601ED91FC910190F081E02D88
:102BD000C6010995892B11F02196EECF7E01C70120
:102BE000DF91CF911F910F91FF90EF90DF90CF90E9
:102BF00008956115710579F0FB0101900020E9F756
:102C00003197AF01461B570BDC01ED91FC9102801F
:102C1000F381E02D099480E090E00895EF92FF9217
:102C20000F931F93CF93DF938C017B01C0E0D0E023
:102C3000F701EC0FFD1F6491662361F0D801ED915F
:102C4000FC910190F081E02DC8010995892B11F0CC
:102C50002196EECFCE01DF91CF911F910F91FF9082
:102C6000EF90089565E273E00C94F9150F931F93AC
:102C7000CF93DF93EC010E940E168C01CE010E94CF
:102C80003216800F911FDF91CF911F910F91089500
:102C90000F931F93CF93DF93EC010E94F9158C01E2
:102CA000CE010E943216800F911FDF91CF911F91AC
:102CB0000F9108951F920F920FB60F9211242F9328
:102CC0008F939F93EF93FF93E091C903F091CA0311
:102CD0008081E091CF03F091D00382FD12C09081FA
:102CE0008091D2038F5F8F732091D303821751F0AD
:102CF000E091D203F0E0E754FC4F958F8093D2032C
:102D000001C08081FF91EF919F918F912F910F9042
:102D10000FBE0F901F9018951F920F920FB60F9233
:102D200011242F933F934F935F936F937F938F93D0
:102D30009F93AF93BF93EF93FF9389EB93E00E9430
:102D40001C17FF91EF91BF91AF919F918F917F9150
:102D50006F915F914F913F912F910F900FBE0F9008
:102D60001F901895E9EBF3E01382128288EE93E04E
:102D7000A0E0B0E084839583A683B78388E393E0E3
:102D80009183808385EC90E09587848784EC90E044
:102D90009787868780EC90E0918B808B81EC90E028
:102DA000938B828B82EC90E0958B848B86EC90E009
:102DB000978B868B118E128E138E148E0895FC01C4
:102DC000918D228D892F90E0805C9F4F821B91090D
:102DD0008F7399270895FC01918D828D981731F09A
:102DE000828DE80FF11D858D90E008958FEF9FEFA4
:102DF0000895FC01918D828D981761F0828DDF011D
:102E0000A80FB11D5D968C91928D9F5F9F73928FDD
:102E100090E008958FEF9FEF0895FC01538D448D4E
:102E2000252F30E0842F90E0821B930B541710F075
:102E3000CF96089501970895FC01848DDF01A80FB6
:102E4000B11DA35ABF4F2C91848D90E001968F73D2
:102E50009927848FA689B7892C93A089B1898C91F1
:102E6000837080648C93938D848D981306C0028840
:102E7000F389E02D80818F7D80830895EF92FF920A
:102E80000F931F93CF93DF93EC0181E0888F9B8D8D
:102E90008C8D981305C0E889F989808185FD26C04D
:102EA000F62E0B8D10E00F5F1F4F0F731127E02ED2
:102EB0008C8DE8120CC00FB607FCFACFE889F989AF
:102EC000808185FFF5CFCE010E941C17F1CF8B8D3D
:102ED000FE01E80FF11DE35AFF4FF0829FB7F8940F
:102EE0000B8FEA89FB89808180620AC09FB7F894C2
:102EF000EE89FF896083E889F98980818370806425
:102F000080839FBF81E090E0DF91CF911F910F916F
:102F1000FF90EF900895CF93DF93EC01888D882385
:102F2000C9F0EA89FB89808185FD05C0A889B98936
:102F30008C9186FD0FC00FB607FCF5CF808185FF11
:102F4000F2CFA889B9898C9185FFEDCFCE010E947F
:102F50001C17E7CFDF91CF910895CF92DF92EF92C8
:102F6000FF921F93CF93DF93EC016A017B01122F35
:102F7000E889F98982E080834115514E6105710528
:102F8000B1F060E079E08DE390E0A70196010E9446
:102F9000171ADA01C9010197A109B109B695A795D8
:102FA000979587959C01211580E13807A8F0E8895D
:102FB000F989108260E874E88EE190E0A70196013B
:102FC0000E94171ADA01C9010197A109B109B69542
:102FD000A795979587959C01EC85FD853083EE85B7
:102FE000FF852083188EEC89FD891083EA89FB898F
:102FF000808180618083EA89FB8980818860808309
:10300000EA89FB89808180688083EA89FB898081E5
:103010008F7D8083DF91CF911F91FF90EF90DF90A4
:10302000CF900895CF93CFB7F89480915904811130
:1030300027C0E4EEF0E08491E0EDF0E09491E82F19
:10304000F0E0EE0FFF1FEE5FFE4FA591B491EC9103
:10305000E92321F461E08AE00E94D20D61E08AE078
:103060000E94960D8CB580618CBD8CB580648CBD42
:1030700061E08DE00E94960D61E08BE00E94960D6C
:10308000809159048F5F80935904CFBFCF910895E9
:10309000F8940C943F1A5058BB27AA270E94631833
:1030A0000C946B190E945D1938F00E94641920F08D
:1030B00039F49F3F19F426F40C945A190EF4E09554
:1030C000E7FB0C945419E92F0E947C1958F3BA17A6
:1030D000620773078407950720F079F4A6F50C942E
:1030E0009E190EF4E0950B2EBA2FA02D0B01B901FD
:1030F00090010C01CA01A0011124FF27591B99F06E
:10310000593F50F4503E68F11A16F040A22F232F79
:10311000342F4427585FF3CF469537952795A795C9
:10312000F0405395C9F77EF41F16BA0B620B730B70
:10313000840BBAF09150A1F0FF0FBB1F661F771FE1
:10314000881FC2F70EC0BA0F621F731F841F48F496
:10315000879577956795B795F7959E3F08F0B0CF1F
:103160009395880F08F09927EE0F97958795089506
:103170000E94301908F481E008950E94C4186894F0
:10318000B1110C949F1908950E94841988F09F57DB
:1031900098F0B92F9927B751B0F0E1F0660F771F7B
:1031A000881F991F1AF0BA95C9F714C0B13091F071
:1031B0000E949E19B1E008950C949E19672F782FF4
:1031C0008827B85F39F0B93FCCF386957795679536
:1031D000B395D9F73EF490958095709561957F4FA2
:1031E0008F4F9F4F0895E89409C097FB3EF4909548
:1031F0008095709561957F4F8F4F9F4F9923A9F0D0
:10320000F92F96E9BB279395F6958795779567955E
:10321000B795F111F8CFFAF4BB0F11F460FF1BC0A2
:103220006F5F7F4F8F4F9F4F16C0882311F096E935
:1032300011C0772321F09EE8872F762F05C06623E3
:1032400071F096E8862F70E060E02AF09A95660F9C
:10325000771F881FDAF7880F9695879597F9089555
:10326000990F0008550FAA0BE0E8FEEF1616170697
:10327000E807F907C0F012161306E407F50798F0FF
:10328000621B730B840B950B39F40A2661F0232B18
:10329000242B252B21F408950A2609F4A140A69594
:1032A0008FEF811D811D089597F99F6780E870E079
:1032B00060E008959FEF80EC089500240A941616AC
:1032C000170618060906089500240A941216130614
:1032D000140605060895092E0394000C11F48823A2
:1032E00052F0BB0F40F4BF2B11F460FF04C06F5FBE
:1032F0007F4F8F4F9F4F089557FD9058440F551F94
:1033000059F05F3F71F04795880F97FB991F61F067
:103310009F3F79F087950895121613061406551FDE
:10332000F2CF4695F1DF08C0161617061806991F4A
:10333000F1CF86957105610508940895E894BB273F
:1033400066277727CB0197F908950E94301908F472
:103350008FEF08950E94BD190C946B190E945D199E
:1033600038F00E94641920F0952311F00C94541940
:103370000C945A1911240C949F190E947C1970F313
:10338000959FC1F3950F50E0551F629FF001729F0A
:10339000BB27F00DB11D639FAA27F00DB11DAA1F19
:1033A000649F6627B00DA11D661F829F2227B00D66
:1033B000A11D621F739FB00DA11D621F839FA00DF1
:1033C000611D221F749F3327A00D611D231F849F41
:1033D000600D211D822F762F6A2F11249F57504098
:1033E0009AF0F1F088234AF0EE0FFF1FBB1F661F13
:1033F000771F881F91505040A9F79E3F510580F0DC
:103400000C9454190C949F195F3FE4F3983ED4F345
:10341000869577956795B795F795E7959F5FC1F77F
:10342000FE2B880F911D9695879597F90895A1E237
:103430001A2EAA1BBB1BFD010DC0AA1FBB1FEE1F2E
:10344000FF1FA217B307E407F50720F0A21BB30B79
:10345000E40BF50B661F771F881F991F1A9469F7F5
:1034600060957095809590959B01AC01BD01CF0151
:103470000895EE0FFF1F0590F491E02D0994F89444
:02348000FFCF7C
:10348200000000000000000000000000000000003A
:10349200000000000000000000000000000000002A
:1034A200000000000000000000000000000000001A
:1034B200000000000000000000000000000000000A
:1034C20000000000000000000000000000000000FA
:1034D20000000000000000000000000000000000EA
:1034E2000000000000000000FFFFFFFFFFFFFFFFE2
:1034F200FFFFFFFFFFFFFFFFFF00007041000040E2
:10350200400000DB020000AA03FFFFFFFFFFFFFFF6
:10351200FF00008602000000000800000008000012
:1035220000028F02000000000A0000000A000000F2
:10353200029802000000000A0000000A00000002D7
:10354200000000040000000003000000000200016F
:10355200000000FFFF00000100000000000000006A
:10356200000000000000000500FF00000100FF0055
:1035720000860F860F304050FF4D435032353135B3
:103582002063616E5F73656E64205374617274654B
:1035920064210063616E5F73656E643A2053454E29
:1035A20054210063616E5F73656E643A204D6573EA
:1035B200736167652074696D656F7574210063615D
:1035C2006E5F73656E643A204572726F7220746F1B
:1035D2002073656E6421004143435F416363656C00
:1035E20065726174696F6E207472616E736D697455
:1035F20069646120636F6D207375636573736F0017
:10360200B101A2019301CF015D098C02D90601CF5C
:10361200015D099502D90602CF015D099E02D90614
:1036220000CA01C501C001AA03CD02BF02B102DB7B
:10363200025D055F058000E00A0000020401003D12
:10364200063F060001AA0B0000010301005B055BB7
:10365200040001260C000000020100EB05ED0550FC
:10366200002A0F000003000100EC01E70100010144
:103672000100000000EF07BD07C6079F0733053CA6
:1036820007200565074108E206EA06FA0831083311
:10369200095A086609A5089D09DD06EF097D085249
:1036A2000A930AC4080D0A006E616E00696E660014
:1036B2006F766600000000003E17CF150D178B17BE
:0636C200DF16F916EB16FD
:00000001FF
