:100000000C94EE000C94E50F0C940C100C9416015B
:100010000C9416010C9416010C9416010C94160104
:100020000C9416010C9416010C9416010C941601F4
:100030000C9416010C9416010C9416010C941601E4
:100040000C94880E0C9416010C94B8160C94EA16B5
:100050000C9416010C9416010C9416010C941601C4
:100060000C9416010C941601891209120D1211122A
:10007000151219121C121F12231226122A122D12E7
:10008000311234128D1243124712A7124B126C1206
:100090004F127412771252127E12561259125C12BB
:1000A00091126C127012741277127A127E128212EE
:1000B000861200000008000201000003040700008F
:1000C000000000000000010204081020408001022E
:1000D000040810200102040810200404040404048D
:1000E00004040202020202020303030303030000EA
:1000F0000000230026002900000000002500280041
:100100002B0000000000240027002A0052657475AF
:10011000726E696E6720746F2050726576696F75B4
:1001200073204D6F6465204661696C7572652E2E73
:100130002E006053657474696E67204944204D6FCA
:100140006465204661696C7572652E2E2E005365BC
:100150007474696E672042617564726174652053BE
:1001600075636365737366756C2100536574746998
:100170006E67204261756472617465204661696CC6
:100180007572652E2E2E00456E746572696E67203D
:10019000436F6E66696775726174696F6E204D6F2B
:1001A0006465205375636365737366756C210045E0
:1001B0006E746572696E6720436F6E6669677572EB
:1001C0006174696F6E204D6F6465204661696C755E
:1001D00072652E2E2E00C10DDF0F101711241FBEC9
:1001E000CFEFD8E0DEBFCDBF13E0A0E0B1E0E0E3A9
:1001F000F5E302C005900D92A434B107D9F727E0CA
:10020000A4E4B3E001C01D92A933B207E1F710E006
:10021000CEEED0E004C02197FE010E94901ACB3EA2
:10022000D107C9F70E94D00F0C94A6180C940000B7
:10023000E2E10E94BD010895E9E00E94BD01089538
:10024000EAE00E94BD010895E1E00E94BD01089529
:10025000E3E00E94BD010895E7E00E94BD0108951A
:10026000E5E00E94BD010895E0E00E94BD0108950F
:10027000E2E00E94BD010895E4E00E94BD010895FE
:10028000ECE00E94BD010895E8E00E94BD010895E0
:10029000EEE00E94BD010895E4E10E94BD010895D1
:1002A000E0E10E94BD010895E7E10E94BD010895CB
:1002B000E6E00E94BD010895EBE00E94BD010895B3
:1002C000EDE00E94BD010895EFE00E94BD01089598
:1002D000E1E10E94BD010895E3E10E94BD0108959E
:1002E000E5E10E94BD010895E6E10E94BD01089587
:1002F00021968A929A92AA92BA92CA92DA92EA9233
:10030000FA920A931A932197E0917D01F0917E0170
:100310000080F181E02DC083D1830895C0917F01D9
:10032000D0918001E881F981C081D1812196199114
:100330000991F990E990D990C990B990A9909990B4
:100340008990219708952F903F90E7E6F1E0CDB78F
:10035000DEB7EDBFFEBF3F922F9208952F903F90E2
:10036000CDBFDEBF3F922F920895E0E80E94BD010D
:100370000895E0E40E94BD0108952F923F924F92AC
:100380005F926F927F922FB62F92CF93DF937E2E44
:10039000F894E0910001EF5FE0930001E13011F487
:1003A0000E94A301E0E0E0938D01E72DE07849F0A1
:1003B0000E941106F0918E01F17071F00E94C40448
:1003C0000BC0E72DEC3140F4EE0FF0E0ED50FD4FA7
:1003D0000190F081E02D0995F0918D01EF2FE170F2
:1003E00059F0F27011F00E9478018F938F2F0E94C4
:1003F0000C048F910E948E012091000121502093C6
:100400000001222311F40E94AE01DF91CF912F90C1
:100410002FBE7F906F905F904F903F902F900895E8
:10042000CF92DF92EF92FF920F931F93DC01EC913A
:10043000DB012C918E2F8170C82ED12CE12CF12C58
:100440008E2F8F7090E0A0E0B0E0B695A7959795BD
:100450008795DC01A256BC4F8C91C81AD108E108DF
:10046000F108EE70422F417050E060E070E0822FA2
:100470008F7090E0A0E0B0E0B695A795979587952E
:10048000DC01A256BC4F8C91481B510961097109CE
:10049000822F8E7097018601017011272227332742
:1004A0000E2B4170552766277727482B81E090E077
:1004B000041715072607370710F080E090E01F911A
:1004C0000F91FF90EF90DF90CF9008958F929F92C1
:1004D000AF92BF92EF92FF920F931F93CF93DF9350
:1004E0007C014A015B01B694A794979487944230AB
:1004F000510561057105E0F0440F551F8701040F98
:10050000151FE401CC0FDD1FCE0DDF1DB801CE019C
:100510000E941002892B61F0F8019081818128816D
:1005200039813183208398838983B501A401DBCF8E
:10053000DF91CF911F910F91FF90EF90BF90AF90FF
:100540009F908F9008954F925F926F927F928F92BB
:100550009F92AF92BF92CF92DF92EF92FF920F9352
:100560001F93CF93DF9300D000D000D0CDB7DEB77C
:100570008C016A017B01DC018C91282F30E040E086
:1005800050E029833A834B835C8346015701880CF2
:10059000991CAA1CBB1C29813A814B815C812815BE
:1005A00039054A055B0508F442C0240135013FEFD7
:1005B000431A530A630A730A89819A81AB81BC8109
:1005C00084159505A605B70580F0B201660F771F63
:1005D000600F711FC401880F991F800F911F0E9427
:1005E0001002892B11F0530142013401660C771C73
:1005F000600E711ECC0CDD1CD801AC0DBD1DBE8380
:10060000AD83B301CD010E941002892B81F0ED81F1
:10061000FE8190818181D3012D913C91119731838D
:1006200020839C9311968C9375016401AECF26961E
:100630000FB6F894DEBF0FBECDBFDF91CF911F91F3
:100640000F91FF90EF90DF90CF90BF90AF909F9071
:100650008F907F906F905F904F900895E9EDF5E057
:1006600040814F5F408350E060E070E0E82FEE0F84
:10067000FF0BE955FD4F0190F081E02D238530E01F
:10068000F901E256FC4F908191509083FA01EE0FF0
:10069000FF1FE752FA4F220F331F9170292B20833F
:1006A000818389ED95E00C946602E9EDF5E04081E7
:1006B0004F5F408350E060E070E0E82FEE0FFF0BEB
:1006C000E156FD4F0190F081E02D9381FA01EE0F8C
:1006D000FF1FE752FA4F9083818389ED95E00C94D8
:1006E0006602CF93DF93E9EDF5E080819FEF980FED
:1006F0009083D281C38190E0880F991FDC01A752BB
:10070000BA4F8D919C919383828341E050E060E0E9
:1007100070E0CF010E94A3028D2F9C2FDF91CF911B
:1007200008958091850190918601A0918701B091F3
:1007300088018F3F2FEF9207A207B20731F003978E
:10074000A105B10524F481E0089580E0089582E0D8
:100750000895880F990BFC01E955FD4F0190F08138
:10076000E02D0084F185E02D3097E9F02281211100
:100770001AC021E02283DC01A156BD4F0D90BC912F
:10078000A02D13968C9113978183808190E0FC01BA
:10079000E256FC4F208121502083880F991F217041
:1007A000822B13968C930895880F990BFC01E955C1
:1007B000FD4F0190F081E02D0084F185E02D309710
:1007C00061F02281213049F412822181FC01E1563D
:1007D000FD4F0190F081E02D2383089580918901E0
:1007E00090918A01A0918B01B0918C01409185017B
:1007F00050918601609187017091880148175907CF
:100800006A077B0741F0E0918301F091840121E0C8
:1008100024830C9455030895CF93DF93882391F09C
:10082000C0917D01D0917E01E0918101F091820122
:100830008481833049F081E08483809185010E9426
:10084000550302C0C0E0D0E0E0918301F091840143
:10085000F0938201E093810180917F01909180016A
:1008600090937E0180937D018091890130918A016E
:1008700020918B0190918C018093850130938601AA
:10088000209387019093880192E094830E94A903AA
:10089000CE01DF91CF910895809185010E94D4030C
:1008A000E0918101F09182018281882319F085E035
:1008B0008483089514820895CF93DF93282F220F05
:1008C000330BF901E156FD4FC081D1819A81F901C5
:1008D000E955FD4F0190F081E02D2485921770F4C9
:1008E000911105C095E09C8391E090938E010E9448
:1008F0002E038A818F5F8A8380E001C084E0DF91CC
:10090000CF910895E82FEE0FFF0BE156FD4F0190B8
:10091000F081E02D118210820C948A0F1F93CF93E7
:10092000DF930E947103182F892F492F092E000C85
:10093000550B660B770B4093890150938A016093A6
:100940008B0170938C01292F220F330BF901E15693
:10095000FD4FC081D181D0938401C0938301F901FF
:10096000E955FD4F208131813093800120937F0133
:100970009C81953019F40E9482041B8310928E0191
:10098000DF91CF911F910895E0918901F0918A0143
:10099000EE0FFF1FE156FD4F0190F081E02D909189
:1009A000DB058381891730F40E94EE030E948E04D8
:1009B00083E001C080E080938D01089581E0809301
:1009C0008D010C948E04EF92FF920F931F93CF939F
:1009D000DF93C1E001C0CC0F8A95EAF783E00E9463
:1009E0005C040FEE12E0D0E0F80181918F018C23BE
:1009F00019F08D2F0E945C04DF5FD330A9F70CEE55
:100A000012E08EE7E82E82E0F82ED1E0F801819125
:100A10008F018C2339F0F70180819181FC01D68709
:100A20000E944A05F2E0EF0EF11C82E00F3E18072B
:100A300069F7DF91CF911F910F91FF90EF9008958B
:100A40000E94F80681110E941907E0918101F0913E
:100A5000820180819181892B21F0809185010E9402
:100A6000E0080C9441080E94F80681110E941907C1
:100A7000E0918101F091820180819181892B21F0A7
:100A8000809185010E94E0080C94290881E0809300
:100A900044030895AF92BF92CF92DF92EF92FF92FC
:100AA0000F931F93CF93DF93FC01A081B181AD9091
:100AB000BC90E501AC89BD89109739F0428553851A
:100AC0006485758530E020E017C0D50155969C936C
:100AD0008E93549757969C938E93569715821482B3
:100AE000138212825BC012968D919C9113973A2FBC
:100AF0002B2F009779F0DC011A96CD90DD90ED90C8
:100B0000FC901D974C155D056E057F0560F7CD01C6
:100B1000A32FB22F93838283B583A483009719F008
:100B2000EC01FD83EC83109729F01396FC93EE9370
:100B3000129705C0D5015596FC93EE935497E501A5
:100B4000AE89BF891A968D919D910D90BC91A02D73
:100B5000088919892A893B8980179107A207B30759
:100B600080F4041715072607370728F04817590798
:100B70006A077B0798F4D5015796FC93EE93569736
:100B80000DC0041715072607370740F44817590703
:100B90006A077B0718F4E501FF8BEE8BDF91CF919D
:100BA0001F910F91FF90EF90DF90CF90BF90AF908B
:100BB0000895CF93DF93DC01ED91FC9111970190A3
:100BC000F081E02D848995891296CD91DC9113975F
:100BD000A817B90711F4D58BC48B86899789A817F4
:100BE000B90711F4D78BC68B209731F014968D91ED
:100BF0009C9115979D838C8314960D90BC91A02D8C
:100C0000109721F01396DC93CE93129786899789DB
:100C1000892B21F484899589978B868BDF91CF91DD
:100C20000895EF92FF920F931F93CF93DF93FC01F0
:100C300080914403882309F4B5C084859585A685F1
:100C4000B7850196A11DB11D84879587A687B787B3
:100C5000408151816281738184179507A607B70788
:100C600009F0A0C040895189628973894F5F5F4F45
:100C70006F4F7F4F84819581A681B7818417950737
:100C8000A607B70718F440E050E0BA01408B518B3B
:100C9000628B738B1486158616861786C689D7894C
:100CA000209709F47FC08A859B85AC85BD85481750
:100CB00059076A077B0709F075C0CE01DC0112965F
:100CC000ED90FC901397E114F10471F0D7011A969E
:100CD0000D911D912D913C911D9740175107620771
:100CE000730711F4C701EACF2C813D81211531052D
:100CF00029F0D9011396FC92EE921297E114F104B7
:100D000029F0D70115963C932E93149724893589A1
:100D1000C217D30711F4F58AE48AE114F10419F03B
:100D2000F78AE68A04C024893589378B268B8F01A0
:100D3000FC0113821282EA80FB80E881F981028043
:100D4000F381E02DCE0109954E815F81688579851B
:100D5000411551056105710509F18A859B85AC85B1
:100D6000BD85840F951FA61FB71FF80144815581CB
:100D700066817781481759076A077B0738F4841B17
:100D8000950BA60BB70B0197A109B1098A879B8721
:100D9000AC87BD87CE010E944A0501C01E86E701CF
:100DA000209749F6DF91CF911F910F91FF90EF901F
:100DB0000895FC0182810C945C040E94F8068091E5
:100DC00068010895809368010E94E3040E9446052B
:100DD0000C94DE040C94890FCF93C82F0E949103CA
:100DE000811102C00E94C60F8C2FCF910C941C0160
:100DF000809151038130D9F08091490390914A0349
:100E0000A0914B03B0914C03892B8A2B8B2B79F447
:100E100081E040914D0350914E0360914F037091DA
:100E20005003452B462B472B19F480E0089581E0B1
:100E300008951092510310924D0310924E03109298
:100E40004F03109250031092490310924A031092DC
:100E50004B0310924C038091450390914603A0915F
:100E60004703B09148038093520390935303A09398
:100E70005403B093550308950E94C90F8091520303
:100E800090915303A0915403B09155030196A11D75
:100E9000B11D8093520390935303A0935403B093D6
:100EA000550380914D0390914E03A0914F03B09153
:100EB00050030196A11DB11D80934D0390934E03E5
:100EC000A0934F03B0935003089580914D039091E8
:100ED0004E03A0914F03B09150030097A105B105B7
:100EE00069F1409152035091530360915403709102
:100EF00055034150510961097109409352035093C0
:100F0000530360935403709355030197A109B109EA
:100F100080934D0390934E03A0934F03B0935003DF
:100F20008091520390915303A0915403B0915503C3
:100F3000892B8A2B8B2B11F40C94C70F0895809169
:100F40004D0390914E03A0914F03B0915003892B14
:100F50008A2B8B2B89F48091490390914A03A091AD
:100F60004B03B0914C03892B8A2B8B2B29F40E94C5
:100F7000C90F81E080935103089580915103882324
:100F800021F0109251030C94C70F08950E94CD0FC9
:100F90008091520390915303A0915403B091550353
:100FA0000196A11DB11D8093520390935303A0930A
:100FB0005403B09355038091490390914A03A09143
:100FC0004B03B0914C030196A11DB11D80934903C1
:100FD00090934A03A0934B03B0934C0308958091E0
:100FE000490390914A03A0914B03B0914C030097A1
:100FF000A105B10569F140915203509153036091ED
:10100000540370915503415051096109710940938E
:101010005203509353036093540370935503019705
:10102000A109B1098093490390934A03A0934B030C
:10103000B0934C038091520390915303A0915403B9
:10104000B0915503892B8A2B8B2B11F40C94CB0F69
:1010500008950E94F806882311F083E1089580E046
:101060000895CF93C82F0E94F8068C2F0E945C042D
:10107000C82F80918E0181110E94C4048C2FCF91C2
:101080000895CF930E94F806882311F0C3E101C0B0
:10109000C0E0E0918101F0918201828181508283E0
:1010A0000E944C0481E080938D010E948E048C2F5D
:1010B000CF910895CF93C82F0E94F806E091810147
:1010C000F09182018281815082838C2F0E945C0486
:1010D000C82F811108C00E944C0481E080938D01CB
:1010E0000E948E0407C0E0918101F091820182810B
:1010F0008F5F82838C2FCF910895CF930E94F80643
:10110000882311F0C3E101C0C0E0809185010E94F5
:10111000D4030E94C4048091850190918601A0911E
:101120008701B09188014091890150918A016091B5
:101130008B0170918C0184179507A607B70711F4EE
:101140000E94A9038C2FCF910895CF93DF93EC01D8
:101150000E94F806882311F083E101C080E04091ED
:10116000850150918601609187017091880143301B
:1011700051056105710514F4488303C09091F40191
:101180009883DF91CF9108950F931F93CF93C82F2A
:101190008B010E94F806882311F083E101C080E0F2
:1011A000EC2FEE0FFF0BE156FD4F0190F081E02D8B
:1011B00094819370F8019083CF911F910F910895BE
:1011C000880F990BFC01E156FD4FA081B181ED9193
:1011D000FC911197309769F01D921C922091F401B7
:1011E00093818481228314821382E92FF82F309710
:1011F000B9F70895CF93C82F0E94F806882311F0FD
:1012000083E101C080E0EC2FF0E0EE0FFF1FE95119
:10121000FD4FA081B1819091850112969C93129708
:10122000E0918101F09182012081318114963C93FB
:101230002E931397B183A083938111969C9311975A
:101240002C9193819695921760F430E0D901A256C3
:10125000BC4F9C9191509C93220F331F9170292B6E
:101260002383CF910895CF93DF93C82F0E94F80670
:10127000882311F0D3E101C0D0E0EC2FF0E0EE0FB5
:10128000FF1FE951FD4F0190F081E02DA0918101F8
:10129000B0918201818113968C93139783819481FD
:1012A0008D939C93148213828091F40182830E9417
:1012B000C4048D2FDF91CF910895DC01ED91FC9155
:1012C00084819581DC01ED91FC9109941F93CF936A
:1012D000DF93182FEB010E94F806882311F083E1B9
:1012E00001C080E0E12FF0E0EE0FFF1FE258FD4F5C
:1012F0000190F081E02D0190F081E02D0190F081CE
:10130000E02D40815181628173814C835D836E83C6
:101310007F834481558166817781488359836A83BD
:101320007B834085518562857385488759876A87A5
:101330007B87DF91CF911F9108958F929F92AF92FB
:10134000BF92CF92DF92EF92FF920F931F93CF93B2
:10135000C82F8B010E94F806882311F083E101C099
:1013600080E0EC2FF0E0EE0FFF1FE258FD4F019000
:10137000F081E02D9685913029F54285538564856D
:1013800075850190F081E02D0190F081E02DC088FD
:10139000D188E288F3884C155D056E057F0540F421
:1013A00084809580A680B780480D591D6A1D7B1DDD
:1013B0004C195D096E097F09F801408351836283EE
:1013C000738301C085E0CF911F910F91FF90EF9043
:1013D000DF90CF90BF90AF909F908F9008958F92A5
:1013E0009F92AF92BF92CF92DF92EF92FF920F93B4
:1013F0001F93CF93DF93D82F4A015B0168017901D6
:101400000E94F806882311F0C3E101C0C0E0ED2F6F
:10141000F0E0EE0FFF1FE258FD4F0190F081E02D4C
:101420008685811130C0A081B1810D90BC91A02D25
:1014300050964D915D916D917C915397480D591D3A
:101440006A1D7B1D14968D919D910D90BC91A02DD0
:1014500084179507A607B70740F4481B590B6A0B7A
:101460007B0B415051096109710942875387648799
:101470007587C682D782E086F18681E08687CF01B4
:101480000E944A0501C0C7E08C2FDF91CF911F91C8
:101490000F91FF90EF90DF90CF90BF90AF909F9013
:1014A0008F9008958F929F92AF92BF92CF92DF92CA
:1014B000EF92FF920F931F93CF93DF93C82F4A01B0
:1014C0005B01680179010E94F806882311F0D3E1DD
:1014D00001C0D0E0EC2FF0E0EE0FFF1FE258FD4F0F
:1014E0000190F081E02D868581110EC08286938661
:1014F000A486B586C682D782E086F18681E086879B
:10150000CF010E944A0501C0D7E08D2FDF91CF9116
:101510001F910F91FF90EF90DF90CF90BF90AF9011
:101520009F908F9008950F931F93CF93DF93C82FB1
:101530000E94F806882311F0D3E101C0D0E0EC2F1F
:10154000F0E0EE0FFF1FE258FD4F00811181F8011E
:101550008685813031F4C8010E94D905F8011686CC
:1015600001C0D5E08D2FDF91CF911F910F9108958C
:1015700026E040E052EC61E070E083EB93E00E94F3
:101580000B1822E04DE063E086E593E00E9422150F
:10159000882339F068EC70E080E090E00E94110F41
:1015A000F0CF65EF71E083EB93E00E94A61660E058
:1015B00086E593E00E94E71160E082E00C94F40D70
:1015C00082E00E945F0E892B09F035C18091EB0209
:1015D0000E945C0122E933E041E953E06AE973E0EB
:1015E00086E593E00E94E11580919A0390919B0318
:1015F000A0919C03B0919D0382709927A073BC7E3B
:101600000297A043BC4E51F481E090919603911152
:1016100001C080E0809390030E94440180919A036E
:1016200090919B03A0919C03B0919D038370992797
:10163000A071BC7E0397A041BC4E51F481E0909113
:101640009603911101C080E080938F030E944401B2
:1016500080919A0390919B03A0919C03B0919D036C
:1016600084709927A071BC7E0497A041BC4E51F4B0
:1016700081E090919603911101C080E080938E03E8
:101680000E94440180919A0390919B03A0919C0336
:10169000B0919D0385709927A071BC7E0597A041EC
:1016A000BC4E51F481E090919603911101C080E00D
:1016B00080938D030E94440180919A0390919B0333
:1016C000A0919C03B0919D0386709927A071BC7E68
:1016D0000697A041BC4E51F481E090919603911180
:1016E00001C080E080938C030E94440180919A03A2
:1016F00090919B03A0919C03B0919D0387709927C3
:10170000A071BC7E0797A041BC4E89F460919603FE
:1017100070E080E090E00E944A1960938803709323
:10172000890380938A0390938B030E9444018091E4
:101730009A0390919B03A0919C03B0919D038870A4
:101740009927A071BC7E0897A041BC4E89F4609196
:10175000960370E080E090E00E944A196093840351
:101760007093850380938603909387030E944401BE
:1017700080919A0390919B03A0919C03B0919D034B
:1017800089709927A071BC7E0997A041BC4E89F44D
:101790006091960370E080E090E00E944A196093A7
:1017A00080037093810380938203909383030E944C
:1017B000440180919A0390919B03A0919C03B09166
:1017C0009D0381709927A073BC7E0197A043BC4EF6
:1017D00089F46091960370E080E090E00E944A19DD
:1017E00060938403709385038093860390938703AB
:1017F0000E94440180919A0390919B03A0919C03C5
:10180000B0919D0381709927A073BC7E0197A0437E
:10181000BC4E89F46091960370E080E090E00E94F5
:101820004A1960937C0370937D0380937E039093A9
:101830007F030E9444018091EB020E9460010C949E
:101840004401EF92FF920F93CF93DF938091EB02CD
:101850000E945C01C0917A03D0919003C11122C013
:10186000DD23A1F180918C0381111CC020E030E0C8
:1018700040E351E4609188037091890380918A0369
:1018800090918B030E94FC1987FD0CC080918E0300
:10189000811108C080918D03811104C081E0809383
:1018A0007A0311C0DD2391F0CC2381F080918C0369
:1018B00081110CC080918E03811108C080918D032D
:1018C000811104C081E080937B0304C010927B03EC
:1018D00010927A0380917B038093690189E6E82E58
:1018E00081E0F82E08E021E043E050E060EC7CEA83
:1018F00086E593E00E94A615811109C06FE072E0B1
:1019000083EB93E00E94A61665E273E007C0873080
:1019100019F46FE172E002C06AE372E083EB93E0D6
:101920000E94A6168091EB020E946001DF91CF9188
:101930000F91FF90EF900C9444014F925F926F9241
:101940007F928F929F92AF92BF92CF92DF92EF924F
:10195000FF920F931F93CF93DF93C0908803D09093
:101960008903E0908A03F0908B0320E030E040E4AC
:1019700050E4C701B6010E94011A20E030E040E2C5
:1019800051E40E94AA186093790170937A018093C0
:101990007B0190937C0120918403309185034091D9
:1019A0008603509187030E94A9184B015C01609344
:1019B0006A0370936B0380936C0390936D032AE02A
:1019C00037ED43E25DE36091800370918103809184
:1019D0008203909183030E94011A2B013C0120E0B5
:1019E00030E0A901C501B4010E94011A9B01AC01BC
:1019F000C301B2010E94A9188B01D82FC92FCB01B6
:101A0000AD2FBC2F80936E0390936F03A093700350
:101A1000B0937103A701960160917C0370917D03DF
:101A200080917E0390917F030E94A91820E030E00E
:101A300040E05FE30E94011A6B017C01CB01D701FA
:101A40008093720390937303A0937403B093750310
:101A500020E030E0A901C501B4010E94FC1918166C
:101A600064F09601A701B8018D2F9C2F0E941619D2
:101A700087FD03C08601DE2DCF2DC801AD2FBC2F01
:101A80008093760390937703A0937803B0937903C0
:101A90000091760310917703D0917803C091790378
:101AA00020E030E040EA50ECB8018D2F9C2F0E94DE
:101AB000161987FD0FC026EF38E24CEB5FE3B80143
:101AC0008D2F9C2F0E94FC1918164CF0302F212FBF
:101AD000FE0109C030E020E0F0EAE0EC04C036EF9F
:101AE00028E2FCEBEFE3432F522F6F2F7E2F409322
:101AF0007603509377036093780370937903632F91
:101B0000722F8F2F9E2F0E941B196093710180915D
:101B1000EB020E94600181E7E82E81E0F82E08E0E8
:101B200021E041E050E060EC7CEA86E593E00E9431
:101B3000A615811109C063E572E083EB93E00E9472
:101B4000A61665E273E007C0873019F46FE172E012
:101B500002C06AE372E083EB93E00E94A616DF9175
:101B6000CF911F910F91FF90EF90DF90CF90BF909A
:101B7000AF909F908F907F906F905F904F900C945C
:101B800044016AE086E593E00C940F158BEC91E03C
:101B90000C94B5010895833081F028F4813099F0D8
:101BA0008230A1F008958730A9F08830B9F08430F0
:101BB000D1F4809180008F7D03C0809180008F7769
:101BC00080938000089584B58F7702C084B58F7D9F
:101BD00084BD08958091B0008F7703C08091B000DC
:101BE0008F7D8093B0000895CF93DF9390E0FC0148
:101BF000EA53FF4F2491FC01E652FF4F8491882362
:101C000061F190E0880F991FFC01EE5FFE4FC591D6
:101C1000D491FC01E850FF4FA591B491611109C026
:101C20009FB7F8948881209582238883EC912E2396
:101C30000BC0623061F49FB7F8948881322F3095E1
:101C400083238883EC912E2B2C939FBF06C08FB7E4
:101C5000F894E8812E2B28838FBFDF91CF910895D0
:101C60001F93CF93DF93282F30E0F901EE54FF4FFD
:101C70008491F901EA53FF4FD491F901E652FF4FE5
:101C8000C491CC23C1F0162F81110E94CB0DEC2FF3
:101C9000F0E0EE0FFF1FE850FF4FA591B4919FB702
:101CA000F894111104C08C91D095D82302C0EC9106
:101CB000DE2BDC939FBFDF91CF911F910895CF93CF
:101CC000DF93282F30E0F901EE54FF4F8491F901A2
:101CD000EA53FF4FD491F901E652FF4FC491CC2350
:101CE00091F081110E94CB0DEC2FF0E0EE0FFF1F61
:101CF000E251FF4FA591B491EC91ED2381E090E08A
:101D000021F480E002C080E090E0DF91CF9108955F
:101D10001F920F920FB60F9211242F933F934F9360
:101D20005F936F937F938F939F93AF93BF93EF9343
:101D3000FF938091AA039091AB03A091AC03B09163
:101D4000AD033091A90323E0230F2D3720F4019632
:101D5000A11DB11D05C026E8230F0296A11DB11DCE
:101D60002093A9038093AA039093AB03A093AC03A1
:101D7000B093AD038091AE039091AF03A091B003F7
:101D8000B091B1030196A11DB11D8093AE03909354
:101D9000AF03A093B003B093B1030E94C60DFF91AF
:101DA000EF91BF91AF919F918F917F916F915F91D3
:101DB0004F913F912F910F900FBE0F901F9018954C
:101DC0002FB7F8946091AA037091AB038091AC0394
:101DD0009091AD032FBF08953FB7F8948091AE0363
:101DE0009091AF03A091B003B091B10326B5A89B29
:101DF00005C02F3F19F00196A11DB11D3FBFBA2F9D
:101E0000A92F982F8827820F911DA11DB11DBC01FC
:101E1000CD0142E0660F771F881F991F4A95D1F7C1
:101E200008958F929F92AF92BF92CF92DF92EF92DE
:101E3000FF926B017C010E94EC0E4B015C01C1140E
:101E4000D104E104F10401F10E94870F0E94EC0E1D
:101E5000DC01CB0188199909AA09BB09883E934086
:101E6000A105B10560F321E0C21AD108E108F1082B
:101E700088EE880E83E0981EA11CB11CC114D10409
:101E8000E104F10419F7DBCFFF90EF90DF90CF90E2
:101E9000BF90AF909F908F90089584B5826084BD6D
:101EA00084B5816084BD85B5826085BD85B581605E
:101EB00085BDEEE6F0E0808181608083E1E8F0E0BE
:101EC0001082808182608083808181608083E0E8ED
:101ED000F0E0808181608083E1EBF0E080818460CC
:101EE0008083E0EBF0E0808181608083EAE7F0E0CE
:101EF0008081846080838081826080838081816032
:101F000080838081806880831092C1000895089545
:101F1000FFCFFFCFCF93DF93880F990BFC01E955DB
:101F2000FD4FC081D181AC81BD8111978A819B8198
:101F3000A80FB91F2D85CD010197FD0132972230E1
:101F400019F42CE331E002C028E531E02C93DC01E8
:101F50003C939E818F819083DF018E93CF01079701
:101F60001E928A179B07E1F780E8DF0118978C9390
:101F7000CF0144971E928A179B07E1F7A881B98188
:101F80007597ED93FC93DF91CF9108950895789420
:101F90000895F894089578940895F894089508950C
:101FA0000E944D0F0E94CF0F0E94CA0D0E94B80AD6
:101FB0008091B2030E94EC0680E090E00895809149
:101FC000F2028093B203089508951F920F920FB604
:101FD0000F9211242F933F934F935F936F937F93AF
:101FE0008F939F93AF93BF93EF93FF93E091ED0196
:101FF000F091EE010995FF91EF91BF91AF919F9103
:102000008F917F916F915F914F913F912F910F90A1
:102010000FBE0F901F9018951F920F920FB60F9240
:1020200011242F933F934F935F936F937F938F93DD
:102030009F93AF93BF93EF93FF93E091EF01F091E4
:10204000F0010995FF91EF91BF91AF919F918F9111
:102050007F916F915F914F913F912F910F900FBEA4
:102060000F901F90189520915204222399F04FB79A
:10207000F89420915204213059F42DB32093500448
:102080003DB320915104209523232DBB4FBF02C0A7
:10209000409350048CBD9DBD08958EBD00000DB4CD
:1020A00007FEFDCF8EB5089580915204882361F01C
:1020B0009FB7F8942091520480915004213019F474
:1020C0008DBB9FBF08958FBF0895CF93DF93EC0121
:1020D00080E591E00E94331060E08A890E94300E12
:1020E00080EC0E944D1061E08A890E94300E0E94AF
:1020F000541065E070E080E090E0DF91CF910C94A7
:10210000110F1F93CF93DF93EC01162F80E591E021
:102110000E94331060E08A890E94300E83E00E94A2
:102120004D10812F0E944D1080E00E944D10182FFD
:1021300061E08A890E94300E0E945410812FDF9145
:10214000CF911F910895DF92EF92FF920F931F930B
:10215000CF93DF938C01C62FD42EE52EF22E80E58F
:1021600091E00E94331060E0F80182890E94300EF5
:1021700083E00E944D108C2F0E944D10CD2DDE2D3E
:10218000CE018F0D911D7C01EC16FD0629F080E03B
:102190000E944D108993F8CF61E0F80182890E9476
:1021A000300EDF91CF911F910F91FF90EF90DF9054
:1021B0000C9454100F931F93CF93DF93EC01062FD1
:1021C000142F80E591E00E94331060E08A890E941C
:1021D000300E82E00E944D10802F0E944D10812F02
:1021E0000E944D1061E08A890E94300EDF91CF91EC
:1021F0001F910F910C945410DF92EF92FF920F9366
:102200001F93CF93DF938C01C62FD42EE52EF22E91
:1022100080E591E00E94331060E0F80182890E941D
:10222000300E82E00E944D108C2F0E944D10CD2D5B
:10223000DE2DCE018F0D911D7C01EC16FD0621F0E7
:1022400089910E944D10F9CF61E0F80182890E94C6
:10225000300EDF91CF911F910F91FF90EF90DF90A3
:102260000C945410FF920F931F93CF93DF93EC01C4
:10227000F62E042F122F80E591E00E94331060E0CB
:102280008A890E94300E85E00E944D108F2D0E9499
:102290004D10802F0E944D10812F0E944D1061E043
:1022A0008A890E94300EDF91CF911F910F91FF908C
:1022B0000C9454101F93CF93DF93EC0180E591E0D1
:1022C0000E94331060E08A890E94300E80EA0E94EA
:1022D0004D1080E00E944D10182F61E08A890E9405
:1022E000300E0E945410812FDF91CF911F910895DD
:1022F000EF92FF920F931F93CF93DF93EC01162F72
:102300000E94E00E062FE12EF12C212F40EE6FE00F
:10231000CE010E9432116EE0CE010E948110807EBB
:1023200090E08E159F0539F00E94E00E601B693C1D
:1023300060F381E001C080E0DF91CF911F910F91A8
:10234000FF90EF9008950F931F93CF93DF93EC01CD
:10235000162F6EE00E948110807E803221F51032AF
:1023600011F16BE2CE010E948110082F007486FDEE
:1023700006C020E440E46BE2CE010E94321120E46A
:1023800040E46CE2CE010E94321160E6CE010E9470
:102390007811811116C0011106C020E040E46BE203
:1023A000CE010E94321120E040E46CE2CE010E9496
:1023B0003211612FCE01DF91CF911F910F910C94BB
:1023C000781181E0DF91CF911F910F910895FC0169
:1023D000638B0C94A311CF92DF92EF92FF920F9335
:1023E0001F93CF93DF93342F3370313009F43FC004
:1023F00008F466C0323009F0AAC0062F10E0F801D8
:102400003197EE30F10508F0A2C0EC5CFF4F0C9460
:10241000901AC4E8D6EF23E987C0C4E8D6EF29E8CC
:1024200083C0C3E8D5EE27E87FC0C4E8D6EF25E82F
:102430007BC0C4E8D6EF05C0C3E8D5EE02C0C1E852
:10244000D3ED24E871C0C4E8D6EF02C0C3E8D5EEEE
:1024500021E86AC0C4E8D6EF02C0C3E8D5EE20E8A0
:1024600063C0C1E8D1ED2AC0C0E8D0EC27C0C62EB9
:10247000D12CF6013197EE30F10508F068C0EE5B23
:10248000FF4F0C94901AC4E8D6EF27E64DC0C4E87D
:10249000D6EF23E549C0C3E8D5EE2EE445C0C4E835
:1024A000D6EF42C0C3E8D5EE23E43EC0C3E8D5EE84
:1024B00027C0C3E8D5EE28C0C1E8DAEC20E034C07C
:1024C000062F10E0F8013697E930F10508F03FC01B
:1024D000E05BFF4F0C94901AC4E8D6EF29E424C0C7
:1024E000C7E8DFEF24EC20C0C4E8D6EF05C0C3E89E
:1024F000D5EE02C0C1E8D3ED24E416C0C4E8D6EF9F
:1025000021E412C0C4E8D6EF20E40EC0C2E8D9ED41
:10251000D5CFC4E8D6EF27EA07C0C7E8DFEF2FE33F
:1025200003C0C1E8D3ED28E142FDCF778C01422FF3
:102530006AE20E94DA104D2F69E2C8010E94DA10A7
:102540004C2F68E2C8010E94DA1080E001C081E0EF
:10255000DF91CF911F910F91FF90EF90DF90CF907F
:1025600008950F931F93CF93DF9300D000D0CDB782
:10257000DEB74130B1F40C831B8389012227332756
:10258000502F5C71402F437078E0579F400D11240D
:1025900048604A8355E0169507955A95E1F70983F7
:1025A0000DC0A80123E0569547952A95E1F7498388
:1025B0000295000F007E0A831C821B8224E0AE017C
:1025C0004F5F5F4F0E94FC100F900F900F900F9085
:1025D000DF91CF911F910F9108950F931F93CF9388
:1025E000DF9300D000D0CDB7DEB7E62FF42FA901DE
:1025F000662777270C831B83F13081F4342F3C71DD
:10260000242F2370F8E03F9F200D112428602A8397
:1026100035E0569547953A95E1F70AC0242F229563
:10262000220F207E2A8323E0569547952A95E1F7CD
:10263000498324E0AE014F5F5F4F6E2F0E94FC1074
:102640000F900F900F900F90DF91CF911F910F91EE
:1026500008950F931F93CF93DF93EC0100E010E0F8
:10266000980141E060E20E94ED1200E010E0980164
:1026700041E064E2CE010E94ED1200E010E098011A
:1026800041E060E0CE010E94ED1200E010E0980110
:1026900040E064E0CE010E94ED1200E010E09801FD
:1026A00041E068E0CE010E94ED1200E010E09801E8
:1026B00040E060E1CE010E94ED1200E010E09801E0
:1026C00041E064E1CE010E94ED1200E010E09801CB
:1026D00040E068E1CE010E94ED1210E340E0612F7E
:1026E000CE010E94DA1060E1610F40E0CE010E944D
:1026F000DA1060E2610F40E0CE010E94DA101F5F45
:102700001E3361F740E060E6CE010E94DA1040E03F
:1027100060E7CE01DF91CF911F910F910C94DA10F9
:10272000EF92FF920F931F93CF93DF93EC01062F4D
:10273000F42EE22E0E94651080E48B8B60E8CE01BF
:102740000E94A311182F882341F06FEA71E083EBF8
:1027500093E00E949416812F5CC067E871E083EBE0
:1027600093E00E9494164E2D6F2DCE010E94EB1126
:10277000882339F06BE671E083EB93E00E949416B6
:1027800047C06EE471E083EB93E00E949416CE01A3
:102790000E94291343E06BE2CE010E94DA104CE361
:1027A0006CE0CE010E94DA1040E06DE0CE010E94A4
:1027B000DA10002351F0033019F524E644E660E610
:1027C000CE010E94321120E607C024E044E660E614
:1027D000CE010E94321120E040E660E7CE010E9467
:1027E00032116B89CE010E94A311C82F882381F07A
:1027F0006CE071E083EB93E00E9494168C2F09C08B
:1028000062E371E083EB93E00E94941681E001C0E3
:1028100080E0DF91CF911F910F91FF90EF9008958D
:10282000EF92FF920F931F93CF93DF9300D000D0CE
:10283000CDB7DEB77A018901FA011082F901108261
:1028400011821282138224E0AE014F5F5F4F0E941B
:10285000A3102A813981822F90E065E095958795B4
:102860006A95E1F7F8E03F9F800D911D1124092E34
:10287000000CAA0BBB0BF80180839183A283B38366
:1028800023FF25C032E0880F991FAA1FBB1F3A956E
:10289000D1F72370820F911DA11DB11DBA2FA92F51
:1028A000982F88272B81820F911DA11DB11DBA2F52
:1028B000A92F982F88272C81820F911DA11DB11D52
:1028C00080839183A283B38381E0F70180830F909B
:1028D0000F900F900F90DF91CF911F910F91FF906C
:1028E000EF900895FF920F931F93CF93DF93EC0126
:1028F000F62EAC014A5F5F4F65E06F0D2D810E949F
:10290000FC108E85813019F48D8180648D8364E0A4
:102910006F0D4D81CE010E94DA1009811A812B8141
:102920003C8148816F2DCE010E94B112DF91CF9181
:102930001F910F91FF9008950F931F93CF93DF93F3
:10294000EC01162F9C012F5F3F4FAC010E94101429
:102950006FEF610FCE010E948110082F64E0610FBC
:10296000CE010E9481108D8303FF03C091E09E87FA
:1029700001C01E86282F2F702D83AE014A5F5F4F46
:1029800065E0610FCE01DF91CF911F910F910C9403
:10299000A3108F929F92AF92BF92CF92DF92EF924D
:1029A000FF921F93CF93DF9300D01F92CDB7DEB776
:1029B0004C016B018091F1019091F201A091F30122
:1029C00089839A83AB83FB011082CE0101967C013F
:1029D0005E0194E0A90EB11CF70111917F01612FF6
:1029E000C4010E948110982F987083FD04C01F5F5E
:1029F000F601108304C0EA14FB0471F792E0892FFA
:102A00000F900F900F90DF91CF911F91FF90EF905B
:102A1000DF90CF90BF90AF909F908F900895CF930D
:102A2000DF93EC01862F6A8B61E00E94300E61E03B
:102A30008A890E94F40D84E594E0998B888BDF915C
:102A4000CF910895FF920F931F93CF93DF93EC01E3
:102A5000162F042FF22E0E9470182F2D402F612F59
:102A6000CE010E94901391E0811101C090E0892F66
:102A7000DF91CF911F910F91FF900895BF92CF9258
:102A8000DF92EF92FF920F931F93CF93DF931F92EA
:102A9000CDB7DEB78C010E94EC0E6B017C01BE014C
:102AA0006F5F7F4FC8010E94C914B82E0E94EC0EC0
:102AB000DC01CB018C199D09AE09BF0922E0B212DD
:102AC00006C0843C9940A105B10548F331C0843C5F
:102AD0009940A105B10560F56981C8010E94721491
:102AE0006981615028E048E0C8010E9432110E94CB
:102AF000EC0E6B017C0169816150C8010E9481105C
:102B0000B82E0E94EC0EDC01CB018C199D09AE0998
:102B1000BF09B3FE06C0843C9940A105B10558F336
:102B200009C0843C9940A105B10520F480E003C0B0
:102B300086E001C087E00F90DF91CF911F910F9148
:102B4000FF90EF90DF90CF90BF900895EF92FF92AB
:102B50000F93FC0141835283638374831686208321
:102B60000583F701DC0116969C01225F3F4F4191DE
:102B70004D93A217B307D9F70F91FF90EF900C94E4
:102B80003E15CF93DF93EC010E945A1180FF07C0DE
:102B900061E6CE010E949C1420E041E008C081FF64
:102BA0000CC061E7CE010E949C1420E042E06CE280
:102BB000CE010E94321180E001C084E0DF91CF910C
:102BC0000895CF92DF92EF92FF920F931F93CF93CE
:102BD000DF93EC016B017A0189010E94C1158430F9
:102BE00099F18881882349F089819A81AB81BC81E0
:102BF000B06889839A83AB83BC838E85882349F030
:102C000089819A81AB81BC81B06489839A83AB83CB
:102C1000BC8389819A81AB81BC81F60180839183D9
:102C2000A283B3838D81F7018083DE011696F801BC
:102C30008D8190E09F01201B310B281739071CF470
:102C40008D918193F5CF80E0DF91CF911F910F910E
:102C5000FF90EF90DF90CF900895CF92DF92EF92A8
:102C6000FF920F931F93CF93DF936C017A018B0137
:102C7000C0E0D0E0CE15DF0581F0D8016D918D0167
:102C8000D601ED91FC910190F081E02DC6010995EE
:102C9000892B11F02196EECF7E01C701DF91CF91F4
:102CA0001F910F91FF90EF90DF90CF9008956115E5
:102CB000710579F0FB0101900020E9F73197AF0130
:102CC000461B570BDC01ED91FC910280F381E02D56
:102CD000099480E090E00895EF92FF920F931F9384
:102CE000CF93DF938C017B01C0E0D0E0F701EC0FC4
:102CF000FD1F6491662361F0D801ED91FC91019074
:102D0000F081E02DC8010995892B11F02196EECFB5
:102D1000CE01DF91CF911F910F91FF90EF90089519
:102D200063E273E00C9457160F931F93CF93DF93D6
:102D3000EC010E946C168C01CE010E949016800F4F
:102D4000911FDF91CF911F910F9108950F931F93C2
:102D5000CF93DF93EC010E9457168C01CE010E94A5
:102D60009016800F911FDF91CF911F910F910895C1
:102D70001F920F920FB60F9211242F938F939F9350
:102D8000EF93FF93E091C303F091C4038081E0913E
:102D9000C903F091CA0382FD12C090818091CC03D7
:102DA0008F5F8F732091CD03821751F0E091CC0398
:102DB000F0E0ED54FC4F958F8093CC0301C08081EF
:102DC000FF91EF919F918F912F910F900FBE0F90D8
:102DD0001F9018951F920F920FB60F9211242F93E8
:102DE0003F934F935F936F937F938F939F93AF9393
:102DF000BF93EF93FF9383EB93E00E947A17FF91C9
:102E0000EF91BF91AF919F918F917F916F915F9162
:102E10004F913F912F910F900FBE0F901F901895DB
:102E2000E3EBF3E01382128288EE93E0A0E0B0E0DF
:102E300084839583A683B78386E393E0918380831D
:102E400085EC90E09587848784EC90E0978786876F
:102E500080EC90E0918B808B81EC90E0938B828B67
:102E600082EC90E0958B848B86EC90E0978B868B40
:102E7000118E128E138E148E0895FC01918D228D69
:102E8000892F90E0805C9F4F821B91098F73992757
:102E90000895FC01918D828D981731F0828DE80F95
:102EA000F11D858D90E008958FEF9FEF0895FC014F
:102EB000918D828D981761F0828DDF01A80FB11D71
:102EC0005D968C91928D9F5F9F73928F90E0089595
:102ED0008FEF9FEF0895FC01538D448D252F30E037
:102EE000842F90E0821B930B541710F0CF96089517
:102EF00001970895FC01848DDF01A80FB11DA35A2D
:102F0000BF4F2C91848D90E001968F739927848F09
:102F1000A689B7892C93A089B1898C91837080642C
:102F20008C93938D848D981306C00288F389E02DCD
:102F300080818F7D80830895EF92FF920F931F937E
:102F4000CF93DF93EC0181E0888F9B8D8C8D98135C
:102F500005C0E889F989808185FD26C0F62E0B8D94
:102F600010E00F5F1F4F0F731127E02E8C8DE812BA
:102F70000CC00FB607FCFACFE889F989808185FF7C
:102F8000F5CFCE010E947A17F1CF8B8DFE01E80FAD
:102F9000F11DE35AFF4FF0829FB7F8940B8FEA8937
:102FA000FB89808180620AC09FB7F894EE89FF890F
:102FB0006083E889F98980818370806480839FBF02
:102FC00081E090E0DF91CF911F910F91FF90EF9002
:102FD0000895CF93DF93EC01888D8823C9F0EA89A7
:102FE000FB89808185FD05C0A889B9898C9186FD02
:102FF0000FC00FB607FCF5CF808185FFF2CFA889FF
:10300000B9898C9185FFEDCFCE010E947A17E7CF69
:10301000DF91CF910895CF92DF92EF92FF921F93AD
:10302000CF93DF93EC016A017B01122FE889F989C4
:1030300082E080834115514E61057105B1F060E079
:1030400079E08DE390E0A70196010E946E1ADA0103
:10305000C9010197A109B109B695A79597958795DB
:103060009C01211580E13807A8F0E889F9891082D0
:1030700060E874E88EE190E0A70196010E946E1A64
:10308000DA01C9010197A109B109B695A7959795EC
:1030900087959C01EC85FD853083EE85FF85208337
:1030A000188EEC89FD891083EA89FB898081806113
:1030B0008083EA89FB89808188608083EA89FB8933
:1030C000808180688083EA89FB8980818F7D80830D
:1030D000DF91CF911F91FF90EF90DF90CF900895F7
:1030E000CF93CFB7F89480915304811127C0E4EEB9
:1030F000F0E08491E0EDF0E09491E82FF0E0EE0F45
:10310000FF1FEE5FFE4FA591B491EC91E92321F4EE
:1031100061E08AE00E94300E61E08AE00E94F40DD6
:103120008CB580618CBD8CB580648CBD61E08DE018
:103130000E94F40D61E08BE00E94F40D8091530435
:103140008F5F80935304CFBFCF910895F8940C9470
:10315000961A5058BB27AA270E94C1180C94C2196E
:103160000E94B41938F00E94BB1920F039F49F3F37
:1031700019F426F40C94B1190EF4E095E7FB0C94C5
:10318000AB19E92F0E94D31958F3BA1762077307D6
:103190008407950720F079F4A6F50C94F5190EF440
:1031A000E0950B2EBA2FA02D0B01B90190010C0157
:1031B000CA01A0011124FF27591B99F0593F50F46F
:1031C000503E68F11A16F040A22F232F342F4427C7
:1031D000585FF3CF469537952795A795F0405395BF
:1031E000C9F77EF41F16BA0B620B730B840BBAF08F
:1031F0009150A1F0FF0FBB1F661F771F881FC2F7FA
:103200000EC0BA0F621F731F841F48F4879577950D
:103210006795B795F7959E3F08F0B0CF9395880FC7
:1032200008F09927EE0F9795879508950E948719C2
:1032300008F481E008950E94DB1988F09F5798F008
:10324000B92F9927B751B0F0E1F0660F771F881FAB
:10325000991F1AF0BA95C9F714C0B13091F00E94C5
:10326000F519B1E008950C94F519672F782F882788
:10327000B85F39F0B93FCCF3869577956795B395EC
:10328000D9F73EF490958095709561957F4F8F4F5B
:103290009F4F0895E89409C097FB3EF49095809560
:1032A000709561957F4F8F4F9F4F9923A9F0F92F0C
:1032B00096E9BB279395F695879577956795B7958A
:1032C000F111F8CFFAF4BB0F11F460FF1BC06F5F70
:1032D0007F4F8F4F9F4F16C0882311F096E911C082
:1032E000772321F09EE8872F762F05C0662371F0A3
:1032F00096E8862F70E060E02AF09A95660F771FB7
:10330000881FDAF7880F9695879597F90895990F92
:103310000008550FAA0BE0E8FEEF16161706E8079F
:10332000F907C0F012161306E407F50798F0621BC0
:10333000730B840B950B39F40A2661F0232B242B95
:10334000252B21F408950A2609F4A140A6958FEFB4
:10335000811D811D089597F99F6780E870E060E006
:1033600008959FEF80EC089500240A94161617061E
:1033700018060906089500240A9412161306140666
:1033800005060895092E0394000C11F4882352F0C9
:10339000BB0F40F4BF2B11F460FF04C06F5F7F4F81
:1033A0008F4F9F4F089557FD9058440F551F59F068
:1033B0005F3F71F04795880F97FB991F61F09F3F22
:1033C00079F087950895121613061406551FF2CF4B
:1033D0004695F1DF08C0161617061806991FF1CF9B
:1033E00086957105610508940895E894BB276627C2
:1033F0007727CB0197F908950E94871908F48FEF7A
:1034000008950E94141A0C94C2190E94B41938F03D
:103410000E94BB1920F0952311F00C94AB190C9469
:10342000B11911240C94F6190E94D31970F3959FC9
:10343000C1F3950F50E0551F629FF001729FBB27AB
:10344000F00DB11D639FAA27F00DB11DAA1F649F47
:103450006627B00DA11D661F829F2227B00DA11DFA
:10346000621F739FB00DA11D621F839FA00D611D80
:10347000221F749F3327A00D611D231F849F600DA1
:10348000211D822F762F6A2F11249F5750409AF0CA
:10349000F1F088234AF0EE0FFF1FBB1F661F771F56
:1034A000881F91505040A9F79E3F510580F00C9421
:1034B000AB190C94F6195F3FE4F3983ED4F386956C
:1034C00077956795B795F795E7959F5FC1F7FE2BC1
:1034D000880F911D9695879597F90895A1E21A2E68
:1034E000AA1BBB1BFD010DC0AA1FBB1FEE1FFF1FA8
:1034F000A217B307E407F50720F0A21BB30BE40BF8
:10350000F50B661F771F881F991F1A9469F760953E
:103510007095809590959B01AC01BD01CF010895F8
:10352000EE0FFF1F0590F491E02D0994F894FFCF62
:10353000000000000000000000000000000000008B
:10354000000000000000000000000000000000007B
:10355000000000000000000000000000000000006B
:10356000000000000000000000000000000000005B
:10357000000000000000000000000000000000004B
:10358000000000000000000000000000000000003B
:103590000000000000000000FFFFFFFFFFFFFFFF33
:1035A000FFFFFFFFFFFFFFFFFF000070410000D99A
:1035B000020000A403FFFFFFFFFFFFFFFF000084E6
:1035C00002000000000800000008000000028D0258
:1035D000000000000A0000000A000000029602003D
:1035E0000000000A0000000A0000000200000004C1
:1035F000000000000300000000020001000000FFC6
:10360000FF000001000000000000000000000000BA
:103610000000000500FF00000100FF0000E40FE4CF
:103620000F304050FF4D4350323531352063616ECD
:103630005F73656E64205374617274656421006306
:10364000616E5F73656E643A2053454E542100638A
:10365000616E5F73656E643A204D65737361676573
:103660002074696D656F7574210063616E5F7365A9
:103670006E643A204572726F7220746F2073656EAB
:1036800064210063616E5F73656E643A206D656EE0
:10369000736167656D207472616E736D69746964BE
:1036A0006120636F6D207375636573736F00AD0187
:1036B0009E018F01CB015D098A02D90601CB015D14
:1036C000099302D90602CB015D099C02D90600C606
:1036D00001C101BC01A403CB02BD02AF02D9025754
:1036E0000559058000E00A00000204010037063990
:1036F000060001210C0000010301005505550400DE
:10370000019D0C000000020100E505E7055000885E
:103710000F000003000100E801E3010001010100C6
:10372000000000EF07BD07C6079F0733053C0720D1
:103730000565074108E206EA06FA08310833095A26
:10374000086609A5089D09DD06EF097D08520A9360
:103750000AC4080D0A006E616E00696E66006F761D
:103760006600000000009C172D166B17E9173D1727
:043770005717491787
:00000001FF
