:100000000C94EE000C9417100C943E100C941601F6
:100010000C9416010C9416010C9416010C94160104
:100020000C9416010C9416010C9416010C941601F4
:100030000C9416010C9416010C9416010C941601E4
:100040000C94BA0E0C9416010C9467180C94991821
:100050000C9416010C9416010C9416010C941601C4
:100060000C9416010C941601BB123B123F12431262
:1000700047124B124E125112551258125C125F1257
:1000800063126612BF1275127912D9127D129E1276
:100090008112A612A9128412B01288128B128E122B
:1000A000C3129E12A212A612A912AC12B012B4125E
:1000B000B81200000008000201000003040700005D
:1000C000000000000000010204081020408001022E
:1000D000040810200102040810200404040404048D
:1000E00004040202020202020303030303030000EA
:1000F0000000230026002900000000002500280041
:100100002B0000000000240027002A0052657475AF
:10011000726E696E6720746F2050726576696F75B4
:1001200073204D6F6465204661696C7572652E2E73
:100130002E006053657474696E67204944204D6FCA
:100140006465204661696C7572652E2E2E005365BC
:100150007474696E672042617564726174652053BE
:1001600075636365737366756C2100536574746998
:100170006E67204261756472617465204661696CC6
:100180007572652E2E2E00456E746572696E67203D
:10019000436F6E66696775726174696F6E204D6F2B
:1001A0006465205375636365737366756C210045E0
:1001B0006E746572696E6720436F6E6669677572EB
:1001C0006174696F6E204D6F6465204661696C755E
:1001D00072652E2E2E00F30D1110BF1811241FBEB4
:1001E000CFEFD8E0DEBFCDBF13E0A0E0B1E0EAE89A
:1001F000F9E302C005900D92A63EB107D9F727E0BA
:10020000A6EEB3E001C01D92AF3DB207E1F710E0EA
:10021000CEEED0E004C02197FE010E94BD1CCB3E73
:10022000D107C9F70E9402100C94551A0C940000D3
:10023000E2E10E94BD010895E9E00E94BD01089538
:10024000EAE00E94BD010895E1E00E94BD01089529
:10025000E3E00E94BD010895E7E00E94BD0108951A
:10026000E5E00E94BD010895E0E00E94BD0108950F
:10027000E2E00E94BD010895E4E00E94BD010895FE
:10028000ECE00E94BD010895E8E00E94BD010895E0
:10029000EEE00E94BD010895E4E10E94BD010895D1
:1002A000E0E10E94BD010895E7E10E94BD010895CB
:1002B000E6E00E94BD010895EBE00E94BD010895B3
:1002C000EDE00E94BD010895EFE00E94BD01089598
:1002D000E1E10E94BD010895E3E10E94BD0108959E
:1002E000E5E10E94BD010895E6E10E94BD01089587
:1002F00021968A929A92AA92BA92CA92DA92EA9233
:10030000FA920A931A932197E0918101F091820168
:100310000080F181E02DC083D1830895C0918301D5
:10032000D0918401E881F981C081D1812196199110
:100330000991F990E990D990C990B990A9909990B4
:100340008990219708952F903F90E7E6F1E0CDB78F
:10035000DEB7EDBFFEBF3F922F9208952F903F90E2
:10036000CDBFDEBF3F922F920895E0E80E94BD010D
:100370000895E0E40E94BD0108952F923F924F92AC
:100380005F926F927F922FB62F92CF93DF937E2E44
:10039000F894E0910001EF5FE0930001E13011F487
:1003A0000E94A301E0E0E0939101E72DE07849F09D
:1003B0000E941106F0919201F17071F00E94C40444
:1003C0000BC0E72DEC3140F4EE0FF0E0EC56FC4FA3
:1003D0000190F081E02D0995F0919101EF2FE170EE
:1003E00059F0F27011F00E9478018F938F2F0E94C4
:1003F0000C048F910E948E012091000121502093C6
:100400000001222311F40E94AE01DF91CF912F90C1
:100410002FBE7F906F905F904F903F902F900895E8
:10042000CF92DF92EF92FF920F931F93DC01EC913A
:10043000DB012C918E2F8170C82ED12CE12CF12C58
:100440008E2F8F7090E0A0E0B0E0B695A7959795BD
:100450008795DC01AC5BBB4F8C91C81AD108E108D1
:10046000F108EE70422F417050E060E070E0822FA2
:100470008F7090E0A0E0B0E0B695A795979587952E
:10048000DC01AC5BBB4F8C91481B510961097109C0
:10049000822F8E7097018601017011272227332742
:1004A0000E2B4170552766277727482B81E090E077
:1004B000041715072607370710F080E090E01F911A
:1004C0000F91FF90EF90DF90CF9008958F929F92C1
:1004D000AF92BF92EF92FF920F931F93CF93DF9350
:1004E0007C014A015B01B694A794979487944230AB
:1004F000510561057105E0F0440F551F8701040F98
:10050000151FE401CC0FDD1FCE0DDF1DB801CE019C
:100510000E941002892B61F0F8019081818128816D
:1005200039813183208398838983B501A401DBCF8E
:10053000DF91CF911F910F91FF90EF90BF90AF90FF
:100540009F908F9008954F925F926F927F928F92BB
:100550009F92AF92BF92CF92DF92EF92FF920F9352
:100560001F93CF93DF9300D000D000D0CDB7DEB77C
:100570008C016A017B01DC018C91282F30E040E086
:1005800050E029833A834B835C8346015701880CF2
:10059000991CAA1CBB1C29813A814B815C812815BE
:1005A00039054A055B0508F442C0240135013FEFD7
:1005B000431A530A630A730A89819A81AB81BC8109
:1005C00084159505A605B70580F0B201660F771F63
:1005D000600F711FC401880F991F800F911F0E9427
:1005E0001002892B11F0530142013401660C771C73
:1005F000600E711ECC0CDD1CD801AC0DBD1DBE8380
:10060000AD83B301CD010E941002892B81F0ED81F1
:10061000FE8190818181D3012D913C91119731838D
:1006200020839C9311968C9375016401AECF26961E
:100630000FB6F894DEBF0FBECDBFDF91CF911F91F3
:100640000F91FF90EF90DF90CF90BF90AF909F9071
:100650008F907F906F905F904F900895EFE7F6E056
:1006600040814F5F408350E060E070E0E82FEE0F84
:10067000FF0BE85BFC4F0190F081E02D238530E01B
:10068000F901EC5BFB4F908191509083FA01EE0FE2
:10069000FF1FE158F94F220F331F9170292B208340
:1006A00081838FE796E00C946602EFE7F6E04081E5
:1006B0004F5F408350E060E070E0E82FEE0FFF0BEB
:1006C000E05CFC4F0190F081E02D9381FA01EE0F88
:1006D000FF1FE158F94F908381838FE796E00C94D8
:1006E0006602CF93DF93EFE7F6E080819FEF980FEC
:1006F0009083D281C38190E0880F991FDC01A158BB
:10070000B94F8D919C919383828341E050E060E0EA
:1007100070E0CF010E94A3028D2F9C2FDF91CF911B
:1007200008958091890190918A01A0918B01B091E7
:100730008C018F3F2FEF9207A207B20731F003978A
:10074000A105B10524F481E0089580E0089582E0D8
:100750000895880F990BFC01E85BFC4F0190F08134
:10076000E02D0084F185E02D3097E9F02281211100
:100770001AC021E02283DC01A05CBC4F0D90BC912B
:10078000A02D13968C9113978183808190E0FC01BA
:10079000EC5BFB4F208121502083880F991F217033
:1007A000822B13968C930895880F990BFC01E85BBC
:1007B000FC4F0190F081E02D0084F185E02D309711
:1007C00061F02281213049F412822181FC01E05C38
:1007D000FC4F0190F081E02D2383089580918D01DD
:1007E00090918E01A0918F01B0919001409189016B
:1007F00050918A0160918B0170918C0148175907C3
:100800006A077B0741F0E0918701F091880121E0C0
:1008100024830C9455030895CF93DF93882391F09C
:10082000C0918101D0918201E0918501F091860112
:100830008481833049F081E08483809189010E9422
:10084000550302C0C0E0D0E0E0918701F09188013B
:10085000F0938601E093850180918301909184015A
:10086000909382018093810180918D0130918E015E
:1008700020918F01909190018093890130938A019A
:1008800020938B0190938C0192E094830E94A903A2
:10089000CE01DF91CF910895809189010E94D40308
:1008A000E0918501F09186018281882319F085E02D
:1008B0008483089514820895CF93DF93282F220F05
:1008C000330BF901E05CFC4FC081D1819A81F901C1
:1008D000E85BFC4F0190F081E02D2485921770F4C5
:1008E000911105C095E09C8391E0909392010E9444
:1008F0002E038A818F5F8A8380E001C084E0DF91CC
:10090000CF910895E82FEE0FFF0BE05CFC4F0190B4
:10091000F081E02D118210820C94BC0F1F93CF93B5
:10092000DF930E947103182F892F492F092E000C85
:10093000550B660B770B40938D0150938E0160939E
:100940008F0170939001292F220F330BF901E05C86
:10095000FC4FC081D181D0938801C0938701F901F8
:10096000E85BFC4F20813181309384012093830127
:100970009C81953019F40E9482041B83109292018D
:10098000DF91CF911F910895E0918D01F0918E013B
:10099000EE0FFF1FE05CFC4F0190F081E02D909185
:1009A00081068381891730F40E94EE030E948E0431
:1009B00083E001C080E080939101089581E08093FD
:1009C00091010C948E04EF92FF920F931F93CF939B
:1009D000DF93C1E001C0CC0F8A95EAF783E00E9463
:1009E0005C0400E913E0D0E0F80181918F018C23D1
:1009F00019F08D2F0E945C04DF5FD330A9F70DE85A
:100A000013E08FE1E82E83E0F82ED1E0F801819128
:100A10008F018C2339F0F70180819181FC01D68709
:100A20000E944A05F2E0EF0EF11C83E0003918073E
:100A300069F7DF91CF911F910F91FF90EF9008958B
:100A40000E94F80681110E941907E0918501F0913A
:100A5000860180819181892B21F0809189010E94FA
:100A6000E0080C9441080E94F80681110E941907C1
:100A7000E0918501F091860180819181892B21F09F
:100A8000809189010E94E0080C94290881E08093FC
:100A9000E6030895AF92BF92CF92DF92EF92FF925A
:100AA0000F931F93CF93DF93FC01A081B181AD9091
:100AB000BC90E501AC89BD89109739F0428553851A
:100AC0006485758530E020E017C0D50155969C936C
:100AD0008E93549757969C938E93569715821482B3
:100AE000138212825BC012968D919C9113973A2FBC
:100AF0002B2F009779F0DC011A96CD90DD90ED90C8
:100B0000FC901D974C155D056E057F0560F7CD01C6
:100B1000A32FB22F93838283B583A483009719F008
:100B2000EC01FD83EC83109729F01396FC93EE9370
:100B3000129705C0D5015596FC93EE935497E501A5
:100B4000AE89BF891A968D919D910D90BC91A02D73
:100B5000088919892A893B8980179107A207B30759
:100B600080F4041715072607370728F04817590798
:100B70006A077B0798F4D5015796FC93EE93569736
:100B80000DC0041715072607370740F44817590703
:100B90006A077B0718F4E501FF8BEE8BDF91CF919D
:100BA0001F910F91FF90EF90DF90CF90BF90AF908B
:100BB0000895CF93DF93DC01ED91FC9111970190A3
:100BC000F081E02D848995891296CD91DC9113975F
:100BD000A817B90711F4D58BC48B86899789A817F4
:100BE000B90711F4D78BC68B209731F014968D91ED
:100BF0009C9115979D838C8314960D90BC91A02D8C
:100C0000109721F01396DC93CE93129786899789DB
:100C1000892B21F484899589978B868BDF91CF91DD
:100C20000895EF92FF920F931F93CF93DF93FC01F0
:100C30008091E603882309F4B5C084859585A6854F
:100C4000B7850196A11DB11D84879587A687B787B3
:100C5000408151816281738184179507A607B70788
:100C600009F0A0C040895189628973894F5F5F4F45
:100C70006F4F7F4F84819581A681B7818417950737
:100C8000A607B70718F440E050E0BA01408B518B3B
:100C9000628B738B1486158616861786C689D7894C
:100CA000209709F47FC08A859B85AC85BD85481750
:100CB00059076A077B0709F075C0CE01DC0112965F
:100CC000ED90FC901397E114F10471F0D7011A969E
:100CD0000D911D912D913C911D9740175107620771
:100CE000730711F4C701EACF2C813D81211531052D
:100CF00029F0D9011396FC92EE921297E114F104B7
:100D000029F0D70115963C932E93149724893589A1
:100D1000C217D30711F4F58AE48AE114F10419F03B
:100D2000F78AE68A04C024893589378B268B8F01A0
:100D3000FC0113821282EA80FB80E881F981028043
:100D4000F381E02DCE0109954E815F81688579851B
:100D5000411551056105710509F18A859B85AC85B1
:100D6000BD85840F951FA61FB71FF80144815581CB
:100D700066817781481759076A077B0738F4841B17
:100D8000950BA60BB70B0197A109B1098A879B8721
:100D9000AC87BD87CE010E944A0501C01E86E701CF
:100DA000209749F6DF91CF911F910F91FF90EF901F
:100DB0000895FC0182810C945C040E94F8068091E5
:100DC00068010895809368010E94E3040E9446052B
:100DD0000C94DE040C94BB0FCF93C82F0E94910398
:100DE000811102C00E94F80F8C2FCF910C941C012E
:100DF0008091F3038130D9F08091EB039091EC0363
:100E0000A091ED03B091EE03892B8A2B8B2B79F403
:100E100081E04091EF035091F0036091F1037091F4
:100E2000F203452B462B472B19F480E0089581E00F
:100E300008951092F3031092EF031092F0031092B2
:100E4000F1031092F2031092EB031092EC03109254
:100E5000ED031092EE038091E7039091E803A091D7
:100E6000E903B091EA038093F4039093F503A09310
:100E7000F603B093F70308950E94FB0F8091F403EB
:100E80009091F503A091F603B091F7030196A11D8F
:100E9000B11D8093F4039093F503A093F603B093F0
:100EA000F7038091EF039091F003A091F103B091CB
:100EB000F2030196A11DB11D8093EF039093F003FF
:100EC000A093F103B093F20308958091EF03909102
:100ED000F003A091F103B091F2030097A105B105D1
:100EE00069F14091F4035091F5036091F60370911C
:100EF000F70341505109610971094093F40350937C
:100F0000F5036093F6037093F7030197A109B10904
:100F10008093EF039093F003A093F103B093F20357
:100F20008091F4039091F503A091F603B091F7033B
:100F3000892B8A2B8B2B11F40C94F90F0895809137
:100F4000EF039091F003A091F103B091F203892B8C
:100F50008A2B8B2B89F48091EB039091EC03A09169
:100F6000ED03B091EE03892B8A2B8B2B29F40E9481
:100F7000FB0F81E08093F30308958091F3038823AE
:100F800021F01092F3030C94F90F08950E94FF0FC3
:100F90008091F4039091F503A091F603B091F703CB
:100FA0000196A11DB11D8093F4039093F503A093C6
:100FB000F603B093F7038091EB039091EC03A091BB
:100FC000ED03B091EE030196A11DB11D8093EB03DB
:100FD0009093EC03A093ED03B093EE0308958091FA
:100FE000EB039091EC03A091ED03B091EE03009719
:100FF000A105B10569F14091F4035091F5036091A9
:10100000F6037091F703415051096109710940934A
:10101000F4035093F5036093F6037093F70301977D
:10102000A109B1098093EB039093EC03A093ED0326
:10103000B093EE038091F4039091F503A091F60331
:10104000B091F703892B8A2B8B2B11F40C94FD0F95
:1010500008950E94F806882311F083E1089580E046
:101060000895CF93C82F0E94F8068C2F0E945C042D
:10107000C82F8091920181110E94C4048C2FCF91BE
:101080000895CF930E94F806882311F0C3E101C0B0
:10109000C0E0E0918501F0918601828181508283D8
:1010A0000E944C0481E0809391010E948E048C2F59
:1010B000CF910895CF93C82F0E94F806E091850143
:1010C000F09186018281815082838C2F0E945C0482
:1010D000C82F811108C00E944C0481E080939101C7
:1010E0000E948E0407C0E0918501F0918601828103
:1010F0008F5F82838C2FCF910895CF930E94F80643
:10110000882311F0C3E101C0C0E0809189010E94F1
:10111000D4030E94C4048091890190918A01A09116
:101120008B01B0918C0140918D0150918E016091A5
:101130008F017091900184179507A607B70711F4E6
:101140000E94A9038C2FCF910895CF93DF93EC01D8
:101150000E94F806882311F083E101C080E04091ED
:10116000890150918A0160918B0170918C0143300B
:1011700051056105710514F4488303C09091F8018D
:101180009883DF91CF9108950F931F93CF93C82F2A
:101190008B010E94F806882311F083E101C080E0F2
:1011A000EC2FEE0FFF0BE05CFC4F0190F081E02D87
:1011B00094819370F8019083CF911F910F910895BE
:1011C000880F990BFC01E05CFC4FA081B181ED918F
:1011D000FC911197309769F01D921C922091F801B3
:1011E00093818481228314821382E92FF82F309710
:1011F000B9F70895CF93C82F0E94F806882311F0FD
:1012000083E101C080E0EC2FF0E0EE0FFF1FE85714
:10121000FC4FA081B1819091890112969C93129705
:10122000E0918501F09186012081318114963C93F3
:101230002E931397B183A083938111969C9311975A
:101240002C9193819695921760F430E0D901AC5BB4
:10125000BB4F9C9191509C93220F331F9170292B6F
:101260002383CF910895CF93DF93C82F0E94F80670
:10127000882311F0D3E101C0D0E0EC2FF0E0EE0FB5
:10128000FF1FE857FC4F0190F081E02DA0918501F0
:10129000B0918601818113968C93139783819481F9
:1012A0008D939C93148213828091F80182830E9413
:1012B000C4048D2FDF91CF910895DC01ED91FC9155
:1012C00084819581DC01ED91FC9109941F93CF936A
:1012D000DF93182FEB010E94F806882311F083E1B9
:1012E00001C080E0E12FF0E0EE0FFF1FE15EFC4F58
:1012F0000190F081E02D0190F081E02D0190F081CE
:10130000E02D40815181628173814C835D836E83C6
:101310007F834481558166817781488359836A83BD
:101320007B834085518562857385488759876A87A5
:101330007B87DF91CF911F9108958F929F92AF92FB
:10134000BF92CF92DF92EF92FF920F931F93CF93B2
:10135000C82F8B010E94F806882311F083E101C099
:1013600080E0EC2FF0E0EE0FFF1FE15EFC4F0190FC
:10137000F081E02D9685913029F54285538564856D
:1013800075850190F081E02D0190F081E02DC088FD
:10139000D188E288F3884C155D056E057F0540F421
:1013A00084809580A680B780480D591D6A1D7B1DDD
:1013B0004C195D096E097F09F801408351836283EE
:1013C000738301C085E0CF911F910F91FF90EF9043
:1013D000DF90CF90BF90AF909F908F9008958F92A5
:1013E0009F92AF92BF92CF92DF92EF92FF920F93B4
:1013F0001F93CF93DF93D82F4A015B0168017901D6
:101400000E94F806882311F0C3E101C0C0E0ED2F6F
:10141000F0E0EE0FFF1FE15EFC4F0190F081E02D48
:101420008685811130C0A081B1810D90BC91A02D25
:1014300050964D915D916D917C915397480D591D3A
:101440006A1D7B1D14968D919D910D90BC91A02DD0
:1014500084179507A607B70740F4481B590B6A0B7A
:101460007B0B415051096109710942875387648799
:101470007587C682D782E086F18681E08687CF01B4
:101480000E944A0501C0C7E08C2FDF91CF911F91C8
:101490000F91FF90EF90DF90CF90BF90AF909F9013
:1014A0008F9008958F929F92AF92BF92CF92DF92CA
:1014B000EF92FF920F931F93CF93DF93C82F4A01B0
:1014C0005B01680179010E94F806882311F0D3E1DD
:1014D00001C0D0E0EC2FF0E0EE0FFF1FE15EFC4F0B
:1014E0000190F081E02D868581110EC08286938661
:1014F000A486B586C682D782E086F18681E086879B
:10150000CF010E944A0501C0D7E08D2FDF91CF9116
:101510001F910F91FF90EF90DF90CF90BF90AF9011
:101520009F908F9008950F931F93CF93DF93C82FB1
:101530000E94F806882311F0D3E101C0D0E0EC2F1F
:10154000F0E0EE0FFF1FE15EFC4F00811181F8011A
:101550008685813031F4C8010E94D905F8011686CC
:1015600001C0D5E08D2FDF91CF911F910F9108958C
:1015700026E040E052EC61E070E089E594E00E94F2
:10158000BA1922E04DE063E088EF93E00E94541521
:10159000882339F068EC70E080E090E00E94430F0F
:1015A000F0CF69EF71E089E594E00E94E11660E018
:1015B00088EF93E00E94191260E082E00C94260EFE
:1015C000CF9382E00E94910E892B09F01CC163E148
:1015D00072E089E594E00E94E116C0918C038C2FA3
:1015E0000E945C0128E334E047E354E060E474E0E7
:1015F00088EF93E00E94131680914004909141047B
:10160000A0914204B091430488279470A07FBC70DD
:1016100081159440A04FBC4099F481E09091390429
:10162000911101C080E0809336048C2F0E946001EC
:1016300062E272E089E594E00E94E1160E944401B2
:101640008091400490914104A0914204B0914304E0
:1016500083709570A07FB87183309540A04FB841DA
:1016600041F56091390470E080E090E00E94721BC7
:101670006093260470932704809328049093290490
:101680008C2F0E9460016EE272E089E594E00E9476
:10169000C21640912604509127046091280470914D
:1016A000290422E030E089E594E00E9455180E9468
:1016B00044018091400490914104A0914204B09172
:1016C000430487709927AB71BF700797AB41BF4048
:1016D00041F56091390470E080E090E00E94721B57
:1016E00060933204709333048093340490933504F0
:1016F0008C2F0E9460016FE372E089E594E00E9404
:10170000C2164091320450913304609134047091B8
:10171000350422E030E089E594E00E9455180E94EB
:1017200044018091400490914104A0914204B09101
:10173000430488709078AB71BA7088309048AB41A0
:10174000BA4041F56091390470E080E090E00E9479
:10175000721B60932E0470932F0480933004909337
:1017600031048C2F0E9460016CE472E089E594E002
:101770000E94C21640912E0450912F0460913004B3
:101780007091310422E030E089E594E00E94551820
:101790000E9444018091400490914104A091420430
:1017A000B09143048970907AAB71BC708930904AD3
:1017B000AB41BC4041F56091390470E080E090E0BD
:1017C0000E94721B60932A0470932B0480932C0454
:1017D00090932D048C2F0E94600161E672E089E5F0
:1017E00094E00E94C21640912A0450912B0460910B
:1017F0002C0470912D0422E030E089E594E00E94F1
:1018000055180E94440163E772E089E594E00E9464
:10181000E11640914004509141046091420470915E
:10182000430420E130E089E594E00E94681780914C
:101830008C030E946001CF910C944401EF92FF92BF
:101840000F93CF93DF9380918C030E945C01C09132
:101850002104D0913604C11122C0DD23A1F1809171
:10186000220481111CC020E030E040E351E460918B
:1018700032047091330480913404909135040E94B5
:10188000241C87FD0CC080912304811108C0809125
:101890002404811104C081E08093210411C0DD2360
:1018A00091F0CC2381F08091220481110CC08091B1
:1018B0002304811108C080912404811104C081E0B7
:1018C0008093250404C01092250410922104809175
:1018D000250480936A0189E6E82E81E0F82E08E06D
:1018E00021E040E051EF6EEF78E188EF93E00E9455
:1018F000D815811109C06CE772E089E594E00E9477
:10190000E11666EC73E007C0873019F46CE872E00A
:1019100002C067EA72E089E594E00E94E1168091D6
:101920008C030E946001DF91CF910F91FF90EF90A7
:101930000C9444013F924F925F926F927F928F92EC
:101940009F92AF92BF92CF92DF92EF92FF920F934E
:101950001F93CF93DF9320911C0460917D017091C0
:101960007E0180917F0190918001222321F09B01D3
:10197000AC010E94591A60931D0470931E04809359
:101980001F049093200430908C03832D0E945C01EF
:101990008090320490903304A0903404B0903504C9
:1019A00020911D0430911E0440911F045091200489
:1019B000C501B4010E94291C20E030E040E251E45E
:1019C0000E94591A6093790170937A0180937B0188
:1019D00090937C0120912E0430912F04409130048B
:1019E000509131040E94581A2B013C0160930C0461
:1019F00070930D0480930E0490930F042AE037ED4A
:101A000043E25DE360912A0470912B0480912C04E1
:101A100090912D040E94291C6B017C012DEC3CEC63
:101A20004CE45EE3C301B2010E94291C9B01AC019E
:101A3000C701B6010E94581A8B01D82FC92FCB01BC
:101A4000AD2FBC2F8093100490931104A093120427
:101A5000B0931304A50194016091260470912704AA
:101A600080912804909129040E94581A20E030E0C7
:101A700040E05FE30E94291CB62EC72E7C01862F12
:101A80009C2DD7018093140490931504A093160401
:101A9000B093170420E030E0A901C301B2010E9415
:101AA000241C181674F02B2D3C2DA701B8018D2F86
:101AB0009C2F0E94C51A87FD04C00B2D1C2DDE2D06
:101AC000CF2DC801AD2FBC2F80931804909319041B
:101AD000A0931A04B0931B040091180410911904E8
:101AE000D0911A04C0911B0420E030E040EA50EC91
:101AF000B8018D2F9C2F0E94C51A87FD0FC026EFBD
:101B000038E24CEB5FE3B8018D2F9C2F0E94241C20
:101B100018164CF0302F212FFE0109C030E020E0D4
:101B2000F0EAE0EC04C036EF28E2FCEBEFE3432FF1
:101B3000522F6F2F7E2F40931804509319046093F7
:101B40001A0470931B04632F722F8F2F9E2F0E94F5
:101B50003C1B6093720181E7E82E81E0F82E08E0DB
:101B600021E040E152EE6FEE78E188EF93E00E94D1
:101B7000D815811122C060EC72E089E594E00E94E2
:101B8000C2164AE050E06091720189E594E00E943B
:101B9000501763EF72E089E594E00E94C21640910D
:101BA00018045091190460911A0470911B0422E0EA
:101BB00030E089E594E00E945518832D0E94600171
:101BC000DF91CF911F910F91FF90EF90DF90CF9019
:101BD000BF90AF909F908F907F906F905F904F904D
:101BE0003F900C9444016AE088EF93E00C94411517
:101BF0008FEC91E00C94B5010895833081F028F4C6
:101C0000813099F08230A1F008958730A9F08830B2
:101C1000B9F08430D1F4809180008F7D03C0809131
:101C200080008F7780938000089584B58F7702C0FD
:101C300084B58F7D84BD08958091B0008F7703C0F7
:101C40008091B0008F7D8093B0000895CF93DF9393
:101C500090E0FC01EA53FF4F2491FC01E652FF4F54
:101C60008491882361F190E0880F991FFC01EE5F59
:101C7000FE4FC591D491FC01E850FF4FA591B4915E
:101C8000611109C09FB7F8948881209582238883C9
:101C9000EC912E230BC0623061F49FB7F8948881D9
:101CA000322F309583238883EC912E2B2C939FBF6A
:101CB00006C08FB7F894E8812E2B28838FBFDF9161
:101CC000CF9108951F93CF93DF93282F30E0F90130
:101CD000EE54FF4F8491F901EA53FF4FD491F9017B
:101CE000E652FF4FC491CC23C1F0162F81110E9400
:101CF000FD0DEC2FF0E0EE0FFF1FE850FF4FA59118
:101D0000B4919FB7F894111104C08C91D095D82349
:101D100002C0EC91DE2BDC939FBFDF91CF911F912E
:101D20000895CF93DF93282F30E0F901EE54FF4F51
:101D30008491F901EA53FF4FD491F901E652FF4F24
:101D4000C491CC2391F081110E94FD0DEC2FF0E0A5
:101D5000EE0FFF1FE251FF4FA591B491EC91ED23DF
:101D600081E090E021F480E002C080E090E0DF912B
:101D7000CF9108951F920F920FB60F9211242F93B7
:101D80003F934F935F936F937F938F939F93AF9303
:101D9000BF93EF93FF938091500490915104A091D1
:101DA0005204B091530430914F0423E0230F2D3798
:101DB00020F40196A11DB11D05C026E8230F02964F
:101DC000A11DB11D20934F048093500490935104A2
:101DD000A0935204B09353048091540490915504FD
:101DE000A0915604B09157040196A11DB11D809396
:101DF000540490935504A0935604B09357040E9442
:101E0000F80DFF91EF91BF91AF919F918F917F91CD
:101E10006F915F914F913F912F910F900FBE0F9057
:101E20001F9018952FB7F894609150047091510449
:101E300080915204909153042FBF08953FB7F894B6
:101E40008091540490915504A0915604B091570488
:101E500026B5A89B05C02F3F19F00196A11DB11D05
:101E60003FBFBA2FA92F982F8827820F911DA11D40
:101E7000B11DBC01CD0142E0660F771F881F991F7D
:101E80004A95D1F708958F929F92AF92BF92CF92C9
:101E9000DF92EF92FF926B017C010E941E0F4B01BB
:101EA0005C01C114D104E104F10401F10E94B90FF5
:101EB0000E941E0FDC01CB0188199909AA09BB09F0
:101EC000883E9340A105B10560F321E0C21AD10814
:101ED000E108F10888EE880E83E0981EA11CB11C71
:101EE000C114D104E104F10419F7DBCFFF90EF90A6
:101EF000DF90CF90BF90AF909F908F90089584B562
:101F0000826084BD84B5816084BD85B5826085BDF5
:101F100085B5816085BDEEE6F0E0808181608083DB
:101F2000E1E8F0E0108280818260808380818160BE
:101F30008083E0E8F0E0808181608083E1EBF0E085
:101F4000808184608083E0EBF0E080818160808329
:101F5000EAE7F0E080818460808380818260808312
:101F60008081816080838081806880831092C1003D
:101F700008950895FFCFFFCFCF93DF93880F990B7C
:101F8000FC01E85BFC4FC081D181AC81BD81119720
:101F90008A819B81A80FB91F2D85CD010197FD0175
:101FA0003297223019F42CE331E002C028E531E009
:101FB0002C93DC013C939E818F819083DF018E9373
:101FC000CF0107971E928A179B07E1F780E8DF0190
:101FD00018978C93CF0144971E928A179B07E1F7BD
:101FE000A881B9817597ED93FC93DF91CF91089506
:101FF000089578940895F894089578940895F8943D
:10200000089508950E947F0F0E9401100E94FC0D08
:102010000E94B80A809158040E94EC0680E090E08B
:1020200008958091930380935804089508951F9212
:102030000F920FB60F9211242F933F934F935F93FC
:102040006F937F938F939F93AF93BF93EF93FF9380
:10205000E091F101F091F2010995FF91EF91BF91AB
:10206000AF919F918F917F916F915F914F913F9130
:102070002F910F900FBE0F901F9018951F920F92E7
:102080000FB60F9211242F933F934F935F936F934B
:102090007F938F939F93AF93BF93EF93FF93E091C1
:1020A000F301F091F4010995FF91EF91BF91AF9188
:1020B0009F918F917F916F915F914F913F912F9160
:1020C0000F900FBE0F901F9018952091F8042223B7
:1020D00099F04FB7F8942091F804213059F42DB3BA
:1020E0002093F6043DB32091F704209523232DBBC4
:1020F0004FBF02C04093F6048CBD9DBD08958EBDB8
:1021000000000DB407FEFDCF8EB508958091F80450
:10211000882361F09FB7F8942091F8048091F60429
:10212000213019F48DBB9FBF08958FBF0895CF93C1
:10213000DF93EC0180E591E00E94651060E08A8900
:102140000E94620E80EC0E947F1061E08A890E94EA
:10215000620E0E94861065E070E080E090E0DF9102
:10216000CF910C94430F1F93CF93DF93EC01162F65
:1021700080E591E00E94651060E08A890E94620E0D
:1021800083E00E947F10812F0E947F1080E00E94D8
:102190007F10182F61E08A890E94620E0E948610CB
:1021A000812FDF91CF911F910895DF92EF92FF92DF
:1021B0000F931F93CF93DF938C01C62FD42EE52E60
:1021C000F22E80E591E00E94651060E0F8018289BE
:1021D0000E94620E83E00E947F108C2F0E947F106D
:1021E000CD2DDE2DCE018F0D911D7C01EC16FD064F
:1021F00029F080E00E947F108993F8CF61E0F80118
:1022000082890E94620EDF91CF911F910F91FF9002
:10221000EF90DF900C9486100F931F93CF93DF9372
:10222000EC01062F142F80E591E00E94651060E01C
:102230008A890E94620E82E00E947F10802F0E9495
:102240007F10812F0E947F1061E08A890E94620EB8
:10225000DF91CF911F910F910C948610DF92EF9236
:10226000FF920F931F93CF93DF938C01C62FD42E31
:10227000E52EF22E80E591E00E94651060E0F80105
:1022800082890E94620E82E00E947F108C2F0E9441
:102290007F10CD2DDE2DCE018F0D911D7C01EC1612
:1022A000FD0621F089910E947F10F9CF61E0F801CD
:1022B00082890E94620EDF91CF911F910F91FF9052
:1022C000EF90DF900C948610FF920F931F93CF93A3
:1022D000DF93EC01F62E042F122F80E591E00E948F
:1022E000651060E08A890E94620E85E00E947F107E
:1022F0008F2D0E947F10802F0E947F10812F0E94BF
:102300007F1061E08A890E94620EDF91CF911F9158
:102310000F91FF900C9486101F93CF93DF93EC01E5
:1023200080E591E00E94651060E08A890E94620E5B
:1023300080EA0E947F1080E00E947F10182F61E0E9
:102340008A890E94620E0E948610812FDF91CF91B0
:102350001F910895EF92FF920F931F93CF93DF93F6
:10236000EC01162F0E94120F062FE12EF12C212FC7
:1023700040EE6FE0CE010E9464116EE0CE010E943B
:10238000B310807E90E08E159F0539F00E94120FE9
:10239000601B693C60F381E001C080E0DF91CF9178
:1023A0001F910F91FF90EF9008950F931F93CF937C
:1023B000DF93EC01162F6EE00E94B310807E803216
:1023C00021F5103211F16BE2CE010E94B310082FFB
:1023D000007486FD06C020E440E46BE2CE010E945A
:1023E000641120E440E46CE2CE010E94641160E6D6
:1023F000CE010E94AA11811116C0011106C020E071
:1024000040E46BE2CE010E94641120E040E46CE203
:10241000CE010E946411612FCE01DF91CF911F91F7
:102420000F910C94AA1181E0DF91CF911F910F9130
:102430000895FC01638B0C94D511CF92DF92EF923B
:10244000FF920F931F93CF93DF93342F337031306C
:1024500009F43FC008F466C0323009F0AAC0062F64
:1024600010E0F8013197EE30F10508F0A2C0EC5C05
:10247000FF4F0C94BD1CC4E8D6EF23E987C0C4E825
:10248000D6EF29E883C0C3E8D5EE27E87FC0C4E8CB
:10249000D6EF25E87BC0C4E8D6EF05C0C3E8D5EE8B
:1024A00002C0C1E8D3ED24E871C0C4E8D6EF02C091
:1024B000C3E8D5EE21E86AC0C4E8D6EF02C0C3E89D
:1024C000D5EE20E863C0C1E8D1ED2AC0C0E8D0EC69
:1024D00027C0C62ED12CF6013197EE30F10508F059
:1024E00068C0EE5BFF4F0C94BD1CC4E8D6EF27E636
:1024F0004DC0C4E8D6EF23E549C0C3E8D5EE2EE4CD
:1025000045C0C4E8D6EF42C0C3E8D5EE23E43EC0E0
:10251000C3E8D5EE27C0C3E8D5EE28C0C1E8DAECA1
:1025200020E034C0062F10E0F8013697E930F105BD
:1025300008F03FC0E05BFF4F0C94BD1CC4E8D6EF31
:1025400029E424C0C7E8DFEF24EC20C0C4E8D6EFBC
:1025500005C0C3E8D5EE02C0C1E8D3ED24E416C03F
:10256000C4E8D6EF21E412C0C4E8D6EF20E40EC0E0
:10257000C2E8D9EDD5CFC4E8D6EF27EA07C0C7E84F
:10258000DFEF2FE303C0C1E8D3ED28E142FDCF77B1
:102590008C01422F6AE20E940C114D2F69E2C801A2
:1025A0000E940C114C2F68E2C8010E940C1180E0BF
:1025B00001C081E0DF91CF911F910F91FF90EF90CB
:1025C000DF90CF9008950F931F93CF93DF9300D0A8
:1025D00000D0CDB7DEB74130B1F40C831B83890145
:1025E00022273327502F5C71402F437078E0579F8C
:1025F000400D112448604A8355E0169507955A9579
:10260000E1F709830DC0A80123E0569547952A9567
:10261000E1F749830295000F007E0A831C821B822A
:1026200024E0AE014F5F5F4F0E942E110F900F907C
:102630000F900F90DF91CF911F910F9108950F93FD
:102640001F93CF93DF9300D000D0CDB7DEB7E62F36
:10265000F42FA901662777270C831B83F13081F4BF
:10266000342F3C71242F2370F8E03F9F200D11245C
:1026700028602A8335E0569547953A95E1F70AC0D8
:10268000242F2295220F207E2A8323E056954795FA
:102690002A95E1F7498324E0AE014F5F5F4F6E2F2B
:1026A0000E942E110F900F900F900F90DF91CF91FD
:1026B0001F910F9108950F931F93CF93DF93EC0118
:1026C00000E010E0980141E060E20E941F1300E08A
:1026D00010E0980141E064E2CE010E941F1300E087
:1026E00010E0980141E060E0CE010E941F1300E07D
:1026F00010E0980140E064E0CE010E941F1300E06A
:1027000010E0980141E068E0CE010E941F1300E054
:1027100010E0980140E060E1CE010E941F1300E04C
:1027200010E0980141E064E1CE010E941F1300E037
:1027300010E0980140E068E1CE010E941F1310E311
:1027400040E0612FCE010E940C1160E1610F40E07A
:10275000CE010E940C1160E2610F40E0CE010E94A8
:102760000C111F5F1E3361F740E060E6CE010E944E
:102770000C1140E060E7CE01DF91CF911F910F91E6
:102780000C940C11EF92FF920F931F93CF93DF9352
:10279000EC01062FF42EE22E0E94971080E48B8B22
:1027A00060E8CE010E94D511182F882341F06FEA0E
:1027B00071E089E594E00E94CF16812F5CC067E844
:1027C00071E089E594E00E94CF164E2D6F2DCE0169
:1027D0000E941D12882339F06BE671E089E594E0D0
:1027E0000E94CF1647C06EE471E089E594E00E9434
:1027F000CF16CE010E945B1343E06BE2CE010E9434
:102800000C114CE36CE0CE010E940C1140E06DE035
:10281000CE010E940C11002351F0033019F524E67B
:1028200044E660E6CE010E94641120E607C024E081
:1028300044E660E6CE010E94641120E040E660E7D5
:10284000CE010E9464116B89CE010E94D511C82F60
:10285000882381F06CE071E089E594E00E94CF1656
:102860008C2F09C062E371E089E594E00E94CF16E5
:1028700081E001C080E0DF91CF911F910F91FF9027
:10288000EF900895EF92FF920F931F93CF93DF93F2
:1028900000D000D0CDB7DEB77A018901FA011082ED
:1028A000F901108211821282138224E0AE014F5F7F
:1028B0005F4F0E94D5102A813981822F90E065E018
:1028C000959587956A95E1F7F8E03F9F800D911DFA
:1028D0001124092E000CAA0BBB0BF80180839183F5
:1028E000A283B38323FF25C032E0880F991FAA1F5C
:1028F000BB1F3A95D1F72370820F911DA11DB11D09
:10290000BA2FA92F982F88272B81820F911DA11DE7
:10291000B11DBA2FA92F982F88272C81820F911DC6
:10292000A11DB11D80839183A283B38381E0F70150
:1029300080830F900F900F900F90DF91CF911F9198
:102940000F91FF90EF900895FF920F931F93CF93F5
:10295000DF93EC01F62EAC014A5F5F4F65E06F0D2F
:102960002D810E942E118E85813019F48D81806415
:102970008D8364E06F0D4D81CE010E940C110981A1
:102980001A812B813C8148816F2DCE010E94E31278
:10299000DF91CF911F910F91FF9008950F931F9397
:1029A000CF93DF93EC01162F9C012F5F3F4FAC01BB
:1029B0000E9442146FEF610FCE010E94B310082FE6
:1029C00064E0610FCE010E94B3108D8303FF03C04A
:1029D00091E09E8701C01E86282F2F702D83AE01A7
:1029E0004A5F5F4F65E0610FCE01DF91CF911F918C
:1029F0000F910C94D5108F929F92AF92BF92CF926D
:102A0000DF92EF92FF921F93CF93DF9300D01F923C
:102A1000CDB7DEB74C016B018091F5019091F601C5
:102A2000A091F70189839A83AB83FB011082CE01C9
:102A300001967C015E0194E0A90EB11CF701119191
:102A40007F01612FC4010E94B310982F987083FDFD
:102A500004C01F5FF601108304C0EA14FB0471F781
:102A600092E0892F0F900F900F90DF91CF911F91DF
:102A7000FF90EF90DF90CF90BF90AF909F908F909E
:102A80000895CF93DF93EC01862F6A8B61E00E945B
:102A9000620E61E08A890E94260E8AEF94E0998B8B
:102AA000888BDF91CF910895FF920F931F93CF935F
:102AB000DF93EC01162F042FF22E0E941F1A2F2DE8
:102AC000402F612FCE010E94C21391E0811101C0FD
:102AD00090E0892FDF91CF911F910F91FF90089582
:102AE000BF92CF92DF92EF92FF920F931F93CF93FB
:102AF000DF931F92CDB7DEB78C010E941E0F6B01D2
:102B00007C01BE016F5F7F4FC8010E94FB14B82E8D
:102B10000E941E0FDC01CB018C199D09AE09BF0973
:102B200022E0B21206C0843C9940A105B10548F3E9
:102B300031C0843C9940A105B10560F56981C801A7
:102B40000E94A4146981615028E048E0C8010E94F5
:102B500064110E941E0F6B017C0169816150C801E4
:102B60000E94B310B82E0E941E0FDC01CB018C19FD
:102B70009D09AE09BF09B3FE06C0843C9940A1057A
:102B8000B10558F309C0843C9940A105B10520F472
:102B900080E003C086E001C087E00F90DF91CF9115
:102BA0001F910F91FF90EF90DF90CF90BF9008950D
:102BB000EF92FF920F93FC014183528363837483EE
:102BC000168620830583F701DC0116969C01225F9F
:102BD0003F4F41914D93A217B307D9F70F91FF9043
:102BE000EF900C947015CF93DF93EC010E948C1141
:102BF00080FF07C061E6CE010E94CE1420E041E0D4
:102C000008C081FF0CC061E7CE010E94CE1420E015
:102C100042E06CE2CE010E94641180E001C084E0D9
:102C2000DF91CF910895CF92DF92EF92FF920F93B1
:102C30001F93CF93DF93EC016B017A0189010E940E
:102C4000F315843099F18881882349F089819A812C
:102C5000AB81BC81B06889839A83AB83BC838E854A
:102C6000882349F089819A81AB81BC81B0648983D2
:102C70009A83AB83BC8389819A81AB81BC81F60145
:102C800080839183A283B3838D81F7018083DE01EA
:102C90001696F8018D8190E09F01201B310B2817BB
:102CA00039071CF48D918193F5CF80E0DF91CF91AE
:102CB0001F910F91FF90EF90DF90CF900895CF92EA
:102CC000DF92EF92FF920F931F93CF93DF936C01EC
:102CD0007A018B01C0E0D0E0CE15DF0581F0D8018C
:102CE0006D918D01D601ED91FC910190F081E02D67
:102CF000C6010995892B11F02196EECF7E01C701FF
:102D0000DF91CF911F910F91FF90EF90DF90CF90C7
:102D100008956115710579F0FB0101900020E9F734
:102D20003197AF01461B570BDC01ED91FC910280FE
:102D3000F381E02D099480E090E00895EF92FF92F6
:102D40000F931F93CF93DF938C017B01C0E0D0E002
:102D5000F701EC0FFD1F6491662361F0D801ED913E
:102D6000FC910190F081E02DC8010995892B11F0AB
:102D70002196EECFCE01DF91CF911F910F91FF9061
:102D8000EF9008950C948916DC01ED91FC9101906F
:102D9000F081E02D099464EC73E00C9489160F9394
:102DA0001F93CF93DF93EC010E949E168C01CE01FE
:102DB0000E94CB16800F911FDF91CF911F910F9131
:102DC00008950F931F93CF93DF93EC010E94891610
:102DD0008C01CE010E94CB16800F911FDF91CF9105
:102DE0001F910F9108958F929F92AF92BF92EF9291
:102DF000FF920F931F93CF93DF93CDB7DEB7A197C9
:102E00000FB6F894DEBF0FBECDBF7C01FA01CB0137
:102E100019A2223008F42AE08E010F5D1F4F822E86
:102E2000912CA12CB12CBF01A50194010E949B1CE7
:102E3000F901CA01015011096A3014F4605D01C042
:102E4000695CD8016C93232B242B252B61F7B801E7
:102E5000C7010E948916A1960FB6F894DEBF0FBE77
:102E6000CDBFDF91CF911F910F91FF90EF90BF9059
:102E7000AF909F908F9008952115310541F4DC01AA
:102E8000ED91FC910190F081E02D642F09940C9458
:102E9000F3169A01462F50E060E070E00C943C1766
:102EA0000F931F93CF93DF93EC010E9449178C017E
:102EB000CE010E94CB16800F911FDF91CF911F9101
:102EC0000F9108959A01AB0160E070E00C943C17FB
:102ED0000F931F93CF93DF93EC010E943C178C015B
:102EE000CE010E94CB16800F911FDF91CF911F91D1
:102EF0000F9108957F928F929F92AF92BF92CF923F
:102F0000DF92EF92FF920F931F93CF93DF938C0189
:102F10006A017B01722E9A01AB01C701B6010E94C2
:102F2000961C882319F067EC73E027C0460157010F
:102F3000E894B7F82FEF3FEF4FE75FE7C501B40123
:102F40000E94961C81110DC02FEF3FEF4FE75FE706
:102F5000C501B4010E94C51A18161CF46BEC73E08D
:102F60000CC02FEF3FEF4FE75FE4C701B6010E94AF
:102F7000241C181694F46FEC73E0C801DF91CF9114
:102F80001F910F91FF90EF90DF90CF90BF90AF9087
:102F90009F908F907F900C9489162FEF3FEF4FE713
:102FA0005FECC701B6010E94C51A87FDE4CF20E09F
:102FB00030E0A901C701B6010E94C51A87FF0AC007
:102FC0006DE2C8010E94C416EC01F7FAF094F7F81C
:102FD000F09402C0C0E0D0E0B12C60E070E080E08E
:102FE0009FE37B1441F020E030E040E251E40E9496
:102FF000CA1AB394F6CFA70196010E94591A6B0121
:103000007C010E94431B4B015C012AE0AB01BC0127
:10301000C8010E94F316C80FD91F7720B9F1C50166
:10302000B4010E94721B9B01AC01C701B6010E9452
:10303000581A6B017C016EE2C8010E94C416C80FC9
:10304000D91F20E030E040E251E4C701B6010E9400
:10305000291C4B015C010E94431B6B017C014AE06F
:1030600050E0C8010E946217C80FD91FB60180E066
:1030700090E00E94721B9B01AC01C501B4010E944B
:10308000581A6B017C017A947110DBCFCE01DF916D
:10309000CF911F910F91FF90EF90DF90CF90BF9055
:1030A000AF909F908F907F9008950F931F93CF9331
:1030B000DF93EC010E947A178C01CE010E94CB169F
:1030C000800F911FDF91CF911F910F9108951F9253
:1030D0000F920FB60F9211242F938F939F93EF931C
:1030E000FF93E0916904F0916A048081E0916F049C
:1030F000F091700482FD12C09081809172048F5F04
:103100008F7320917304821751F0E0917204F0E004
:10311000E75AFB4F958F8093720401C08081FF9125
:10312000EF919F918F912F910F900FBE0F901F9055
:1031300018951F920F920FB60F9211242F933F9361
:103140004F935F936F937F938F939F93AF93BF93AF
:10315000EF93FF9389E594E00E942919FF91EF9185
:10316000BF91AF919F918F917F916F915F914F919F
:103170003F912F910F900FBE0F901F901895E9E58A
:10318000F4E01382128288EE93E0A0E0B0E0848342
:103190009583A683B78387ED93E09183808385EC45
:1031A00090E09587848784EC90E09787868780EC11
:1031B00090E0918B808B81EC90E0938B828B82EC02
:1031C00090E0958B848B86EC90E0978B868B118EAC
:1031D000128E138E148E0895FC01918D228D892FED
:1031E00090E0805C9F4F821B91098F73992708950F
:1031F000FC01918D828D981731F0828DE80FF11DC1
:10320000858D90E008958FEF9FEF0895FC01918DDB
:10321000828D981761F0828DDF01A80FB11D5D9638
:103220008C91928D9F5F9F73928F90E008958FEFA6
:103230009FEF0895FC01538D448D252F30E0842F9E
:1032400090E0821B930B541710F0CF9608950197CE
:103250000895FC01848DDF01A80FB11DA35ABF4F53
:103260002C91848D90E001968F739927848FA68985
:10327000B7892C93A089B1898C91837080648C93D9
:10328000938D848D981306C00288F389E02D808188
:103290008F7D80830895EF92FF920F931F93CF93BA
:1032A000DF93EC0181E0888F9B8D8C8D981305C096
:1032B000E889F989808185FD26C0F62E0B8D10E006
:1032C0000F5F1F4F0F731127E02E8C8DE8120CC07B
:1032D0000FB607FCFACFE889F989808185FFF5CF21
:1032E000CE010E942919F1CF8B8DFE01E80FF11D4F
:1032F000E35AFF4FF0829FB7F8940B8FEA89FB895E
:10330000808180620AC09FB7F894EE89FF8960834C
:10331000E889F98980818370806480839FBF81E020
:1033200090E0DF91CF911F910F91FF90EF90089562
:10333000CF93DF93EC01888D8823C9F0EA89FB895C
:10334000808185FD05C0A889B9898C9186FD0FC053
:103350000FB607FCF5CF808185FFF2CFA889B98928
:103360008C9185FFEDCFCE010E942919E7CFDF9127
:10337000CF910895CF92DF92EF92FF921F93CF9358
:10338000DF93EC016A017B01122FE889F98982E061
:1033900080834115514E61057105B1F060E079E01F
:1033A0008DE390E0A70196010E949B1CDA01C90100
:1033B0000197A109B109B695A795979587959C01A5
:1033C000211580E13807A8F0E889F989108260E8C2
:1033D00074E88EE190E0A70196010E949B1CDA013F
:1033E000C9010197A109B109B695A7959795879548
:1033F0009C01EC85FD853083EE85FF852083188E4A
:10340000EC89FD891083EA89FB8980818061808352
:10341000EA89FB89808188608083EA89FB898081D1
:1034200080688083EA89FB8980818F7D8083DF913A
:10343000CF911F91FF90EF90DF90CF900895CF93A1
:10344000CFB7F8948091F904811127C0E4EEF0E041
:103450008491E0EDF0E09491E82FF0E0EE0FFF1F93
:10346000EE5FFE4FA591B491EC91E92321F461E068
:103470008AE00E94620E61E08AE00E94260E8CB50E
:1034800080618CBD8CB580648CBD61E08DE00E9454
:10349000260E61E08BE00E94260E8091F9048F5F7A
:1034A0008093F904CFBFCF910895F8940C94C31C76
:1034B0005058BB27AA270E94701A0C94EA1B0E943E
:1034C000DC1B38F00E94E31B20F039F49F3F19F415
:1034D00026F40C94D91B0EF4E095E7FB0C94D31B57
:1034E000E92F0E94FB1B58F3BA1762077307840782
:1034F000950720F079F4A6F50C941D1C0EF4E095C8
:103500000B2EBA2FA02D0B01B90190010C01CA019D
:10351000A0011124FF27591B99F0593F50F4503E48
:1035200068F11A16F040A22F232F342F4427585F3A
:10353000F3CF469537952795A795F0405395C9F752
:103540007EF41F16BA0B620B730B840BBAF091500A
:10355000A1F0FF0FBB1F661F771F881FC2F70EC0A9
:10356000BA0F621F731F841F48F48795779567957C
:10357000B795F7959E3F08F0B0CF9395880F08F068
:103580009927EE0F9795879508950E94AF1B08F431
:1035900081E008950E94DE1A0C94EA1B0E94E31B4E
:1035A00058F00E94DC1B40F029F45F3F29F00C9496
:1035B000D31B51110C941E1C0C94D91B0E94FB1B95
:1035C00068F39923B1F3552391F3951B550BBB2752
:1035D000AA2762177307840738F09F5F5F4F220F97
:1035E000331F441FAA1FA9F335D00E2E3AF0E0E88E
:1035F00032D091505040E695001CCAF72BD0FE2FD8
:1036000029D0660F771F881FBB1F2617370748076B
:10361000AB07B0E809F0BB0B802DBF01FF27935823
:103620005F4F3AF09E3F510578F00C94D31B0C94F9
:103630001E1C5F3FE4F3983ED4F38695779567951B
:10364000B795F7959F5FC9F7880F911D9695879558
:1036500097F90895E1E0660F771F881FBB1F621777
:1036600073078407BA0720F0621B730B840BBA0B35
:10367000EE1F88F7E09508950E94431B6894B111EE
:103680000C941E1C08950E94031C88F09F5798F00C
:10369000B92F9927B751B0F0E1F0660F771F881F57
:1036A000991F1AF0BA95C9F714C0B13091F00E9471
:1036B0001D1CB1E008950C941D1C672F782F8827DE
:1036C000B85F39F0B93FCCF3869577956795B39598
:1036D000D9F73EF490958095709561957F4F8F4F07
:1036E0009F4F0895E89409C097FB3EF4909580950C
:1036F000709561957F4F8F4F9F4F9923A9F0F92FB8
:1037000096E9BB279395F695879577956795B79535
:10371000F111F8CFFAF4BB0F11F460FF1BC06F5F1B
:103720007F4F8F4F9F4F16C0882311F096E911C02D
:10373000772321F09EE8872F762F05C0662371F04E
:1037400096E8862F70E060E02AF09A95660F771F62
:10375000881FDAF7880F9695879597F90895990F3E
:103760000008550FAA0BE0E8FEEF16161706E8074B
:10377000F907C0F012161306E407F50798F0621B6C
:10378000730B840B950B39F40A2661F0232B242B41
:10379000252B21F408950A2609F4A140A6958FEF60
:1037A000811D811D089597F99F6780E870E060E0B2
:1037B00008959FEF80EC089500240A9416161706CA
:1037C00018060906089500240A9412161306140612
:1037D00005060895092E0394000C11F4882352F075
:1037E000BB0F40F4BF2B11F460FF04C06F5F7F4F2D
:1037F0008F4F9F4F089557FD9058440F551F59F014
:103800005F3F71F04795880F97FB991F61F09F3FCD
:1038100079F087950895121613061406551FF2CFF6
:103820004695F1DF08C0161617061806991FF1CF46
:1038300086957105610508940895E894BB2766276D
:103840007727CB0197F908950E94AF1B08F48FEFFB
:1038500008950E943C1C0C94EA1B0E94DC1B38F06B
:103860000E94E31B20F0952311F00C94D31B0C94C1
:10387000D91B11240C941E1C0E94FB1B70F3959FF6
:10388000C1F3950F50E0551F629FF001729FBB2757
:10389000F00DB11D639FAA27F00DB11DAA1F649FF3
:1038A0006627B00DA11D661F829F2227B00DA11DA6
:1038B000621F739FB00DA11D621F839FA00D611D2C
:1038C000221F749F3327A00D611D231F849F600D4D
:1038D000211D822F762F6A2F11249F5750409AF076
:1038E000F1F088234AF0EE0FFF1FBB1F661F771F02
:1038F000881F91505040A9F79E3F510580F00C94CD
:10390000D31B0C941E1C5F3FE4F3983ED4F38695C2
:1039100077956795B795F795E7959F5FC1F7FE2B6C
:10392000880F911D9695879597F908950E94AF1B72
:10393000880B990B0895A1E21A2EAA1BBB1BFD014F
:103940000DC0AA1FBB1FEE1FFF1FA217B307E4077E
:10395000F50720F0A21BB30BE40BF50B661F771FD6
:10396000881F991F1A9469F76095709580959095B6
:103970009B01AC01BD01CF010895EE0FFF1F059023
:0A398000F491E02D0994F894FFCFB4
:10398A00000000000000000000000000000000002D
:10399A00000000000000000000000000000000001D
:1039AA00000000000000000000000000000000000D
:1039BA0000000000000000000000000000000000FD
:1039CA0000000000000000000000000000000000ED
:1039DA0000000000000000000000000000000000DD
:1039EA000000000000000000FFFFFFFFFFFFFFFFD5
:1039FA00FFFFFFFFFFFFFFFFFF00007041000040D5
:103A0A004000007A0300004A04FFFFFFFFFFFFFFA8
:103A1A00FF0000250300000000C80000005000005D
:103A2A0000022E03000000005000000065000000A4
:103A3A0002370300000000C8000000E8030000028B
:103A4A000000000400000000030000000002000162
:103A5A00000000FFFF00000100000000000000005D
:103A6A00000000000000000500FF00000100FF0048
:103A7A000016101610304050FF4D43503235313584
:103A8A002063616E5F73656E64205374617274653E
:103A9A00642100454E54524F55204E412054415303
:103AAA004B00526563656269206461646F0041433B
:103ABA00435F73706565645F736574203D200045DC
:103ACA00474F205350454544203D200052656C61C4
:103ADA00746976655F44697374616E6365203D201D
:103AEA000052656C61746976655F73706565642000
:103AFA003D20006D4944203D203D200063616E5FFA
:103B0A0073656E643A2053454E54210063616E5FBB
:103B1A0073656E643A204D657373616765207469D5
:103B2A006D656F7574210063616E5F73656E643ACB
:103B3A00204572726F7220746F2073656E64210063
:103B4A004143435F416363656C65726174696F6E7B
:103B5A00207472616E736D697469646120636F6D3C
:103B6A00207375636573736F202843484152292077
:103B7A003D20004143435F416363656C6572617434
:103B8A00696F6E207472616E736D69746964612005
:103B9A00636F6D207375636573736F203D2000B189
:103BAA0001A2019301CF015D092B03D90601CF01BF
:103BBA005D093403D90602CF015D093D03D9060028
:103BCA00CA01C501C0014A046C035E0350037A03AB
:103BDA00FD05FF058000E00A000002040100DD0681
:103BEA00DF0600011E0C000001030100FB05FB04B7
:103BFA0000019A0C0000000201008B068D0650009D
:103C0A00BA0F000003000100EC01E7010001010105
:103C1A0000000000EF07BD07C6079F0733053C07F2
:103C2A00200565074108E206EA06FA083108330961
:103C3A005A086609A5089D09DD06EF097D08520A9A
:103C4A00930AC4080D0A006E616E00696E66006F01
:103C5A00766600000000004B195F161A199819ECD5
:063C6A00180619F818000D
:00000001FF
